:020000040000FA
:040000000DEF00F010
:04000800E6EF1EF011
:06001800FF0025EF1FF0C0
:07160000000240000300009E
:1016080007EC1FF0000E96EC1CF0D68E2C0E016E27
:101618003E0E026E77EC1FF0140E05018E6F846982
:10162800320E856F000E866F000E776F000E786F92
:10163800000E7A6F000E796F000E876F000E886FAC
:10164800000E896F000E8A6F000E6D6F000E6E6FB0
:10165800000E6F6F000E706F000E736F000E746FC8
:10166800000E756F000E766F000E626F000E616FD0
:10167800000E606F000E666F000E656F000E686FDB
:10168800000E676F000E6A6F000E696F000E6C6FB8
:10169800000E6B6F000E646F000E636F000E726FAA
:1016A800000E716FC09EC09ABE9AC096000E936FCE
:1016B800000E026E030E016E6AEC1FF0450AD8A4F4
:1016C80068EF0BF06AEF0BF08AEF0BF0000E026E7A
:1016D8000B0E016E6AEC1FF005018B6F000E026E97
:1016E8000C0E016E6AEC1FF005018C6F000E026E85
:1016F8000F0E016E6AEC1FF005018D6F000E026E71
:10170800110E016E6AEC1FF005018E6F000E026E5D
:10171800040E016E6AEC1FF0450AD8A496EF0BF090
:1017280098EF0BF0B8EF0BF0000E026E120E016E80
:101738006AEC1FF005017B6F000E026E130E016E3E
:101748006AEC1FF005017C6F000E026E140E016E2C
:101758006AEC1FF005017D6F000E026E150E016E1A
:101768006AEC1FF00501846F000E026E060E016E12
:101778006AEC1FF0450AD8A4C4EF0BF0C6EF0BF0D3
:10178800E6EF0BF0000E026E160E016E6AEC1FF00B
:1017980005017E6F000E026E180E016E6AEC1FF0D6
:1017A80005017F6F000E026E190E016E6AEC1FF0C4
:1017B8000501806F000E026E1B0E016E6AEC1FF0B1
:1017C8000501856F000E026E080E016E6AEC1FF0AF
:1017D800450AD8A4F2EF0BF0F4EF0BF014EF0CF07D
:1017E800000E026E1E0E016E6AEC1FF00501816F7D
:1017F800000E026E1F0E016E6AEC1FF00501826F6B
:10180800000E026E200E016E6AEC1FF00501836F58
:10181800000E026E220E016E6AEC1FF00501866F43
:10182800000E026E020E016E6AEC1FF0450AD8A483
:1018380020EF0CF022EF0CF0D3EF0CF0000E026E4C
:10184800240E016E6AEC1FF00501936F9305D8A46E
:1018580030EF0CF032EF0CF047EF0CF0000E026E98
:10186800030E016E6AEC1FF0450AD8A43EEF0CF097
:1018780040EF0CF047EF0CF0C08EA00E00D0E82E21
:10188800FDD752EF0CF005019305D8A44EEF0CF0EC
:1018980050EF0CF052EF0CF0000E936F020E0501A2
:1018A8009319D8A45AEF0CF05CEF0CF071EF0CF020
:1018B800000E026E040E016E6AEC1FF0450AD8A4F1
:1018C80068EF0CF06AEF0CF071EF0CF0C08AA00E14
:1018D80000D0E82EFDD77DEF0CF0020E050193191C
:1018E800D8A479EF0CF07BEF0CF07DEF0CF0000E34
:1018F800936F030E05019319D8A485EF0CF087EFB9
:101908000CF09CEF0CF0000E026E060E016E6AECF5
:101918001FF0450AD8A493EF0CF095EF0CF09CEF5C
:101928000CF0BE8AA00E00D0E82EFDD7A8EF0CF070
:10193800030E05019319D8A4A4EF0CF0A6EF0CF040
:10194800A8EF0CF0000E936F040E05019319D8A4AC
:10195800B0EF0CF0B2EF0CF0C7EF0CF0000E026E17
:10196800080E016E6AEC1FF0450AD8A4BEEF0CF011
:10197800C0EF0CF0C7EF0CF0C086A00E00D0E82E28
:10198800FDD7D3EF0CF0040E05019319D8A4CFEFBF
:101998000CF0D1EF0CF0D3EF0CF0000E936F000EAB
:1019A800026E140E016E7CEC1FF0000ED0BC010E0E
:1019B8000501776F000ECEB8010E786F000ED0B813
:1019C800010E7A6F000ECFBE010E796F89EC1FF001
:1019D800020E8FEC1EF001C51BF502C51CF51D6A31
:1019E8001E6A000E1F6E000E206E000E216E000E85
:1019F800226EFF0E236E0F0E246E000E256E000E53
:101A0800266E000E276E000E286E000E296E000E40
:101A18002A6EFF0E2B6E000E2C6E000E2D6E000E21
:101A28002E6E6DEC1DF01B5005018F6F89EC1FF0B9
:101A3800100E8FEC1EF001C51BF502C51CF51D6AC2
:101A48001E6A000E1F6E000E206E000E216E000E24
:101A5800226EFF0E236E0F0E246E000E256E000EF2
:101A6800266E000E276E000E286E000E296E000EE0
:101A78002A6EFF0E2B6E000E2C6E000E2D6E000EC1
:101A88002E6E6DEC1DF01B500501906F89EC1FF058
:101A9800110E8FEC1EF001C51BF502C51CF51D6A61
:101AA8001E6A000E1F6E000E206E000E216E000EC4
:101AB800226EFF0E236E0F0E246E000E256E000E92
:101AC800266E000E276E000E286E000E296E000E80
:101AD8002A6EFF0E2B6E000E2C6E000E2D6E000E61
:101AE8002E6E6DEC1DF01B500501916F89EC1FF0F7
:101AF800120E8FEC1EF001C51BF502C51CF51D6A00
:101B08001E6A000E1F6E000E206E000E216E000E63
:101B1800226EFF0E236E0F0E246E000E256E000E31
:101B2800266E000E276E000E286E000E296E000E1F
:101B38002A6EFF0E2B6E000E2C6E000E2D6E000E00
:101B48002E6E6DEC1DF01B500501926FF7EC1EF028
:101B5800CCEF1BF090C507F591C508F592C509F5BE
:101B68002C0E0A6E010E0B6E000E0C6E8F5169EC76
:101B78001EF0A00E00D0E82EFDD7D0BCC6EF0DF0A9
:101B8800C8EF0DF0F3EF0DF005017751D8B4CFEFA2
:101B98000DF0D1EF0DF0F3EF0DF08751D8A4D7EF8A
:101BA8000DF0D9EF0DF0F3EF0DF08851D8A4DFEF69
:101BB8000DF0E1EF0DF0F3EF0DF08951D8A4E7EF48
:101BC8000DF0E9EF0DF0F3EF0DF08A51D8A4EFEF27
:101BD8000DF0F1EF0DF0F3EF0DF0050E936FCEB8A9
:101BE800F8EF0DF0FAEF0DF025EF0EF00501785142
:101BF800D8B401EF0EF003EF0EF025EF0EF0875189
:101C0800D8A409EF0EF00BEF0EF025EF0EF0885177
:101C1800D8A411EF0EF013EF0EF025EF0EF0895156
:101C2800D8A419EF0EF01BEF0EF025EF0EF08A5135
:101C3800D8A421EF0EF023EF0EF025EF0EF0060EDC
:101C4800936FD0B82AEF0EF02CEF0EF057EF0EF08E
:101C580005017A51D8B433EF0EF035EF0EF057EF97
:101C68000EF08751D8A43BEF0EF03DEF0EF057EF82
:101C78000EF08851D8A443EF0EF045EF0EF057EF61
:101C88000EF08951D8A44BEF0EF04DEF0EF057EF40
:101C98000EF08A51D8A453EF0EF055EF0EF057EF1F
:101CA8000EF0070E936FCFBE5CEF0EF05EEF0EF0F6
:101CB80089EF0EF005017951D8B465EF0EF067EFA2
:101CC8000EF089EF0EF08751D8A46DEF0EF06FEF8C
:101CD8000EF089EF0EF08851D8A475EF0EF077EF6B
:101CE8000EF089EF0EF08951D8A47DEF0EF07FEF4A
:101CF8000EF089EF0EF08A51D8A485EF0EF087EF29
:101D08000EF089EF0EF0080E936F05018751D8A4E5
:101D180090EF0EF092EF0EF0AAEF0EF08851D8A4D3
:101D280098EF0EF09AEF0EF0AAEF0EF08951D8A4B2
:101D3800A0EF0EF0A2EF0EF0AAEF0EF08A51D8B481
:101D4800A8EF0EF0AAEF0EF0C3EF0EF0634B642B72
:101D5800F40E631906E16405D8A4B5EF0EF0B7EFE9
:101D68000EF0C3EF0EF0000E646F000E636F000EEE
:101D7800876F000E886F000E896F000E8A6F87517B
:101D8800D8B4C9EF0EF0CBEF0EF0E8EF0EF0722BDF
:101D98000C0E7219D8A4D3EF0EF0D5EF0EF0E8EFC1
:101DA8000EF0000E726FC0AEDCEF0EF0E0EF0EF03A
:101DB8002F6A2F2AE1EF0EF02F6A2F322F32C050F0
:101DC8002F187F0B2F18C06E05018851D8B4EFEF7C
:101DD8000EF0F1EF0EF00EEF0FF0722B0C0E7219E1
:101DE800D8A4F9EF0EF0FBEF0EF00EEF0FF0000E97
:101DF800726FC0AA02EF0FF006EF0FF02F6A2F2ABA
:101E080007EF0FF02F6A2F3A2F46C0502F18DF0B1D
:101E18002F18C06E05018951D8B415EF0FF017EFD0
:101E28000FF034EF0FF0722B0C0E7219D8A41FEFBD
:101E38000FF021EF0FF034EF0FF0000E726FBEAA13
:101E480028EF0FF02CEF0FF02F6A2F2A2DEF0FF04D
:101E58002F6A2F3A2F46BE502F18DF0B2F18BE6E51
:101E680005018A51D8B43BEF0FF03DEF0FF05BEF5F
:101E78000FF0722B0C0E7219D8A445EF0FF047EF34
:101E88000FF05BEF0FF0000E726FC0A64EEF0FF071
:101E980052EF0FF02F6A2F2A53EF0FF02F6A2F46B9
:101EA8002F462F46C0502F18F70B2F18C06E05016C
:101EB8008751D8A462EF0FF064EF0FF082EF0FF0B4
:101EC8008851D8A46AEF0FF06CEF0FF082EF0FF093
:101ED8008951D8A472EF0FF074EF0FF082EF0FF072
:101EE8008A51D8A47AEF0FF07CEF0FF082EF0FF051
:101EF800000E726FC09EC09ABE9AC0968751D8B421
:101F080088EF0FF08AEF0FF0CBEF0FF0D0BC8FEF18
:101F18000FF091EF0FF0CBEF0FF07751D8B497EFA8
:101F28000FF099EF0FF0CBEF0FF08FC58BF590C541
:101F38008CF591C58DF592C58EF5000E876F000E54
:101F4800026E0F0E016E8DC503F540EC1EF0000EFB
:101F5800026E0C0E016E8CC503F540EC1EF0000EEF
:101F6800026E0B0E016E8BC503F540EC1EF0000EE1
:101F7800026E110E016E8EC503F540EC1EF0000EC8
:101F8800026E030E016E450E036E40EC1EF0050155
:101F98008851D8B4D2EF0FF0D4EF0FF015EF10F04E
:101FA800CEB8D9EF0FF0DBEF0FF015EF10F0785146
:101FB800D8B4E1EF0FF0E3EF0FF015EF10F08FC595
:101FC8007BF590C57CF591C57DF592C584F5000E2D
:101FD800886F000E026E140E016E7DC503F540EC8D
:101FE8001EF0000E026E130E016E7CC503F540EC68
:101FF8001EF0000E026E120E016E7BC503F540EC5A
:102008001EF0000E026E150E016E84C503F540EC3D
:102018001EF0000E026E040E016E450E036E40ECBB
:102028001EF005018951D8B41CEF10F01EEF10F016
:102038005FEF10F0D0B823EF10F025EF10F05FEF4E
:1020480010F07A51D8B42BEF10F02DEF10F05FEFAD
:1020580010F08FC57EF590C57FF591C580F592C5C6
:1020680085F5000E896F000E026E190E016E80C58F
:1020780003F540EC1EF0000E026E180E016E7FC5CF
:1020880003F540EC1EF0000E026E160E016E7EC5C2
:1020980003F540EC1EF0000E026E1B0E016E85C5A6
:1020A80003F540EC1EF0000E026E060E016E450EA2
:1020B800036E40EC1EF005018A51D8B466EF10F0AB
:1020C80068EF10F0A9EF10F0CFBE6DEF10F06FEFD2
:1020D80010F0A9EF10F07951D8B475EF10F077EF40
:1020E80010F0A9EF10F08FC581F590C582F591C564
:1020F80083F592C586F5000E8A6F000E026E200EDB
:10210800016E83C503F540EC1EF0000E026E1F0E33
:10211800016E82C503F540EC1EF0000E026E1E0E25
:10212800016E81C503F540EC1EF0000E026E220E12
:10213800016E86C503F540EC1EF0000E026E080E17
:10214800016E450E036E40EC1EF0D0ACAEEF10F001
:10215800B0EF10F0B5EF10F0000E0501666F000E3D
:10216800656FCEA8BAEF10F0BCEF10F0C1EF10F019
:10217800000E0501686F000E676FD0A8C6EF10F05B
:10218800C8EF10F0CDEF10F0000E05016A6F000ED9
:10219800696FCFAED2EF10F0D4EF10F0D9EF0CF09A
:1021A800000E05016C6F000E6B6FD9EF0CF0D0AC10
:1021B800E0EF10F0E2EF10F005EF11F0C08E8CC5E3
:1021C80007F58DC508F58EC509F52C0E0A6E010EAA
:1021D8000B6E000E0C6E8B5169EC1EF0010E0501A2
:1021E800936F000E026E240E016E93C503F540EC4A
:1021F8001EF0000E026E020E016E450E036E40ECDC
:102208001EF0D0BC0AEF11F00CEF11F0D9EF0CF072
:102218000501654B662BFA0E65196611D8A417EFF0
:1022280011F019EF11F0D9EF0CF0000E666F000EE7
:10223800656F010E876F000E936F000E026E240EFD
:10224800016E93C503F540EC1EF0000E026E020EFF
:10225800016E450E036E40EC1EF0D9EF0CF0CEA8CF
:1022680038EF11F03AEF11F05DEF11F0C08A7CC53C
:1022780007F57DC508F584C509F52C0E0A6E010E13
:102288000B6E000E0C6E7B5169EC1EF0020E050100
:10229800936F000E026E240E016E93C503F540EC99
:1022A8001EF0000E026E020E016E450E036E40EC2B
:1022B8001EF0CEB862EF11F064EF11F0D9EF0CF018
:1022C8000501674B682BFA0E67196811D8A46FEFE0
:1022D80011F071EF11F0D9EF0CF0000E686F000EDD
:1022E800676F010E886F000E936F21EF11F0D0A871
:1022F80080EF11F082EF11F0A5EF11F0BE8A7FC5D3
:1023080007F580C508F585C509F52C0E0A6E010E7E
:102318000B6E000E0C6E7E5169EC1EF0030E05016B
:10232800936F000E026E240E016E93C503F540EC08
:102338001EF0000E026E020E016E450E036E40EC9A
:102348001EF0D0B8AAEF11F0ACEF11F0D9EF0CF0F5
:102358000501694B6A2BFA0E69196A11D8A4B7EFFF
:1023680011F0B9EF11F0D9EF0CF0000E6A6F000E02
:10237800696F010E896F000E936F21EF11F0CFAED8
:10238800C8EF11F0CAEF11F0EDEF11F0C08682C569
:1023980007F583C508F586C509F52C0E0A6E010EEA
:1023A8000B6E000E0C6E815169EC1EF0040E0501D7
:1023B800936F000E026E240E016E93C503F540EC78
:1023C8001EF0000E026E020E016E450E036E40EC0A
:1023D8001EF0CFBEF2EF11F0F4EF11F0D9EF0CF0D0
:1023E80005016B4B6C2BFA0E6B196C11D8A4FFEF1F
:1023F80011F001EF12F0D9EF0CF0000E6C6F000E27
:102408006B6F010E8A6F000E936F21EF11F0D0AC45
:1024180010EF12F012EF12F025EF12F0C09E000E2E
:10242800936F000E026E240E016E93C503F540EC07
:102438001EF0000E026E020E016E450E036E40EC99
:102448001EF0D0BC2AEF12F02CEF12F0D9EF0CF0EE
:102458000501654B662BFA0E65196611D8A437EF8E
:1024680012F039EF12F0D9EF0CF0000E666F000E83
:10247800656F010E6D6F010E936FD9EF0CF0CEA84A
:1024880048EF12F04AEF12F05DEF12F0C09A000E1A
:10249800936F000E026E240E016E93C503F540EC97
:1024A8001EF0000E026E020E016E450E036E40EC29
:1024B8001EF0CEB862EF12F064EF12F0D9EF0CF014
:1024C8000501674B682BFA0E67196811D8A46FEFDE
:1024D80012F071EF12F0D9EF0CF0000E686F000ED9
:1024E800676F010E6E6F020E936FD9EF0CF0D0A8D4
:1024F80080EF12F082EF12F095EF12F0BE9A000E04
:10250800936F000E026E240E016E93C503F540EC26
:102518001EF0000E026E020E016E450E036E40ECB8
:102528001EF0D0B89AEF12F09CEF12F0D9EF0CF031
:102538000501694B6A2BFA0E69196A11D8A4A7EF2D
:1025480012F0A9EF12F0D9EF0CF0000E6A6F000E2E
:10255800696F010E6F6F030E936FD9EF0CF0CFAE5A
:10256800B8EF12F0BAEF12F0CDEF12F0C096000EED
:10257800936F000E026E240E016E93C503F540ECB6
:102588001EF0000E026E020E016E450E036E40EC48
:102598001EF0CFBED2EF12F0D4EF12F0D9EF0CF04C
:1025A80005016B4B6C2BFA0E6B196C11D8A4DFEF7D
:1025B80012F0E1EF12F0D9EF0CF0000E6C6F000E84
:1025C8006B6F010E706F040E936FD9EF0CF08CC512
:1025D80007F58DC508F58EC509F52C0E0A6E010E96
:1025E8000B6E000E0C6E8B5169EC1EF005016D51DF
:1025F800D8B401EF13F003EF13F020EF13F0712BB1
:102608000C0E7119D8A40BEF13F00DEF13F020EF97
:1026180013F0000E716FC0AE14EF13F018EF13F043
:102628002F6A2F2A19EF13F02F6A2F322F32C0503A
:102638002F187F0B2F18C06ED0BC25EF13F027EF93
:1026480013F03AEF13F005017751D8B42EEF13F0D9
:1026580030EF13F03AEF13F06D51D8A436EF13F0C2
:1026680038EF13F03AEF13F0090E936FD0BC3FEF39
:1026780013F041EF13F085EF13F005017751D8B44B
:1026880048EF13F04AEF13F085EF13F06D51D8B40B
:1026980050EF13F052EF13F085EF13F0C08E000ED9
:1026A8006D6F000E736F000E746F000E756F000E65
:1026B800766F000E026E0F0E016E8DC503F540ECAD
:1026C8001EF0000E026E0C0E016E8CC503F540EC78
:1026D8001EF0000E026E0B0E016E8BC503F540EC6A
:1026E8001EF0000E026E110E016E8EC503F540EC51
:1026F8001EF0000E026E030E016E450E036E40ECD6
:102708001EF005016D51D8B48CEF13F08EEF13F065
:1027180096EF14F0FB0E2F6EFF0E306E8B51316E5C
:10272800326A2F503126305032228F51336E346A3C
:102738003150335C3450800A356E3250800A355837
:10274800D8A0A9EF13F0ABEF13F0C6EF13F08F5139
:102758002F6E306A8B51316E326A050E3126000EAB
:1027680032222F50315C3250800A336E3050800A4A
:102778003358D8A0C2EF13F0C4EF13F0C6EF13F02C
:10278800010E736F7351D8B4CCEF13F0CEEF13F082
:10279800D0EF13F08FC58BF5FB0E2F6EFF0E306E4A
:1027A8008E51316E326A2F5031263050322292517A
:1027B800336E346A3150335C3450800A356E32508F
:1027C800800A3558D8A0EBEF13F0EDEF13F008EFBF
:1027D80014F092512F6E306A8E51316E326A050EA6
:1027E8003126000E32222F50315C3250800A336E6F
:1027F8003050800A3358D8A004EF14F006EF14F0D4
:1028080008EF14F0010E766F7651D8B40EEF14F07D
:1028180010EF14F012EF14F092C58EF5FB0E2F6E28
:10282800FF0E306E8C51316E326A2F503126305087
:1028380032229051336E346A3150335C3450800AFE
:10284800356E3250800A3558D8A02DEF14F02FEF8E
:1028580014F04AEF14F090512F6E306A8C51316E9B
:10286800326A050E3126000E32222F50315C32506A
:10287800800A336E3050800A3358D8A046EF14F0DF
:1028880048EF14F04AEF14F0010E746F7451D8B485
:1028980050EF14F052EF14F054EF14F090C58CF58B
:1028A800FB0E2F6EFF0E306E8D51316E326A2F5037
:1028B8003126305032229151336E346A3150335CB4
:1028C8003450800A356E3250800A3558D8A06FEFE0
:1028D80014F071EF14F08CEF14F091512F6E306AF0
:1028E8008D51316E326A050E3126000E32222F507C
:1028F800315C3250800A336E3050800A3358D8A089
:1029080088EF14F08AEF14F08CEF14F0010E756F55
:102918007551D8B492EF14F094EF14F096EF14F0C8
:1029280091C58DF5CEB89BEF14F09DEF14F0C9EF6B
:1029380014F07851D8B4A3EF14F0A5EF14F0C9EF50
:1029480014F0C09EC08A7CC507F57DC508F584C50E
:1029580009F52C0E0A6E010E0B6E000E0C6E7B51E3
:1029680069EC1EF0020E0501936F000E026E240E34
:10297800016E93C503F540EC1EF0000E026E020EC8
:10298800016E450E036E40EC1EF0D0B8CEEF14F089
:10299800D0EF14F0FDEF14F005017A51D8B4D7EF59
:1029A80014F0D9EF14F0FDEF14F0C09EBE8A7FC575
:1029B80007F580C508F585C509F52C0E0A6E010EC8
:1029C8000B6E000E0C6E7E5169EC1EF0030E0501B5
:1029D800936F000E026E240E016E93C503F540EC52
:1029E8001EF0000E026E020E016E450E036E40ECE4
:1029F8001EF0CFBE02EF15F004EF15F0D9EF0CF082
:102A080005017951D8B40BEF15F00DEF15F0D9EF9A
:102A18000CF0C09EC08682C507F583C508F586C53B
:102A280009F52C0E0A6E010E0B6E000E0C6E81510C
:102A380069EC1EF0040E0501936F21EF11F07CC5BF
:102A480007F57DC508F584C509F52C0E0A6E010E3B
:102A58000B6E000E0C6E7B5169EC1EF005016E5179
:102A6800D8B439EF15F03BEF15F058EF15F0712B8E
:102A78000C0E7119D8A443EF15F045EF15F058EF77
:102A880015F0000E716FC0AA4CEF15F050EF15F05D
:102A98002F6A2F2A51EF15F02F6A2F3A2F46C05070
:102AA8002F18DF0B2F18C06ECEB85DEF15F05FEF53
:102AB80015F072EF15F005017851D8B466EF15F0EE
:102AC80068EF15F072EF15F06E51D8A46EEF15F09F
:102AD80070EF15F072EF15F00A0E936FCEB877EF1E
:102AE80015F079EF15F0BDEF15F005017851D8B460
:102AF80080EF15F082EF15F0BDEF15F06E51D8B4E8
:102B080088EF15F08AEF15F0BDEF15F0C08A000EBA
:102B18006E6F000E736F000E746F000E756F000EEF
:102B2800766F000E026E140E016E8DC503F540EC33
:102B38001EF0000E026E130E016E8CC503F540ECFC
:102B48001EF0000E026E120E016E8BC503F540ECEE
:102B58001EF0000E026E150E016E8EC503F540ECD8
:102B68001EF0000E026E040E016E450E036E40EC60
:102B78001EF005016E51D8B4C4EF15F0C6EF15F07C
:102B8800CEEF16F0FB0E2F6EFF0E306E7B51316EBE
:102B9800326A2F503126305032228F51336E346AC8
:102BA8003150335C3450800A356E3250800A3558C3
:102BB800D8A0E1EF15F0E3EF15F0FEEF15F08F5117
:102BC8002F6E306A7B51316E326A050E3126000E47
:102BD80032222F50315C3250800A336E3050800AD6
:102BE8003358D8A0FAEF15F0FCEF15F0FEEF15F00A
:102BF800010E736F7351D8B404EF16F006EF16F098
:102C080008EF16F08FC57BF5FB0E2F6EFF0E306EAA
:102C18008451316E326A2F5031263050322292510F
:102C2800336E346A3150335C3450800A356E32501A
:102C3800800A3558D8A023EF16F025EF16F040EF9C
:102C480016F092512F6E306A8451316E326A050E39
:102C58003126000E32222F50315C3250800A336EFA
:102C68003050800A3358D8A03CEF16F03EEF16F0EB
:102C780040EF16F0010E766F7651D8B446EF16F095
:102C880048EF16F04AEF16F092C584F5FB0E2F6E4A
:102C9800FF0E306E7C51316E326A2F503126305023
:102CA80032229051336E346A3150335C3450800A8A
:102CB800356E3250800A3558D8A065EF16F067EFA8
:102CC80016F082EF16F090512F6E306A7C51316EFB
:102CD800326A050E3126000E32222F50315C3250F6
:102CE800800A336E3050800A3358D8A07EEF16F031
:102CF80080EF16F082EF16F0010E746F7451D8B49D
:102D080088EF16F08AEF16F08CEF16F090C57CF578
:102D1800FB0E2F6EFF0E306E7D51316E326A2F50D2
:102D28003126305032229151336E346A3150335C3F
:102D38003450800A356E3250800A3558D8A0A7EF33
:102D480016F0A9EF16F0C4EF16F091512F6E306A05
:102D58007D51316E326A050E3126000E32222F5017
:102D6800315C3250800A336E3050800A3358D8A014
:102D7800C0EF16F0C2EF16F0C4EF16F0010E756F33
:102D88007551D8B4CAEF16F0CCEF16F0CEEF16F0A6
:102D980091C57DF5D0BCD3EF16F0D5EF16F001EF55
:102DA80017F07751D8B4DBEF16F0DDEF16F001EF2E
:102DB80017F0C09AC08E8CC507F58DC508F58EC56D
:102DC80009F52C0E0A6E010E0B6E000E0C6E8B515F
:102DD80069EC1EF0010E0501936F000E026E240EC1
:102DE800016E93C503F540EC1EF0000E026E020E54
:102DF800016E450E036E40EC1EF0D0B806EF17F0DA
:102E080008EF17F035EF17F005017A51D8B40FEF36
:102E180017F011EF17F035EF17F0C09ABE8A7FC58B
:102E280007F580C508F585C509F52C0E0A6E010E53
:102E38000B6E000E0C6E7E5169EC1EF0030E050140
:102E4800936F000E026E240E016E93C503F540ECDD
:102E58001EF0000E026E020E016E450E036E40EC6F
:102E68001EF0CFBE3AEF17F03CEF17F0D9EF0CF099
:102E780005017951D8B443EF17F045EF17F0D9EFB2
:102E88000CF0C09AC08682C507F583C508F586C5CB
:102E980009F52C0E0A6E010E0B6E000E0C6E815198
:102EA80069EC1EF01EEF15F07FC507F580C508F523
:102EB80085C509F52C0E0A6E010E0B6E000E0C6E00
:102EC8007E5169EC1EF005016F51D8B46EEF17F012
:102ED80070EF17F08DEF17F0712B0C0E7119D8A445
:102EE80078EF17F07AEF17F08DEF17F0000E716F8B
:102EF800BEAA81EF17F085EF17F02F6A2F2A86EF09
:102F080017F02F6A2F3A2F46BE502F18DF0B2F18B5
:102F1800BE6ED0B892EF17F094EF17F0A7EF17F046
:102F280005017A51D8B49BEF17F09DEF17F0A7EF82
:102F380017F06F51D8A4A3EF17F0A5EF17F0A7EF7C
:102F480017F00B0E936FD0B8ACEF17F0AEEF17F089
:102F5800F2EF17F005017A51D8B4B5EF17F0B7EFD3
:102F680017F0F2EF17F06F51D8B4BDEF17F0BFEFBD
:102F780017F0F2EF17F0BE8A000E6F6F000E736F36
:102F8800000E746F000E756F000E766F000E026EE5
:102F9800190E016E8DC503F540EC1EF0000E026E91
:102FA800180E016E8CC503F540EC1EF0000E026E83
:102FB800160E016E8BC503F540EC1EF0000E026E76
:102FC8001B0E016E8EC503F540EC1EF0000E026E5E
:102FD800060E016E450E036E40EC1EF0000ED0B8D2
:102FE800010E05017A6F6F51D8B4FDEF17F0FFEFAE
:102FF80017F007EF19F0FB0E2F6EFF0E306E7E51A3
:10300800316E326A2F503126305032228F51336E52
:10301800346A3150335C3450800A356E3250800A3D
:103028003558D8A01AEF18F01CEF18F037EF18F041
:103038008F512F6E306A7E51316E326A050E3126FD
:10304800000E32222F50315C3250800A336E3050DD
:10305800800A3358D8A033EF18F035EF18F037EF5F
:1030680018F0010E736F7351D8B43DEF18F03FEFAD
:1030780018F041EF18F08FC57EF5FB0E2F6EFF0E8E
:10308800306E8551316E326A2F50312630503222DF
:103098009251336E346A3150335C3450800A356E45
:1030A8003250800A3558D8A05CEF18F05EEF18F05F
:1030B80079EF18F092512F6E306A8551316E326A6D
:1030C800050E3126000E32222F50315C3250800A14
:1030D800336E3050800A3358D8A075EF18F077EF68
:1030E80018F079EF18F0010E766F7651D8B47FEFAB
:1030F80018F081EF18F083EF18F092C585F5FB0EF4
:103108002F6EFF0E306E7F51316E326A2F5031268E
:10311800305032229051336E346A3150335C34501F
:10312800800A356E3250800A3558D8A09EEF18F0C4
:10313800A0EF18F0BBEF18F090512F6E306A7F5156
:10314800316E326A050E3126000E32222F50315C64
:103158003250800A336E3050800A3358D8A0B7EF07
:1031680018F0B9EF18F0BBEF18F0010E746F745136
:10317800D8B4C1EF18F0C3EF18F0C5EF18F090C538
:103188007FF5FB0E2F6EFF0E306E8051316E326A66
:103198002F503126305032229151336E346A3150DB
:1031A800335C3450800A356E3250800A3558D8A0C6
:1031B800E0EF18F0E2EF18F0FDEF18F091512F6EE4
:1031C800306A8051316E326A050E3126000E322285
:1031D8002F50315C3250800A336E3050800A335899
:1031E800D8A0F9EF18F0FBEF18F0FDEF18F0010E7A
:1031F800756F7551D8B403EF19F005EF19F007EFA3
:1032080019F091C580F5D0BC0CEF19F00EEF19F04C
:103218003AEF19F07751D8B414EF19F016EF19F006
:103228003AEF19F0BE9AC08E8CC507F58DC508F522
:103238008EC509F52C0E0A6E010E0B6E000E0C6E73
:103248008B5169EC1EF0010E0501936F000E026EA2
:10325800240E016E93C503F540EC1EF0000E026EBD
:10326800020E016E450E036E40EC1EF0CEB83FEF25
:1032780019F041EF19F06EEF19F005017851D8B443
:1032880048EF19F04AEF19F06EEF19F0BE9AC08AAC
:103298007CC507F57DC508F584C509F52C0E0A6EB1
:1032A800010E0B6E000E0C6E7B5169EC1EF0020EC7
:1032B8000501936F000E026E240E016E93C503F58F
:1032C80040EC1EF0000E026E020E016E450E036EFB
:1032D80040EC1EF0CFBE73EF19F075EF19F0A2EFB6
:1032E80019F005017951D8B47CEF19F07EEF19F087
:1032F800A2EF19F0BE9AC08682C507F583C508F506
:1033080086C509F52C0E0A6E010E0B6E000E0C6EAA
:10331800815169EC1EF0040E0501936F000E026ED8
:10332800240E016E93C503F540EC1EF0000E026EEC
:10333800020E016E450E036E40EC1EF082C507F5C5
:1033480083C508F586C509F52C0E0A6E010E0B6EAD
:10335800000E0C6E0501815169EC1EF005017051DB
:10336800D8B4B9EF19F0BBEF19F0D9EF19F0712BF8
:103378000C0E7119D8A4C3EF19F0C5EF19F0D9EFE5
:1033880019F0000E716FC0A6CCEF19F0D0EF19F04C
:103398002F6A2F2AD1EF19F02F6A2F462F462F4672
:1033A800C0502F18F70B2F18C06ECFBEDEEF19F0E4
:1033B800E0EF19F0F3EF19F005017951D8B4E7EF10
:1033C80019F0E9EF19F0F3EF19F07051D8A4EFEF05
:1033D80019F0F1EF19F0F3EF19F00C0E936FCFBE5F
:1033E800F8EF19F0FAEF19F03EEF1AF005017951EC
:1033F800D8B401EF1AF003EF1AF03EEF1AF070514B
:10340800D8B409EF1AF00BEF1AF03EEF1AF0C086A5
:10341800000E706F000E736F000E746F000E756FE4
:10342800000E766F000E026E200E016E8DC503F53C
:1034380040EC1EF0000E026E1F0E016E8CC503F5E7
:1034480040EC1EF0000E026E1E0E016E8BC503F5D9
:1034580040EC1EF0000E026E220E016E8EC503F5C2
:1034680040EC1EF0000E026E080E016E450E036E53
:1034780040EC1EF005017051D8B445EF1AF047EF43
:103488001AF04FEF1BF0FB0E2F6EFF0E306E8151BE
:10349800316E326A2F503126305032228F51336EBE
:1034A800346A3150335C3450800A356E3250800AA9
:1034B8003558D8A062EF1AF064EF1AF07FEF1AF0CF
:1034C8008F512F6E306A8151316E326A050E312666
:1034D800000E32222F50315C3250800A336E305049
:1034E800800A3358D8A07BEF1AF07DEF1AF07FEFEF
:1034F8001AF0010E736F7351D8B485EF1AF087EF85
:103508001AF089EF1AF08FC581F5FB0E2F6EFF0EAA
:10351800306E8651316E326A2F5031263050322249
:103528009251336E346A3150335C3450800A356EB0
:103538003250800A3558D8A0A4EF1AF0A6EF1AF036
:10354800C1EF1AF092512F6E306A8651316E326A8D
:10355800050E3126000E32222F50315C3250800A7F
:10356800336E3050800A3358D8A0BDEF1AF0BFEF41
:103578001AF0C1EF1AF0010E766F7651D8B4C7EF82
:103588001AF0C9EF1AF0CBEF1AF092C586F5FB0EC8
:103598002F6EFF0E306E8251316E326A2F503126F7
:1035A800305032229051336E346A3150335C34508B
:1035B800800A356E3250800A3558D8A0E6EF1AF0E6
:1035C800E8EF1AF003EF1BF090512F6E306A82512A
:1035D800316E326A050E3126000E32222F50315CD0
:1035E8003250800A336E3050800A3358D8A0FFEF2B
:1035F8001AF001EF1BF003EF1BF0010E746F74510A
:10360800D8B409EF1BF00BEF1BF00DEF1BF090C5C2
:1036180082F5FB0E2F6EFF0E306E8351316E326ACB
:103628002F503126305032229151336E346A315046
:10363800335C3450800A356E3250800A3558D8A031
:1036480028EF1BF02AEF1BF045EF1BF091512F6E6E
:10365800306A8351316E326A050E3126000E3222ED
:103668002F50315C3250800A336E3050800A335804
:10367800D8A041EF1BF043EF1BF045EF1BF0010E04
:10368800756F7551D8B44BEF1BF04DEF1BF04FEF32
:103698001BF091C583F5D0BC54EF1BF056EF1BF01F
:1036A80072EF1BF07751D8B45CEF1BF05EEF1BF0A4
:1036B80072EF1BF0C096C08E010E936F000E026E63
:1036C800240E016E93C503F540EC1EF0000E026E49
:1036D800020E016E450E036E40EC1EF0CEB877EF79
:1036E8001BF079EF1BF0A6EF1BF005017851D8B459
:1036F80080EF1BF082EF1BF0A6EF1BF0C096C08A8C
:103708007CC507F57DC508F584C509F52C0E0A6E3C
:10371800010E0B6E000E0C6E7B5169EC1EF0020E52
:103728000501936F000E026E240E016E93C503F51A
:1037380040EC1EF0000E026E020E016E450E036E86
:1037480040EC1EF0D0B8ABEF1BF0ADEF1BF0D9EF9B
:103758000CF005017A51D8B4B4EF1BF0B6EF1BF0AA
:10376800D9EF0CF0C096BE8A7FC507F580C508F56D
:1037780085C509F52C0E0A6E010E0B6E000E0C6E37
:103788007E5169EC1EF0030E0501936F21EF11F0D5
:10379800050193512F6E306A3050000AD8B4D7EF24
:1037A8001BF0D9EF0CF02F50000AD8B4AEEF0DF093
:1037B800010AD8B4EBEF12F0030AD8B423EF15F0DE
:1037C800010AD8B458EF17F0070AD8B4A2EF19F0D5
:1037D800010AD8B4DBEF10F0030AD8B433EF11F0C4
:1037E800010AD8B47BEF11F00F0AD8B4C3EF11F077
:1037F800010AD8B40BEF12F0030AD8B443EF12F061
:10380800010AD8B47BEF12F0070AD8B4B3EF12F06C
:10381800D9EF0CF00DEF00F0000E166E14BE19EF84
:103828001CF017EF1CF023EF1CF0141E131E121EC1
:10383800116C000E122213221422010E166E10BEF5
:103848002AEF1CF028EF1CF034EF1CF0101E0F1E9E
:103858000E1E0D6C000E0E220F221022010E161ADB
:10386800000E176E000E186E000E196E000E1A6EFE
:103878001150121013101410D8B445EF1CF047EF74
:103888001CF07DEF1CF0010E156E51EF1CF0D89066
:103898001136123613361436152A14AE56EF1CF0AC
:1038A80058EF1CF04BEF1CF0D89017361836193625
:1038B8001A3611500D5C12500E5813500F581450F0
:1038C8001058D8A06AEF1CF06CEF1CF075EF1CF0D4
:1038D80011500D5E12500E5A13500F5A1450105AB0
:1038E8001780D8901432133212321132152E58EF35
:1038F8001CF01650D8B483EF1CF085EF1CF08DEF48
:103908001CF01A1E191E181E176C000E18221922F8
:103918001A2217C50DF518C50EF519C50FF51AC5E4
:1039280010F51200026E000184BF9DEF1CF09FEF9E
:103938001CF002EF1DF00250050D010EF324F66E87
:10394800160EF420F76EF86A000EF8220800F5C487
:1039580084F00250050D010EF326000EF422010E2C
:10396800F324F66E160EF420F76EF86A000EF822AD
:103978000800F5C485F00250050D020EF326000E6E
:10398800F422010EF324F66E160EF420F76EF86A90
:10399800000EF8220800F5500309866F000E8C6FA0
:1039A8000250050D030EF326000EF422010EF32437
:1039B800F66E160EF420F76EF86A000EF82208006C
:1039C800F5C489F00250050D040EF326000EF4220A
:1039D800010EF324F66E160EF420F76EF86A000E48
:1039E800F82208006100D4F301F5013A01460146C6
:1039F800C7500118BF0B0118C76E848F1200026EE2
:103A080002AE09EF1DF00BEF1DF00FEF1DF085EC76
:103A18001FF011EF1DF081EC1FF002AC16EF1DF046
:103A280018EF1DF01CEF1DF085EC1FF01EEF1DF0C8
:103A380081EC1FF002AA23EF1DF025EF1DF029EFFE
:103A48001DF085EC1FF02BEF1DF081EC1FF002A894
:103A580030EF1DF032EF1DF036EF1DF085EC1FF052
:103A680038EF1DF081EC1FF002A63DEF1DF03FEF8F
:103A78001DF043EF1DF085EC1FF045EF1DF081ECC4
:103A88001FF002A44AEF1DF04CEF1DF050EF1DF09F
:103A980085EC1FF052EF1DF081EC1FF002A257EFEA
:103AA8001DF059EF1DF05DEF1DF085EC1FF05FEF85
:103AB8001DF081EC1FF002A064EF1DF066EF1DF011
:103AC8006AEF1DF085EC1FF06CEF1DF081EC1FF024
:103AD80012001F501B5C016E20501C58026E2150B2
:103AE8001D58036E22501E58046E27502B5C056E1D
:103AF80028502C58066E29502D58076E2A502E58DB
:103B0800086EAAEC1DF001C50DF502C50EF503C53A
:103B18000FF504C510F51F50235C116E2050245872
:103B2800126E21502558136E22502658146E10EC30
:103B38001CF027500D241B6E28500E201C6E295097
:103B48000F201D6E2A5010201E6E1200000E096EE6
:103B5800000E0A6E000E0B6E000E0C6E01A0B7EF81
:103B68001DF0B9EF1DF0C1EF1DF0055009260650F4
:103B78000A2207500B2208500C22D8900536063628
:103B880007360836D8900432033202320132015027
:103B9800021003100410D8A4D4EF1DF0D6EF1DF0C6
:103BA800B2EF1DF009C501F50AC502F50BC503F50D
:103BB8000CC504F51200000EBE6E000EBF6E000E9E
:103BC800C06E1F0EC66EA00EC76E570EC86EAF0E23
:103BD8000401106F000E086F070E006F800E096F4A
:103BE800100E016F500E116F000E026F000E0A6F5B
:103BF800000E126F370E036FF00E0B6F13693F0E36
:103C0800046FF00E0C6F14690E0E02016A6F1B0E22
:103C18000F6F1C0E0D6F0D0E6B6F1200000E03015F
:103C2800D96F000EDA6F000EDB6F000EDC6F000E2E
:103C3800DF6F000EE06F000EE56F000EE76F000EFD
:103C4800EC6F000EEE6F000EEF6F000EF06F000EBF
:103C5800F16F000EF26F000EF46F100EF56F000E8C
:103C6800F66F000EF76F000EF86F000EF96F1F0E5B
:103C7800FA6F840EF36F1200000ED6BE010E046EAA
:103C8800380E0001456F0250446F610004F443F0A0
:103C980061000CF446F04151F80B0309416FD69EC0
:103CA800550E426FAA0E426F408140B15EEF1EF082
:103CB80060EF1EF059EF1EF004B002D0D69E01D07E
:103CC800D68EF80E0001411712000D6E000E0E6E12
:103CD800000E0F6E000E106E81EF1EF007C503F583
:103CE80008C504F509C505F50D504FEC1FF0010E88
:103CF8000E26000E0F22000E10220E500A5C0F50E6
:103D08000B5810500C58D8B08CEF1EF08EEF1EF0E8
:103D180072EF1EF01200056E610014F4ECF303015B
:103D2800F38FF39DF381F3B19CEF1EF09EEF1EF02D
:103D380097EF1EF0EB51046E036AEA510324016EFB
:103D4800000E0420026E1200030E0301206F000E05
:103D58001F6F000E216FF90E1D6F000E1C6FB696B7
:103D6800AB86260E016E3F0E026E77EC1FF0F10E49
:103D780003011E6F12003A503B10D8B4C6EF1EF074
:103D8800C8EF1EF0D4EF1EF002D8D4EF1EF00500E5
:103D9800FA6E3A50FD6E3B50FE6EFF6AFA50120002
:103DA8001200016E010E0001826F610004F481F0BF
:103DB800B6A0E1EF1EF0E3EF1EF0DCEF1EF000010D
:103DC80080511200ABA6EBEF1EF0EDEF1EF0F6EF00
:103DD8001EF0B6A6F2EF1EF0F4EF1EF0F6EF1EF09E
:103DE8008DEC1FF011003650385C37503958D8A088
:103DF80000EF1FF002EF1FF0F7EF1EF0000E396E14
:103E0800000E386E120091EC1FF033EC1FF0DFEC5F
:103E18001DF041EC1FF012EC1EF0A8EC1EF05DEC5A
:103E28001FF01200100E381809E1270E3918D8B4FF
:103E380020EF1FF022EF1FF024EF1FF0384A392A35
:103E48001200396A386A376A366A0401080E5D6FEB
:103E5800000E5E6F000E5F6F000104EF0BF0000EA6
:103E68000001636F000E646F000E656F000E666FD1
:103E7800000E676F000E686F1200600E0001AD6FD4
:103E8800000EAF6F000EB36F080EB16F000EB06F6B
:103E9800000EAC6F1200066E035003EC1DF00650C6
:103EA80003EC1DF0045003EC1DF0055003EC1DF06D
:103EB8001200020E0001846F400E856F000E866F9F
:103EC800000E8C6F030E896FC79C1200380E00011C
:103ED800456F0250446F610004F443F0F80E411737
:103EE80040814651120001C53AF502C53BF5120062
:103EF80001C536F502C537F51200C00ED5EC1EF027
:103F08001200F00ED5EC1EF012003B0E0301EC6F10
:103F18001200B696BFEC1EF01200D69A12001200DC
:020000040020DA
:10000000FF0FFF0FFF0FFF0FFF0FFF0FFF0FFF0F80
:10001000FF0FFF0FFF0FFF0FFF0FFF0FFF0FFF0F70
:020000040030CA
:0A0000008CFFF7FF9FFFFFFFFFFFDB
:00000001FF
