:040000000DEF00F010
:040008000FEF1FF0E7
:06001800FF004EEF1FF097
:07160000000240000300009E
:1016080030EC1FF0000EBFEC1CF0D68E7E0E016E83
:101618003E0E026EA0EC1FF0140E05018E6F886955
:10162800320E896F000E8A6F000E776F000E786F8A
:10163800000E7A6F000E796F000E846F000E856FB2
:10164800000E866F000E876F000E6D6F000E6E6FB6
:10165800000E6F6F000E706F000E736F000E746FC8
:10166800000E756F000E766F000E626F000E616FD0
:10167800000E606F000E666F000E656F000E686FDB
:10168800000E676F000E6A6F000E696F000E6C6FB8
:10169800000E6B6F000E646F000E636F000E726FAA
:1016A800000E716FC09EC09ABE9AC096000E936FCE
:1016B800000E026E030E016E93EC1FF0450AD8A4CB
:1016C80068EF0BF06AEF0BF08AEF0BF0000E026E7A
:1016D8000B0E016E93EC1FF005018B6F000E026E6E
:1016E8000C0E016E93EC1FF005018C6F000E026E5C
:1016F8000F0E016E93EC1FF005018D6F000E026E48
:10170800110E016E93EC1FF005018E6F000E026E34
:10171800040E016E93EC1FF0450AD8A496EF0BF067
:1017280098EF0BF0B8EF0BF0000E026E120E016E80
:1017380093EC1FF005017B6F000E026E130E016E15
:1017480093EC1FF005017C6F000E026E140E016E03
:1017580093EC1FF005017D6F000E026E150E016EF1
:1017680093EC1FF00501886F000E026E060E016EE5
:1017780093EC1FF0450AD8A4C4EF0BF0C6EF0BF0AA
:10178800E6EF0BF0000E026E160E016E93EC1FF0E2
:1017980005017E6F000E026E180E016E93EC1FF0AD
:1017A80005017F6F000E026E190E016E93EC1FF09B
:1017B8000501806F000E026E1B0E016E93EC1FF088
:1017C8000501896F000E026E080E016E93EC1FF082
:1017D800450AD8A4F2EF0BF0F4EF0BF014EF0CF07D
:1017E800000E026E1E0E016E93EC1FF00501816F54
:1017F800000E026E1F0E016E93EC1FF00501826F42
:10180800000E026E200E016E93EC1FF00501836F2F
:10181800000E026E220E016E93EC1FF005018A6F16
:10182800000E026E020E016E93EC1FF0450AD8A45A
:1018380020EF0CF022EF0CF0D3EF0CF0000E026E4C
:10184800240E016E93EC1FF00501936F9305D8A445
:1018580030EF0CF032EF0CF047EF0CF0000E026E98
:10186800030E016E93EC1FF0450AD8A43EEF0CF06E
:1018780040EF0CF047EF0CF0C08EA00E00D0E82E21
:10188800FDD752EF0CF005019305D8A44EEF0CF0EC
:1018980050EF0CF052EF0CF0000E936F020E0501A2
:1018A8009319D8A45AEF0CF05CEF0CF071EF0CF020
:1018B800000E026E040E016E93EC1FF0450AD8A4C8
:1018C80068EF0CF06AEF0CF071EF0CF0C08AA00E14
:1018D80000D0E82EFDD77DEF0CF0020E050193191C
:1018E800D8A479EF0CF07BEF0CF07DEF0CF0000E34
:1018F800936F030E05019319D8A485EF0CF087EFB9
:101908000CF09CEF0CF0000E026E060E016E93ECCC
:101918001FF0450AD8A493EF0CF095EF0CF09CEF5C
:101928000CF0BE8AA00E00D0E82EFDD7A8EF0CF070
:10193800030E05019319D8A4A4EF0CF0A6EF0CF040
:10194800A8EF0CF0000E936F040E05019319D8A4AC
:10195800B0EF0CF0B2EF0CF0C7EF0CF0000E026E17
:10196800080E016E93EC1FF0450AD8A4BEEF0CF0E8
:10197800C0EF0CF0C7EF0CF0C086A00E00D0E82E28
:10198800FDD7D3EF0CF0040E05019319D8A4CFEFBF
:101998000CF0D1EF0CF0D3EF0CF0000E936F000EAB
:1019A800026E0A0E016EA5EC1FF0000ED0BC010EEF
:1019B8000501776F000ECEB8010E786F000ED0B813
:1019C800010E7A6F000ECFBE010E796FB2EC1FF0D8
:1019D800020EB8EC1EF001C51BF502C51CF51D6A08
:1019E8001E6A000E1F6E000E206E000E216E000E85
:1019F800226EFF0E236E0F0E246E000E256E000E53
:101A0800266E000E276E000E286E000E296E000E40
:101A18002A6EFF0E2B6E000E2C6E000E2D6E000E21
:101A28002E6E96EC1DF01B5005018F6FB2EC1FF067
:101A3800100EB8EC1EF001C51BF502C51CF51D6A99
:101A48001E6A000E1F6E000E206E000E216E000E24
:101A5800226EFF0E236E0F0E246E000E256E000EF2
:101A6800266E000E276E000E286E000E296E000EE0
:101A78002A6EFF0E2B6E000E2C6E000E2D6E000EC1
:101A88002E6E96EC1DF01B500501906FB2EC1FF006
:101A9800110EB8EC1EF001C51BF502C51CF51D6A38
:101AA8001E6A000E1F6E000E206E000E216E000EC4
:101AB800226EFF0E236E0F0E246E000E256E000E92
:101AC800266E000E276E000E286E000E296E000E80
:101AD8002A6EFF0E2B6E000E2C6E000E2D6E000E61
:101AE8002E6E96EC1DF01B500501916FB2EC1FF0A5
:101AF800120EB8EC1EF001C51BF502C51CF51D6AD7
:101B08001E6A000E1F6E000E206E000E216E000E63
:101B1800226EFF0E236E0F0E246E000E256E000E31
:101B2800266E000E276E000E286E000E296E000E1F
:101B38002A6EFF0E2B6E000E2C6E000E2D6E000E00
:101B48002E6E96EC1DF01B500501926F20EC1FF0D5
:101B5800F5EF1BF090C507F591C508F592C509F595
:101B6800030E0A6E000E0B6E000E0C6E8F5192EC77
:101B78001EF0A00E00D0E82EFDD7D0BCC6EF0DF0A9
:101B8800C8EF0DF0F3EF0DF005017751D8B4CFEFA2
:101B98000DF0D1EF0DF0F3EF0DF08451D8A4D7EF8D
:101BA8000DF0D9EF0DF0F3EF0DF08551D8A4DFEF6C
:101BB8000DF0E1EF0DF0F3EF0DF08651D8A4E7EF4B
:101BC8000DF0E9EF0DF0F3EF0DF08751D8A4EFEF2A
:101BD8000DF0F1EF0DF0F3EF0DF0050E936FCEB8A9
:101BE800F8EF0DF0FAEF0DF025EF0EF00501785142
:101BF800D8B401EF0EF003EF0EF025EF0EF084518C
:101C0800D8A409EF0EF00BEF0EF025EF0EF085517A
:101C1800D8A411EF0EF013EF0EF025EF0EF0865159
:101C2800D8A419EF0EF01BEF0EF025EF0EF0875138
:101C3800D8A421EF0EF023EF0EF025EF0EF0060EDC
:101C4800936FD0B82AEF0EF02CEF0EF057EF0EF08E
:101C580005017A51D8B433EF0EF035EF0EF057EF97
:101C68000EF08451D8A43BEF0EF03DEF0EF057EF85
:101C78000EF08551D8A443EF0EF045EF0EF057EF64
:101C88000EF08651D8A44BEF0EF04DEF0EF057EF43
:101C98000EF08751D8A453EF0EF055EF0EF057EF22
:101CA8000EF0070E936FCFBE5CEF0EF05EEF0EF0F6
:101CB80089EF0EF005017951D8B465EF0EF067EFA2
:101CC8000EF089EF0EF08451D8A46DEF0EF06FEF8F
:101CD8000EF089EF0EF08551D8A475EF0EF077EF6E
:101CE8000EF089EF0EF08651D8A47DEF0EF07FEF4D
:101CF8000EF089EF0EF08751D8A485EF0EF087EF2C
:101D08000EF089EF0EF0080E936F05018451D8A4E8
:101D180090EF0EF092EF0EF0AAEF0EF08551D8A4D6
:101D280098EF0EF09AEF0EF0AAEF0EF08651D8A4B5
:101D3800A0EF0EF0A2EF0EF0AAEF0EF08751D8B484
:101D4800A8EF0EF0AAEF0EF0C4EF0EF0634B642B71
:101D5800E80E631907E1030E6419D8A4B6EF0EF074
:101D6800B8EF0EF0C4EF0EF0000E646F000E636F54
:101D7800000E846F000E856F000E866F000E876F51
:101D88008451D8B4CAEF0EF0CCEF0EF0E9EF0EF0A4
:101D9800722B190E7219D8A4D4EF0EF0D6EF0EF0EC
:101DA800E9EF0EF0000E726FC0AEDDEF0EF0E1EF5E
:101DB8000EF02F6A2F2AE2EF0EF02F6A2F322F3201
:101DC800C0502F187F0B2F18C06E05018551D8B44D
:101DD800F0EF0EF0F2EF0EF00FEF0FF0722B190E7E
:101DE8007219D8A4FAEF0EF0FCEF0EF00FEF0FF017
:101DF800000E726FC0AA03EF0FF007EF0FF02F6A03
:101E08002F2A08EF0FF02F6A2F3A2F46C0502F18AD
:101E1800DF0B2F18C06E05018651D8B416EF0FF0EE
:101E280018EF0FF035EF0FF0722B190E7219D8A4B6
:101E380020EF0FF022EF0FF035EF0FF0000E726F6A
:101E4800BEAA29EF0FF02DEF0FF02F6A2F2A2EEFE1
:101E58000FF02F6A2F3A2F46BE502F18DF0B2F187E
:101E6800BE6E05018751D8B43CEF0FF03EEF0FF07E
:101E78005CEF0FF0722B190E7219D8A446EF0FF011
:101E880048EF0FF05CEF0FF0000E726FC0A64FEF37
:101E98000FF053EF0FF02F6A2F2A54EF0FF02F6A2D
:101EA8002F462F462F46C0502F18F70B2F18C06EFD
:101EB80005018451D8A463EF0FF065EF0FF083EFAD
:101EC8000FF08551D8A46BEF0FF06DEF0FF083EF93
:101ED8000FF08651D8A473EF0FF075EF0FF083EF72
:101EE8000FF08751D8A47BEF0FF07DEF0FF083EF51
:101EF8000FF0000E726FC09EC09ABE9AC0968451B1
:101F0800D8B489EF0FF08BEF0FF0CCEF0FF0D0BC07
:101F180090EF0FF092EF0FF0CCEF0FF07751D8B4AD
:101F280098EF0FF09AEF0FF0CCEF0FF08FC58BF50D
:101F380090C58CF591C58DF592C58EF5000E846F10
:101F4800000E026E0F0E016E8DC503F569EC1EF0D2
:101F5800000E026E0C0E016E8CC503F569EC1EF0C6
:101F6800000E026E0B0E016E8BC503F569EC1EF0B8
:101F7800000E026E110E016E8EC503F569EC1EF09F
:101F8800000E026E030E016E450E036E69EC1EF024
:101F980005018551D8B4D3EF0FF0D5EF0FF016EF48
:101FA80010F0CEB8DAEF0FF0DCEF0FF016EF10F00C
:101FB8007851D8B4E2EF0FF0E4EF0FF016EF10F01D
:101FC8008FC57BF590C57CF591C57DF592C588F5E3
:101FD800000E856F000E026E140E016E7DC503F5AE
:101FE80069EC1EF0000E026E130E016E7CC503F53F
:101FF80069EC1EF0000E026E120E016E7BC503F531
:1020080069EC1EF0000E026E150E016E88C503F510
:1020180069EC1EF0000E026E040E016E450E036E92
:1020280069EC1EF005018651D8B41DEF10F01FEFC2
:1020380010F060EF10F0D0B824EF10F026EF10F099
:1020480060EF10F07A51D8B42CEF10F02EEF10F0AA
:1020580060EF10F08FC57EF590C57FF591C580F5CE
:1020680092C589F5000E866F000E026E190E016E7C
:1020780080C503F569EC1EF0000E026E180E016EA5
:102088007FC503F569EC1EF0000E026E160E016E98
:102098007EC503F569EC1EF0000E026E1B0E016E84
:1020A80089C503F569EC1EF0000E026E060E016E7E
:1020B800450E036E69EC1EF005018751D8B467EF31
:1020C80010F069EF10F0AAEF10F0CFBE6EEF10F02D
:1020D80070EF10F0AAEF10F07951D8B476EF10F045
:1020E80078EF10F0AAEF10F08FC581F590C582F552
:1020F80091C583F592C58AF5000E876F000E026EB2
:10210800200E016E83C503F569EC1EF0000E026E09
:102118001F0E016E82C503F569EC1EF0000E026EFB
:102128001E0E016E81C503F569EC1EF0000E026EED
:10213800220E016E8AC503F569EC1EF0000E026ED0
:10214800080E016E450E036E69EC1EF0D0ACAFEFC1
:1021580010F0B1EF10F0B6EF10F0000E0501666F49
:10216800000E656FCEA8BBEF10F0BDEF10F0C2EF08
:1021780010F0000E0501686F000E676FD0A8C7EF5A
:1021880010F0C9EF10F0CEEF10F0000E05016A6FE5
:10219800000E696FCFAED3EF10F0D5EF10F0D9EF86
:1021A8000CF0000E05016C6F000E6B6FD9EF0CF090
:1021B800D0ACE1EF10F0E3EF10F006EF11F0C08EB5
:1021C8008CC507F58DC508F58EC509F5030E0A6E91
:1021D800000E0B6E000E0C6E8B5192EC1EF0010E71
:1021E8000501936F000E026E240E016E93C503F570
:1021F80069EC1EF0000E026E020E016E450E036EB3
:1022080069EC1EF0D0BC0BEF11F00DEF11F0D9EF17
:102218000CF00501654B662BF40E651906E16605A1
:10222800D8A419EF11F01BEF11F0D9EF0CF0000E44
:10223800666F000E656F010E846F000E936F000EBF
:10224800026E240E016E93C503F569EC1EF0000EB4
:10225800026E020E016E450E036E69EC1EF0D9EF98
:102268000CF0CEA83AEF11F03CEF11F05FEF11F04F
:10227800C08A7CC507F57DC508F588C509F5030E34
:102288000A6E000E0B6E000E0C6E7B5192EC1EF067
:10229800020E0501936F000E026E240E016E93C5A7
:1022A80003F569EC1EF0000E026E020E016E450E7B
:1022B800036E69EC1EF0CEB864EF11F066EF11F012
:1022C800D9EF0CF00501674B682BF40E671906E18E
:1022D8006805D8A472EF11F074EF11F0D9EF0CF083
:1022E800000E686F000E676F010E856F000E936F0A
:1022F80023EF11F0D0A883EF11F085EF11F0A8EFCC
:1023080011F0BE8A7FC507F580C508F589C509F5AE
:10231800030E0A6E000E0B6E000E0C6E7E5192ECD0
:102328001EF0030E0501936F000E026E240E016E5F
:1023380093C503F569EC1EF0000E026E020E016EE5
:10234800450E036E69EC1EF0D0B8ADEF11F0AFEF9B
:1023580011F0D9EF0CF00501694B6A2BF40E6919DD
:1023680006E16A05D8A4BBEF11F0BDEF11F0D9EF73
:102378000CF0000E6A6F000E696F010E866F000E7A
:10238800936F23EF11F0CFAECCEF11F0CEEF11F039
:10239800F1EF11F0C08682C507F583C508F58AC537
:1023A80009F5030E0A6E000E0B6E000E0C6E8151BD
:1023B80092EC1EF0040E0501936F000E026E240EBF
:1023C800016E93C503F569EC1EF0000E026E020E55
:1023D800016E450E036E69EC1EF0CFBEF6EF11F0EC
:1023E800F8EF11F0D9EF0CF005016B4B6C2BF40EE4
:1023F8006B1906E16C05D8A404EF12F006EF12F091
:10240800D9EF0CF0000E6C6F000E6B6F010E876F2A
:10241800000E936F23EF11F0D0AC15EF12F017EF09
:1024280012F02AEF12F0C09E000E936F000E026E9B
:10243800240E016E93C503F569EC1EF0000E026EC2
:10244800020E016E450E036E69EC1EF0D0BC2FEF34
:1024580012F031EF12F0D9EF0CF00501654B662B45
:10246800F40E651906E16605D8A43DEF12F03FEFBA
:1024780012F0D9EF0CF0000E666F000E656F010EBA
:102488006D6F010E936FD9EF0CF0CEA84EEF12F0DE
:1024980050EF12F063EF12F0C09A000E936F000E27
:1024A800026E240E016E93C503F569EC1EF0000E52
:1024B800026E020E016E450E036E69EC1EF0CEB878
:1024C80068EF12F06AEF12F0D9EF0CF00501674BD4
:1024D800682BF40E671906E16805D8A476EF12F0A8
:1024E80078EF12F0D9EF0CF0000E686F000E676FEE
:1024F800010E6E6F020E936FD9EF0CF0D0A887EF24
:1025080012F089EF12F09CEF12F0BE9A000E936F52
:10251800000E026E240E016E93C503F569EC1EF0E1
:10252800000E026E020E016E450E036E69EC1EF07F
:10253800D0B8A1EF12F0A3EF12F0D9EF0CF005011B
:10254800694B6A2BF40E691906E16A05D8A4AFEF46
:1025580012F0B1EF12F0D9EF0CF0000E6A6F000E16
:10256800696F010E6F6F030E936FD9EF0CF0CFAE4A
:10257800C0EF12F0C2EF12F0D5EF12F0C096000EC5
:10258800936F000E026E240E016E93C503F569EC7D
:102598001EF0000E026E020E016E450E036E69EC0F
:1025A8001EF0CFBEDAEF12F0DCEF12F0D9EF0CF02C
:1025B80005016B4B6C2BF40E6B1906E16C05D8A466
:1025C800E8EF12F0EAEF12F0D9EF0CF0000E6C6FA2
:1025D800000E6B6F010E706F040E936FD9EF0CF045
:1025E8008CC507F58DC508F58EC509F5030E0A6E6D
:1025F800000E0B6E000E0C6E8B5192EC1EF0050156
:102608006D51D8B40AEF13F00CEF13F029EF13F063
:10261800712B190E7119D8A414EF13F016EF13F0DB
:1026280029EF13F0000E716FC0AE1DEF13F021EF0C
:1026380013F02F6A2F2A22EF13F02F6A2F322F322E
:10264800C0502F187F0B2F18C06ED0BC2EEF13F080
:1026580030EF13F043EF13F005017751D8B437EF9B
:1026680013F039EF13F043EF13F06D51D8A43FEF97
:1026780013F041EF13F043EF13F0090E936FD0BC42
:1026880048EF13F04AEF13F096EF13F00501775176
:10269800D8B451EF13F053EF13F096EF13F06D51D8
:1026A800D8B459EF13F05BEF13F096EF13F0C08E28
:1026B800000E6D6F000E736F000E746F000E756F55
:1026C800000E766F8FC58BF590C58CF591C58DF58D
:1026D80092C58EF5000E026E0F0E016E8DC503F5C4
:1026E80069EC1EF0000E026E0C0E016E8CC503F52F
:1026F80069EC1EF0000E026E0B0E016E8BC503F521
:1027080069EC1EF0000E026E110E016E8EC503F507
:1027180069EC1EF0000E026E030E016E450E036E8C
:1027280069EC1EF005016D51D8B49DEF13F09FEFD1
:1027380013F0A7EF14F0FB0E2F6EFF0E306E8B51C7
:10274800316E326A2F503126305032228F51336E1B
:10275800346A3150335C3450800A356E3250800A06
:102768003558D8A0BAEF13F0BCEF13F0D7EF13F039
:102778008F512F6E306A8B51316E326A050E3126B9
:10278800000E32222F50315C3250800A336E3050A6
:10279800800A3358D8A0D3EF13F0D5EF13F0D7EF52
:1027A80013F0010E736F7351D8B4DDEF13F0DFEF40
:1027B80013F0E1EF13F08FC58BF5FB0E2F6EFF0EB4
:1027C800306E8E51316E326A2F503126305032229F
:1027D8009251336E346A3150335C3450800A356E0E
:1027E8003250800A3558D8A0FCEF13F0FEEF13F0F2
:1027F80019EF14F092512F6E306A8E51316E326A91
:10280800050E3126000E32222F50315C3250800ADC
:10281800336E3050800A3358D8A015EF14F017EFF4
:1028280014F019EF14F0010E766F7651D8B41FEF3B
:1028380014F021EF14F023EF14F092C58EF5FB0E7F
:102848002F6EFF0E306E8C51316E326A2F5031264A
:10285800305032229051336E346A3150335C3450E8
:10286800800A356E3250800A3558D8A03EEF14F0F1
:1028780040EF14F05BEF14F090512F6E306A8C51DA
:10288800316E326A050E3126000E32222F50315C2D
:102898003250800A336E3050800A3358D8A057EF30
:1028A80014F059EF14F05BEF14F0010E746F7451CB
:1028B800D8B461EF14F063EF14F065EF14F090C52D
:1028C8008CF5FB0E2F6EFF0E306E8D51316E326A15
:1028D8002F503126305032229151336E346A3150A4
:1028E800335C3450800A356E3250800A3558D8A08F
:1028F80080EF14F082EF14F09DEF14F091512F6ED9
:10290800306A8D51316E326A050E3126000E322240
:102918002F50315C3250800A336E3050800A335861
:10292800D8A099EF14F09BEF14F09DEF14F0010E6E
:10293800756F7551D8B4A3EF14F0A5EF14F0A7EF95
:1029480014F091C58DF5CEB8ACEF14F0AEEF14F0DD
:10295800DAEF14F07851D8B4B4EF14F0B6EF14F0FD
:10296800DAEF14F0C09EC08A7CC507F57DC508F56E
:1029780088C509F5030E0A6E000E0B6E000E0C6E6C
:102988007B5192EC1EF0020E0501936F000E026E51
:10299800240E016E93C503F569EC1EF0000E026E5D
:1029A800020E016E450E036E69EC1EF0D0B8DFEF23
:1029B80014F0E1EF14F00EEF15F005017A51D8B4D8
:1029C800E8EF14F0EAEF14F00EEF15F0C09EBE8A9F
:1029D8007FC507F580C508F589C509F5030E0A6E98
:1029E800000E0B6E000E0C6E7E5192EC1EF0030E64
:1029F8000501936F000E026E240E016E93C503F558
:102A080069EC1EF0000E026E020E016E450E036E9A
:102A180069EC1EF0CFBE13EF15F015EF15F0D9EFE6
:102A28000CF005017951D8B41CEF15F01EEF15F024
:102A3800D9EF0CF0C09EC08682C507F583C508F59E
:102A48008AC509F5030E0A6E000E0B6E000E0C6E99
:102A5800815192EC1EF0040E0501936F23EF11F0E3
:102A68007CC507F57DC508F588C509F5030E0A6E0E
:102A7800000E0B6E000E0C6E7B5192EC1EF00501E1
:102A88006E51D8B44AEF15F04CEF15F069EF15F018
:102A9800712B190E7119D8A454EF15F056EF15F0D3
:102AA80069EF15F0000E716FC0AA5DEF15F061EFC8
:102AB80015F02F6A2F2A62EF15F02F6A2F3A2F464A
:102AC800C0502F18DF0B2F18C06ECEB86EEF15F060
:102AD80070EF15F083EF15F005017851D8B477EF52
:102AE80015F079EF15F083EF15F06E51D8A47FEF4C
:102AF80015F081EF15F083EF15F00A0E936FCEB83D
:102B080088EF15F08AEF15F0D6EF15F0050178512A
:102B1800D8B491EF15F093EF15F0D6EF15F06E518C
:102B2800D8B499EF15F09BEF15F0D6EF15F0C08AE1
:102B3800000E6E6F000E736F000E746F000E756FCF
:102B4800000E766F8FC57BF590C57CF591C57DF538
:102B580092C588F5000E026E140E016E8DC503F540
:102B680069EC1EF0000E026E130E016E8CC503F5A3
:102B780069EC1EF0000E026E120E016E8BC503F595
:102B880069EC1EF0000E026E150E016E8EC503F57F
:102B980069EC1EF0000E026E040E016E450E036E07
:102BA80069EC1EF005016E51D8B4DDEF15F0DFEFCA
:102BB80015F0E7EF16F0FB0E2F6EFF0E306E7B510F
:102BC800316E326A2F503126305032228F51336E97
:102BD800346A3150335C3450800A356E3250800A82
:102BE8003558D8A0FAEF15F0FCEF15F017EF16F0EE
:102BF8008F512F6E306A7B51316E326A050E312645
:102C0800000E32222F50315C3250800A336E305021
:102C1800800A3358D8A013EF16F015EF16F017EF07
:102C280016F0010E736F7351D8B41DEF16F01FEF35
:102C380016F021EF16F08FC57BF5FB0E2F6EFF0EF9
:102C4800306E8851316E326A2F5031263050322220
:102C58009251336E346A3150335C3450800A356E89
:102C68003250800A3558D8A03CEF16F03EEF16F0E7
:102C780059EF16F092512F6E306A8851316E326AD0
:102C8800050E3126000E32222F50315C3250800A58
:102C9800336E3050800A3358D8A055EF16F057EFEE
:102CA80016F059EF16F0010E766F7651D8B45FEF33
:102CB80016F061EF16F063EF16F092C588F5FB0E7B
:102CC8002F6EFF0E306E7C51316E326A2F503126D6
:102CD800305032229051336E346A3150335C345064
:102CE800800A356E3250800A3558D8A07EEF16F02B
:102CF80080EF16F09BEF16F090512F6E306A7C51E2
:102D0800316E326A050E3126000E32222F50315CA8
:102D18003250800A336E3050800A3358D8A097EF6B
:102D280016F099EF16F09BEF16F0010E746F7451C0
:102D3800D8B4A1EF16F0A3EF16F0A5EF16F090C5E2
:102D48007CF5FB0E2F6EFF0E306E7D51316E326AB0
:102D58002F503126305032229151336E346A31501F
:102D6800335C3450800A356E3250800A3558D8A00A
:102D7800C0EF16F0C2EF16F0DDEF16F091512F6E8E
:102D8800306A7D51316E326A050E3126000E3222CC
:102D98002F50315C3250800A336E3050800A3358DD
:102DA800D8A0D9EF16F0DBEF16F0DDEF16F0010E24
:102DB800756F7551D8B4E3EF16F0E5EF16F0E7EF4D
:102DC80016F091C57DF5D0BCECEF16F0EEEF16F0DD
:102DD8001AEF17F07751D8B4F4EF16F0F6EF16F0B3
:102DE8001AEF17F0C09AC08E8CC507F58DC508F587
:102DF8008EC509F5030E0A6E000E0B6E000E0C6EE2
:102E08008B5192EC1EF0010E0501936F000E026EBD
:102E1800240E016E93C503F569EC1EF0000E026ED8
:102E2800020E016E450E036E69EC1EF0D0B81FEF5E
:102E380017F021EF17F04EEF17F005017A51D8B4CB
:102E480028EF17F02AEF17F04EEF17F0C09ABE8A56
:102E58007FC507F580C508F589C509F5030E0A6E13
:102E6800000E0B6E000E0C6E7E5192EC1EF0030EDF
:102E78000501936F000E026E240E016E93C503F5D3
:102E880069EC1EF0000E026E020E016E450E036E16
:102E980069EC1EF0CFBE53EF17F055EF17F0D9EFDE
:102EA8000CF005017951D8B45CEF17F05EEF17F01C
:102EB800D9EF0CF0C09AC08682C507F583C508F51E
:102EC8008AC509F5030E0A6E000E0B6E000E0C6E15
:102ED800815192EC1EF02FEF15F07FC507F580C5E4
:102EE80008F589C509F5030E0A6E000E0B6E000E73
:102EF8000C6E7E5192EC1EF005016F51D8B487EF2D
:102F080017F089EF17F0A6EF17F0712B190E71194A
:102F1800D8A491EF17F093EF17F0A6EF17F0000E73
:102F2800716FBEAA9AEF17F09EEF17F02F6A2F2A3B
:102F38009FEF17F02F6A2F3A2F46BE502F18DF0B3E
:102F48002F18BE6ED0B8ABEF17F0ADEF17F0C0EF8B
:102F580017F005017A51D8B4B4EF17F0B6EF17F0AF
:102F6800C0EF17F06F51D8A4BCEF17F0BEEF17F001
:102F7800C0EF17F00B0E936FD0B8C5EF17F0C7EF7F
:102F880017F013EF18F005017A51D8B4CEEF17F007
:102F9800D0EF17F013EF18F06F51D8B4D6EF17F041
:102FA800D8EF17F013EF18F0BE8A000E6F6F000EFF
:102FB800736F000E746F000E756F000E766F8FC5FD
:102FC8007EF590C57FF591C580F592C589F5000E0F
:102FD800026E190E016E8DC503F569EC1EF0000E28
:102FE800026E180E016E8CC503F569EC1EF0000E1A
:102FF800026E160E016E8BC503F569EC1EF0000E0D
:10300800026E1B0E016E8EC503F569EC1EF0000EF4
:10301800026E060E016E450E036E69EC1EF0000E80
:10302800D0B8010E05017A6F6F51D8B41EEF18F0B1
:1030380020EF18F028EF19F0FB0E2F6EFF0E306E00
:103048007E51316E326A2F503126305032228F51E4
:10305800336E346A3150335C3450800A356E3250E6
:10306800800A3558D8A03BEF18F03DEF18F058EF1C
:1030780018F08F512F6E306A7E51316E326A050E0C
:103088003126000E32222F50315C3250800A336EC6
:103098003050800A3358D8A054EF18F056EF18F083
:1030A80058EF18F0010E736F7351D8B45EEF18F033
:1030B80060EF18F062EF18F08FC57EF5FB0E2F6EEB
:1030C800FF0E306E8951316E326A2F5031263050E2
:1030D80032229251336E346A3150335C3450800A54
:1030E800356E3250800A3558D8A07DEF18F07FEF42
:1030F80018F09AEF18F092512F6E306A8951316E9C
:10310800326A050E3126000E32222F50315C3250C1
:10311800800A336E3050800A3358D8A096EF18F0E2
:1031280098EF18F09AEF18F0010E766F7651D8B430
:10313800A0EF18F0A2EF18F0A4EF18F092C589F5E7
:10314800FB0E2F6EFF0E306E7F51316E326A2F509C
:103158003126305032229051336E346A3150335C0C
:103168003450800A356E3250800A3558D8A0BFEFE7
:1031780018F0C1EF18F0DCEF18F090512F6E306A9C
:103188007F51316E326A050E3126000E32222F50E1
:10319800315C3250800A336E3050800A3358D8A0E0
:1031A800D8EF18F0DAEF18F0DCEF18F0010E746FB2
:1031B8007451D8B4E2EF18F0E4EF18F0E6EF18F025
:1031C80090C57FF5FB0E2F6EFF0E306E8051316E6D
:1031D800326A2F503126305032229151336E346A80
:1031E8003150335C3450800A356E3250800A35587D
:1031F800D8A001EF19F003EF19F01EEF19F0915163
:103208002F6E306A8051316E326A050E3126000EFB
:1032180032222F50315C3250800A336E3050800A8F
:103228003358D8A01AEF19F01CEF19F01EEF19F057
:10323800010E756F7551D8B424EF19F026EF19F007
:1032480028EF19F091C580F5D0BC2DEF19F02FEFBC
:1032580019F05BEF19F07751D8B435EF19F037EF63
:1032680019F05BEF19F0BE9AC08E8CC507F58DC5B5
:1032780008F58EC509F5030E0A6E000E0B6E000EDA
:103288000C6E8B5192EC1EF0010E0501936F000E2F
:10329800026E240E016E93C503F569EC1EF0000E54
:1032A800026E020E016E450E036E69EC1EF0CEB87A
:1032B80060EF19F062EF19F08FEF19F005017851FE
:1032C800D8B469EF19F06BEF19F08FEF19F0BE9AC7
:1032D800C08A7CC507F57DC508F588C509F5030EC4
:1032E8000A6E000E0B6E000E0C6E7B5192EC1EF0F7
:1032F800020E0501936F000E026E240E016E93C537
:1033080003F569EC1EF0000E026E020E016E450E0A
:10331800036E69EC1EF0CFBE94EF19F096EF19F02A
:10332800C3EF19F005017951D8B49DEF19F09FEF5B
:1033380019F0C3EF19F0BE9AC08682C507F583C598
:1033480008F58AC509F5030E0A6E000E0B6E000E0D
:103358000C6E815192EC1EF0040E0501936F000E65
:10336800026E240E016E93C503F569EC1EF0000E83
:10337800026E020E016E450E036E69EC1EF082C5E8
:1033880007F583C508F58AC509F5030E0A6E000E10
:103398000B6E000E0C6E0501815192EC1EF00501BA
:1033A8007051D8B4DAEF19F0DCEF19F0FAEF19F030
:1033B800712B190E7119D8A4E4EF19F0E6EF19F082
:1033C800FAEF19F0000E716FC0A6EDEF19F0F1EFEA
:1033D80019F02F6A2F2AF2EF19F02F6A2F462F467D
:1033E8002F46C0502F18F70B2F18C06ECFBEFFEF17
:1033F80019F001EF1AF014EF1AF005017951D8B459
:1034080008EF1AF00AEF1AF014EF1AF07051D8A466
:1034180010EF1AF012EF1AF014EF1AF00C0E936F67
:10342800CFBE19EF1AF01BEF1AF067EF1AF005017B
:103438007951D8B422EF1AF024EF1AF067EF1AF096
:103448007051D8B42AEF1AF02CEF1AF067EF1AF07F
:10345800C086000E706F000E736F000E746F000E42
:10346800756F000E766F8FC581F590C582F591C591
:1034780083F592C58AF5000E026E200E016E8DC589
:1034880003F569EC1EF0000E026E1F0E016E8CC56E
:1034980003F569EC1EF0000E026E1E0E016E8BC560
:1034A80003F569EC1EF0000E026E220E016E8EC549
:1034B80003F569EC1EF0000E026E080E016E450E53
:1034C800036E69EC1EF005017051D8B46EEF1AF066
:1034D80070EF1AF078EF1BF0FB0E2F6EFF0E306EB8
:1034E8008151316E326A2F503126305032228F513D
:1034F800336E346A3150335C3450800A356E325042
:10350800800A3558D8A08BEF1AF08DEF1AF0A8EF83
:103518001AF08F512F6E306A8151316E326A050E62
:103528003126000E32222F50315C3250800A336E21
:103538003050800A3358D8A0A4EF1AF0A6EF1AF03A
:10354800A8EF1AF0010E736F7351D8B4AEEF1AF0EA
:10355800B0EF1AF0B2EF1AF08FC581F5FB0E2F6E9F
:10356800FF0E306E8A51316E326A2F50312630503C
:1035780032229251336E346A3150335C3450800AAF
:10358800356E3250800A3558D8A0CDEF1AF0CFEFFB
:103598001AF0EAEF1AF092512F6E306A8A51316EA2
:1035A800326A050E3126000E32222F50315C32501D
:1035B800800A336E3050800A3358D8A0E6EF1AF0EC
:1035C800E8EF1AF0EAEF1AF0010E766F7651D8B4E8
:1035D800F0EF1AF0F2EF1AF0F4EF1AF092C58AF54C
:1035E800FB0E2F6EFF0E306E8251316E326A2F50F5
:1035F8003126305032229051336E346A3150335C68
:103608003450800A356E3250800A3558D8A00FEFF2
:103618001BF011EF1BF02CEF1BF090512F6E306A4E
:103628008251316E326A050E3126000E32222F5039
:10363800315C3250800A336E3050800A3358D8A03B
:1036480028EF1BF02AEF1BF02CEF1BF0010E746F14
:103658007451D8B432EF1BF034EF1BF036EF1BF087
:1036680090C582F5FB0E2F6EFF0E306E8351316EC2
:10367800326A2F503126305032229151336E346ADB
:103688003150335C3450800A356E3250800A3558D8
:10369800D8A051EF1BF053EF1BF06EEF1BF09151C8
:1036A8002F6E306A8351316E326A050E3126000E54
:1036B80032222F50315C3250800A336E3050800AEB
:1036C8003358D8A06AEF1BF06CEF1BF06EEF1BF0BD
:1036D800010E756F7551D8B474EF1BF076EF1BF0BF
:1036E80078EF1BF091C583F5D0BC7DEF1BF07FEF21
:1036F8001BF09BEF1BF07751D8B485EF1BF087EFD9
:103708001BF09BEF1BF0C096C08E010E936F000E4E
:10371800026E240E016E93C503F569EC1EF0000ECF
:10372800026E020E016E450E036E69EC1EF0CEB8F5
:10373800A0EF1BF0A2EF1BF0CFEF1BF005017851B3
:10374800D8B4A9EF1BF0ABEF1BF0CFEF1BF0C0967E
:10375800C08A7CC507F57DC508F588C509F5030E3F
:103768000A6E000E0B6E000E0C6E7B5192EC1EF072
:10377800020E0501936F000E026E240E016E93C5B2
:1037880003F569EC1EF0000E026E020E016E450E86
:10379800036E69EC1EF0D0B8D4EF1BF0D6EF1BF027
:1037A800D9EF0CF005017A51D8B4DDEF1BF0DFEF4B
:1037B8001BF0D9EF0CF0C096BE8A7FC507F580C50F
:1037C80008F589C509F5030E0A6E000E0B6E000E8A
:1037D8000C6E7E5192EC1EF0030E0501936F23EFE1
:1037E80011F0050193512F6E306A3050000AD8B499
:1037F80000EF1CF0D9EF0CF02F50000AD8B4AEEF50
:103808000DF0010AD8B4F4EF12F0030AD8B434EF7B
:1038180015F0010AD8B471EF17F0070AD8B4C3EF4E
:1038280019F0010AD8B4DCEF10F0030AD8B435EF68
:1038380011F0010AD8B47EEF11F00F0AD8B4C7EF1F
:1038480011F0010AD8B410EF12F0030AD8B449EF06
:1038580012F0010AD8B482EF12F0070AD8B4BBEF0D
:1038680012F0D9EF0CF00DEF00F0000E166E14BE3A
:1038780042EF1CF040EF1CF04CEF1CF0141E131E1E
:10388800121E116C000E122213221422010E166E43
:1038980010BE53EF1CF051EF1CF05DEF1CF0101E32
:1038A8000F1E0E1E0D6C000E0E220F221022010E8E
:1038B800161A000E176E000E186E000E196E000E06
:1038C8001A6E1150121013101410D8B46EEF1CF0A9
:1038D80070EF1CF0A6EF1CF0010E156E7AEF1CF0CD
:1038E800D8901136123613361436152A14AE7FEFD7
:1038F8001CF081EF1CF074EF1CF0D89017361836C6
:1039080019361A3611500D5C12500E5813500F58B4
:1039180014501058D8A093EF1CF095EF1CF09EEFB0
:103928001CF011500D5E12500E5A13500F5A1450BD
:10393800105A1780D8901432133212321132152EC1
:1039480081EF1CF01650D8B4ACEF1CF0AEEF1CF0B1
:10395800B6EF1CF01A1E191E181E176C000E18223E
:1039680019221A2217C50DF518C50EF519C50FF538
:103978001AC510F51200026E000184BFC6EF1CF0D4
:10398800C8EF1CF02BEF1DF00250050D010EF324BB
:10399800F66E160EF420F76EF86A000EF82208008C
:1039A800F5C484F00250050D010EF326000EF42232
:1039B800010EF324F66E160EF420F76EF86A000E68
:1039C800F8220800F5C485F00250050D020EF32612
:1039D800000EF422010EF324F66E160EF420F76E94
:1039E800F86A000EF8220800F5500309866F000EE9
:1039F8008C6F0250050D030EF326000EF422010E03
:103A0800F324F66E160EF420F76EF86A000EF8220C
:103A18000800F5C489F00250050D040EF326000EC7
:103A2800F422010EF324F66E160EF420F76EF86AEF
:103A3800000EF82208006100D4F301F5013A0146AE
:103A48000146C7500118BF0B0118C76E848F1200BA
:103A5800026E02AE32EF1DF034EF1DF038EF1DF0AC
:103A6800AEEC1FF03AEF1DF0AAEC1FF002AC3FEFEE
:103A78001DF041EF1DF045EF1DF0AEEC1FF047EFD4
:103A88001DF0AAEC1FF002AA4CEF1DF04EEF1DF03E
:103A980052EF1DF0AEEC1FF054EF1DF0AAEC1FF032
:103AA80002A859EF1DF05BEF1DF05FEF1DF0AEECC3
:103AB8001FF061EF1DF0AAEC1FF002A666EF1DF0E3
:103AC80068EF1DF06CEF1DF0AEEC1FF06EEF1DF00F
:103AD800AAEC1FF002A473EF1DF075EF1DF079EF4B
:103AE8001DF0AEEC1FF07BEF1DF0AAEC1FF002A258
:103AF80080EF1DF082EF1DF086EF1DF0AEEC1FF099
:103B080088EF1DF0AAEC1FF002A08DEF1DF08FEFDB
:103B18001DF093EF1DF0AEEC1FF095EF1DF0AAEC31
:103B28001FF012001F501B5C016E20501C58026EC3
:103B380021501D58036E22501E58046E27502B5CCE
:103B4800056E28502C58066E29502D58076E2A509D
:103B58002E58086ED3EC1DF001C50DF502C50EF503
:103B680003C50FF504C510F51F50235C116E2050D6
:103B78002458126E21502558136E22502658146E60
:103B880039EC1CF027500D241B6E28500E201C6E9B
:103B980029500F201D6E2A5010201E6E1200000E94
:103BA800096E000E0A6E000E0B6E000E0C6E01A060
:103BB800E0EF1DF0E2EF1DF0EAEF1DF005500926D9
:103BC80006500A2207500B2208500C22D8900536BE
:103BD800063607360836D8900432033202320132EC
:103BE8000150021003100410D8A4FDEF1DF0FFEFE0
:103BF8001DF0DBEF1DF009C501F50AC502F50BC57F
:103C080003F50CC504F51200000EBE6E000EBF6E63
:103C1800000EC06E1F0EC66EA00EC76E570EC86E81
:103C2800AF0E0401106F000E086F070E006F800EB4
:103C3800096F100E016F500E116F000E026F000E0B
:103C48000A6F000E126F370E036FF00E0B6F1369B9
:103C58003F0E046FF00E0C6F14690E0E02016A6FAE
:103C68001B0E0F6F1C0E0D6F0D0E6B6F1200000EEA
:103C78000301D96F000EDA6F000EDB6F000EDC6FE8
:103C8800000EDF6F000EE06F000EE56F000EE76FAD
:103C9800000EEC6F000EEE6F000EEF6F000EF06F6F
:103CA800000EF16F000EF26F000EF46F100EF56F3C
:103CB800000EF66F000EF76F000EF86F000EF96F2A
:103CC8001F0EFA6F840EF36F1200000ED6BE010E9F
:103CD800046E380E0001456F0250446F610004F411
:103CE80043F061000CF446F04151F80B0309416FB1
:103CF800D69E550E426FAA0E426F408140B187EFA3
:103D08001EF089EF1EF082EF1EF004B002D0D69E9E
:103D180001D0D68EF80E0001411712000D6E000E6C
:103D28000E6E000E0F6E000E106EAAEF1EF007C585
:103D380003F508C504F509C505F50D5078EC1FF025
:103D4800010E0E26000E0F22000E10220E500A5CE5
:103D58000F500B5810500C58D8B0B5EF1EF0B7EFF5
:103D68001EF09BEF1EF01200056E610014F4ECF3D8
:103D78000301F38FF39DF381F3B1C5EF1EF0C7EF95
:103D88001EF0C0EF1EF0EB51046E036AEA510324E3
:103D9800016E000E0420026E1200030E0301206F54
:103DA800000E1F6F000E216FF90E1D6F000E1C6FA5
:103DB800B696AB86780E016E3F0E026EA0EC1FF031
:103DC800F10E03011E6F12003A503B10D8B4EFEF0A
:103DD8001EF0F1EF1EF0FDEF1EF002D8FDEF1EF011
:103DE8000500FA6E3A50FD6E3B50FE6EFF6AFA50BF
:103DF80012001200016E010E0001826F610004F4CE
:103E080081F0B6A00AEF1FF00CEF1FF005EF1FF0CE
:103E1800000180511200ABA614EF1FF016EF1FF03F
:103E28001FEF1FF0B6A61BEF1FF01DEF1FF01FEFCF
:103E38001FF0B6EC1FF011003650385C3750395877
:103E4800D8A029EF1FF02BEF1FF020EF1FF0000E76
:103E5800396E000E386E1200BAEC1FF05CEC1FF0E1
:103E680008EC1EF06AEC1FF03BEC1EF0D1EC1EF0E3
:103E780086EC1FF01200100E381809E1270E3918C9
:103E8800D8B449EF1FF04BEF1FF04DEF1FF0384A41
:103E9800392A1200396A386A376A366A0401080E04
:103EA8005D6F000E5E6F000E5F6F000104EF0BF098
:103EB800000E0001636F000E646F000E656F000E48
:103EC800666F000E676F000E686F1200600E0001CB
:103ED800AD6F000EAF6F000EB36F080EB16F000E1E
:103EE800B06F000EAC6F1200066E03502CEC1DF084
:103EF80006502CEC1DF004502CEC1DF005502CEC59
:103F08001DF01200020E0001846F400E856F000E36
:103F1800866F000E8C6F030E896FC79C1200380ED7
:103F28000001456F0250446F610004F443F0F80E3D
:103F3800411740814651120001C53AF502C53BF5CB
:103F4800120001C536F502C537F51200C00EFEECA9
:103F58001EF01200F00EFEEC1EF012003B0E0301E4
:103F6800EC6F1200B696E8EC1EF01200D69A12001A
:023F7800120035
:020000040020DA
:10000000FF0FFF0FFF0FFF0FFF0FFF0FFF0FFF0F80
:10001000FF0FFF0FFF0FFF0FFF0FFF0FFF0FFF0F70
:020000040030CA
:0A0000008CFFF7FF9FFFFFFFFFFFDB
:00000001FF
