:04000000FEEF7FF0A0
:10D974003B0E0301EC6F1200F5EC6CF063EC6DF000
:10D98400E7EC6CF08DEC6DF01200376A366A356A9C
:10D99400346A000EF86E0001A0EF6FF0046E0250BE
:10D9A400B0EC6EF00450B0EC6EF00350B0EC6EF0DE
:10D9B4001200380E0001456F0250446F01C543F058
:10D9C400F80E4117408146511200600E0001AD6F00
:10D9D400000EAF6F000EB36F080EB16F000EB06F84
:10D9E400000EAC6F1200000E0001636F000E646F36
:10D9F400000E656F000E666F000E676F000E686F95
:10DA04001200BF8800F000F000F000F000F000F019
:10DA140000F000F000F000F000F000F0BF981200F9
:10DA2400BF8800F000F000F0BF9800F000F000F0B4
:10DA340000F000F000F000F000F000F000F000F062
:10DA440000F01200056E05C5ECF30301F38FF39D9E
:10DA5400F381F3B130EF6DF032EF6DF02BEF6DF039
:10DA6400EB51046E036AEA510324016E000E042094
:10DA7400026E1200000ED6BE010E046E380E0001B6
:10DA8400456F0250446F01C543F003C546F0415150
:10DA9400F80B0309416FD69E550E426FAA0E426FD2
:10DAA400408140B158EF6DF05AEF6DF053EF6DF0D7
:10DAB40004B002D0D69E01D0D68EF80E00014117D4
:10DAC4001200000EBE6E000EBF6E000EC06E1F0E62
:10DAD400C66EE00EC76E570EC86EAF0E0401106F0F
:10DAE400600E086F070E006F800E096F100E016F35
:10DAF400500E116F000E026F000E0A6F000E126FAF
:10DB0400370E036FF00E0B6F13693F0E046FF00EA8
:10DB14000C6F14691200000E0301D96F000EDA6F46
:10DB2400000EDB6F000EDC6F000EDF6F000EE06F87
:10DB3400000EE56F000EE76F000EEC6F000EEE6F47
:10DB4400000EEF6F000EF06F000EF16F000EF26F1B
:10DB5400000EF46F100EF56F000EF66F000EF76FE7
:10DB6400000EF86F000EF96F1F0EFA6F840EF36F3C
:10DB74001200000E096E000E0A6E000E0B6E000EEF
:10DB84000C6E01A0C8EF6DF0CAEF6DF0D2EF6DF02E
:10DB94000550092606500A2207500B2208500C2271
:10DBA400D8900536063607360836D8900432033244
:10DBB400023201320150021003100410D8A4E5EF20
:10DBC4006DF0E7EF6DF0C3EF6DF009C501F50AC51F
:10DBD40002F50BC503F50CC504F51200106E000E1A
:10DBE400116E000E126E000E136E11EF6EF0000E29
:10DBF400146E0BC502F50CC503F51050D0EC6CF097
:10DC0400142A140E146409EF6EF00BEF6EF0FBEFA0
:10DC14006DF0010E1126000E1222000E13220DC506
:10DC240001F50EC502F50FC503F5140E046E000EC2
:10DC3400056E000E066E6AEC6EF01150015C125017
:10DC4400025813500358D8B02AEF6EF02CEF6EF040
:10DC5400F9EF6DF012001F501B5C016E20501C5830
:10DC6400026E21501D58036E22501E58046E275018
:10DC74002B5C056E28502C58066E29502D58076EC3
:10DC84002A502E58086EBBEC6DF001C50DF502C587
:10DC94000EF503C50FF504C510F51F50235C116E76
:10DCA40020502458126E21502558136E22502658A5
:10DCB400146E1AEC6FF027500D241B6E28500E20A2
:10DCC4001C6E29500F201D6E2A5010201E6E12004B
:10DCD400000E076E000E086E000E096E045005104B
:10DCE4000610D8B478EF6EF07AEF6EF0A9EF6EF00C
:10DCF400010E0A6E83EF6EF0D890043605360636B0
:10DD04000A2A06AE88EF6EF08AEF6EF07EEF6EF0B0
:10DD1400D8900736083609360450015C055002587D
:10DD240006500358D8A099EF6EF09BEF6EF0A2EF67
:10DD34006EF00450015E0550025A0650035A0780E3
:10DD4400D8900632053204320A2E8AEF6EF007C5E7
:10DD540001F508C502F509C503F51200016E01AE0F
:10DD6400B6EF6EF0B8EF6EF0BCEF6EF003EC6DF052
:10DD7400BEEF6EF012EC6DF001ACC3EF6EF0C5EFC8
:10DD84006EF0C9EF6EF003EC6DF0CBEF6EF012ECB9
:10DD94006DF001AAD0EF6EF0D2EF6EF0D6EF6EF018
:10DDA40003EC6DF0D8EF6EF012EC6DF001A8DDEF2E
:10DDB4006EF0DFEF6EF0E3EF6EF003EC6DF0E5EF85
:10DDC4006EF012EC6DF001A6EAEF6EF0ECEF6EF07F
:10DDD400F0EF6EF003EC6DF0F2EF6EF012EC6DF01C
:10DDE40001A4F7EF6EF0F9EF6EF0FDEF6EF003ECC7
:10DDF4006DF0FFEF6EF012EC6DF001A204EF6FF026
:10DE040006EF6FF00AEF6FF003EC6DF00CEF6FF0BC
:10DE140012EC6DF001A011EF6FF013EF6FF017EF3C
:10DE24006FF003EC6DF019EF6FF012EC6DF012006F
:10DE3400000E166E14BE23EF6FF021EF6FF02DEF7E
:10DE44006FF0141E131E121E116C000E12221322E8
:10DE54001422010E166E10BE34EF6FF032EF6FF025
:10DE64003EEF6FF0101E0F1E0E1E0D6C000E0E22E4
:10DE74000F221022010E161A000E176E000E186ED5
:10DE8400000E196E000E1A6E115012101310141099
:10DE9400D8B44FEF6FF051EF6FF087EF6FF0010ED2
:10DEA400156E5BEF6FF0D8901136123613361436B8
:10DEB400152A14AE60EF6FF062EF6FF055EF6FF05C
:10DEC400D8901736183619361A3611500D5C125080
:10DED4000E5813500F5814501058D8A074EF6FF008
:10DEE40076EF6FF07FEF6FF011500D5E12500E5A07
:10DEF40013500F5A1450105A1780D89014321332FA
:10DF040012321132152E62EF6FF01650D8B48DEF25
:10DF14006FF08FEF6FF097EF6FF01A1E191E181E37
:10DF2400176C000E182219221A2217C50DF518C5F0
:10DF34000EF519C50FF51AC510F51200BEEC6CF0FC
:10DF4400000E05018F6F140E7E6F6D69320E6E6FB9
:10DF5400000E6F6F000E7A6F000E7B6F000E7D6FE8
:10DF6400000E7C6F000E886F000E896F000E8A6FA2
:10DF7400000E8B6F000E706F000E716F000E726FCB
:10DF8400000E736F000E766F000E776F000E786FC1
:10DF9400000E796F000E626F000E616F000E606FED
:10DFA400000E666F000E656F000E686F000E676FDF
:10DFB400000E6A6F000E696F000E6C6F000E6B6FBF
:10DFC400000E646F000E636F000E756F000E746FA9
:10DFD400C09EC09ABE9AC096000E936F000E026E49
:10DFE400030E016EDBEC6CF0450AD8A4FCEF6FF075
:10DFF400FEEF6FF01EEF70F0000E026E0B0E016E5E
:10E00400DBEC6CF005018C6F000E026E0C0E016EE1
:10E01400DBEC6CF005018D6F000E026E0F0E016ECD
:10E02400DBEC6CF005018E6F000E026E110E016EBA
:10E03400DBEC6CF005017E6F000E026E040E016EC7
:10E04400DBEC6CF0450AD8A42AEF70F02CEF70F0EA
:10E054004CEF70F0000E026E120E016EDBEC6CF0F1
:10E0640005017F6F000E026E130E016EDBEC6CF087
:10E074000501806F000E026E140E016EDBEC6CF075
:10E084000501816F000E026E150E016EDBEC6CF063
:10E0940005016D6F000E026E060E016EDBEC6CF076
:10E0A400450AD8A458EF70F05AEF70F07AEF70F088
:10E0B400000E026E160E016EDBEC6CF00501826F31
:10E0C400000E026E180E016EDBEC6CF00501836F1E
:10E0D400000E026E190E016EDBEC6CF00501846F0C
:10E0E400000E026E1B0E016EDBEC6CF005016E6F10
:10E0F400000E026E080E016EDBEC6CF0450AD8A42B
:10E1040086EF70F088EF70F0A8EF70F0000E026EEA
:10E114001E0E016EDBEC6CF00501856F000E026EC5
:10E124001F0E016EDBEC6CF00501866F000E026EB3
:10E13400200E016EDBEC6CF00501876F000E026EA1
:10E14400220E016EDBEC6CF005016F6F000E026EA7
:10E15400020E016EDBEC6CF0450AD8A4B4EF70F04B
:10E16400B6EF70F069EF71F0000E026E240E016ECE
:10E17400DBEC6CF00501936F9305D8A4C4EF70F049
:10E18400C6EF70F0DBEF70F0000E026E030E016E4E
:10E19400DBEC6CF0450AD8A4D2EF70F0D4EF70F049
:10E1A400DBEF70F0C08EA00E00D0E82EFDD7E6EFB6
:10E1B40070F005019305D8A4E2EF70F0E4EF70F07D
:10E1C400E6EF70F0000E936F020E05019319D8A4C8
:10E1D400EEEF70F0F0EF70F005EF71F0000E026EEC
:10E1E400040E016EDBEC6CF0450AD8A4FCEF70F071
:10E1F400FEEF70F005EF71F0C08AA00E00D0E82E9B
:10E20400FDD711EF71F0020E05019319D8A40DEF9B
:10E2140071F00FEF71F011EF71F0000E936F030EB8
:10E2240005019319D8A419EF71F01BEF71F030EFC9
:10E2340071F0000E026E060E016EDBEC6CF0450A06
:10E24400D8A427EF71F029EF71F030EF71F0BE8A96
:10E25400A00E00D0E82EFDD73CEF71F0030E0501AF
:10E264009319D8A438EF71F03AEF71F03CEF71F0E4
:10E27400000E936F040E05019319D8A444EF71F0B6
:10E2840046EF71F05BEF71F0000E026E080E016E46
:10E29400DBEC6CF0450AD8A452EF71F054EF71F046
:10E2A4005BEF71F0C086A00E00D0E82EFDD769EFB9
:10E2B40071F0040E05019319D8A463EF71F065EFB2
:10E2C40071F069EF71F0000E936F69EF71F0000E59
:10E2D400D0BC010E05017A6F000ECEB8010E7B6F23
:10E2E400000ED0B8010E7D6F000ECFBE010E7C6F04
:10E2F400BAEC6CF0020E24EC6DF001C51BF502C5FE
:10E304001CF51D6A1E6A000E1F6E000E206E000EA4
:10E31400216E000E226EFF0E236E0F0E246E000E71
:10E32400256E000E266E000E276E000E286E000E5F
:10E33400296E000E2A6EFF0E2B6E000E2C6E000E40
:10E344002D6E000E2E6E2DEC6EF01B500501906F9D
:10E35400BAEC6CF0100E24EC6DF001C51BF502C58F
:10E364001CF51D6A1E6A000E1F6E000E206E000E44
:10E37400216E000E226EFF0E236E0F0E246E000E11
:10E38400256E000E266E000E276E000E286E000EFF
:10E39400296E000E2A6EFF0E2B6E000E2C6E000EE0
:10E3A4002D6E000E2E6E2DEC6EF01B500501916F3C
:10E3B400BAEC6CF0110E24EC6DF001C51BF502C52E
:10E3C4001CF51D6A1E6A000E1F6E000E206E000EE4
:10E3D400216E000E226EFF0E236E0F0E246E000EB1
:10E3E400256E000E266E000E276E000E286E000E9F
:10E3F400296E000E2A6EFF0E2B6E000E2C6E000E80
:10E404002D6E000E2E6E2DEC6EF01B500501926FDA
:10E41400680E2F6EE40EE82EFED72F2EFCD700D008
:10E42400BAEF7FF091C50BF592C50CF52C0E0D6E6D
:10E43400010E0E6E000E0F6E9051F0EC6DF0A00EFA
:10E4440000D0E82EFDD7D0BC2AEF72F02CEF72F08A
:10E4540057EF72F005017A51D8B433EF72F035EF0B
:10E4640072F057EF72F08851D8A43BEF72F03DEF91
:10E4740072F057EF72F08951D8A443EF72F045EF70
:10E4840072F057EF72F08A51D8A44BEF72F04DEF4F
:10E4940072F057EF72F08B51D8A453EF72F055EF2E
:10E4A40072F057EF72F0050E936FCEB85CEF72F016
:10E4B4005EEF72F089EF72F005017B51D8B465EF1D
:10E4C40072F067EF72F089EF72F08851D8A46DEFA3
:10E4D40072F06FEF72F089EF72F08951D8A475EF82
:10E4E40072F077EF72F089EF72F08A51D8A47DEF61
:10E4F40072F07FEF72F089EF72F08B51D8A485EF40
:10E5040072F087EF72F089EF72F0060E936FD0B855
:10E514008EEF72F090EF72F0BBEF72F005017D5157
:10E52400D8B497EF72F099EF72F0BBEF72F08851A4
:10E53400D8A49FEF72F0A1EF72F0BBEF72F0895193
:10E54400D8A4A7EF72F0A9EF72F0BBEF72F08A5172
:10E55400D8A4AFEF72F0B1EF72F0BBEF72F08B5151
:10E56400D8A4B7EF72F0B9EF72F0BBEF72F0070EF8
:10E57400936FCFBEC0EF72F0C2EF72F0EDEF72F0A6
:10E5840005017C51D8B4C9EF72F0CBEF72F0EDEF16
:10E5940072F08851D8A4D1EF72F0D3EF72F0EDEF9E
:10E5A40072F08951D8A4D9EF72F0DBEF72F0EDEF7D
:10E5B40072F08A51D8A4E1EF72F0E3EF72F0EDEF5C
:10E5C40072F08B51D8A4E9EF72F0EBEF72F0EDEF3B
:10E5D40072F0080E936F05018851D8A4F4EF72F01D
:10E5E400F6EF72F00EEF73F08951D8A4FCEF72F0DD
:10E5F400FEEF72F00EEF73F08A51D8A404EF73F0BB
:10E6040006EF73F00EEF73F08B51D8B40CEF73F088
:10E614000EEF73F027EF73F0634B642BF40E631962
:10E6240006E16405D8A419EF73F01BEF73F027EF2C
:10E6340073F0000E646F000E636F000E886F000E9F
:10E64400896F000E8A6F000E8B6F8851D8B42DEF3E
:10E6540073F02FEF73F04CEF73F0752B0C0E7519EC
:10E66400D8A437EF73F039EF73F04CEF73F0000E6A
:10E67400756FC0AE40EF73F044EF73F02F6A2F2A2A
:10E6840045EF73F02F6A2F322F32C0502F187F0BB3
:10E694002F18C06E05018951D8B453EF73F055EFAC
:10E6A40073F072EF73F0752B0C0E7519D8A45DEF2F
:10E6B40073F05FEF73F072EF73F0000E756FC0AA22
:10E6C40066EF73F06AEF73F02F6A2F2A6BEF73F023
:10E6D4002F6A2F3A2F46C0502F18DF0B2F18C06E09
:10E6E40005018A51D8B479EF73F07BEF73F098EF9A
:10E6F40073F0752B0C0E7519D8A483EF73F085EFA6
:10E7040073F098EF73F0000E756FBEAA8CEF73F080
:10E7140090EF73F02F6A2F2A91EF73F02F6A2F3A3C
:10E724002F46BE502F18DF0B2F18BE6E05018B51DC
:10E73400D8B49FEF73F0A1EF73F0BFEF73F0752BB4
:10E744000C0E7519D8A4A9EF73F0ABEF73F0BFEFFB
:10E7540073F0000E756FC0A6B2EF73F0B6EF73F0EE
:10E764002F6A2F2AB7EF73F02F6A2F462F462F46B2
:10E77400C0502F18F70B2F18C06E05018851D8A46C
:10E78400C6EF73F0C8EF73F0E6EF73F08951D8A4C5
:10E79400CEEF73F0D0EF73F0E6EF73F08A51D8A4A4
:10E7A400D6EF73F0D8EF73F0E6EF73F08B51D8A483
:10E7B400DEEF73F0E0EF73F0E6EF73F0000E756FC9
:10E7C400C09EC09ABE9AC0968851D8B4ECEF73F03C
:10E7D400EEEF73F02FEF74F0D0BCF3EF73F0F5EFBE
:10E7E40073F02FEF74F07A51D8B4FBEF73F0FDEFB0
:10E7F40073F02FEF74F090C58CF591C58DF592C52B
:10E804008EF58FC57EF5000E886F000E026E0F0E1A
:10E81400016E8EC503F53CEC6DF0000E026E0C0E1D
:10E82400016E8DC503F53CEC6DF0000E026E0B0E0F
:10E83400016E8CC503F53CEC6DF0000E026E110EFA
:10E84400016E7EC503F53CEC6DF0000E026E030E06
:10E85400016E450E036E3CEC6DF005018951D8B490
:10E8640036EF74F038EF74F079EF74F0CEB83DEF12
:10E8740074F03FEF74F079EF74F07B51D8B445EF46
:10E8840074F047EF74F079EF74F090C57FF591C59B
:10E8940080F592C581F58FC56DF5000E896F000E68
:10E8A400026E140E016E81C503F53CEC6DF0000E92
:10E8B400026E130E016E80C503F53CEC6DF0000E84
:10E8C400026E120E016E7FC503F53CEC6DF0000E76
:10E8D400026E150E016E6DC503F53CEC6DF0000E75
:10E8E400026E040E016E450E036E3CEC6DF00501E4
:10E8F4008A51D8B480EF74F082EF74F0C3EF74F0EF
:10E90400D0B887EF74F089EF74F0C3EF74F07D51E1
:10E91400D8B48FEF74F091EF74F0C3EF74F090C536
:10E9240082F591C583F592C584F58FC56EF5000E09
:10E934008A6F000E026E190E016E84C503F53CEC5D
:10E944006DF0000E026E180E016E83C503F53CECEB
:10E954006DF0000E026E160E016E82C503F53CECDE
:10E964006DF0000E026E1B0E016E6EC503F53CECDD
:10E974006DF0000E026E060E016E450E036E3CEC49
:10E984006DF005018B51D8B4CAEF74F0CCEF74F07C
:10E994000DEF75F0CFBED1EF74F0D3EF74F00DEF3F
:10E9A40075F07C51D8B4D9EF74F0DBEF74F00DEF4F
:10E9B40075F090C585F591C586F592C587F58FC527
:10E9C4006FF5000E8B6F000E026E200E016E87C570
:10E9D40003F53CEC6DF0000E026E1F0E016E86C551
:10E9E40003F53CEC6DF0000E026E1E0E016E85C543
:10E9F40003F53CEC6DF0000E026E220E016E6FC545
:10EA040003F53CEC6DF0000E026E080E016E450E2F
:10EA1400036E3CEC6DF0D0AC12EF75F014EF75F0B2
:10EA240019EF75F0000E0501666F000E656FCEA834
:10EA34001EEF75F020EF75F025EF75F0000E05015F
:10EA4400686F000E676FD0A82AEF75F02CEF75F091
:10EA540031EF75F0000E05016A6F000E696FCFAEDD
:10EA640036EF75F038EF75F069EF71F0000E0501BF
:10EA74006C6F000E6B6F69EF71F0D0AC44EF75F002
:10EA840046EF75F067EF75F0C08E8DC50BF58EC53A
:10EA94000CF52C0E0D6E010E0E6E000E0F6E8C51C9
:10EAA400F0EC6DF0010E0501936F000E026E240E62
:10EAB400016E93C503F53CEC6DF0000E026E020E80
:10EAC400016E450E036E3CEC6DF0D0BC6CEF75F03E
:10EAD4006EEF75F069EF71F00501654B662BFA0E68
:10EAE40065196611D8A479EF75F07BEF75F069EFBD
:10EAF40071F0000E666F000E656F010E886F000ED8
:10EB0400936F000E026E240E016E93C503F53CEC68
:10EB14006DF0000E026E020E016E450E036E3CECAB
:10EB24006DF069EF71F0CEA89AEF75F09CEF75F077
:10EB3400BDEF75F0C08A80C50BF581C50CF52C0EB0
:10EB44000D6E010E0E6E000E0F6E7F51F0EC6DF027
:10EB5400020E0501936F000E026E240E016E93C522
:10EB640003F53CEC6DF0000E026E020E016E450ED4
:10EB7400036E3CEC6DF0CEB8C2EF75F0C4EF75F0E7
:10EB840069EF71F00501674B682BFA0E671968117C
:10EB9400D8A4CFEF75F0D1EF75F069EF71F0000EE6
:10EBA400686F000E676F010E896F000E936F83EF1D
:10EBB40075F0D0A8E0EF75F0E2EF75F003EF76F0B2
:10EBC400BE8A83C50BF584C50CF52C0E0D6E010EA3
:10EBD4000E6E000E0F6E8251F0EC6DF0030E050107
:10EBE400936F000E026E240E016E93C503F53CEC88
:10EBF4006DF0000E026E020E016E450E036E3CECCB
:10EC04006DF0D0B808EF76F00AEF76F069EF71F0A6
:10EC14000501694B6A2BFA0E69196A11D8A415EF1C
:10EC240076F017EF76F069EF71F0000E6A6F000E60
:10EC3400696F010E8A6F000E936F83EF75F0CFAE8C
:10EC440026EF76F028EF76F049EF76F0C08686C599
:10EC54000BF587C50CF52C0E0D6E010E0E6E000E15
:10EC64000F6E8551F0EC6DF0040E0501936F000EEC
:10EC7400026E240E016E93C503F53CEC6DF0000E9C
:10EC8400026E020E016E450E036E3CEC6DF0CFBEBB
:10EC94004EEF76F050EF76F069EF71F005016B4BB3
:10ECA4006C2BFA0E6B196C11D8A45BEF76F05DEF48
:10ECB40076F069EF71F0000E6C6F000E6B6F010E51
:10ECC4008B6F000E936F83EF75F0D0AC6CEF76F022
:10ECD4006EEF76F081EF76F0C09E000E936F000E1B
:10ECE400026E240E016E93C503F53CEC6DF0000E2C
:10ECF400026E020E016E450E036E3CEC6DF0D0BC4C
:10ED040086EF76F088EF76F069EF71F00501654BD8
:10ED1400662BFA0E65196611D8A493EF76F095EF79
:10ED240076F069EF71F0000E666F000E656F010EEC
:10ED3400706F010E936F69EF71F0CEA8A4EF76F0B7
:10ED4400A6EF76F0B9EF76F0C09A000E936F000E3E
:10ED5400026E240E016E93C503F53CEC6DF0000EBB
:10ED6400026E020E016E450E036E3CEC6DF0CEB8E1
:10ED7400BEEF76F0C0EF76F069EF71F00501674BF6
:10ED8400682BFA0E67196811D8A4CBEF76F0CDEF93
:10ED940076F069EF71F0000E686F000E676F010E78
:10EDA400716F020E936F69EF71F0D0A8DCEF76F00B
:10EDB400DEEF76F0F1EF76F0BE9A000E936F000E60
:10EDC400026E240E016E93C503F53CEC6DF0000E4B
:10EDD400026E020E016E450E036E3CEC6DF0D0B86F
:10EDE400F6EF76F0F8EF76F069EF71F00501694B14
:10EDF4006A2BFA0E69196A11D8A403EF77F005EFAC
:10EE040077F069EF71F0000E6A6F000E696F010E02
:10EE1400726F030E936F69EF71F0CFAE14EF77F05A
:10EE240016EF77F029EF77F0C096000E936F000E7F
:10EE3400026E240E016E93C503F53CEC6DF0000EDA
:10EE4400026E020E016E450E036E3CEC6DF0CFBEF9
:10EE54002EEF77F030EF77F069EF71F005016B4B2F
:10EE64006C2BFA0E6B196C11D8A43BEF77F03DEFC5
:10EE740077F069EF71F0000E6C6F000E6B6F010E8E
:10EE8400736F040E936F69EF71F08DC50BF58EC52A
:10EE94000CF52C0E0D6E010E0E6E000E0F6E8C51C5
:10EEA400F0EC6DF005017051D8B45BEF77F05DEFD5
:10EEB40077F07AEF77F0742B0C0E7419D8A465EF01
:10EEC40077F067EF77F07AEF77F0000E746FC0AEEB
:10EED4006EEF77F072EF77F02F6A2F2A73EF77F0E7
:10EEE4002F6A2F322F32C0502F187F0B2F18C06E6D
:10EEF400D0BC7FEF77F081EF77F094EF77F00501E6
:10EF04007A51D8B488EF77F08AEF77F094EF77F0FE
:10EF14007051D8A490EF77F092EF77F094EF77F0F8
:10EF2400090E936FD0BC99EF77F09BEF77F0DFEF8A
:10EF340077F005017A51D8B4A2EF77F0A4EF77F017
:10EF4400DFEF77F07051D8B4AAEF77F0ACEF77F039
:10EF5400DFEF77F0C08E000E706F000E766F000E3C
:10EF6400776F000E786F000E796F000E026E0F0E31
:10EF7400016E8EC503F53CEC6DF0000E026E0C0EB6
:10EF8400016E8DC503F53CEC6DF0000E026E0B0EA8
:10EF9400016E8CC503F53CEC6DF0000E026E110E93
:10EFA400016E7EC503F53CEC6DF0000E026E030E9F
:10EFB400016E450E036E3CEC6DF005017051D8B442
:10EFC400E6EF77F0E8EF77F0DCEF78F0FB0E8C25D6
:10EFD4002F6E306AFF0E30229051316E326A2F50FC
:10EFE400315C3250800A336E3050800A3358D8A0D6
:10EFF400FEEF77F000EF78F01BEF78F090512F6E72
:10F00400306A8C51316E326A050E3126000E32227E
:10F014002F50315C3250800A336E3050800A33589E
:10F02400D8A017EF78F019EF78F01BEF78F0010E05
:10F03400766F7651D8B421EF78F023EF78F025EF8E
:10F0440078F090C58CF5FB0E7E252F6E306AFF0E8E
:10F0540030228F51316E326A2F50315C3250800A27
:10F06400336E3050800A3358D8A03BEF78F03DEF30
:10F0740078F058EF78F08F512F6E306A7E51316EF0
:10F08400326A050E3126000E32222F50315C325086
:10F09400800A336E3050800A3358D8A054EF78F089
:10F0A40056EF78F058EF78F0010E796F7951D8B4B3
:10F0B4005EEF78F060EF78F062EF78F08FC57EF560
:10F0C400FB0E8D252F6E306AFF0E30229151316E6A
:10F0D400326A2F50315C3250800A336E3050800ACD
:10F0E4003358D8A078EF78F07AEF78F095EF78F08D
:10F0F40091512F6E306A8D51316E326A050E312670
:10F10400000E32222F50315C3250800A336E305060
:10F11400800A3358D8A091EF78F093EF78F095EF08
:10F1240078F0010E776F7751D8B49BEF78F09DEFAC
:10F1340078F09FEF78F091C58DF5FB0E8E252F6E3C
:10F14400306AFF0E30229251316E326A2F50315C98
:10F154003250800A336E3050800A3358D8A0B5EF4D
:10F1640078F0B7EF78F0D2EF78F092512F6E306AE2
:10F174008E51316E326A050E3126000E32222F5026
:10F18400315C3250800A336E3050800A3358D8A034
:10F19400CEEF78F0D0EF78F0D2EF78F0010E786F00
:10F1A4007851D8B4D8EF78F0DAEF78F0DCEF78F073
:10F1B40092C58EF5CEB8E1EF78F0E3EF78F00DEF7D
:10F1C40079F07B51D8B4E9EF78F0EBEF78F00DEFFC
:10F1D40079F0C09EC08A80C50BF581C50CF52C0E54
:10F1E4000D6E010E0E6E000E0F6E7F51F0EC6DF081
:10F1F400020E0501936F000E026E240E016E93C57C
:10F2040003F53CEC6DF0000E026E020E016E450E2D
:10F21400036E3CEC6DF0D0B812EF79F014EF79F096
:10F224003FEF79F005017D51D8B41BEF79F01DEF64
:10F2340079F03FEF79F0C09EBE8A83C50BF584C593
:10F244000CF52C0E0D6E010E0E6E000E0F6E82511B
:10F25400F0EC6DF0030E0501936F000E026E240EA8
:10F26400016E93C503F53CEC6DF0000E026E020EC8
:10F27400016E450E036E3CEC6DF0CFBE44EF79F0A9
:10F2840046EF79F069EF71F005017C51D8B44DEF88
:10F2940079F04FEF79F069EF71F0C09EC08686C5B2
:10F2A4000BF587C50CF52C0E0D6E010E0E6E000EBF
:10F2B4000F6E8551F0EC6DF0040E0501936F83EF32
:10F2C40075F080C50BF581C50CF52C0E0D6E010E85
:10F2D4000E6E000E0F6E7F51F0EC6DF00501715152
:10F2E400D8B477EF79F079EF79F096EF79F0742B61
:10F2F4000C0E7419D8A481EF79F083EF79F096EFAE
:10F3040079F0000E746FC0AA8AEF79F08EEF79F06D
:10F314002F6A2F2A8FEF79F02F6A2F3A2F46C05089
:10F324002F18DF0B2F18C06ECEB89BEF79F09DEF2E
:10F3340079F0B0EF79F005017B51D8B4A4EF79F0FE
:10F34400A6EF79F0B0EF79F07151D8A4ACEF79F071
:10F35400AEEF79F0B0EF79F00A0E936FCEB8B5EF57
:10F3640079F0B7EF79F0FBEF79F005017B51D8B470
:10F37400BEEF79F0C0EF79F0FBEF79F07151D8B4BA
:10F38400C6EF79F0C8EF79F0FBEF79F0C08A000E90
:10F39400716F000E766F000E776F000E786F000E9F
:10F3A400796F000E026E140E016E8EC503F53CECEF
:10F3B4006DF0000E026E130E016E8DC503F53CEC6C
:10F3C4006DF0000E026E120E016E8CC503F53CEC5E
:10F3D4006DF0000E026E150E016E7EC503F53CEC59
:10F3E4006DF0000E026E040E016E450E036E3CECD1
:10F3F4006DF005017151D8B402EF7AF004EF7AF0A0
:10F40400F8EF7AF0FB0E7F252F6E306AFF0E302264
:10F414009051316E326A2F50315C3250800A336E13
:10F424003050800A3358D8A01AEF7AF01CEF7AF0E3
:10F4340037EF7AF090512F6E306A7F51316E326A15
:10F44400050E3126000E32222F50315C3250800AD4
:10F45400336E3050800A3358D8A033EF7AF035EF4A
:10F464007AF037EF7AF0010E766F7651D8B43DEF2B
:10F474007AF03FEF7AF041EF7AF090C57FF5FB0E1A
:10F484006D252F6E306AFF0E30228F51316E326A35
:10F494002F50315C3250800A336E3050800A33581A
:10F4A400D8A057EF7AF059EF7AF074EF7AF08F51D1
:10F4B4002F6E306A6D51316E326A050E3126000EA0
:10F4C40032222F50315C3250800A336E3050800A21
:10F4D4003358D8A070EF7AF072EF7AF074EF7AF0C4
:10F4E400010E796F7951D8B47AEF7AF07CEF7AF023
:10F4F4007EEF7AF08FC56DF5FB0E80252F6E306A96
:10F50400FF0E30229151316E326A2F50315C3250ED
:10F51400800A336E3050800A3358D8A094EF7AF0C2
:10F5240096EF7AF0B1EF7AF091512F6E306A8051F4
:10F53400316E326A050E3126000E32222F50315CB4
:10F544003250800A336E3050800A3358D8A0ADEF61
:10F554007AF0AFEF7AF0B1EF7AF0010E776F77516E
:10F56400D8B4B7EF7AF0B9EF7AF0BBEF7AF091C57F
:10F5740080F5FB0E81252F6E306AFF0E30229251EA
:10F58400316E326A2F50315C3250800A336E305003
:10F59400800A3358D8A0D1EF7AF0D3EF7AF0EEEFA7
:10F5A4007AF092512F6E306A8151316E326A050EB3
:10F5B4003126000E32222F50315C3250800A336ED5
:10F5C4003050800A3358D8A0EAEF7AF0ECEF7AF0A2
:10F5D400EEEF7AF0010E786F7851D8B4F4EF7AF048
:10F5E400F6EF7AF0F8EF7AF092C581F5D0BCFDEF32
:10F5F4007AF0FFEF7AF029EF7BF07A51D8B405EF77
:10F604007BF007EF7BF029EF7BF0C09AC08E8DC5AD
:10F614000BF58EC50CF52C0E0D6E010E0E6E000E44
:10F624000F6E8C51F0EC6DF0010E0501936F000E1E
:10F63400026E240E016E93C503F53CEC6DF0000ED2
:10F64400026E020E016E450E036E3CEC6DF0D0B8F6
:10F654002EEF7BF030EF7BF05BEF7BF005017D510B
:10F66400D8B437EF7BF039EF7BF05BEF7BF0C09AD7
:10F67400BE8A83C50BF584C50CF52C0E0D6E010EE8
:10F684000E6E000E0F6E8251F0EC6DF0030E05014C
:10F69400936F000E026E240E016E93C503F53CECCD
:10F6A4006DF0000E026E020E016E450E036E3CEC10
:10F6B4006DF0CFBE60EF7BF062EF7BF069EF71F02D
:10F6C40005017C51D8B469EF7BF06BEF7BF069EFF7
:10F6D40071F0C09AC08686C50BF587C50CF52C0E53
:10F6E4000D6E010E0E6E000E0F6E8551F0EC6DF076
:10F6F4005EEF79F083C50BF584C50CF52C0E0D6E09
:10F70400010E0E6E000E0F6E8251F0EC6DF00501CD
:10F714007251D8B490EF7BF092EF7BF0AFEF7BF0B7
:10F72400742B0C0E7419D8A49AEF7BF09CEF7BF029
:10F73400AFEF7BF0000E746FBEAAA3EF7BF0A7EFD0
:10F744007BF02F6A2F2AA8EF7BF02F6A2F3A2F46DF
:10F75400BE502F18DF0B2F18BE6ED0B8B4EF7BF05D
:10F76400B6EF7BF0C9EF7BF005017D51D8B4BDEF56
:10F774007BF0BFEF7BF0C9EF7BF07251D8A4C5EFEB
:10F784007BF0C7EF7BF0C9EF7BF00B0E936FD0B823
:10F79400CEEF7BF0D0EF7BF014EF7CF005017D51D0
:10F7A400D8B4D7EF7BF0D9EF7BF014EF7CF0725133
:10F7B400D8B4DFEF7BF0E1EF7BF014EF7CF0BE8A8E
:10F7C400000E726F000E766F000E776F000E786F6A
:10F7D400000E796F000E026E190E016E8EC503F5D0
:10F7E4003CEC6DF0000E026E180E016E8DC503F533
:10F7F4003CEC6DF0000E026E160E016E8CC503F526
:10F804003CEC6DF0000E026E1B0E016E7EC503F51E
:10F814003CEC6DF0000E026E060E016E450E036E9A
:10F824003CEC6DF0000ED0B8010E05017D6F7251F5
:10F83400D8B41FEF7CF021EF7CF015EF7DF0FB0EC8
:10F8440082252F6E306AFF0E30229051316E326A5B
:10F854002F50315C3250800A336E3050800A335856
:10F86400D8A037EF7CF039EF7CF054EF7CF0905166
:10F874002F6E306A8251316E326A050E3126000EC7
:10F8840032222F50315C3250800A336E3050800A5D
:10F894003358D8A050EF7CF052EF7CF054EF7CF05A
:10F8A400010E766F7651D8B45AEF7CF05CEF7CF0A1
:10F8B4005EEF7CF090C582F5FB0E6E252F6E306AEC
:10F8C400FF0E30228F51316E326A2F50315C32502C
:10F8D400800A336E3050800A3358D8A074EF7CF01D
:10F8E40076EF7CF091EF7CF08F512F6E306A6E5181
:10F8F400316E326A050E3126000E32222F50315CF1
:10F904003250800A336E3050800A3358D8A08DEFBD
:10F914007CF08FEF7CF091EF7CF0010E796F7951E0
:10F92400D8B497EF7CF099EF7CF09BEF7CF08FC517
:10F934006EF5FB0E83252F6E306AFF0E3022915137
:10F94400316E326A2F50315C3250800A336E30503F
:10F95400800A3358D8A0B1EF7CF0B3EF7CF0CEEF3F
:10F964007CF091512F6E306A8351316E326A050EEC
:10F974003126000E32222F50315C3250800A336E11
:10F984003050800A3358D8A0CAEF7CF0CCEF7CF01A
:10F99400CEEF7CF0010E776F7751D8B4D4EF7CF0C2
:10F9A400D6EF7CF0D8EF7CF091C583F5FB0E84256F
:10F9B4002F6E306AFF0E30229251316E326A2F5010
:10F9C400315C3250800A336E3050800A3358D8A0EC
:10F9D400EEEF7CF0F0EF7CF00BEF7DF092512F6EA8
:10F9E400306A8451316E326A050E3126000E32229D
:10F9F4002F50315C3250800A336E3050800A3358B5
:10FA0400D8A007EF7DF009EF7DF00BEF7DF0010E3C
:10FA1400786F7851D8B411EF7DF013EF7DF015EFC6
:10FA24007DF092C584F5D0BC1AEF7DF01CEF7DF01B
:10FA340046EF7DF07A51D8B422EF7DF024EF7DF0CB
:10FA440046EF7DF0BE9AC08E8DC50BF58EC50CF5C4
:10FA54002C0E0D6E010E0E6E000E0F6E8C51F0EC1E
:10FA64006DF0010E0501936F000E026E240E016EFF
:10FA740093C503F53CEC6DF0000E026E020E016EB0
:10FA8400450E036E3CEC6DF0CEB84BEF7DF04DEFC0
:10FA94007DF078EF7DF005017B51D8B454EF7DF013
:10FAA40056EF7DF078EF7DF0BE9AC08A80C50BF5E5
:10FAB40081C50CF52C0E0D6E010E0E6E000E0F6E30
:10FAC4007F51F0EC6DF0020E0501936F000E026E93
:10FAD400240E016E93C503F53CEC6DF0000E026E2E
:10FAE400020E016E450E036E3CEC6DF0CFBE7DEF51
:10FAF4007DF07FEF7DF0AAEF7DF005017C51D8B455
:10FB040086EF7DF088EF7DF0AAEF7DF0BE9AC08687
:10FB140086C50BF587C50CF52C0E0D6E010E0E6E09
:10FB2400000E0F6E8551F0EC6DF0040E0501936F1D
:10FB3400000E026E240E016E93C503F53CEC6DF0CD
:10FB4400000E026E020E016E450E036E3CEC6DF06B
:10FB540086C50BF587C50CF52C0E0D6E010E0E6EC9
:10FB6400000E0F6E05018551F0EC6DF00501735127
:10FB7400D8B4BFEF7DF0C1EF7DF0DFEF7DF0742BE3
:10FB84000C0E7419D8A4C9EF7DF0CBEF7DF0DFEF34
:10FB94007DF0000E746FC0A6D2EF7DF0D6EF7DF03D
:10FBA4002F6A2F2AD7EF7DF02F6A2F462F462F4634
:10FBB400C0502F18F70B2F18C06ECFBEE4EF7DF0A6
:10FBC400E6EF7DF0F9EF7DF005017C51D8B4EDEF5F
:10FBD4007DF0EFEF7DF0F9EF7DF07351D8A4F5EFF0
:10FBE4007DF0F7EF7DF0F9EF7DF00C0E936FCFBE53
:10FBF400FEEF7DF000EF7EF044EF7EF005017C51D6
:10FC0400D8B407EF7EF009EF7EF044EF7EF0735135
:10FC1400D8B40FEF7EF011EF7EF044EF7EF0C08693
:10FC2400000E736F000E766F000E776F000E786F04
:10FC3400000E796F000E026E200E016E8EC503F564
:10FC44003CEC6DF0000E026E1F0E016E8DC503F5C7
:10FC54003CEC6DF0000E026E1E0E016E8CC503F5B9
:10FC64003CEC6DF0000E026E220E016E7EC503F5B3
:10FC74003CEC6DF0000E026E080E016E450E036E34
:10FC84003CEC6DF005017351D8B44BEF7EF04DEFB1
:10FC94007EF041EF7FF0FB0E85252F6E306AFF0E5C
:10FCA40030229051316E326A2F50315C3250800ACA
:10FCB400336E3050800A3358D8A063EF7EF065EF7E
:10FCC4007EF080EF7EF090512F6E306A8551316E58
:10FCD400326A050E3126000E32222F50315C32502A
:10FCE400800A336E3050800A3358D8A07CEF7EF0FF
:10FCF4007EEF7EF080EF7EF0010E766F7651D8B401
:10FD040086EF7EF088EF7EF08AEF7EF090C585F571
:10FD1400FB0E6F252F6E306AFF0E30228F51316E2D
:10FD2400326A2F50315C3250800A336E3050800A70
:10FD34003358D8A0A0EF7EF0A2EF7EF0BDEF7EF0A6
:10FD44008F512F6E306A6F51316E326A050E312633
:10FD5400000E32222F50315C3250800A336E305004
:10FD6400800A3358D8A0B9EF7EF0BBEF7EF0BDEF28
:10FD74007EF0010E796F7951D8B4C3EF7EF0C5EFF0
:10FD84007EF0C7EF7EF08FC56FF5FB0E86252F6ED4
:10FD9400306AFF0E30229151316E326A2F50315C3D
:10FDA4003250800A336E3050800A3358D8A0DDEFC9
:10FDB4007EF0DFEF7EF0FAEF7EF091512F6E306A25
:10FDC4008651316E326A050E3126000E32222F50D2
:10FDD400315C3250800A336E3050800A3358D8A0D8
:10FDE400F6EF7EF0F8EF7EF0FAEF7EF0010E776F1B
:10FDF4007751D8B400EF7FF002EF7FF004EF7FF08B
:10FE040091C586F5FB0E87252F6E306AFF0E3022D2
:10FE14009251316E326A2F50315C3250800A336E07
:10FE24003050800A3358D8A01AEF7FF01CEF7FF0CF
:10FE340037EF7FF092512F6E306A8751316E326AFC
:10FE4400050E3126000E32222F50315C3250800ACA
:10FE5400336E3050800A3358D8A033EF7FF035EF3B
:10FE64007FF037EF7FF0010E786F7851D8B43DEF13
:10FE74007FF03FEF7FF041EF7FF092C587F5D0BC74
:10FE840046EF7FF048EF7FF064EF7FF07A51D8B40B
:10FE94004EEF7FF050EF7FF064EF7FF0C096C08E9E
:10FEA400010E936F000E026E240E016E93C503F5CE
:10FEB4003CEC6DF0000E026E020E016E450E036EF8
:10FEC4003CEC6DF0CEB869EF7FF06BEF7FF096EF0E
:10FED4007FF005017B51D8B472EF7FF074EF7FF0AF
:10FEE40096EF7FF0C096C08A80C50BF581C50CF5EE
:10FEF4002C0E0D6E010E0E6E000E0F6E7F51F0EC87
:10FF04006DF0020E0501936F000E026E240E016E59
:10FF140093C503F53CEC6DF0000E026E020E016E0B
:10FF2400450E036E3CEC6DF0D0B89BEF7FF09DEF77
:10FF34007FF069EF71F005017D51D8B4A4EF7FF033
:10FF4400A6EF7FF069EF71F0C096BE8A83C50BF50A
:10FF540084C50CF52C0E0D6E010E0E6E000E0F6E88
:10FF64008251F0EC6DF0030E0501936F83EF75F091
:10FF7400050193512F6E306A3050000AD8B4C5EF92
:10FF84007FF069EF71F02F50000AD8B414EF72F0CB
:10FF9400010AD8B447EF77F0030AD8B463EF79F0D5
:10FFA400010AD8B47CEF7BF0070AD8B4AAEF7DF03D
:10FFB400010AD8B43FEF75F0030AD8B495EF75F091
:10FFC400010AD8B4DBEF75F00F0AD8B421EF76F04C
:10FFD400010AD8B467EF76F0030AD8B49FEF76F03D
:10FFE400010AD8B4D7EF76F0070AD8B40FEF77F048
:0CFFF40069EF71F0FEEF7FF0C7EF6CF0DA
:020000040020DA
:10000000FF0FFF0FFF0FFF0FFF0FFF0FFF0FFF0F80
:10001000FF0FFF0FFF0FFF0FFF0FFF0FFF0FFF0F70
:020000040030CA
:0A0000008CFFF7FF9FFFFFFFFFFFDB
:00000001FF
