:040000000DEF00F010
:0400080096EF11F06E
:06001800FF00D5EF11F01E
:07160000000240000300009E
:10160800B7EC11F0000E46EC0FF0D68E8C0E016E82
:10161800230E026E27EC12F0000E336E000E346EAD
:10162800000E316E000E326EC09EC09ABE9AC096F1
:10163800000E396E000E026E160E016E1AEC12F0D4
:10164800450AD8A42AEF0BF02CEF0BF04EEF0CF064
:10165800000E026E380E016E1AEC12F0396E390463
:10166800D8A439EF0BF03BEF0BF079EF0BF0000E3D
:10167800026E170E016E1AEC12F0450AD8A447EF55
:101688000BF049EF0BF077EF0BF0000E026E1F0E18
:10169800016E1AEC12F0356E000E026E210E016E0C
:1016A8001AEC12F0366E000E026E220E016E1AEC63
:1016B80012F0376E000E026E240E016E1AEC12F054
:1016C800386E36C507F537C508F538C509F5030E70
:1016D8000A6E000E0B6E000E0C6E355019EC11F0F0
:1016E800C08E79EF0BF0000E396E020E3918D8A4AF
:1016F80080EF0BF082EF0BF0C0EF0BF0000E026EE4
:10170800180E016E1AEC12F0450AD8A48EEF0BF0F1
:1017180090EF0BF0BEEF0BF0000E026E250E016E7F
:101728001AEC12F0356E000E026E260E016E1AECDF
:1017380012F0366E000E026E270E016E1AEC12F0D1
:10174800376E000E026E290E016E1AEC12F0386E1A
:1017580036C507F537C508F538C509F5030E0A6E0D
:10176800000E0B6E000E0C6E355019EC11F0C08A8D
:10177800C0EF0BF0000E396E030E3918D8A4C7EF6E
:101788000BF0C9EF0BF007EF0CF0000E026E1A0E0B
:10179800016E1AEC12F0450AD8A4D5EF0BF0D7EF7A
:1017A8000BF005EF0CF0000E026E2B0E016E1AEC1A
:1017B80012F0356E000E026E2D0E016E1AEC12F04C
:1017C800366E000E026E2E0E016E1AEC12F0376E97
:1017D800000E026E300E016E1AEC12F0386E36C52D
:1017E80007F537C508F538C509F5030E0A6E000E6A
:1017F8000B6E000E0C6E355019EC11F0BE8A07EF17
:101808000CF0000E396E040E3918D8A40EEF0CF047
:1018180010EF0CF04EEF0CF0000E026E1C0E016E75
:101828001AEC12F0450AD8A41CEF0CF01EEF0CF0CD
:101838004CEF0CF0000E026E320E016E1AEC12F034
:10184800356E000E026E330E016E1AEC12F0366E13
:10185800000E026E350E016E1AEC12F0376E000E95
:10186800026E370E016E1AEC12F0386E36C507F5A7
:1018780037C508F538C509F5030E0A6E000E0B6E5C
:10188800000E0C6E355019EC11F0C0864EEF0CF0BE
:10189800000E396E000E026E0A0E016E2CEC12F06C
:1018A800A7EC11F0000E026E380E016E39C503F573
:1018B800F0EC10F0000E026E160E016E450E036E6F
:1018C800F0EC10F09DEF0EF039EC12F0020E3FEC48
:1018D80011F001C51BF502C51CF51D6A1E6A000E34
:1018E8001F6E000E206E000E216E000E226EFF0E7F
:1018F800236E0F0E246E000E256E000E266E000E4F
:10190800276E000E286E000E296E000E2A6EFF0E3E
:101918002B6E000E2C6E000E2D6E000E2E6E1DEC22
:1019280010F039EC12F0100E3FEC11F001C51BF568
:1019380002C51CF51D6A1E6A000E1F6E000E206E81
:10194800000E216E000E226EFF0E236E0F0E246E07
:10195800000E256E000E266E000E276E000E286EF5
:10196800000E296E000E2A6EFF0E2B6E000E2C6ED6
:10197800000E2D6E000E2E6E1DEC10F039EC12F0DC
:10198800110E3FEC11F001C51BF502C51CF51D6ACF
:101998001E6A000E1F6E000E206E000E216E000ED5
:1019A800226EFF0E236E0F0E246E000E256E000EA3
:1019B800266E000E276E000E286E000E296E000E91
:1019C8002A6EFF0E2B6E000E2C6E000E2D6E000E72
:1019D8002E6E1DEC10F039EC12F0120E3FEC11F0E7
:1019E80001C51BF502C51CF51D6A1E6A000E1F6E97
:1019F800000E206E000E216E000E226EFF0E236E6A
:101A08000F0E246E000E256E000E266E000E276E39
:101A1800000E286E000E296E000E2A6EFF0E2B6E29
:101A2800000E2C6E000E2D6E000E2E6E1DEC10F0AA
:101A3800C0AC21EF0DF023EF0DF02EEF0DF0335079
:101A4800D8A429EF0DF02BEF0DF02EEF0DF0C08E7E
:101A5800010E396E000EC0BC010E336EBEA837EF02
:101A68000DF039EF0DF044EF0DF03450D8A43FEFEE
:101A78000DF041EF0DF044EF0DF0C08A020E396E03
:101A8800000EBEB8010E346E54EF0CF0C0AC4FEF30
:101A98000DF051EF0DF05CEF0DF03350D8A457EF77
:101AA8000DF059EF0DF05CEF0DF0C09E000E396E91
:101AB800000EC0BC010E336EBEA865EF0DF067EFD7
:101AC8000DF0ACEF0DF03450D8A46DEF0DF06FEFC2
:101AD8000DF0ACEF0DF0000E026E180E016E1AEC50
:101AE80012F0450AD8A47BEF0DF07DEF0DF0ACEFB6
:101AF8000DF0000E026E250E016E1AEC12F0356E16
:101B0800000E026E260E016E1AEC12F0366E000EF2
:101B1800026E270E016E1AEC12F0376E000E026E7E
:101B2800290E016E1AEC12F0386E36C507F537C566
:101B380008F538C509F5030E0A6E000E0B6E000E87
:101B48000C6E355019EC11F0C08AC09E020E396E29
:101B5800000EBEB8010E346E54EF0CF0BEA8B7EFFD
:101B68000DF0B9EF0DF0C3EF0DF03450D8A4BFEF6E
:101B78000DF0C1EF0DF0C3EF0DF0000E396E000E41
:101B8800BEB8010E346E54EF0CF0C0A8CEEF0DF0C5
:101B9800D0EF0DF0DAEF0DF03150D8A4D6EF0DF0FC
:101BA800D8EF0DF0DAEF0DF0000E396E000EC0B868
:101BB800010E316EBEA8E3EF0DF0E5EF0DF02DEF4D
:101BC8000EF03450D8A4EBEF0DF0EDEF0DF02DEF43
:101BD8000EF0000E026E180E016E1AEC12F0450A95
:101BE800D8A4F9EF0DF0FBEF0DF02BEF0EF0000E7F
:101BF800026E250E016E1AEC12F0356E000E026EA2
:101C0800260E016E1AEC12F0366E000E026E270ECA
:101C1800016E1AEC12F0376E000E026E290E016E7C
:101C28001AEC12F0386E36C507F537C508F538C511
:101C380009F5030E0A6E000E0B6E000E0C6E355081
:101C480019EC11F0C08A020E396E2DEF0EF0000E5D
:101C5800396E000EBEB8010E346E54EF0CF0BFAEF4
:101C680038EF0EF03AEF0EF044EF0EF03250D8A4F1
:101C780040EF0EF042EF0EF044EF0EF0000E396E1A
:101C8800000EBFBE010E326EBEA84DEF0EF04FEF34
:101C98000EF097EF0EF03450D8A455EF0EF057EF32
:101CA8000EF097EF0EF0000E026E180E016E1AEC91
:101CB80012F0450AD8A463EF0EF065EF0EF095EF29
:101CC8000EF0000E026E250E016E1AEC12F0356E43
:101CD800000E026E260E016E1AEC12F0366E000E21
:101CE800026E270E016E1AEC12F0376E000E026EAD
:101CF800290E016E1AEC12F0386E36C507F537C595
:101D080008F538C509F5030E0A6E000E0B6E000EB5
:101D18000C6E355019EC11F0C08A020E396E97EF2F
:101D28000EF0000E396E000EBEB8010E346E54EF80
:101D38000CF039502F6E306A3050000AD8B4A7EF33
:101D48000EF054EF0CF02F50000AD8B468EF0CF0E6
:101D5800010AD8B44AEF0DF0030AD8B4B2EF0DF077
:101D6800010AD8B4C9EF0DF0070AD8B433EF0EF062
:101D780054EF0CF00DEF00F0000E166E14BEC9EF14
:101D88000EF0C7EF0EF0D3EF0EF0141E131E121E46
:101D9800116C000E122213221422010E166E10BEB0
:101DA800DAEF0EF0D8EF0EF0E4EF0EF0101E0F1E73
:101DB8000E1E0D6C000E0E220F221022010E161A96
:101DC800000E176E000E186E000E196E000E1A6EB9
:101DD8001150121013101410D8B4F5EF0EF0F7EFDD
:101DE8000EF02DEF0FF0010E156E01EF0FF0D890E9
:101DF8001136123613361436152A14AE06EF0FF0C4
:101E080008EF0FF0FBEF0EF0D8901736183619369A
:101E18001A3611500D5C12500E5813500F581450AA
:101E28001058D8A01AEF0FF01CEF0FF025EF0FF0A5
:101E380011500D5E12500E5A13500F5A1450105A6A
:101E48001780D8901432133212321132152E08EF3F
:101E58000FF01650D8B433EF0FF035EF0FF03DEF19
:101E68000FF01A1E191E181E176C000E18221922C0
:101E78001A2217C50DF518C50EF519C50FF51AC59F
:101E880010F51200026E000184BF4DEF0FF04FEF06
:101E98000FF0B2EF0FF00250050D010EF324F66EAD
:101EA800160EF420F76EF86A000EF8220800F5C442
:101EB80084F00250050D010EF326000EF422010EE7
:101EC800F324F66E160EF420F76EF86A000EF82268
:101ED8000800F5C485F00250050D020EF326000E29
:101EE800F422010EF324F66E160EF420F76EF86A4B
:101EF800000EF8220800F5500309866F000E8C6F5B
:101F08000250050D030EF326000EF422010EF324F1
:101F1800F66E160EF420F76EF86A000EF822080026
:101F2800F5C489F00250050D040EF326000EF422C4
:101F3800010EF324F66E160EF420F76EF86A000E02
:101F4800F82208006100D4F301F5013A0146014680
:101F5800C7500118BF0B0118C76E848F1200026E9C
:101F680002AEB9EF0FF0BBEF0FF0BFEF0FF035EC9B
:101F780012F0C1EF0FF031EC12F002ACC6EF0FF027
:101F8800C8EF0FF0CCEF0FF035EC12F0CEEF0FF0FA
:101F980031EC12F002AAD3EF0FF0D5EF0FF0D9EF22
:101FA8000FF035EC12F0DBEF0FF031EC12F002A875
:101FB800E0EF0FF0E2EF0FF0E6EF0FF035EC12F084
:101FC800E8EF0FF031EC12F002A6EDEF0FF0EFEFB3
:101FD8000FF0F3EF0FF035EC12F0F5EF0FF031ECF6
:101FE80012F002A4FAEF0FF0FCEF0FF000EF10F080
:101FF80035EC12F002EF10F031EC12F002A207EF0C
:1020080010F009EF10F00DEF10F035EC12F00FEFB3
:1020180010F031EC12F002A014EF10F016EF10F0EF
:102028001AEF10F035EC12F01CEF10F031EC12F052
:1020380012001F501B5C016E20501C58026E21506C
:102048001D58036E22501E58046E27502B5C056ED7
:1020580028502C58066E29502D58076E2A502E5895
:10206800086E5AEC10F001C50DF502C50EF503C552
:102078000FF504C510F51F50235C116E205024582D
:10208800126E21502558136E22502658146EC0EC3B
:102098000EF027500D241B6E28500E201C6E295060
:1020A8000F201D6E2A5010201E6E1200000E096EA1
:1020B800000E0A6E000E0B6E000E0C6E01A067EF8C
:1020C80010F069EF10F071EF10F005500926065076
:1020D8000A2207500B2208500C22D89005360636E3
:1020E80007360836D89004320332023201320150E2
:1020F800021003100410D8A484EF10F086EF10F03B
:1021080062EF10F009C501F50AC502F50BC503F524
:102118000CC504F51200000EBE6E000EBF6E000E58
:10212800C06E1F0EC66EA00EC76E570EC86EAF0EDD
:102138000401106F000E086F070E006F800E096F04
:10214800100E016F500E116F000E026F000E0A6F15
:10215800000E126F370E036FF00E0B6F13693F0EF0
:10216800046FF00E0C6F14690E0E02016A6F1B0EDD
:102178000F6F1C0E0D6F0D0E6B6F1200000E03011A
:10218800D96F000EDA6F000EDB6F000EDC6F000EE9
:10219800DF6F000EE06F000EE56F000EE76F000EB8
:1021A800EC6F000EEE6F000EEF6F000EF06F000E7A
:1021B800F16F000EF26F000EF46F100EF56F000E47
:1021C800F66F000EF76F000EF86F000EF96F1F0E16
:1021D800FA6F840EF36F1200000ED6BE010E046E65
:1021E800380E0001456F0250446F610004F443F05B
:1021F80061000CF446F04151F80B0309416FD69E7B
:10220800550E426FAA0E426F408140B10EEF11F099
:1022180010EF11F009EF11F004B002D0D69E01D0F2
:10222800D68EF80E0001411712000D6E000E0E6ECC
:10223800000E0F6E000E106E31EF11F007C503F59A
:1022480008C504F509C505F50D50FFEC11F0010EA0
:102258000E26000E0F22000E10220E500A5C0F50A0
:102268000B5810500C58D8B03CEF11F03EEF11F05D
:1022780022EF11F01200056E610014F4ECF3030173
:10228800F38FF39DF381F3B14CEF11F04EEF11F0A2
:1022980047EF11F0EB51046E036AEA510324016E13
:1022A800000E0420026E1200030E0301206F000EC0
:1022B8001F6F000E216FF90E1D6F000E1C6FB69672
:1022C800AB86860E016E240E026E27EC12F0F10E1C
:1022D80003011E6F12003E503F10D8B476EF11F084
:1022E80078EF11F084EF11F002D884EF11F00500B7
:1022F800FA6E3E50FD6E3F50FE6EFF6AFA501200B5
:102308001200016E010E0001826F610004F481F079
:10231800B6A091EF11F093EF11F08CEF11F00001DE
:1023280080511200ABA69BEF11F09DEF11F0A6EFC4
:1023380011F0B6A6A2EF11F0A4EF11F0A6EF11F07C
:102348003DEC12F011003A503C5C3B503D58D8A08F
:10235800B0EF11F0B2EF11F0A7EF11F0000E3D6EE3
:10236800000E3C6E120041EC12F0E3EC11F08FEC21
:1023780010F0F1EC11F0C2EC10F058EC11F00DEC8B
:1023880012F01200100E3C1809E1270E3D18D8B4BF
:10239800D0EF11F0D2EF11F0D4EF11F03C4A3D2A02
:1023A80012003D6A3C6A3B6A3A6A0401080E5D6F96
:1023B800000E5E6F000E5F6F000104EF0BF0000E61
:1023C8000001636F000E646F000E656F000E666F8C
:1023D800000E676F000E686F1200600E0001AD6F8F
:1023E800000EAF6F000EB36F080EB16F000EB06F26
:1023F800000EAC6F1200066E0350B3EC0FF00650DF
:10240800B3EC0FF00450B3EC0FF00550B3EC0FF041
:102418001200020E0001846F400E856F000E866F59
:10242800000E8C6F030E896FC79C1200380E0001D6
:10243800456F0250446F610004F443F0F80E4117F1
:1024480040814651120001C53EF502C53FF5120014
:1024580001C53AF502C53BF51200C00E85EC11F036
:102468001200F00E85EC11F012003B0E0301EC6F28
:102478001200B6966FEC11F01200D69A12001200F4
:020000040020DA
:10000000FF0FFF0FFF0FFF0FFF0FFF0FFF0FFF0F80
:10001000FF0FFF0FFF0FFF0FFF0FFF0FFF0FFF0F70
:020000040030CA
:0A0000008CFFF7FF9FFFFFFFFFFFDB
:00000001FF
