:040000000DEF00F010
:04000800EFEF1EF008
:06001800FF002EEF1FF0B7
:07160000000240000300009E
:1016080010EC1FF0000E9FEC1CF0D68E3E0E016E03
:101618003E0E026E7DEC1FF0140E05018E6F84697C
:10162800320E856F000E866F000E776F000E786F92
:10163800000E7A6F000E796F000E876F000E886FAC
:10164800000E896F000E8A6F000E6D6F000E6E6FB0
:10165800000E6F6F000E706F000E736F000E746FC8
:10166800000E756F000E766F000E626F000E616FD0
:10167800000E606F000E666F000E656F000E686FDB
:10168800000E676F000E6A6F000E696F000E6C6FB8
:10169800000E6B6F000E646F000E636F000E726FAA
:1016A800000E716FC09EC09ABE9AC096000E936FCE
:1016B800000E026E030E016E65EC1FF0450AD8A4F9
:1016C80068EF0BF06AEF0BF08AEF0BF0000E026E7A
:1016D8000B0E016E65EC1FF005018B6F000E026E9C
:1016E8000C0E016E65EC1FF005018C6F000E026E8A
:1016F8000F0E016E65EC1FF005018D6F000E026E76
:10170800110E016E65EC1FF005018E6F000E026E62
:10171800040E016E65EC1FF0450AD8A496EF0BF095
:1017280098EF0BF0B8EF0BF0000E026E120E016E80
:1017380065EC1FF005017B6F000E026E130E016E43
:1017480065EC1FF005017C6F000E026E140E016E31
:1017580065EC1FF005017D6F000E026E150E016E1F
:1017680065EC1FF00501846F000E026E060E016E17
:1017780065EC1FF0450AD8A4C4EF0BF0C6EF0BF0D8
:10178800E6EF0BF0000E026E160E016E65EC1FF010
:1017980005017E6F000E026E180E016E65EC1FF0DB
:1017A80005017F6F000E026E190E016E65EC1FF0C9
:1017B8000501806F000E026E1B0E016E65EC1FF0B6
:1017C8000501856F000E026E080E016E65EC1FF0B4
:1017D800450AD8A4F2EF0BF0F4EF0BF014EF0CF07D
:1017E800000E026E1E0E016E65EC1FF00501816F82
:1017F800000E026E1F0E016E65EC1FF00501826F70
:10180800000E026E200E016E65EC1FF00501836F5D
:10181800000E026E220E016E65EC1FF00501866F48
:10182800000E026E020E016E65EC1FF0450AD8A488
:1018380020EF0CF022EF0CF0D3EF0CF0000E026E4C
:10184800240E016E65EC1FF00501936F9305D8A473
:1018580030EF0CF032EF0CF047EF0CF0000E026E98
:10186800030E016E65EC1FF0450AD8A43EEF0CF09C
:1018780040EF0CF047EF0CF0C08EA00E00D0E82E21
:10188800FDD752EF0CF005019305D8A44EEF0CF0EC
:1018980050EF0CF052EF0CF0000E936F020E0501A2
:1018A8009319D8A45AEF0CF05CEF0CF071EF0CF020
:1018B800000E026E040E016E65EC1FF0450AD8A4F6
:1018C80068EF0CF06AEF0CF071EF0CF0C08AA00E14
:1018D80000D0E82EFDD77DEF0CF0020E050193191C
:1018E800D8A479EF0CF07BEF0CF07DEF0CF0000E34
:1018F800936F030E05019319D8A485EF0CF087EFB9
:101908000CF09CEF0CF0000E026E060E016E65ECFA
:101918001FF0450AD8A493EF0CF095EF0CF09CEF5C
:101928000CF0BE8AA00E00D0E82EFDD7A8EF0CF070
:10193800030E05019319D8A4A4EF0CF0A6EF0CF040
:10194800A8EF0CF0000E936F040E05019319D8A4AC
:10195800B0EF0CF0B2EF0CF0C7EF0CF0000E026E17
:10196800080E016E65EC1FF0450AD8A4BEEF0CF016
:10197800C0EF0CF0C7EF0CF0C086A00E00D0E82E28
:10198800FDD7D3EF0CF0040E05019319D8A4CFEFBF
:101998000CF0D1EF0CF0D3EF0CF0000E936F000EAB
:1019A800026E0A0E016E82EC1FF0000ED0BC010E12
:1019B8000501776F000ECEB8010E786F000ED0B813
:1019C800010E7A6F000ECFBE010E796F8FEC1FF0FB
:1019D800020E98EC1EF001C51BF502C51CF51D6A28
:1019E8001E6A000E1F6E000E206E000E216E000E85
:1019F800226EFF0E236E0F0E246E000E256E000E53
:101A0800266E000E276E000E286E000E296E000E40
:101A18002A6EFF0E2B6E000E2C6E000E2D6E000E21
:101A28002E6E76EC1DF01B5005018F6F8FEC1FF0AA
:101A3800100E98EC1EF001C51BF502C51CF51D6AB9
:101A48001E6A000E1F6E000E206E000E216E000E24
:101A5800226EFF0E236E0F0E246E000E256E000EF2
:101A6800266E000E276E000E286E000E296E000EE0
:101A78002A6EFF0E2B6E000E2C6E000E2D6E000EC1
:101A88002E6E76EC1DF01B500501906F8FEC1FF049
:101A9800110E98EC1EF001C51BF502C51CF51D6A58
:101AA8001E6A000E1F6E000E206E000E216E000EC4
:101AB800226EFF0E236E0F0E246E000E256E000E92
:101AC800266E000E276E000E286E000E296E000E80
:101AD8002A6EFF0E2B6E000E2C6E000E2D6E000E61
:101AE8002E6E76EC1DF01B500501916F8FEC1FF0E8
:101AF800120E98EC1EF001C51BF502C51CF51D6AF7
:101B08001E6A000E1F6E000E206E000E216E000E63
:101B1800226EFF0E236E0F0E246E000E256E000E31
:101B2800266E000E276E000E286E000E296E000E1F
:101B38002A6EFF0E2B6E000E2C6E000E2D6E000E00
:101B48002E6E76EC1DF01B500501926F00EC1FF015
:101B5800D5EF1BF090C507F591C508F592C509F5B5
:101B68002C0E0A6E010E0B6E000E0C6E8F5172EC6D
:101B78001EF0A00E00D0E82EFDD7D0BCC6EF0DF0A9
:101B8800C8EF0DF0F3EF0DF005017751D8B4CFEFA2
:101B98000DF0D1EF0DF0F3EF0DF08751D8A4D7EF8A
:101BA8000DF0D9EF0DF0F3EF0DF08851D8A4DFEF69
:101BB8000DF0E1EF0DF0F3EF0DF08951D8A4E7EF48
:101BC8000DF0E9EF0DF0F3EF0DF08A51D8A4EFEF27
:101BD8000DF0F1EF0DF0F3EF0DF0050E936FCEB8A9
:101BE800F8EF0DF0FAEF0DF025EF0EF00501785142
:101BF800D8B401EF0EF003EF0EF025EF0EF0875189
:101C0800D8A409EF0EF00BEF0EF025EF0EF0885177
:101C1800D8A411EF0EF013EF0EF025EF0EF0895156
:101C2800D8A419EF0EF01BEF0EF025EF0EF08A5135
:101C3800D8A421EF0EF023EF0EF025EF0EF0060EDC
:101C4800936FD0B82AEF0EF02CEF0EF057EF0EF08E
:101C580005017A51D8B433EF0EF035EF0EF057EF97
:101C68000EF08751D8A43BEF0EF03DEF0EF057EF82
:101C78000EF08851D8A443EF0EF045EF0EF057EF61
:101C88000EF08951D8A44BEF0EF04DEF0EF057EF40
:101C98000EF08A51D8A453EF0EF055EF0EF057EF1F
:101CA8000EF0070E936FCFBE5CEF0EF05EEF0EF0F6
:101CB80089EF0EF005017951D8B465EF0EF067EFA2
:101CC8000EF089EF0EF08751D8A46DEF0EF06FEF8C
:101CD8000EF089EF0EF08851D8A475EF0EF077EF6B
:101CE8000EF089EF0EF08951D8A47DEF0EF07FEF4A
:101CF8000EF089EF0EF08A51D8A485EF0EF087EF29
:101D08000EF089EF0EF0080E936F05018751D8A4E5
:101D180090EF0EF092EF0EF0AAEF0EF08851D8A4D3
:101D280098EF0EF09AEF0EF0AAEF0EF08951D8A4B2
:101D3800A0EF0EF0A2EF0EF0AAEF0EF08A51D8B481
:101D4800A8EF0EF0AAEF0EF0C4EF0EF0634B642B71
:101D5800E80E631907E1030E6419D8A4B6EF0EF074
:101D6800B8EF0EF0C4EF0EF0000E646F000E636F54
:101D7800000E876F000E886F000E896F000E8A6F45
:101D88008751D8B4CAEF0EF0CCEF0EF0E9EF0EF0A1
:101D9800722B190E7219D8A4D4EF0EF0D6EF0EF0EC
:101DA800E9EF0EF0000E726FC0AEDDEF0EF0E1EF5E
:101DB8000EF02F6A2F2AE2EF0EF02F6A2F322F3201
:101DC800C0502F187F0B2F18C06E05018851D8B44A
:101DD800F0EF0EF0F2EF0EF00FEF0FF0722B190E7E
:101DE8007219D8A4FAEF0EF0FCEF0EF00FEF0FF017
:101DF800000E726FC0AA03EF0FF007EF0FF02F6A03
:101E08002F2A08EF0FF02F6A2F3A2F46C0502F18AD
:101E1800DF0B2F18C06E05018951D8B416EF0FF0EB
:101E280018EF0FF035EF0FF0722B190E7219D8A4B6
:101E380020EF0FF022EF0FF035EF0FF0000E726F6A
:101E4800BEAA29EF0FF02DEF0FF02F6A2F2A2EEFE1
:101E58000FF02F6A2F3A2F46BE502F18DF0B2F187E
:101E6800BE6E05018A51D8B43CEF0FF03EEF0FF07B
:101E78005CEF0FF0722B190E7219D8A446EF0FF011
:101E880048EF0FF05CEF0FF0000E726FC0A64FEF37
:101E98000FF053EF0FF02F6A2F2A54EF0FF02F6A2D
:101EA8002F462F462F46C0502F18F70B2F18C06EFD
:101EB80005018751D8A463EF0FF065EF0FF083EFAA
:101EC8000FF08851D8A46BEF0FF06DEF0FF083EF90
:101ED8000FF08951D8A473EF0FF075EF0FF083EF6F
:101EE8000FF08A51D8A47BEF0FF07DEF0FF083EF4E
:101EF8000FF0000E726FC09EC09ABE9AC0968751AE
:101F0800D8B489EF0FF08BEF0FF0CCEF0FF0D0BC07
:101F180090EF0FF092EF0FF0CCEF0FF07751D8B4AD
:101F280098EF0FF09AEF0FF0CCEF0FF08FC58BF50D
:101F380090C58CF591C58DF592C58EF5000E876F0D
:101F4800000E026E0F0E016E8DC503F549EC1EF0F2
:101F5800000E026E0C0E016E8CC503F549EC1EF0E6
:101F6800000E026E0B0E016E8BC503F549EC1EF0D8
:101F7800000E026E110E016E8EC503F549EC1EF0BF
:101F8800000E026E030E016E450E036E49EC1EF044
:101F980005018851D8B4D3EF0FF0D5EF0FF016EF45
:101FA80010F0CEB8DAEF0FF0DCEF0FF016EF10F00C
:101FB8007851D8B4E2EF0FF0E4EF0FF016EF10F01D
:101FC8008FC57BF590C57CF591C57DF592C584F5E7
:101FD800000E886F000E026E140E016E7DC503F5AB
:101FE80049EC1EF0000E026E130E016E7CC503F55F
:101FF80049EC1EF0000E026E120E016E7BC503F551
:1020080049EC1EF0000E026E150E016E84C503F534
:1020180049EC1EF0000E026E040E016E450E036EB2
:1020280049EC1EF005018951D8B41DEF10F01FEFDF
:1020380010F060EF10F0D0B824EF10F026EF10F099
:1020480060EF10F07A51D8B42CEF10F02EEF10F0AA
:1020580060EF10F08FC57EF590C57FF591C580F5CE
:1020680092C585F5000E896F000E026E190E016E7D
:1020780080C503F549EC1EF0000E026E180E016EC5
:102088007FC503F549EC1EF0000E026E160E016EB8
:102098007EC503F549EC1EF0000E026E1B0E016EA4
:1020A80085C503F549EC1EF0000E026E060E016EA2
:1020B800450E036E49EC1EF005018A51D8B467EF4E
:1020C80010F069EF10F0AAEF10F0CFBE6EEF10F02D
:1020D80070EF10F0AAEF10F07951D8B476EF10F045
:1020E80078EF10F0AAEF10F08FC581F590C582F552
:1020F80091C583F592C586F5000E8A6F000E026EB3
:10210800200E016E83C503F549EC1EF0000E026E29
:102118001F0E016E82C503F549EC1EF0000E026E1B
:102128001E0E016E81C503F549EC1EF0000E026E0D
:10213800220E016E86C503F549EC1EF0000E026EF4
:10214800080E016E450E036E49EC1EF0D0ACAFEFE1
:1021580010F0B1EF10F0B6EF10F0000E0501666F49
:10216800000E656FCEA8BBEF10F0BDEF10F0C2EF08
:1021780010F0000E0501686F000E676FD0A8C7EF5A
:1021880010F0C9EF10F0CEEF10F0000E05016A6FE5
:10219800000E696FCFAED3EF10F0D5EF10F0D9EF86
:1021A8000CF0000E05016C6F000E6B6FD9EF0CF090
:1021B800D0ACE1EF10F0E3EF10F006EF11F0C08EB5
:1021C8008CC507F58DC508F58EC509F52C0E0A6E68
:1021D800010E0B6E000E0C6E8B5172EC1EF0010E90
:1021E8000501936F000E026E240E016E93C503F570
:1021F80049EC1EF0000E026E020E016E450E036ED3
:1022080049EC1EF0D0BC0BEF11F00DEF11F0D9EF37
:102218000CF00501654B662BF40E651906E16605A1
:10222800D8A419EF11F01BEF11F0D9EF0CF0000E44
:10223800666F000E656F010E876F000E936F000EBC
:10224800026E240E016E93C503F549EC1EF0000ED4
:10225800026E020E016E450E036E49EC1EF0D9EFB8
:102268000CF0CEA83AEF11F03CEF11F05FEF11F04F
:10227800C08A7CC507F57DC508F584C509F52C0E0F
:102288000A6E010E0B6E000E0C6E7B5172EC1EF086
:10229800020E0501936F000E026E240E016E93C5A7
:1022A80003F549EC1EF0000E026E020E016E450E9B
:1022B800036E49EC1EF0CEB864EF11F066EF11F032
:1022C800D9EF0CF00501674B682BF40E671906E18E
:1022D8006805D8A472EF11F074EF11F0D9EF0CF083
:1022E800000E686F000E676F010E886F000E936F07
:1022F80023EF11F0D0A883EF11F085EF11F0A8EFCC
:1023080011F0BE8A7FC507F580C508F585C509F5B2
:102318002C0E0A6E010E0B6E000E0C6E7E5172ECC6
:102328001EF0030E0501936F000E026E240E016E5F
:1023380093C503F549EC1EF0000E026E020E016E05
:10234800450E036E49EC1EF0D0B8ADEF11F0AFEFBB
:1023580011F0D9EF0CF00501694B6A2BF40E6919DD
:1023680006E16A05D8A4BBEF11F0BDEF11F0D9EF73
:102378000CF0000E6A6F000E696F010E896F000E77
:10238800936F23EF11F0CFAECCEF11F0CEEF11F039
:10239800F1EF11F0C08682C507F583C508F586C53B
:1023A80009F52C0E0A6E010E0B6E000E0C6E815193
:1023B80072EC1EF0040E0501936F000E026E240EDF
:1023C800016E93C503F549EC1EF0000E026E020E75
:1023D800016E450E036E49EC1EF0CFBEF6EF11F00C
:1023E800F8EF11F0D9EF0CF005016B4B6C2BF40EE4
:1023F8006B1906E16C05D8A404EF12F006EF12F091
:10240800D9EF0CF0000E6C6F000E6B6F010E8A6F27
:10241800000E936F23EF11F0D0AC15EF12F017EF09
:1024280012F02AEF12F0C09E000E936F000E026E9B
:10243800240E016E93C503F549EC1EF0000E026EE2
:10244800020E016E450E036E49EC1EF0D0BC2FEF54
:1024580012F031EF12F0D9EF0CF00501654B662B45
:10246800F40E651906E16605D8A43DEF12F03FEFBA
:1024780012F0D9EF0CF0000E666F000E656F010EBA
:102488006D6F010E936FD9EF0CF0CEA84EEF12F0DE
:1024980050EF12F063EF12F0C09A000E936F000E27
:1024A800026E240E016E93C503F549EC1EF0000E72
:1024B800026E020E016E450E036E49EC1EF0CEB898
:1024C80068EF12F06AEF12F0D9EF0CF00501674BD4
:1024D800682BF40E671906E16805D8A476EF12F0A8
:1024E80078EF12F0D9EF0CF0000E686F000E676FEE
:1024F800010E6E6F020E936FD9EF0CF0D0A887EF24
:1025080012F089EF12F09CEF12F0BE9A000E936F52
:10251800000E026E240E016E93C503F549EC1EF001
:10252800000E026E020E016E450E036E49EC1EF09F
:10253800D0B8A1EF12F0A3EF12F0D9EF0CF005011B
:10254800694B6A2BF40E691906E16A05D8A4AFEF46
:1025580012F0B1EF12F0D9EF0CF0000E6A6F000E16
:10256800696F010E6F6F030E936FD9EF0CF0CFAE4A
:10257800C0EF12F0C2EF12F0D5EF12F0C096000EC5
:10258800936F000E026E240E016E93C503F549EC9D
:102598001EF0000E026E020E016E450E036E49EC2F
:1025A8001EF0CFBEDAEF12F0DCEF12F0D9EF0CF02C
:1025B80005016B4B6C2BF40E6B1906E16C05D8A466
:1025C800E8EF12F0EAEF12F0D9EF0CF0000E6C6FA2
:1025D800000E6B6F010E706F040E936FD9EF0CF045
:1025E8008CC507F58DC508F58EC509F52C0E0A6E44
:1025F800010E0B6E000E0C6E8B5172EC1EF0050175
:102608006D51D8B40AEF13F00CEF13F029EF13F063
:10261800712B190E7119D8A414EF13F016EF13F0DB
:1026280029EF13F0000E716FC0AE1DEF13F021EF0C
:1026380013F02F6A2F2A22EF13F02F6A2F322F322E
:10264800C0502F187F0B2F18C06ED0BC2EEF13F080
:1026580030EF13F043EF13F005017751D8B437EF9B
:1026680013F039EF13F043EF13F06D51D8A43FEF97
:1026780013F041EF13F043EF13F0090E936FD0BC42
:1026880048EF13F04AEF13F08EEF13F0050177517E
:10269800D8B451EF13F053EF13F08EEF13F06D51E0
:1026A800D8B459EF13F05BEF13F08EEF13F0C08E30
:1026B800000E6D6F000E736F000E746F000E756F55
:1026C800000E766F000E026E0F0E016E8DC503F5BB
:1026D80049EC1EF0000E026E0C0E016E8CC503F55F
:1026E80049EC1EF0000E026E0B0E016E8BC503F551
:1026F80049EC1EF0000E026E110E016E8EC503F538
:1027080049EC1EF0000E026E030E016E450E036EBC
:1027180049EC1EF005016D51D8B495EF13F097EF11
:1027280013F09FEF14F0FB0E2F6EFF0E306E8B51DF
:10273800316E326A2F503126305032228F51336E2B
:10274800346A3150335C3450800A356E3250800A16
:102758003558D8A0B2EF13F0B4EF13F0CFEF13F061
:102768008F512F6E306A8B51316E326A050E3126C9
:10277800000E32222F50315C3250800A336E3050B6
:10278800800A3358D8A0CBEF13F0CDEF13F0CFEF7A
:1027980013F0010E736F7351D8B4D5EF13F0D7EF60
:1027A80013F0D9EF13F08FC58BF5FB0E2F6EFF0ECC
:1027B800306E8E51316E326A2F50312630503222AF
:1027C8009251336E346A3150335C3450800A356E1E
:1027D8003250800A3558D8A0F4EF13F0F6EF13F012
:1027E80011EF14F092512F6E306A8E51316E326AA9
:1027F800050E3126000E32222F50315C3250800AED
:10280800336E3050800A3358D8A00DEF14F00FEF14
:1028180014F011EF14F0010E766F7651D8B417EF5B
:1028280014F019EF14F01BEF14F092C58EF5FB0E9F
:102838002F6EFF0E306E8C51316E326A2F5031265A
:10284800305032229051336E346A3150335C3450F8
:10285800800A356E3250800A3558D8A036EF14F009
:1028680038EF14F053EF14F090512F6E306A8C51FA
:10287800316E326A050E3126000E32222F50315C3D
:102888003250800A336E3050800A3358D8A04FEF48
:1028980014F051EF14F053EF14F0010E746F7451EB
:1028A800D8B459EF14F05BEF14F05DEF14F090C555
:1028B8008CF5FB0E2F6EFF0E306E8D51316E326A25
:1028C8002F503126305032229151336E346A3150B4
:1028D800335C3450800A356E3250800A3558D8A09F
:1028E80078EF14F07AEF14F095EF14F091512F6E01
:1028F800306A8D51316E326A050E3126000E322251
:102908002F50315C3250800A336E3050800A335871
:10291800D8A091EF14F093EF14F095EF14F0010E96
:10292800756F7551D8B49BEF14F09DEF14F09FEFBD
:1029380014F091C58DF5CEB8A4EF14F0A6EF14F0FD
:10294800D2EF14F07851D8B4ACEF14F0AEEF14F025
:10295800D2EF14F0C09EC08A7CC507F57DC508F586
:1029680084C509F52C0E0A6E010E0B6E000E0C6E56
:102978007B5172EC1EF0020E0501936F000E026E81
:10298800240E016E93C503F549EC1EF0000E026E8D
:10299800020E016E450E036E49EC1EF0D0B8D7EF5B
:1029A80014F0D9EF14F006EF15F005017A51D8B4F8
:1029B800E0EF14F0E2EF14F006EF15F0C09EBE8AC7
:1029C8007FC507F580C508F585C509F52C0E0A6E83
:1029D800010E0B6E000E0C6E7E5172EC1EF0030E93
:1029E8000501936F000E026E240E016E93C503F568
:1029F80049EC1EF0000E026E020E016E450E036ECB
:102A080049EC1EF0CFBE0BEF15F00DEF15F0D9EF26
:102A18000CF005017951D8B414EF15F016EF15F044
:102A2800D9EF0CF0C09EC08682C507F583C508F5AE
:102A380086C509F52C0E0A6E010E0B6E000E0C6E83
:102A4800815172EC1EF0040E0501936F23EF11F013
:102A58007CC507F57DC508F584C509F52C0E0A6EF9
:102A6800010E0B6E000E0C6E7B5172EC1EF0050110
:102A78006E51D8B442EF15F044EF15F061EF15F040
:102A8800712B190E7119D8A44CEF15F04EEF15F0F3
:102A980061EF15F0000E716FC0AA55EF15F059EFF0
:102AA80015F02F6A2F2A5AEF15F02F6A2F3A2F4662
:102AB800C0502F18DF0B2F18C06ECEB866EF15F078
:102AC80068EF15F07BEF15F005017851D8B46FEF7A
:102AD80015F071EF15F07BEF15F06E51D8A477EF74
:102AE80015F079EF15F07BEF15F00A0E936FCEB85D
:102AF80080EF15F082EF15F0C6EF15F0050178515B
:102B0800D8B489EF15F08BEF15F0C6EF15F06E51BC
:102B1800D8B491EF15F093EF15F0C6EF15F0C08A11
:102B2800000E6E6F000E736F000E746F000E756FDF
:102B3800000E766F000E026E140E016E8DC503F541
:102B480049EC1EF0000E026E130E016E8CC503F5E3
:102B580049EC1EF0000E026E120E016E8BC503F5D5
:102B680049EC1EF0000E026E150E016E8EC503F5BF
:102B780049EC1EF0000E026E040E016E450E036E47
:102B880049EC1EF005016E51D8B4CDEF15F0CFEF2A
:102B980015F0D7EF16F0FB0E2F6EFF0E306E7B513F
:102BA800316E326A2F503126305032228F51336EB7
:102BB800346A3150335C3450800A356E3250800AA2
:102BC8003558D8A0EAEF15F0ECEF15F007EF16F03E
:102BD8008F512F6E306A7B51316E326A050E312665
:102BE800000E32222F50315C3250800A336E305042
:102BF800800A3358D8A003EF16F005EF16F007EF58
:102C080016F0010E736F7351D8B40DEF16F00FEF75
:102C180016F011EF16F08FC57BF5FB0E2F6EFF0E29
:102C2800306E8451316E326A2F5031263050322244
:102C38009251336E346A3150335C3450800A356EA9
:102C48003250800A3558D8A02CEF16F02EEF16F027
:102C580049EF16F092512F6E306A8451316E326A04
:102C6800050E3126000E32222F50315C3250800A78
:102C7800336E3050800A3358D8A045EF16F047EF2E
:102C880016F049EF16F0010E766F7651D8B44FEF73
:102C980016F051EF16F053EF16F092C584F5FB0EBF
:102CA8002F6EFF0E306E7C51316E326A2F503126F6
:102CB800305032229051336E346A3150335C345084
:102CC800800A356E3250800A3558D8A06EEF16F05B
:102CD80070EF16F08BEF16F090512F6E306A7C5122
:102CE800316E326A050E3126000E32222F50315CC9
:102CF8003250800A336E3050800A3358D8A087EF9C
:102D080016F089EF16F08BEF16F0010E746F745100
:102D1800D8B491EF16F093EF16F095EF16F090C532
:102D28007CF5FB0E2F6EFF0E306E7D51316E326AD0
:102D38002F503126305032229151336E346A31503F
:102D4800335C3450800A356E3250800A3558D8A02A
:102D5800B0EF16F0B2EF16F0CDEF16F091512F6EDE
:102D6800306A7D51316E326A050E3126000E3222EC
:102D78002F50315C3250800A336E3050800A3358FD
:102D8800D8A0C9EF16F0CBEF16F0CDEF16F0010E74
:102D9800756F7551D8B4D3EF16F0D5EF16F0D7EF9D
:102DA80016F091C57DF5D0BCDCEF16F0DEEF16F01D
:102DB8000AEF17F07751D8B4E4EF16F0E6EF16F003
:102DC8000AEF17F0C09AC08E8CC507F58DC508F5B7
:102DD8008EC509F52C0E0A6E010E0B6E000E0C6ED8
:102DE8008B5172EC1EF0010E0501936F000E026EFE
:102DF800240E016E93C503F549EC1EF0000E026E19
:102E0800020E016E450E036E49EC1EF0D0B80FEFAE
:102E180017F011EF17F03EEF17F005017A51D8B40B
:102E280018EF17F01AEF17F03EEF17F0C09ABE8AA6
:102E38007FC507F580C508F585C509F52C0E0A6E0E
:102E4800010E0B6E000E0C6E7E5172EC1EF0030E1E
:102E58000501936F000E026E240E016E93C503F5F3
:102E680049EC1EF0000E026E020E016E450E036E56
:102E780049EC1EF0CFBE43EF17F045EF17F0D9EF3E
:102E88000CF005017951D8B44CEF17F04EEF17F05C
:102E9800D9EF0CF0C09AC08682C507F583C508F53E
:102EA80086C509F52C0E0A6E010E0B6E000E0C6E0F
:102EB800815172EC1EF027EF15F07FC507F580C52C
:102EC80008F585C509F52C0E0A6E010E0B6E000E6D
:102ED8000C6E7E5172EC1EF005016F51D8B477EF7D
:102EE80017F079EF17F096EF17F0712B190E71198B
:102EF800D8A481EF17F083EF17F096EF17F0000EC4
:102F0800716FBEAA8AEF17F08EEF17F02F6A2F2A7B
:102F18008FEF17F02F6A2F3A2F46BE502F18DF0B6E
:102F28002F18BE6ED0B89BEF17F09DEF17F0B0EFDB
:102F380017F005017A51D8B4A4EF17F0A6EF17F0EF
:102F4800B0EF17F06F51D8A4ACEF17F0AEEF17F051
:102F5800B0EF17F00B0E936FD0B8B5EF17F0B7EFCF
:102F680017F0FBEF17F005017A51D8B4BEEF17F050
:102F7800C0EF17F0FBEF17F06F51D8B4C6EF17F09A
:102F8800C8EF17F0FBEF17F0BE8A000E6F6F000E48
:102F9800736F000E746F000E756F000E766F000E63
:102FA800026E190E016E8DC503F549EC1EF0000E78
:102FB800026E180E016E8CC503F549EC1EF0000E6A
:102FC800026E160E016E8BC503F549EC1EF0000E5D
:102FD800026E1B0E016E8EC503F549EC1EF0000E45
:102FE800026E060E016E450E036E49EC1EF0000ED1
:102FF800D0B8010E05017A6F6F51D8B406EF18F0FA
:1030080008EF18F010EF19F0FB0E2F6EFF0E306E60
:103018007E51316E326A2F503126305032228F5114
:10302800336E346A3150335C3450800A356E325016
:10303800800A3558D8A023EF18F025EF18F040EF94
:1030480018F08F512F6E306A7E51316E326A050E3C
:103058003126000E32222F50315C3250800A336EF6
:103068003050800A3358D8A03CEF18F03EEF18F0E3
:1030780040EF18F0010E736F7351D8B446EF18F093
:1030880048EF18F04AEF18F08FC57EF5FB0E2F6E4B
:10309800FF0E306E8551316E326A2F503126305016
:1030A80032229251336E346A3150335C3450800A84
:1030B800356E3250800A3558D8A065EF18F067EFA2
:1030C80018F082EF18F092512F6E306A8551316EE8
:1030D800326A050E3126000E32222F50315C3250F2
:1030E800800A336E3050800A3358D8A07EEF18F02B
:1030F80080EF18F082EF18F0010E766F7651D8B491
:1031080088EF18F08AEF18F08CEF18F092C585F563
:10311800FB0E2F6EFF0E306E7F51316E326A2F50CC
:103128003126305032229051336E346A3150335C3C
:103138003450800A356E3250800A3558D8A0A7EF2F
:1031480018F0A9EF18F0C4EF18F090512F6E306AFC
:103158007F51316E326A050E3126000E32222F5011
:10316800315C3250800A336E3050800A3358D8A010
:10317800C0EF18F0C2EF18F0C4EF18F0010E746F2A
:103188007451D8B4CAEF18F0CCEF18F0CEEF18F09D
:1031980090C57FF5FB0E2F6EFF0E306E8051316E9D
:1031A800326A2F503126305032229151336E346AB0
:1031B8003150335C3450800A356E3250800A3558AD
:1031C800D8A0E9EF18F0EBEF18F006EF19F09151DD
:1031D8002F6E306A8051316E326A050E3126000E2C
:1031E80032222F50315C3250800A336E3050800AC0
:1031F8003358D8A002EF19F004EF19F006EF19F0D0
:10320800010E756F7551D8B40CEF19F00EEF19F067
:1032180010EF19F091C580F5D0BC15EF19F017EF34
:1032280019F043EF19F07751D8B41DEF19F01FEFDB
:1032380019F043EF19F0BE9AC08E8CC507F58DC5FD
:1032480008F58EC509F52C0E0A6E010E0B6E000EE0
:103258000C6E8B5172EC1EF0010E0501936F000E7F
:10326800026E240E016E93C503F549EC1EF0000EA4
:10327800026E020E016E450E036E49EC1EF0CEB8CA
:1032880048EF19F04AEF19F077EF19F00501785176
:10329800D8B451EF19F053EF19F077EF19F0BE9A3F
:1032A800C08A7CC507F57DC508F584C509F52C0ECF
:1032B8000A6E010E0B6E000E0C6E7B5172EC1EF046
:1032C800020E0501936F000E026E240E016E93C567
:1032D80003F549EC1EF0000E026E020E016E450E5B
:1032E800036E49EC1EF0CFBE7CEF19F07EEF19F0AB
:1032F800ABEF19F005017951D8B485EF19F087EFD4
:1033080019F0ABEF19F0BE9AC08682C507F583C5E0
:1033180008F586C509F52C0E0A6E010E0B6E000E17
:103328000C6E815172EC1EF0040E0501936F000EB5
:10333800026E240E016E93C503F549EC1EF0000ED3
:10334800026E020E016E450E036E49EC1EF082C538
:1033580007F583C508F586C509F52C0E0A6E010E1A
:103368000B6E000E0C6E0501815172EC1EF005010A
:103378007051D8B4C2EF19F0C4EF19F0E2EF19F0A8
:10338800712B190E7119D8A4CCEF19F0CEEF19F0E2
:10339800E2EF19F0000E716FC0A6D5EF19F0D9EF62
:1033A80019F02F6A2F2ADAEF19F02F6A2F462F46C5
:1033B8002F46C0502F18F70B2F18C06ECFBEE7EF5F
:1033C80019F0E9EF19F0FCEF19F005017951D8B4BB
:1033D800F0EF19F0F2EF19F0FCEF19F07051D8A4E2
:1033E800F8EF19F0FAEF19F0FCEF19F00C0E936FE3
:1033F800CFBE01EF1AF003EF1AF047EF1AF00501FC
:103408007951D8B40AEF1AF00CEF1AF047EF1AF016
:103418007051D8B412EF1AF014EF1AF047EF1AF0FF
:10342800C086000E706F000E736F000E746F000E72
:10343800756F000E766F000E026E200E016E8DC540
:1034480003F549EC1EF0000E026E1F0E016E8CC5CE
:1034580003F549EC1EF0000E026E1E0E016E8BC5C0
:1034680003F549EC1EF0000E026E220E016E8EC5A9
:1034780003F549EC1EF0000E026E080E016E450EB3
:10348800036E49EC1EF005017051D8B44EEF1AF0E6
:1034980050EF1AF058EF1BF0FB0E2F6EFF0E306E38
:1034A8008151316E326A2F503126305032228F517D
:1034B800336E346A3150335C3450800A356E325082
:1034C800800A3558D8A06BEF1AF06DEF1AF088EF24
:1034D8001AF08F512F6E306A8151316E326A050EA3
:1034E8003126000E32222F50315C3250800A336E62
:1034F8003050800A3358D8A084EF1AF086EF1AF0BB
:1035080088EF1AF0010E736F7351D8B48EEF1AF06A
:1035180090EF1AF092EF1AF08FC581F5FB0E2F6E1F
:10352800FF0E306E8651316E326A2F503126305080
:1035380032229251336E346A3150335C3450800AEF
:10354800356E3250800A3558D8A0ADEF1AF0AFEF7B
:103558001AF0CAEF1AF092512F6E306A8651316E06
:10356800326A050E3126000E32222F50315C32505D
:10357800800A336E3050800A3358D8A0C6EF1AF04C
:10358800C8EF1AF0CAEF1AF0010E766F7651D8B468
:10359800D0EF1AF0D2EF1AF0D4EF1AF092C586F5F0
:1035A800FB0E2F6EFF0E306E8251316E326A2F5035
:1035B8003126305032229051336E346A3150335CA8
:1035C8003450800A356E3250800A3558D8A0EFEF53
:1035D8001AF0F1EF1AF00CEF1BF090512F6E306AD1
:1035E8008251316E326A050E3126000E32222F507A
:1035F800315C3250800A336E3050800A3358D8A07C
:1036080008EF1BF00AEF1BF00CEF1BF0010E746FB4
:103618007451D8B412EF1BF014EF1BF016EF1BF027
:1036280090C582F5FB0E2F6EFF0E306E8351316E02
:10363800326A2F503126305032229151336E346A1B
:103648003150335C3450800A356E3250800A355818
:10365800D8A031EF1BF033EF1BF04EEF1BF0915168
:103668002F6E306A8351316E326A050E3126000E94
:1036780032222F50315C3250800A336E3050800A2B
:103688003358D8A04AEF1BF04CEF1BF04EEF1BF05D
:10369800010E756F7551D8B454EF1BF056EF1BF03F
:1036A80058EF1BF091C583F5D0BC5DEF1BF05FEFC1
:1036B8001BF07BEF1BF07751D8B465EF1BF067EF79
:1036C8001BF07BEF1BF0C096C08E010E936F000EAF
:1036D800026E240E016E93C503F549EC1EF0000E30
:1036E800026E020E016E450E036E49EC1EF0CEB856
:1036F80080EF1BF082EF1BF0AFEF1BF00501785154
:10370800D8B489EF1BF08BEF1BF0AFEF1BF0C0961E
:10371800C08A7CC507F57DC508F584C509F52C0E5A
:103728000A6E010E0B6E000E0C6E7B5172EC1EF0D1
:10373800020E0501936F000E026E240E016E93C5F2
:1037480003F549EC1EF0000E026E020E016E450EE6
:10375800036E49EC1EF0D0B8B4EF1BF0B6EF1BF0C7
:10376800D9EF0CF005017A51D8B4BDEF1BF0BFEFCB
:103778001BF0D9EF0CF0C096BE8A7FC507F580C54F
:1037880008F585C509F52C0E0A6E010E0B6E000EA4
:103798000C6E7E5172EC1EF0030E0501936F23EF41
:1037A80011F0050193512F6E306A3050000AD8B4D9
:1037B800E0EF1BF0D9EF0CF02F50000AD8B4AEEFB1
:1037C8000DF0010AD8B4F4EF12F0030AD8B42CEFC4
:1037D80015F0010AD8B461EF17F0070AD8B4ABEFB7
:1037E80019F0010AD8B4DCEF10F0030AD8B435EFA9
:1037F80011F0010AD8B47EEF11F00F0AD8B4C7EF60
:1038080011F0010AD8B410EF12F0030AD8B449EF46
:1038180012F0010AD8B482EF12F0070AD8B4BBEF4D
:1038280012F0D9EF0CF00DEF00F0000E166E14BE7A
:1038380022EF1CF020EF1CF02CEF1CF0141E131EBE
:10384800121E116C000E122213221422010E166E83
:1038580010BE33EF1CF031EF1CF03DEF1CF0101ED2
:103868000F1E0E1E0D6C000E0E220F221022010ECE
:10387800161A000E176E000E186E000E196E000E46
:103888001A6E1150121013101410D8B44EEF1CF009
:1038980050EF1CF086EF1CF0010E156E5AEF1CF06D
:1038A800D8901136123613361436152A14AE5FEF37
:1038B8001CF061EF1CF054EF1CF0D8901736183646
:1038C80019361A3611500D5C12500E5813500F58F5
:1038D80014501058D8A073EF1CF075EF1CF07EEF51
:1038E8001CF011500D5E12500E5A13500F5A1450FE
:1038F800105A1780D8901432133212321132152E02
:1039080061EF1CF01650D8B48CEF1CF08EEF1CF051
:1039180096EF1CF01A1E191E181E176C000E18229E
:1039280019221A2217C50DF518C50EF519C50FF578
:103938001AC510F51200026E000184BFA6EF1CF034
:10394800A8EF1CF00BEF1DF00250050D010EF3243B
:10395800F66E160EF420F76EF86A000EF8220800CC
:10396800F5C484F00250050D010EF326000EF42272
:10397800010EF324F66E160EF420F76EF86A000EA8
:10398800F8220800F5C485F00250050D020EF32652
:10399800000EF422010EF324F66E160EF420F76ED4
:1039A800F86A000EF8220800F5500309866F000E29
:1039B8008C6F0250050D030EF326000EF422010E43
:1039C800F324F66E160EF420F76EF86A000EF8224D
:1039D8000800F5C489F00250050D040EF326000E08
:1039E800F422010EF324F66E160EF420F76EF86A30
:1039F800000EF82208006100D4F301F5013A0146EF
:103A08000146C7500118BF0B0118C76E848F1200FA
:103A1800026E02AE12EF1DF014EF1DF018EF1DF04C
:103A28008BEC1FF01AEF1DF087EC1FF002AC1FEFB4
:103A38001DF021EF1DF025EF1DF08BEC1FF027EF97
:103A48001DF087EC1FF002AA2CEF1DF02EEF1DF0E1
:103A580032EF1DF08BEC1FF034EF1DF087EC1FF0F8
:103A680002A839EF1DF03BEF1DF03FEF1DF08BEC86
:103A78001FF041EF1DF087EC1FF002A646EF1DF086
:103A880048EF1DF04CEF1DF08BEC1FF04EEF1DF0D2
:103A980087EC1FF002A453EF1DF055EF1DF059EF0E
:103AA8001DF08BEC1FF05BEF1DF087EC1FF002A2FE
:103AB80060EF1DF062EF1DF066EF1DF08BEC1FF05C
:103AC80068EF1DF087EC1FF002A06DEF1DF06FEF9F
:103AD8001DF073EF1DF08BEC1FF075EF1DF087ECF8
:103AE8001FF012001F501B5C016E20501C58026E04
:103AF80021501D58036E22501E58046E27502B5C0F
:103B0800056E28502C58066E29502D58076E2A50DD
:103B18002E58086EB3EC1DF001C50DF502C50EF563
:103B280003C50FF504C510F51F50235C116E205016
:103B38002458126E21502558136E22502658146EA0
:103B480019EC1CF027500D241B6E28500E201C6EFB
:103B580029500F201D6E2A5010201E6E1200000ED4
:103B6800096E000E0A6E000E0B6E000E0C6E01A0A0
:103B7800C0EF1DF0C2EF1DF0CAEF1DF00550092679
:103B880006500A2207500B2208500C22D8900536FE
:103B9800063607360836D89004320332023201322C
:103BA8000150021003100410D8A4DDEF1DF0DFEF60
:103BB8001DF0BBEF1DF009C501F50AC502F50BC5DF
:103BC80003F50CC504F51200000EBE6E000EBF6EA4
:103BD800000EC06E1F0EC66EA00EC76E570EC86EC2
:103BE800AF0E0401106F000E086F070E006F800EF5
:103BF800096F100E016F500E116F000E026F000E4C
:103C08000A6F000E126F370E036FF00E0B6F1369F9
:103C18003F0E046FF00E0C6F14690E0E02016A6FEE
:103C28001B0E0F6F1C0E0D6F0D0E6B6F1200000E2A
:103C38000301D96F000EDA6F000EDB6F000EDC6F28
:103C4800000EDF6F000EE06F000EE56F000EE76FED
:103C5800000EEC6F000EEE6F000EEF6F000EF06FAF
:103C6800000EF16F000EF26F000EF46F100EF56F7C
:103C7800000EF66F000EF76F000EF86F000EF96F6A
:103C88001F0EFA6F840EF36F1200000ED6BE010EDF
:103C9800046E380E0001456F0250446F610004F451
:103CA80043F061000CF446F04151F80B0309416FF1
:103CB800D69E550E426FAA0E426F408140B167EF03
:103CC8001EF069EF1EF062EF1EF004B002D0D69E1F
:103CD80001D0D68EF80E0001411712000D6E000EAD
:103CE8000E6E000E0F6E000E106E8AEF1EF007C5E6
:103CF80003F508C504F509C505F50D5072EC1FF06C
:103D0800010E0E26000E0F22000E10220E500A5C25
:103D18000F500B5810500C58D8B095EF1EF097EF75
:103D28001EF07BEF1EF01200056E610014F4ECF338
:103D38000301F38FF39DF381F3B1A5EF1EF0A7EF15
:103D48001EF0A0EF1EF0EB51046E036AEA51032443
:103D5800016E000E0420026E1200030E0301206F94
:103D6800000E1F6F000E216FF90E1D6F000E1C6FE5
:103D7800B696AB86320E016E3F0E026E7DEC1FF0DA
:103D8800F10E03011E6F12003A503B10D8B4CFEF6A
:103D98001EF0D1EF1EF0DDEF1EF002D8DDEF1EF0B1
:103DA8000500FA6E3A50FD6E3B50FE6EFF6AFA50FF
:103DB80012001200016E010E0001826F610004F40E
:103DC80081F0B6A0EAEF1EF0ECEF1EF0E5EF1EF072
:103DD800000180511200ABA6F4EF1EF0F6EF1EF0C2
:103DE800FFEF1EF0B6A6FBEF1EF0FDEF1EF0FFEF93
:103DF8001EF093EC1FF011003650385C37503958DC
:103E0800D8A009EF1FF00BEF1FF000EF1FF0000E16
:103E1800396E000E386E120097EC1FF03CEC1FF064
:103E2800E8EC1DF04AEC1FF01BEC1EF0B1EC1EF0A4
:103E380058EC1FF01200100E381809E1270E391837
:103E4800D8B429EF1FF02BEF1FF02DEF1FF0384AE1
:103E5800392A1200396A386A376A366A0401080E44
:103E68005D6F000E5E6F000E5F6F000104EF0BF0D8
:103E7800000E0001636F000E646F000E656F000E88
:103E8800666F000E676F000E686F1200600E00010B
:103E9800AD6F000EAF6F000EB36F080EB16F000E5E
:103EA800B06F000EAC6F1200020E0001846F400E5E
:103EB800856F000E866F000E8C6F030E896FC79C8E
:103EC8001200380E0001456F0250446F610004F47F
:103ED80043F0F80E4117408146511200066E035018
:103EE8000CEC1DF006500CEC1DF004500CEC1DF011
:103EF800120001C53AF502C53BF5120001C536F5B9
:103F080002C537F51200C00EDEEC1EF01200F00EEE
:103F1800DEEC1EF012003B0E0301EC6F1200B696A9
:0C3F2800C8EC1EF01200D69A1200120025
:020000040020DA
:10000000FF0FFF0FFF0FFF0FFF0FFF0FFF0FFF0F80
:10001000FF0FFF0FFF0FFF0FFF0FFF0FFF0FFF0F70
:020000040030CA
:0A0000008CFFF7FF9FFFFFFFFFFFDB
:00000001FF
