:040000000DEF00F010
:0400080018EF0EF0EF
:06001800FF0047EF0EF0AF
:07160000000240002300007E
:1016080029EC0EF0000EA2EC0CF0D68E700E016ED6
:101618001C0E026E96EC0EF0000E1E6E000E1F6E73
:10162800000E076E000E066E000E096E000E086EA4
:10163800000E0B6E000E0A6E000E0D6E000E0C6E84
:10164800000E0F6E000E0E6E000E116E000E106E64
:10165800000E206E000E216EC09EC09ABE9AC096E3
:10166800000E226E000E026E030E016E7EEC0EF06E
:10167800450AD8A442EF0BF044EF0BF05FEF0BF0F4
:10168800000E026E0B0E016E7EEC0EF0126E000E56
:10169800026E0C0E016E7EEC0EF0136E000E026EE2
:1016A8000F0E016E7EEC0EF0146E000E026E110E1F
:1016B800016E7EEC0EF0000E026E040E016E7EECE2
:1016C8000EF0450AD8A46BEF0BF06DEF0BF088EF26
:1016D8000BF0000E026E120E016E7EEC0EF0156E0F
:1016E800000E026E130E016E7EEC0EF0166E000EEA
:1016F800026E140E016E7EEC0EF0176E000E026E76
:10170800150E016E7EEC0EF0000E026E060E016ED6
:101718007EEC0EF0450AD8A494EF0BF096EF0BF090
:10172800B1EF0BF0000E026E160E016E7EEC0EF09D
:10173800186E000E026E180E016E7EEC0EF0196E19
:10174800000E026E190E016E7EEC0EF01A6E000E7F
:10175800026E1B0E016E7EEC0EF0000E026E080E7D
:10176800016E7EEC0EF0450AD8A4BDEF0BF0BFEF7A
:101778000BF0DAEF0BF0000E026E1E0E016E7EEC1F
:101788000EF01B6E000E026E1F0E016E7EEC0EF048
:101798001C6E000E026E200E016E7EEC0EF01D6EA9
:1017A800000E026E220E016E7EEC0EF0000E026E2E
:1017B800020E016E7EEC0EF0450AD8A4E6EF0BF09F
:1017C800E8EF0BF091EF0CF0000E026E240E016EA4
:1017D8007EEC0EF0226E2204D8A4F5EF0BF0F7EFA2
:1017E8000BF00CEF0CF0000E026E030E016E7EEC97
:1017F8000EF0450AD8A403EF0CF005EF0CF00CEF3F
:101808000CF0C08EA00E00D0E82EFDD716EF0CF01D
:101818002204D8A412EF0CF014EF0CF016EF0CF021
:10182800000E226E020E2218D8A41DEF0CF01FEF36
:101838000CF034EF0CF0000E026E040E016E7EEC1C
:101848000EF0450AD8A42BEF0CF02DEF0CF034EF76
:101858000CF0C08AA00E00D0E82EFDD73FEF0CF0A8
:10186800020E2218D8A43BEF0CF03DEF0CF03FEF2E
:101878000CF0000E226E030E2218D8A446EF0CF0CE
:1018880048EF0CF05DEF0CF0000E026E060E016ED4
:101898007EEC0EF0450AD8A454EF0CF056EF0CF08D
:1018A8005DEF0CF0BE8AA00E00D0E82EFDD768EFE1
:1018B8000CF0030E2218D8A464EF0CF066EF0CF0BD
:1018C80068EF0CF0000E226E040E2218D8A46FEFF9
:1018D8000CF071EF0CF086EF0CF0000E026E080EA3
:1018E800016E7EEC0EF0450AD8A47DEF0CF07FEF78
:1018F8000CF086EF0CF0C086A00E00D0E82EFDD7C5
:1019080091EF0CF0040E2218D8A48DEF0CF08FEF95
:101918000CF091EF0CF0000E226E000E026E140E09
:10192800016E9BEC0EF0000E036E000E046E640E4A
:101938008BEC0EF09EEF0CF00DEF00F0026E000144
:1019480084BFA9EF0CF0ABEF0CF00EEF0DF00250D6
:10195800050D010EF324F66E160EF420F76EF86AE4
:10196800000EF8220800F5C484F00250050D010E9F
:10197800F326000EF422010EF324F66E160EF42060
:10198800F76EF86A000EF8220800F5C485F00250D8
:10199800050D020EF326000EF422010EF324F66E56
:1019A800160EF420F76EF86A000EF8220800F550BB
:1019B8000309866F000E8C6F0250050D030EF32687
:1019C800000EF422010EF324F66E160EF420F76EC4
:1019D800F86A000EF8220800F5C489F00250050DD7
:1019E800040EF326000EF422010EF324F66E160EF2
:1019F800F420F76EF86A000EF82208006100D4F3AC
:101A080001F5013A01460146C7500118BF0B0118FC
:101A1800C76E848F1200026E02AE15EF0DF017EF3D
:101A28000DF01BEF0DF0A4EC0EF01DEF0DF0A0EC87
:101A38000EF002AC22EF0DF024EF0DF028EF0DF0C0
:101A4800A4EC0EF02AEF0DF0A0EC0EF002AA2FEF96
:101A58000DF031EF0DF035EF0DF0A4EC0EF037EF8F
:101A68000DF0A0EC0EF002A83CEF0DF03EEF0DF0EB
:101A780042EF0DF0A4EC0EF044EF0DF0A0EC0EF0E8
:101A880002A649EF0DF04BEF0DF04FEF0DF0A4EC6F
:101A98000EF051EF0DF0A0EC0EF002A456EF0DF091
:101AA80058EF0DF05CEF0DF0A4EC0EF05EEF0DF0CA
:101AB800A0EC0EF002A263EF0DF065EF0DF069EFF8
:101AC8000DF0A4EC0EF06BEF0DF0A0EC0EF002A000
:101AD80070EF0DF072EF0DF076EF0DF0A4EC0EF054
:101AE80078EF0DF0A0EC0EF01200000EBE6E000EA6
:101AF800BF6E000EC06E1F0EC66EA00EC76E570ECC
:101B0800C86EAF0E0401106F000E086F070E006F4D
:101B1800800E096F100E016F500E116F000E026FCC
:101B2800000E0A6F000E126F370E036FF00E0B6F68
:101B380013693F0E046FF00E0C6F14690E0E02014C
:101B48006A6F1B0E0F6F1C0E0D6F0D0E6B6F120060
:101B5800000E0301D96F000EDA6F000EDB6F000E66
:101B6800DC6F000EDF6F000EE06F000EE56F000EF9
:101B7800E76F000EEC6F000EEE6F000EEF6F000EB9
:101B8800F06F000EF16F000EF26F000EF46F100E82
:101B9800F56F000EF66F000EF76F000EF86F000E6F
:101BA800F96F1F0EFA6F840EF36F1200030E030114
:101BB800206F000E1F6F000E216FF90E1D6F000EB3
:101BC8001C6FB696AB865C0E016E1D0E026E96EC0F
:101BD8000EF0F10E03011E6F120027502810D8B422
:101BE800F8EF0DF0FAEF0DF006EF0EF002D806EF61
:101BF8000EF00500FA6E2750FD6E2850FE6EFF6A43
:101C0800FA5012001200016E010E0001826F61008D
:101C180004F481F0B6A013EF0EF015EF0EF00EEFFE
:101C28000EF0000180511200ABA61DEF0EF01FEF61
:101C38000EF028EF0EF0B6A624EF0EF026EF0EF009
:101C480028EF0EF0A8EC0EF01100ACEC0EF055ECFD
:101C58000EF079EC0DF063EC0EF0ACEC0DF0DAEC74
:101C68000DF071EC0EF01200100E251809E1270E88
:101C78002618D8B442EF0EF044EF0EF046EF0EF0FF
:101C8800254A262A1200266A256A246A236A04013C
:101C9800080E5D6F000E5E6F000E5F6F000104EFAF
:101CA8000BF0000E0001636F000E646F000E656F8D
:101CB800000E666F000E676F000E686F1200600EF0
:101CC8000001AD6F000EAF6F000EB36F080EB16F5D
:101CD800000EB06F000EAC6F1200020E0001846F90
:101CE800400E856F000E866F000E8C6F230E896F75
:101CF800C79C1200380E0001456F0250446F610006
:101D080004F443F0F80E4117408146511200056E65
:101D180005500FEC0DF003500FEC0DF004500FECD4
:101D28000DF0120001C527F502C528F5120001C5FE
:101D380023F502C524F51200C00E07EC0EF01200C0
:101D4800FC0E07EC0EF01200B696F1EC0DF0120046
:061D5800D69A12001200F1
:020000040020DA
:10000000FF0FFF0FFF0FFF0FFF0FFF0FFF0FFF0F80
:10001000FF0FFF0FFF0FFF0FFF0FFF0FFF0FFF0F70
:020000040030CA
:0A0000008CFFF7FF9FFFFFFFFFFFDB
:00000001FF
