:04000000FEEF7FF0A0
:07160000000240000300009E
:1016080065EC0EF0000ED5EC0CF0150E2F6EC60E24
:10161800E82EFED72F2EFCD700D07FEC0EF0020E5E
:1016280004EC0EF001C51BF502C51CF51D6A1E6A07
:10163800000E1F6E000E206E000E216E000E226E30
:10164800FF0E236E0F0E246E000E256E000E266E02
:10165800000E276E000E286E000E296E000E2A6EF0
:10166800FF0E2B6E000E2C6E000E2D6E000E2E6ED1
:1016780033EC0DF01B50306E7FEC0EF0100E04ECC6
:101688000EF001C51BF502C51CF51D6A1E6A000E89
:101698001F6E000E206E000E216E000E226EFF0ED1
:1016A800236E0F0E246E000E256E000E266E000EA1
:1016B800276E000E286E000E296E000E2A6EFF0E91
:1016C8002B6E000E2C6E000E2D6E000E2E6E33EC5F
:1016D8000DF01B50316E7FEC0EF0110E04EC0EF085
:1016E80001C51BF502C51CF51D6A1E6A000E1F6E9A
:1016F800000E206E000E216E000E226EFF0E236E6D
:101708000F0E246E000E256E000E266E000E276E3C
:10171800000E286E000E296E000E2A6EFF0E2B6E2C
:10172800000E2C6E000E2D6E000E2E6E33EC0DF09A
:101738001B50326E7FEC0EF0120E04EC0EF001C559
:101748001BF502C51CF51D6A1E6A000E1F6E000EF1
:10175800206E000E216E000E226EFF0E236E0F0EFD
:10176800246E000E256E000E266E000E276E000EEB
:10177800286E000E296E000E2A6EFF0E2B6E000ECC
:101788002C6E000E2D6E000E2E6E33EC0DF01B50DD
:10179800336E000E346E31C503F532C504F533C51A
:1017A80005F530502EEC0EF0342A030E3464DFEFCA
:1017B8000BF0E1EF0BF0CFEF0BF009EF0BF0FEEFC2
:1017C8007FF0000E166E14BEEEEF0BF0ECEF0BF090
:1017D800F8EF0BF0141E131E121E116C000E1222CD
:1017E80013221422010E166E10BEFFEF0BF0FDEF50
:1017F8000BF009EF0CF0101E0F1E0E1E0D6C000EE4
:101808000E220F221022010E161A000E176E000E5D
:10181800186E000E196E000E1A6E11501210131069
:101828001410D8B41AEF0CF01CEF0CF052EF0CF0B7
:10183800010E156E26EF0CF0D890113612361336BD
:101848001436152A14AE2BEF0CF02DEF0CF020EF08
:101858000CF0D8901736183619361A3611500D5C18
:1018680012500E5813500F5814501058D8A03FEF6C
:101878000CF041EF0CF04AEF0CF011500D5E1250D5
:101888000E5A13500F5A1450105A1780D890143209
:10189800133212321132152E2DEF0CF01650D8B427
:1018A80058EF0CF05AEF0CF062EF0CF01A1E191EEC
:1018B800181E176C000E182219221A2217C50DF5CA
:1018C80018C50EF519C50FF51AC510F51200026EE8
:1018D80002AE71EF0CF073EF0CF077EF0CF07BECCD
:1018E8000EF079EF0CF077EC0EF002AC7EEF0CF016
:1018F80080EF0CF084EF0CF07BEC0EF086EF0CF030
:1019080077EC0EF002AA8BEF0CF08DEF0CF091EF54
:101918000CF07BEC0EF093EF0CF077EC0EF002A8D5
:1019280098EF0CF09AEF0CF09EEF0CF07BEC0EF0B9
:10193800A0EF0CF077EC0EF002A6A5EF0CF0A7EFE5
:101948000CF0ABEF0CF07BEC0EF0ADEF0CF077EC9D
:101958000EF002A4B2EF0CF0B4EF0CF0B8EF0CF0FC
:101968007BEC0EF0BAEF0CF077EC0EF002A2BFEFB2
:101978000CF0C1EF0CF0C5EF0CF07BEC0EF0C7EFEC
:101988000CF077EC0EF002A0CCEF0CF0CEEF0CF0E0
:10199800D2EF0CF07BEC0EF0D4EF0CF077EC0EF0FD
:1019A8001200026E000184BFDCEF0CF0DEEF0CF0D9
:1019B80032EF0DF00250050D010EF324F66E160EEF
:1019C800F420F76E0800F5C484F00250050D010EEE
:1019D800F326000EF422010EF324F66E160EF42000
:1019E800F76E0800F5C485F00250050D020EF326C7
:1019F800000EF422010EF324F66E160EF420F76E94
:101A08000800F5500309866F000E8C6F0250050D13
:101A1800030EF326000EF422010EF324F66E160EC2
:101A2800F420F76E0800F5C489F00250050D040E85
:101A3800F326000EF422010EF324F66E160EF4209F
:101A4800F76E08006100D4F301F5013A014601463A
:101A5800C7500118BF0B0118C76E848F12001F50A2
:101A68001B5C016E20501C58026E21501D58036EDD
:101A780022501E58046E27502B5C056E28502C5897
:101A8800066E29502D58076E2A502E58086E70EC95
:101A98000DF001C50DF502C50EF503C50FF504C51A
:101AA80010F51F50235C116E20502458126E2150DF
:101AB8002558136E22502658146EE5EC0BF027506B
:101AC8000D241B6E28500E201C6E29500F201D6EF1
:101AD8002A5010201E6E1200000E096E000E0A6EAB
:101AE800000E0B6E000E0C6E01A07DEF0DF07FEF67
:101AF8000DF087EF0DF00550092606500A22075011
:101B08000B2208500C22D8900536063607360836C0
:101B1800D89004320332023201320150021003100D
:101B28000410D8A49AEF0DF09CEF0DF078EF0DF0AB
:101B380009C501F50AC502F50BC503F50CC504F581
:101B48001200000EBE6E000EBF6E000EC06E3F0E7D
:101B5800C66EA00EC76EC86804011069A00E086F93
:101B6800170E006F000E096F000E016F000E116F47
:101B7800000E026F000E0A6F000E126F370E036F11
:101B8800F00E0B6F13693F0E046FF00E0C6F1469A3
:101B98000E0E02016A6F1B0E0F6F1C0E0D6F050EE5
:101BA8006B6F1200000E0301D96F000EDA6F000E82
:101BB800DB6F000EDC6F000EDF6F000EE06F000EB3
:101BC800E56F000EE76F000EEC6F000EEE6F000E73
:101BD800EF6F000EF06F000EF16F000EF26F000E47
:101BE800F46F100EF56F000EF66F000EF76F000E13
:101BF800F86F000EF96F1F0EFA6F840EF36F120064
:101C0800056E610014F4ECF30301F38FF39DF38187
:101C1800F3B111EF0EF013EF0EF00CEF0EF0EB51E5
:101C2800046E036AEA510324016E000E0420026E5A
:101C38001200016E010E0001826F610004F481F050
:101C4800B6A029EF0EF02BEF0EF024EF0EF00001F6
:101C580080511200066E03506BEC0CF006506BECD2
:101C68000CF004506BEC0CF005506BEC0CF012000F
:101C7800000E0001636F000E646F000E656F000EAA
:101C8800666F000E676F000E686F1200600E00012D
:101C9800AD6F000EAF6F000EB36F080EB16F000E80
:101CA800B06F000EAC6F1200020E0001846F400E80
:101CB800856F000E866F000E8C6F030E896FC79CB0
:101CC80012003CEC0EF0A5EC0DF04AEC0EF0D6EC50
:101CD8000DF058EC0EF01200000EF86E160EF76EAE
:101CE800000104EF0BF0C00E1DEC0EF01200F00E18
:0E1CF8001DEC0EF012003B0E0301EC6F12000B
:04FFFC0070EF0EF0A4
:020000040020DA
:10000000FF0FFF0FFF0FFF0FFF0FFF0FFF0FFF0F80
:10001000FF0FFF0FFF0FFF0FFF0FFF0FFF0FFF0F70
:020000040030CA
:0A0000008CFFF7FF9FFFFFFFFFFFDB
:00000001FF
