:04000000FEEF7FF0A0
:10F5C4003B0E0301EC6F120001C550F502C551F565
:10F5D4001200536A526A516A506A0001A4EF7DF026
:10F5E40020EC7BF067EC7BF012EC7BF091EC7BF091
:10F5F4001200046E0450B4EC7CF00250B4EC7CF0C5
:10F604000350B4EC7CF01200380E0001456F025038
:10F61400446F01C543F0F80E411740814651120072
:10F62400600E0001AD6F000EAF6F000EB36F080ED9
:10F63400B16F000EB06F000EAC6F1200000E00012F
:10F64400636F000E646F000E656F000E666F000E30
:10F65400676F000E686F1200BF8800F000F000F0C2
:10F6640000F000F000F000F000F000F000F000F016
:10F6740000F0BF981200BF8800F000F000F0BF98BF
:10F6840000F000F000F000F000F000F000F000F0F6
:10F6940000F000F000F000F01200056E05C5ECF378
:10F6A4000301F38FF39DF381F3B15BEF7BF05DEF27
:10F6B4007BF056EF7BF0EB51046E036AEA510324AE
:10F6C400016E000E0420026E1200000EBE6E000ECB
:10F6D400BF6E000EC06E1F0EC66EE00EC76E570ED4
:10F6E400C86EAF0E0401106F600E086F070E006F36
:10F6F400800E096F100E016F500E116F000E026F15
:10F70400000E0A6F000E126F370E036FF00E0B6FB0
:10F7140013693F0E046FF00E0C6F14691200000E93
:10F724000301D96F000EDA6F000EDB6F000EDC6F81
:10F73400000EDF6F000EE06F000EE56F000EE76F46
:10F74400000EEC6F000EEE6F000EEF6F000EF06F08
:10F75400000EF16F000EF26F000EF46F100EF56FD5
:10F76400000EF66F000EF76F000EF86F000EF96FC3
:10F774001F0EFA6F840EF36F1200000E096E000E56
:10F784000A6E000E0B6E000E0C6E01A0CCEF7BF027
:10F79400CEEF7BF0D6EF7BF00550092606500A2207
:10F7A40007500B2208500C22D8900536063607362F
:10F7B4000836D8900432033202320132015002106A
:10F7C40003100410D8A4E9EF7BF0EBEF7BF0C7EF54
:10F7D4007BF009C501F50AC502F50BC503F50CC597
:10F7E40004F51200106E000E116E000E126E000E63
:10F7F400136E15EF7CF0000E146E0BC502F50CC5EC
:10F8040003F51050FBEC7AF0142A140E14640DEF77
:10F814007CF00FEF7CF0FFEF7BF0010E1126000E61
:10F824001222000E13220DC501F50EC502F50FC5F7
:10F8340003F5140E046E000E056E000E066E6EECDB
:10F844007CF01150015C1250025813500358D8B088
:10F854002EEF7CF030EF7CF0FDEF7BF012001F50B8
:10F864001B5C016E20501C58026E21501D58036E03
:10F8740022501E58046E27502B5C056E28502C58BD
:10F88400066E29502D58076E2A502E58086EBFEC6C
:10F894007BF001C50DF502C50EF503C50FF504C5D2
:10F8A40010F51F50235C116E20502458126E215005
:10F8B4002558136E22502658146E1EEC7DF02750E6
:10F8C4000D241B6E28500E201C6E29500F201D6E17
:10F8D4002A5010201E6E1200000E076E000E086ED5
:10F8E400000E096E045005100610D8B47CEF7CF0AD
:10F8F4007EEF7CF0ADEF7CF0010E0A6E87EF7CF0BA
:10F90400D8900436053606360A2A06AE8CEF7CF00B
:10F914008EEF7CF082EF7CF0D890073608360936FB
:10F924000450015C0550025806500358D8A09DEFBE
:10F934007CF09FEF7CF0A6EF7CF00450015E055054
:10F94400025A0650035A0780D89006320532043210
:10F954000A2E8EEF7CF007C501F508C502F509C52E
:10F9640003F51200016E01AEBAEF7CF0BCEF7CF03F
:10F97400C0EF7CF02EEC7BF0C2EF7CF03DEC7BF032
:10F9840001ACC7EF7CF0C9EF7CF0CDEF7CF02EEC3E
:10F994007BF0CFEF7CF03DEC7BF001AAD4EF7CF060
:10F9A400D6EF7CF0DAEF7CF02EEC7BF0DCEF7CF031
:10F9B4003DEC7BF001A8E1EF7CF0E3EF7CF0E7EFB6
:10F9C4007CF02EEC7BF0E9EF7CF03DEC7BF001A6C3
:10F9D400EEEF7CF0F0EF7CF0F4EF7CF02EEC7BF0BB
:10F9E400F6EF7CF03DEC7BF001A4FBEF7CF0FDEF47
:10F9F4007CF001EF7DF02EEC7BF003EF7DF03DEC2D
:10FA04007BF001A208EF7DF00AEF7DF00EEF7DF0B0
:10FA14002EEC7BF010EF7DF03DEC7BF001A015EFB8
:10FA24007DF017EF7DF01BEF7DF02EEC7BF01DEFEA
:10FA34007DF03DEC7BF01200000E166E14BE27EF35
:10FA44007DF025EF7DF031EF7DF0141E131E121EA4
:10FA5400116C000E122213221422010E166E10BE17
:10FA640038EF7DF036EF7DF042EF7DF0101E0F1E73
:10FA74000E1E0D6C000E0E220F221022010E161AFD
:10FA8400000E176E000E186E000E196E000E1A6E20
:10FA94001150121013101410D8B453EF7DF055EF19
:10FAA4007DF08BEF7DF0010E156E5FEF7DF0D89049
:10FAB4001136123613361436152A14AE64EF7DF05F
:10FAC40066EF7DF059EF7DF0D89017361836193669
:10FAD4001A3611500D5C12500E5813500F58145012
:10FAE4001058D8A078EF7DF07AEF7DF083EF7DF0A9
:10FAF40011500D5E12500E5A13500F5A1450105AD2
:10FB04001780D8901432133212321132152E66EF48
:10FB14007DF01650D8B491EF7DF093EF7DF09BEF1C
:10FB24007DF01A1E191E181E176C000E18221922B9
:10FB34001A2217C50DF518C50EF519C50FF51AC506
:10FB440010F51200F2EC7AF0000E4A6E000E4B6EC5
:10FB5400000E4C6E000E306E000E2F6E000E326ED4
:10FB6400000E316E000E346E000E336E000E366ED3
:10FB7400000E356E000E386E000E376E000E3A6EB3
:10FB8400000E396E000E4D6E000E4E6EC09EC09A71
:10FB9400BE9AC096000E4F6E000E026E030E016EEA
:10FBA40006EC7BF0450AD8A4DAEF7DF0DCEF7DF0BB
:10FBB400F7EF7DF0000E026E0B0E016E06EC7BF08B
:10FBC4003E6E000E026E0C0E016E06EC7BF03F6E74
:10FBD400000E026E0F0E016E06EC7BF0406E000EFE
:10FBE400026E110E016E06EC7BF0000E026E040E26
:10FBF400016E06EC7BF0450AD8A403EF7EF005EF16
:10FC04007EF020EF7EF0000E026E120E016E06EC06
:10FC14007BF0416E000E026E130E016E06EC7BF05B
:10FC2400426E000E026E140E016E06EC7BF0436E03
:10FC3400000E026E150E016E06EC7BF0000E026ED5
:10FC4400060E016E06EC7BF0450AD8A42CEF7EF07C
:10FC54002EEF7EF049EF7EF0000E026E160E016E5E
:10FC640006EC7BF0446E000E026E180E016E06EC7C
:10FC74007BF0456E000E026E190E016E06EC7BF0F1
:10FC8400466E000E026E1B0E016E06EC7BF0000E3B
:10FC9400026E080E016E06EC7BF0450AD8A455EFFF
:10FCA4007EF057EF7EF072EF7EF0000E026E1E0EB5
:10FCB400016E06EC7BF0476E000E026E1F0E016EA5
:10FCC40006EC7BF0486E000E026E200E016E06EC10
:10FCD4007BF0496E000E026E220E016E06EC7BF084
:10FCE400000E026E020E016E06EC7BF0450AD8A4EB
:10FCF4007EEF7EF080EF7EF029EF7FF0000E026E43
:10FD0400240E016E06EC7BF04F6E4F04D8A48DEFE9
:10FD14007EF08FEF7EF0A4EF7EF0000E026E030EF5
:10FD2400016E06EC7BF0450AD8A49BEF7EF09DEFB4
:10FD34007EF0A4EF7EF0C08EA00E00D0E82EFDD79A
:10FD4400AEEF7EF04F04D8A4AAEF7EF0ACEF7EF0C5
:10FD5400AEEF7EF0000E4F6E020E4F18D8A4B5EF32
:10FD64007EF0B7EF7EF0CCEF7EF0000E026E040E54
:10FD7400016E06EC7BF0450AD8A4C3EF7EF0C5EF14
:10FD84007EF0CCEF7EF0C08AA00E00D0E82EFDD726
:10FD9400D7EF7EF0020E4F18D8A4D3EF7EF0D5EF44
:10FDA4007EF0D7EF7EF0000E4F6E030E4F18D8A4EE
:10FDB400DEEF7EF0E0EF7EF0F5EF7EF0000E026EF7
:10FDC400060E016E06EC7BF0450AD8A4ECEF7EF03B
:10FDD400EEEF7EF0F5EF7EF0BE8AA00E00D0E82EA6
:10FDE400FDD700EF7FF0030E4F18D8A4FCEF7EF090
:10FDF400FEEF7EF000EF7FF0000E4F6E040E4F1802
:10FE0400D8A407EF7FF009EF7FF01EEF7FF0000E1C
:10FE1400026E080E016E06EC7BF0450AD8A415EFBD
:10FE24007FF017EF7FF01EEF7FF0C086A00E00D0AA
:10FE3400E82EFDD729EF7FF0040E4F18D8A425EF44
:10FE44007FF027EF7FF029EF7FF0000E4F6E000E5A
:10FE5400026E140E016EE6EC7AF0D050CE50D05003
:10FE6400CF50E2EC7AF0020E4FEC7BF001C51BF5AB
:10FE740002C51CF51D6A1E6A000E1F6E000E206E60
:10FE8400000E216E000E226EFF0E236E0F0E246EE6
:10FE9400000E256E000E266E000E276E000E286ED4
:10FEA400000E296E000E2A6EFF0E2B6E000E2C6EB5
:10FEB400000E2D6E000E2E6E31EC7CF01B503B6E4E
:10FEC400E2EC7AF0100E4FEC7BF001C51BF502C595
:10FED4001CF51D6A1E6A000E1F6E000E206E000EB9
:10FEE400216E000E226EFF0E236E0F0E246E000E86
:10FEF400256E000E266E000E276E000E286E000E74
:10FF0400296E000E2A6EFF0E2B6E000E2C6E000E54
:10FF14002D6E000E2E6E31EC7CF01B503C6EE2EC2C
:10FF24007AF0110E4FEC7BF001C51BF502C51CF5F0
:10FF34001D6A1E6A000E1F6E000E206E000E216EDA
:10FF4400000E226EFF0E236E0F0E246E000E256E21
:10FF5400000E266E000E276E000E286E000E296E0F
:10FF6400000E2A6EFF0E2B6E000E2C6E000E2D6EF0
:10FF7400000E2E6E31EC7CF01B503D6EE2EC7AF0FC
:10FF8400120E4FEC7BF001C51BF502C51CF51D6A72
:10FF94001E6A000E1F6E000E206E000E216E000EF3
:10FFA400226EFF0E236E0F0E246E000E256E000EC1
:10FFB400266E000E276E000E286E000E296E000EAF
:10FFC4002A6EFF0E2B6E000E2C6E000E2D6E000E90
:10FFD4002E6E31EC7CF0000E0B6E000E0C6E900E4B
:10FFE4000D6E000E0E6E000E0F6E140EF4EC7BF010
:0CFFF400EDEF7FF0FEEF7FF0EBEF7AF016
:020000040020DA
:10000000FF0FFF0FFF0FFF0FFF0FFF0FFF0FFF0F80
:10001000FF0FFF0FFF0FFF0FFF0FFF0FFF0FFF0F70
:020000040030CA
:0A0000008CFFF7FF9FFFFFFFFFFFDB
:00000001FF
