:040000000DEF00F010
:040008004FEF1FF0A7
:06001800FF008EEF1FF057
:07160000000240000300009E
:1016080070EC1FF0000EFFEC1CF0D68EFE0E016E83
:101618003E0E026EE0EC1FF0140E05018E6F886915
:10162800320E896F000E8A6F000E776F000E786F8A
:10163800000E7A6F000E796F000E7B6F000E7C6FC4
:10164800000E7D6F000E7E6F000E6D6F000E6E6FC8
:10165800000E6F6F000E706F000E736F000E746FC8
:10166800000E756F000E766F000E626F000E616FD0
:10167800000E606F000E666F000E656F000E686FDB
:10168800000E676F000E6A6F000E696F000E6C6FB8
:10169800000E6B6F000E646F000E636F000E726FAA
:1016A800000E716FC09EC09ABE9AC096000E936FCE
:1016B800000E026E030E016ED3EC1FF0450AD8A48B
:1016C80068EF0BF06AEF0BF08AEF0BF0000E026E7A
:1016D8000B0E016ED3EC1FF005018B6F000E026E2E
:1016E8000C0E016ED3EC1FF005018C6F000E026E1C
:1016F8000F0E016ED3EC1FF005018D6F000E026E08
:10170800110E016ED3EC1FF005018E6F000E026EF4
:10171800040E016ED3EC1FF0450AD8A496EF0BF027
:1017280098EF0BF0B8EF0BF0000E026E120E016E80
:10173800D3EC1FF005017F6F000E026E130E016ED1
:10174800D3EC1FF00501806F000E026E140E016EBF
:10175800D3EC1FF00501816F000E026E150E016EAD
:10176800D3EC1FF00501886F000E026E060E016EA5
:10177800D3EC1FF0450AD8A4C4EF0BF0C6EF0BF06A
:10178800E6EF0BF0000E026E160E016ED3EC1FF0A2
:101798000501826F000E026E180E016ED3EC1FF069
:1017A8000501836F000E026E190E016ED3EC1FF057
:1017B8000501846F000E026E1B0E016ED3EC1FF044
:1017C8000501896F000E026E080E016ED3EC1FF042
:1017D800450AD8A4F2EF0BF0F4EF0BF014EF0CF07D
:1017E800000E026E1E0E016ED3EC1FF00501856F10
:1017F800000E026E1F0E016ED3EC1FF00501866FFE
:10180800000E026E200E016ED3EC1FF00501876FEB
:10181800000E026E220E016ED3EC1FF005018A6FD6
:10182800000E026E020E016ED3EC1FF0450AD8A41A
:1018380020EF0CF022EF0CF013EF0DF0000E026E0B
:10184800240E016ED3EC1FF00501936F9305D8A405
:1018580030EF0CF032EF0CF057EF0CF0000E026E88
:10186800030E016ED3EC1FF0450AD8A43EEF0CF02E
:1018780040EF0CF057EF0CF0C08EA00E00D0E82E11
:10188800FDD78CC507F58DC508F58EC509F5030E7E
:101898000A6E000E0B6E000E0C6E05018B51D2EC19
:1018A8001EF062EF0CF005019305D8A45EEF0CF072
:1018B80060EF0CF062EF0CF0000E936F020E050162
:1018C8009319D8A46AEF0CF06CEF0CF091EF0CF0C0
:1018D800000E026E040E016ED3EC1FF0450AD8A468
:1018E80078EF0CF07AEF0CF091EF0CF0C08AA00EB4
:1018F80000D0E82EFDD780C507F581C508F588C555
:1019080009F5030E0A6E000E0B6E000E0C6E050133
:101918007F51D2EC1EF09DEF0CF0020E05019319D9
:10192800D8A499EF0CF09BEF0CF09DEF0CF0000E93
:10193800936F030E05019319D8A4A5EF0CF0A7EF38
:101948000CF0CCEF0CF0000E026E060E016ED3EC1C
:101958001FF0450AD8A4B3EF0CF0B5EF0CF0CCEFAC
:101968000CF0BE8AA00E00D0E82EFDD783C507F57F
:1019780084C508F589C509F5030E0A6E000E0B6EBD
:10198800000E0C6E05018251D2EC1EF0D8EF0CF05F
:10199800030E05019319D8A4D4EF0CF0D6EF0CF080
:1019A800D8EF0CF0000E936F040E05019319D8A41C
:1019B800E0EF0CF0E2EF0CF007EF0DF0000E026E16
:1019C800080E016ED3EC1FF0450AD8A4EEEF0CF018
:1019D800F0EF0CF007EF0DF0C086A00E00D0E82E57
:1019E800FDD786C507F587C508F58AC509F5030E2D
:1019F8000A6E000E0B6E000E0C6E05018551D2ECBE
:101A08001EF013EF0DF0040E05019319D8A40FEF83
:101A18000DF011EF0DF013EF0DF0000E936F000EA7
:101A2800026E0A0E016EE5EC1FF0000ED0BC010E2E
:101A38000501776F000ECEB8010E786F000ED0B892
:101A4800010E7A6F000ECFBE010E796FF2EC1FF017
:101A5800020EF8EC1EF001C51BF502C51CF51D6A47
:101A68001E6A000E1F6E000E206E000E216E000E04
:101A7800226EFF0E236E0F0E246E000E256E000ED2
:101A8800266E000E276E000E286E000E296E000EC0
:101A98002A6EFF0E2B6E000E2C6E000E2D6E000EA1
:101AA8002E6ED6EC1DF01B5005018F6FF2EC1FF067
:101AB800100EF8EC1EF001C51BF502C51CF51D6AD9
:101AC8001E6A000E1F6E000E206E000E216E000EA4
:101AD800226EFF0E236E0F0E246E000E256E000E72
:101AE800266E000E276E000E286E000E296E000E60
:101AF8002A6EFF0E2B6E000E2C6E000E2D6E000E41
:101B08002E6ED6EC1DF01B500501906FF2EC1FF005
:101B1800110EF8EC1EF001C51BF502C51CF51D6A77
:101B28001E6A000E1F6E000E206E000E216E000E43
:101B3800226EFF0E236E0F0E246E000E256E000E11
:101B4800266E000E276E000E286E000E296E000EFF
:101B58002A6EFF0E2B6E000E2C6E000E2D6E000EE0
:101B68002E6ED6EC1DF01B500501916FF2EC1FF0A4
:101B7800120EF8EC1EF001C51BF502C51CF51D6A16
:101B88001E6A000E1F6E000E206E000E216E000EE3
:101B9800226EFF0E236E0F0E246E000E256E000EB1
:101BA800266E000E276E000E286E000E296E000E9F
:101BB8002A6EFF0E2B6E000E2C6E000E2D6E000E80
:101BC8002E6ED6EC1DF01B500501926F60EC1FF0D5
:101BD80035EF1CF090C507F591C508F592C509F5D4
:101BE800030E0A6E000E0B6E000E0C6E8F51D2ECB7
:101BF8001EF0A00E00D0E82EFDD7D0BC06EF0EF0E8
:101C080008EF0EF033EF0EF005017751D8B40FEF5F
:101C18000EF011EF0EF033EF0EF07B51D8A417EF52
:101C28000EF019EF0EF033EF0EF07C51D8A41FEF31
:101C38000EF021EF0EF033EF0EF07D51D8A427EF10
:101C48000EF029EF0EF033EF0EF07E51D8A42FEFEF
:101C58000EF031EF0EF033EF0EF0050E936FCEB8A5
:101C680038EF0EF03AEF0EF065EF0EF005017851FF
:101C7800D8B441EF0EF043EF0EF065EF0EF07B5154
:101C8800D8A449EF0EF04BEF0EF065EF0EF07C5143
:101C9800D8A451EF0EF053EF0EF065EF0EF07D5122
:101CA800D8A459EF0EF05BEF0EF065EF0EF07E5101
:101CB800D8A461EF0EF063EF0EF065EF0EF0060E9C
:101CC800936FD0B86AEF0EF06CEF0EF097EF0EF04E
:101CD80005017A51D8B473EF0EF075EF0EF097EF57
:101CE8000EF07B51D8A47BEF0EF07DEF0EF097EF4E
:101CF8000EF07C51D8A483EF0EF085EF0EF097EF2D
:101D08000EF07D51D8A48BEF0EF08DEF0EF097EF0B
:101D18000EF07E51D8A493EF0EF095EF0EF097EFEA
:101D28000EF0070E936FCFBE9CEF0EF09EEF0EF0F5
:101D3800C9EF0EF005017951D8B4A5EF0EF0A7EF61
:101D48000EF0C9EF0EF07B51D8A4ADEF0EF0AFEF57
:101D58000EF0C9EF0EF07C51D8A4B5EF0EF0B7EF36
:101D68000EF0C9EF0EF07D51D8A4BDEF0EF0BFEF15
:101D78000EF0C9EF0EF07E51D8A4C5EF0EF0C7EFF4
:101D88000EF0C9EF0EF0080E936F05017B51D8A431
:101D9800D0EF0EF0D2EF0EF0EAEF0EF07C51D8A49F
:101DA800D8EF0EF0DAEF0EF0EAEF0EF07D51D8A47E
:101DB800E0EF0EF0E2EF0EF0EAEF0EF07E51D8B44D
:101DC800E8EF0EF0EAEF0EF004EF0FF0634B642B30
:101DD800E80E631907E1030E6419D8A4F6EF0EF0B4
:101DE800F8EF0EF004EF0FF0000E646F000E636F53
:101DF800000E7B6F000E7C6F000E7D6F000E7E6FF5
:101E08007B51D8B40AEF0FF00CEF0FF029EF0FF069
:101E1800722B190E7219D8A414EF0FF016EF0FF0E9
:101E280029EF0FF0000E726FC0AE1DEF0FF021EF1B
:101E38000FF02F6A2F2A22EF0FF02F6A2F322F323E
:101E4800C0502F187F0B2F18C06E05017C51D8B4D5
:101E580030EF0FF032EF0FF04FEF0FF0722B190E3B
:101E68007219D8A43AEF0FF03CEF0FF04FEF0FF0D4
:101E7800000E726FC0AA43EF0FF047EF0FF02F6A02
:101E88002F2A48EF0FF02F6A2F3A2F46C0502F18ED
:101E9800DF0B2F18C06E05017D51D8B456EF0FF037
:101EA80058EF0FF075EF0FF0722B190E7219D8A4B6
:101EB80060EF0FF062EF0FF075EF0FF0000E726F2A
:101EC800BEAA69EF0FF06DEF0FF02F6A2F2A6EEFA1
:101ED8000FF02F6A2F3A2F46BE502F18DF0B2F18FE
:101EE800BE6E05017E51D8B47CEF0FF07EEF0FF087
:101EF8009CEF0FF0722B190E7219D8A486EF0FF011
:101F080088EF0FF09CEF0FF0000E726FC0A68FEFF6
:101F18000FF093EF0FF02F6A2F2A94EF0FF02F6A2C
:101F28002F462F462F46C0502F18F70B2F18C06E7C
:101F380005017B51D8A4A3EF0FF0A5EF0FF0C3EF75
:101F48000FF07C51D8A4ABEF0FF0ADEF0FF0C3EF5B
:101F58000FF07D51D8A4B3EF0FF0B5EF0FF0C3EF3A
:101F68000FF07E51D8A4BBEF0FF0BDEF0FF0C3EF19
:101F78000FF0000E726FC09EC09ABE9AC0967B5139
:101F8800D8B4C9EF0FF0CBEF0FF00CEF10F0D0BCC6
:101F9800D0EF0FF0D2EF0FF00CEF10F07751D8B46C
:101FA800D8EF0FF0DAEF0FF00CEF10F08FC58BF5CC
:101FB80090C58CF591C58DF592C58EF5000E7B6F99
:101FC800000E026E0F0E016E8DC503F5A9EC1EF012
:101FD800000E026E0C0E016E8CC503F5A9EC1EF006
:101FE800000E026E0B0E016E8BC503F5A9EC1EF0F8
:101FF800000E026E110E016E8EC503F5A9EC1EF0DF
:10200800000E026E030E016E450E036EA9EC1EF063
:1020180005017C51D8B413EF10F015EF10F056EF0E
:1020280010F0CEB81AEF10F01CEF10F056EF10F0C9
:102038007851D8B422EF10F024EF10F056EF10F0DA
:102048008FC57FF590C580F591C581F592C588F556
:10205800000E7C6F000E026E140E016E81C503F532
:10206800A9EC1EF0000E026E130E016E80C503F57A
:10207800A9EC1EF0000E026E120E016E7FC503F56C
:10208800A9EC1EF0000E026E150E016E88C503F550
:10209800A9EC1EF0000E026E040E016E450E036ED2
:1020A800A9EC1EF005017D51D8B45DEF10F05FEF8B
:1020B80010F0A0EF10F0D0B864EF10F066EF10F059
:1020C800A0EF10F07A51D8B46CEF10F06EEF10F06A
:1020D800A0EF10F08FC582F590C583F591C584F502
:1020E80092C589F5000E7D6F000E026E190E016E05
:1020F80084C503F5A9EC1EF0000E026E180E016EE1
:1021080083C503F5A9EC1EF0000E026E160E016ED3
:1021180082C503F5A9EC1EF0000E026E1B0E016EBF
:1021280089C503F5A9EC1EF0000E026E060E016EBD
:10213800450E036EA9EC1EF005017E51D8B4A7EF39
:1021480010F0A9EF10F0EAEF10F0CFBEAEEF10F0EC
:10215800B0EF10F0EAEF10F07951D8B4B6EF10F004
:10216800B8EF10F0EAEF10F08FC585F590C586F549
:1021780091C587F592C58AF5000E7E6F000E026E36
:10218800200E016E87C503F5A9EC1EF0000E026E45
:102198001F0E016E86C503F5A9EC1EF0000E026E37
:1021A8001E0E016E85C503F5A9EC1EF0000E026E29
:1021B800220E016E8AC503F5A9EC1EF0000E026E10
:1021C800080E016E450E036EA9EC1EF0D0ACEFEFC1
:1021D80010F0F1EF10F0F6EF10F0000E0501666F49
:1021E800000E656FCEA8FBEF10F0FDEF10F002EFC8
:1021F80011F0000E0501686F000E676FD0A807EF99
:1022080011F009EF11F00EEF11F0000E05016A6FE1
:10221800000E696FCFAE13EF11F015EF11F019EF43
:102228000DF0000E05016C6F000E6B6F19EF0DF0CD
:10223800D0AC21EF11F023EF11F046EF11F0C08E72
:102248008CC507F58DC508F58EC509F5030E0A6E10
:10225800000E0B6E000E0C6E8B51D2EC1EF0010EB0
:102268000501936F000E026E240E016E93C503F5EF
:10227800A9EC1EF0000E026E020E016E450E036EF2
:10228800A9EC1EF0D0BC4BEF11F04DEF11F019EF97
:102298000DF00501654B662BF40E651906E1660520
:1022A800D8A459EF11F05BEF11F019EF0DF0000E03
:1022B800666F000E656F010E7B6F000E936F000E48
:1022C800026E240E016E93C503F5A9EC1EF0000EF4
:1022D800026E020E016E450E036EA9EC1EF019EF98
:1022E8000DF0CEA87AEF11F07CEF11F09FEF11F00E
:1022F800C08A80C507F581C508F588C509F5030EAC
:102308000A6E000E0B6E000E0C6E7F51D2EC1EF0A2
:10231800020E0501936F000E026E240E016E93C526
:1023280003F5A9EC1EF0000E026E020E016E450EBA
:10233800036EA9EC1EF0CEB8A4EF11F0A6EF11F0D1
:1023480019EF0DF00501674B682BF40E671906E1CC
:102358006805D8A4B2EF11F0B4EF11F019EF0DF041
:10236800000E686F000E676F010E7C6F000E936F92
:1023780063EF11F0D0A8C3EF11F0C5EF11F0E8EF4B
:1023880011F0BE8A83C507F584C508F589C509F526
:10239800030E0A6E000E0B6E000E0C6E8251D2EC0C
:1023A8001EF0030E0501936F000E026E240E016EDF
:1023B80093C503F5A9EC1EF0000E026E020E016E25
:1023C800450E036EA9EC1EF0D0B8EDEF11F0EFEF5B
:1023D80011F019EF0DF00501694B6A2BF40E69191C
:1023E80006E16A05D8A4FBEF11F0FDEF11F019EF33
:1023F8000DF0000E6A6F000E696F010E7D6F000E02
:10240800936F63EF11F0CFAE0CEF12F00EEF12F0F6
:1024180031EF12F0C08686C507F587C508F58AC56D
:1024280009F5030E0A6E000E0B6E000E0C6E855138
:10243800D2EC1EF0040E0501936F000E026E240EFE
:10244800016E93C503F5A9EC1EF0000E026E020E94
:10245800016E450E036EA9EC1EF0CFBE36EF12F0EA
:1024680038EF12F019EF0DF005016B4B6C2BF40EE1
:102478006B1906E16C05D8A444EF12F046EF12F090
:1024880019EF0DF0000E6C6F000E6B6F010E7E6F72
:10249800000E936F63EF11F0D0AC55EF12F057EFC9
:1024A80012F06AEF12F0C09E000E936F000E026EDB
:1024B800240E016E93C503F5A9EC1EF0000E026E02
:1024C800020E016E450E036EA9EC1EF0D0BC6FEF34
:1024D80012F071EF12F019EF0DF00501654B662B44
:1024E800F40E651906E16605D8A47DEF12F07FEFBA
:1024F80012F019EF0DF0000E666F000E656F010EF9
:102508006D6F010E936F19EF0DF0CEA88EEF12F0DC
:1025180090EF12F0A3EF12F0C09A000E936F000E26
:10252800026E240E016E93C503F5A9EC1EF0000E91
:10253800026E020E016E450E036EA9EC1EF0CEB8B7
:10254800A8EF12F0AAEF12F019EF0DF00501674B92
:10255800682BF40E671906E16805D8A4B6EF12F0E7
:10256800B8EF12F019EF0DF0000E686F000E676FEC
:10257800010E6E6F020E936F19EF0DF0D0A8C7EF22
:1025880012F0C9EF12F0DCEF12F0BE9A000E936F52
:10259800000E026E240E016E93C503F5A9EC1EF021
:1025A800000E026E020E016E450E036EA9EC1EF0BF
:1025B800D0B8E1EF12F0E3EF12F019EF0DF00501DA
:1025C800694B6A2BF40E691906E16A05D8A4EFEF86
:1025D80012F0F1EF12F019EF0DF0000E6A6F000E15
:1025E800696F010E6F6F030E936F19EF0DF0CFAE89
:1025F80000EF13F002EF13F015EF13F0C096000E82
:10260800936F000E026E240E016E93C503F5A9ECBC
:102618001EF0000E026E020E016E450E036EA9EC4E
:102628001EF0CFBE1AEF13F01CEF13F019EF0DF0E8
:1026380005016B4B6C2BF40E6B1906E16C05D8A4E5
:1026480028EF13F02AEF13F019EF0DF0000E6C6F5E
:10265800000E6B6F010E706F040E936F19EF0DF083
:102668008CC507F58DC508F58EC509F5030E0A6EEC
:10267800000E0B6E000E0C6E8B51D2EC1EF0050195
:102688006D51D8B44AEF13F04CEF13F069EF13F023
:10269800712B190E7119D8A454EF13F056EF13F0DB
:1026A80069EF13F0000E716FC0AE5DEF13F061EFCC
:1026B80013F02F6A2F2A62EF13F02F6A2F322F326E
:1026C800C0502F187F0B2F18C06ED0BC6EEF13F0C0
:1026D80070EF13F083EF13F005017751D8B477EF5B
:1026E80013F079EF13F083EF13F06D51D8A47FEF57
:1026F80013F081EF13F083EF13F0090E936FD0BC42
:1027080088EF13F08AEF13F0D6EF13F00501775135
:10271800D8B491EF13F093EF13F0D6EF13F06D5197
:10272800D8B499EF13F09BEF13F0D6EF13F0C08EE7
:10273800000E6D6F000E736F000E746F000E756FD4
:10274800000E766F8FC58BF590C58CF591C58DF50C
:1027580092C58EF5000E026E0F0E016E8DC503F543
:10276800A9EC1EF0000E026E0C0E016E8CC503F56E
:10277800A9EC1EF0000E026E0B0E016E8BC503F560
:10278800A9EC1EF0000E026E110E016E8EC503F547
:10279800A9EC1EF0000E026E030E016E450E036ECC
:1027A800A9EC1EF005016D51D8B4DDEF13F0DFEF91
:1027B80013F0E7EF14F0FB0E2F6EFF0E306E8B5107
:1027C800316E326A2F503126305032228F51336E9B
:1027D800346A3150335C3450800A356E3250800A86
:1027E8003558D8A0FAEF13F0FCEF13F017EF14F0F8
:1027F8008F512F6E306A8B51316E326A050E312639
:10280800000E32222F50315C3250800A336E305025
:10281800800A3358D8A013EF14F015EF14F017EF0F
:1028280014F0010E736F7351D8B41DEF14F01FEF3D
:1028380014F021EF14F08FC58BF5FB0E2F6EFF0EF1
:10284800306E8E51316E326A2F503126305032221E
:102858009251336E346A3150335C3450800A356E8D
:102868003250800A3558D8A03CEF14F03EEF14F0EF
:1028780059EF14F092512F6E306A8E51316E326AD0
:10288800050E3126000E32222F50315C3250800A5C
:10289800336E3050800A3358D8A055EF14F057EFF4
:1028A80014F059EF14F0010E766F7651D8B45FEF3B
:1028B80014F061EF14F063EF14F092C58EF5FB0E7F
:1028C8002F6EFF0E306E8C51316E326A2F503126CA
:1028D800305032229051336E346A3150335C345068
:1028E800800A356E3250800A3558D8A07EEF14F031
:1028F80080EF14F09BEF14F090512F6E306A8C51DA
:10290800316E326A050E3126000E32222F50315CAC
:102918003250800A336E3050800A3358D8A097EF6F
:1029280014F099EF14F09BEF14F0010E746F7451CA
:10293800D8B4A1EF14F0A3EF14F0A5EF14F090C5EC
:102948008CF5FB0E2F6EFF0E306E8D51316E326A94
:102958002F503126305032229151336E346A315023
:10296800335C3450800A356E3250800A3558D8A00E
:10297800C0EF14F0C2EF14F0DDEF14F091512F6E98
:10298800306A8D51316E326A050E3126000E3222C0
:102998002F50315C3250800A336E3050800A3358E1
:1029A800D8A0D9EF14F0DBEF14F0DDEF14F0010E2E
:1029B800756F7551D8B4E3EF14F0E5EF14F0E7EF55
:1029C80014F091C58DF5CEB8ECEF14F0EEEF14F0DD
:1029D8001AEF15F07851D8B4F4EF14F0F6EF14F0BC
:1029E8001AEF15F0C09EC08A80C507F581C508F5A5
:1029F80088C509F5030E0A6E000E0B6E000E0C6EEC
:102A08007F51D2EC1EF0020E0501936F000E026E8C
:102A1800240E016E93C503F5A9EC1EF0000E026E9C
:102A2800020E016E450E036EA9EC1EF0D0B81FEF22
:102A380015F021EF15F04EEF15F005017A51D8B4D5
:102A480028EF15F02AEF15F04EEF15F0C09EBE8A5C
:102A580083C507F584C508F589C509F5030E0A6E0F
:102A6800000E0B6E000E0C6E8251D2EC1EF0030E9F
:102A78000501936F000E026E240E016E93C503F5D7
:102A8800A9EC1EF0000E026E020E016E450E036EDA
:102A9800A9EC1EF0CFBE53EF15F055EF15F019EF66
:102AA8000DF005017951D8B45CEF15F05EEF15F023
:102AB80019EF0DF0C09EC08686C507F587C508F5D5
:102AC8008AC509F5030E0A6E000E0B6E000E0C6E19
:102AD8008551D2EC1EF0040E0501936F63EF11F0DF
:102AE80080C507F581C508F588C509F5030E0A6E86
:102AF800000E0B6E000E0C6E7F51D2EC1EF005011D
:102B08006E51D8B48AEF15F08CEF15F0A9EF15F0D7
:102B1800712B190E7119D8A494EF15F096EF15F0D2
:102B2800A9EF15F0000E716FC0AA9DEF15F0A1EF87
:102B380015F02F6A2F2AA2EF15F02F6A2F3A2F4689
:102B4800C0502F18DF0B2F18C06ECEB8AEEF15F09F
:102B5800B0EF15F0C3EF15F005017851D8B4B7EF11
:102B680015F0B9EF15F0C3EF15F06E51D8A4BFEF0B
:102B780015F0C1EF15F0C3EF15F00A0E936FCEB83C
:102B8800C8EF15F0CAEF15F016EF16F005017851E9
:102B9800D8B4D1EF15F0D3EF15F016EF16F06E514B
:102BA800D8B4D9EF15F0DBEF15F016EF16F0C08AA0
:102BB800000E6E6F000E736F000E746F000E756F4F
:102BC800000E766F8FC57FF590C580F591C581F5AC
:102BD80092C588F5000E026E140E016E8DC503F5C0
:102BE800A9EC1EF0000E026E130E016E8CC503F5E3
:102BF800A9EC1EF0000E026E120E016E8BC503F5D5
:102C0800A9EC1EF0000E026E150E016E8EC503F5BE
:102C1800A9EC1EF0000E026E040E016E450E036E46
:102C2800A9EC1EF005016E51D8B41DEF16F01FEF88
:102C380016F027EF17F0FB0E2F6EFF0E306E7F5148
:102C4800316E326A2F503126305032228F51336E16
:102C5800346A3150335C3450800A356E3250800A01
:102C68003558D8A03AEF16F03CEF16F057EF16F0AB
:102C78008F512F6E306A7F51316E326A050E3126C0
:102C8800000E32222F50315C3250800A336E3050A1
:102C9800800A3358D8A053EF16F055EF16F057EFC7
:102CA80016F0010E736F7351D8B45DEF16F05FEF35
:102CB80016F061EF16F08FC57FF5FB0E2F6EFF0E35
:102CC800306E8851316E326A2F50312630503222A0
:102CD8009251336E346A3150335C3450800A356E09
:102CE8003250800A3558D8A07CEF16F07EEF16F0E7
:102CF80099EF16F092512F6E306A8851316E326A10
:102D0800050E3126000E32222F50315C3250800AD7
:102D1800336E3050800A3358D8A095EF16F097EFED
:102D280016F099EF16F0010E766F7651D8B49FEF32
:102D380016F0A1EF16F0A3EF16F092C588F5FB0E7A
:102D48002F6EFF0E306E8051316E326A2F50312651
:102D5800305032229051336E346A3150335C3450E3
:102D6800800A356E3250800A3558D8A0BEEF16F06A
:102D7800C0EF16F0DBEF16F090512F6E306A8051DD
:102D8800316E326A050E3126000E32222F50315C28
:102D98003250800A336E3050800A3358D8A0D7EFAB
:102DA80016F0D9EF16F0DBEF16F0010E746F7451C0
:102DB800D8B4E1EF16F0E3EF16F0E5EF16F090C5A2
:102DC80080F5FB0E2F6EFF0E306E8151316E326A28
:102DD8002F503126305032229151336E346A31509F
:102DE800335C3450800A356E3250800A3558D8A08A
:102DF80000EF17F002EF17F01DEF17F091512F6E4B
:102E0800306A8151316E326A050E3126000E322247
:102E18002F50315C3250800A336E3050800A33585C
:102E2800D8A019EF17F01BEF17F01DEF17F0010EE0
:102E3800756F7551D8B423EF17F025EF17F027EF0A
:102E480017F091C581F5D0BC2CEF17F02EEF17F0D5
:102E58005AEF17F07751D8B434EF17F036EF17F070
:102E68005AEF17F0C09AC08E8CC507F58DC508F5C6
:102E78008EC509F5030E0A6E000E0B6E000E0C6E61
:102E88008B51D2EC1EF0010E0501936F000E026EFD
:102E9800240E016E93C503F5A9EC1EF0000E026E18
:102EA800020E016E450E036EA9EC1EF0D0B85FEF5E
:102EB80017F061EF17F08EEF17F005017A51D8B4CB
:102EC80068EF17F06AEF17F08EEF17F0C09ABE8A16
:102ED80083C507F584C508F589C509F5030E0A6E8B
:102EE800000E0B6E000E0C6E8251D2EC1EF0030E1B
:102EF8000501936F000E026E240E016E93C503F553
:102F0800A9EC1EF0000E026E020E016E450E036E55
:102F1800A9EC1EF0CFBE93EF17F095EF17F019EF5D
:102F28000DF005017951D8B49CEF17F09EEF17F01A
:102F380019EF0DF0C09AC08686C507F587C508F554
:102F48008AC509F5030E0A6E000E0B6E000E0C6E94
:102F58008551D2EC1EF06FEF15F083C507F584C5D7
:102F680008F589C509F5030E0A6E000E0B6E000EF2
:102F78000C6E8251D2EC1EF005016F51D8B4C7EF28
:102F880017F0C9EF17F0E6EF17F0712B190E71194A
:102F9800D8A4D1EF17F0D3EF17F0E6EF17F0000E33
:102FA800716FBEAADAEF17F0DEEF17F02F6A2F2A3B
:102FB800DFEF17F02F6A2F3A2F46BE502F18DF0B7E
:102FC8002F18BE6ED0B8EBEF17F0EDEF17F000EF4B
:102FD80018F005017A51D8B4F4EF17F0F6EF17F0AE
:102FE80000EF18F06F51D8A4FCEF17F0FEEF17F0C0
:102FF80000EF18F00B0E936FD0B805EF18F007EF3D
:1030080018F053EF18F005017A51D8B40EEF18F004
:1030180010EF18F053EF18F06F51D8B416EF18F0FE
:1030280018EF18F053EF18F0BE8A000E6F6F000EFD
:10303800736F000E746F000E756F000E766F8FC57C
:1030480082F590C583F591C584F592C589F5000E82
:10305800026E190E016E8DC503F5A9EC1EF0000E67
:10306800026E180E016E8CC503F5A9EC1EF0000E59
:10307800026E160E016E8BC503F5A9EC1EF0000E4C
:10308800026E1B0E016E8EC503F5A9EC1EF0000E34
:10309800026E060E016E450E036EA9EC1EF0000EC0
:1030A800D0B8010E05017A6F6F51D8B45EEF18F0F1
:1030B80060EF18F068EF19F0FB0E2F6EFF0E306E00
:1030C8008251316E326A2F503126305032228F5160
:1030D800336E346A3150335C3450800A356E325066
:1030E800800A3558D8A07BEF18F07DEF18F098EFDC
:1030F80018F08F512F6E306A8251316E326A050E88
:103108003126000E32222F50315C3250800A336E45
:103118003050800A3358D8A094EF18F096EF18F082
:1031280098EF18F0010E736F7351D8B49EEF18F032
:10313800A0EF18F0A2EF18F08FC582F5FB0E2F6EE6
:10314800FF0E306E8951316E326A2F503126305061
:1031580032229251336E346A3150335C3450800AD3
:10316800356E3250800A3558D8A0BDEF18F0BFEF41
:1031780018F0DAEF18F092512F6E306A8951316EDB
:10318800326A050E3126000E32222F50315C325041
:10319800800A336E3050800A3358D8A0D6EF18F022
:1031A800D8EF18F0DAEF18F0010E766F7651D8B430
:1031B800E0EF18F0E2EF18F0E4EF18F092C589F5A7
:1031C800FB0E2F6EFF0E306E8351316E326A2F5018
:1031D8003126305032229051336E346A3150335C8C
:1031E8003450800A356E3250800A3558D8A0FFEF27
:1031F80018F001EF19F01CEF19F090512F6E306A9A
:103208008351316E326A050E3126000E32222F505C
:10321800315C3250800A336E3050800A3358D8A05F
:1032280018EF19F01AEF19F01CEF19F0010E746F6E
:103238007451D8B422EF19F024EF19F026EF19F0E1
:1032480090C583F5FB0E2F6EFF0E306E8451316EE4
:10325800326A2F503126305032229151336E346AFF
:103268003150335C3450800A356E3250800A3558FC
:10327800D8A041EF19F043EF19F05EEF19F0915122
:103288002F6E306A8451316E326A050E3126000E77
:1032980032222F50315C3250800A336E3050800A0F
:1032A8003358D8A05AEF19F05CEF19F05EEF19F017
:1032B800010E756F7551D8B464EF19F066EF19F007
:1032C80068EF19F091C584F5D0BC6DEF19F06FEF78
:1032D80019F09BEF19F07751D8B475EF19F077EF23
:1032E80019F09BEF19F0BE9AC08E8CC507F58DC5F5
:1032F80008F58EC509F5030E0A6E000E0B6E000E5A
:103308000C6E8B51D2EC1EF0010E0501936F000E6E
:10331800026E240E016E93C503F5A9EC1EF0000E93
:10332800026E020E016E450E036EA9EC1EF0CEB8B9
:10333800A0EF19F0A2EF19F0CFEF19F005017851BD
:10334800D8B4A9EF19F0ABEF19F0CFEF19F0BE9A86
:10335800C08A80C507F581C508F588C509F5030E3B
:103368000A6E000E0B6E000E0C6E7F51D2EC1EF032
:10337800020E0501936F000E026E240E016E93C5B6
:1033880003F5A9EC1EF0000E026E020E016E450E4A
:10339800036EA9EC1EF0CFBED4EF19F0D6EF19F0EA
:1033A80003EF1AF005017951D8B4DDEF19F0DFEF1A
:1033B80019F003EF1AF0BE9AC08686C507F587C5CF
:1033C80008F58AC509F5030E0A6E000E0B6E000E8D
:1033D8000C6E8551D2EC1EF0040E0501936F000EA1
:1033E800026E240E016E93C503F5A9EC1EF0000EC3
:1033F800026E020E016E450E036EA9EC1EF086C524
:1034080007F587C508F58AC509F5030E0A6E000E8B
:103418000B6E000E0C6E05018551D2EC1EF00501F5
:103428007051D8B41AEF1AF01CEF1AF03AEF1AF0EC
:10343800712B190E7119D8A424EF1AF026EF1AF07F
:103448003AEF1AF0000E716FC0A62DEF1AF031EFA7
:103458001AF02F6A2F2A32EF1AF02F6A2F462F46BA
:103468002F46C0502F18F70B2F18C06ECFBE3FEF56
:103478001AF041EF1AF054EF1AF005017951D8B457
:1034880048EF1AF04AEF1AF054EF1AF07051D8A426
:1034980050EF1AF052EF1AF054EF1AF00C0E936F27
:1034A800CFBE59EF1AF05BEF1AF0A7EF1AF005013B
:1034B8007951D8B462EF1AF064EF1AF0A7EF1AF056
:1034C8007051D8B46AEF1AF06CEF1AF0A7EF1AF03F
:1034D800C086000E706F000E736F000E746F000EC2
:1034E800756F000E766F8FC585F590C586F591C509
:1034F80087F592C58AF5000E026E200E016E8DC505
:1035080003F5A9EC1EF0000E026E1F0E016E8CC5AD
:1035180003F5A9EC1EF0000E026E1E0E016E8BC59F
:1035280003F5A9EC1EF0000E026E220E016E8EC588
:1035380003F5A9EC1EF0000E026E080E016E450E92
:10354800036EA9EC1EF005017051D8B4AEEF1AF065
:10355800B0EF1AF0B8EF1BF0FB0E2F6EFF0E306EB7
:103568008551316E326A2F503126305032228F51B8
:10357800336E346A3150335C3450800A356E3250C1
:10358800800A3558D8A0CBEF1AF0CDEF1AF0E8EF43
:103598001AF08F512F6E306A8551316E326A050EDE
:1035A8003126000E32222F50315C3250800A336EA1
:1035B8003050800A3358D8A0E4EF1AF0E6EF1AF03A
:1035C800E8EF1AF0010E736F7351D8B4EEEF1AF0EA
:1035D800F0EF1AF0F2EF1AF08FC585F5FB0E2F6E9B
:1035E800FF0E306E8A51316E326A2F5031263050BC
:1035F80032229251336E346A3150335C3450800A2F
:10360800356E3250800A3558D8A00DEF1BF00FEFF9
:103618001BF02AEF1BF092512F6E306A8A51316EDF
:10362800326A050E3126000E32222F50315C32509C
:10363800800A336E3050800A3358D8A026EF1BF02A
:1036480028EF1BF02AEF1BF0010E766F7651D8B4E5
:1036580030EF1BF032EF1BF034EF1BF092C58AF508
:10366800FB0E2F6EFF0E306E8651316E326A2F5070
:103678003126305032229051336E346A3150335CE7
:103688003450800A356E3250800A3558D8A04FEF32
:103698001BF051EF1BF06CEF1BF090512F6E306A4E
:1036A8008651316E326A050E3126000E32222F50B5
:1036B800315C3250800A336E3050800A3358D8A0BB
:1036C80068EF1BF06AEF1BF06CEF1BF0010E746FD4
:1036D8007451D8B472EF1BF074EF1BF076EF1BF047
:1036E80090C586F5FB0E2F6EFF0E306E8751316E3A
:1036F800326A2F503126305032229151336E346A5B
:103708003150335C3450800A356E3250800A355857
:10371800D8A091EF1BF093EF1BF0AEEF1BF0915187
:103728002F6E306A8751316E326A050E3126000ECF
:1037380032222F50315C3250800A336E3050800A6A
:103748003358D8A0AAEF1BF0ACEF1BF0AEEF1BF07C
:10375800010E756F7551D8B4B4EF1BF0B6EF1BF0BE
:10376800B8EF1BF091C587F5D0BCBDEF1BF0BFEFDC
:103778001BF0DBEF1BF07751D8B4C5EF1BF0C7EF98
:103788001BF0DBEF1BF0C096C08E010E936F000E8E
:10379800026E240E016E93C503F5A9EC1EF0000E0F
:1037A800026E020E016E450E036EA9EC1EF0CEB835
:1037B800E0EF1BF0E2EF1BF00FEF1CF00501785172
:1037C800D8B4E9EF1BF0EBEF1BF00FEF1CF0C0963D
:1037D800C08A80C507F581C508F588C509F5030EB7
:1037E8000A6E000E0B6E000E0C6E7F51D2EC1EF0AE
:1037F800020E0501936F000E026E240E016E93C532
:1038080003F5A9EC1EF0000E026E020E016E450EC5
:10381800036EA9EC1EF0D0B814EF1CF016EF1CF0E4
:1038280019EF0DF005017A51D8B41DEF1CF01FEF08
:103838001CF019EF0DF0C096BE8A83C507F584C544
:1038480008F589C509F5030E0A6E000E0B6E000E09
:103858000C6E8251D2EC1EF0030E0501936F63EFDC
:1038680011F0050193512F6E306A3050000AD8B418
:1038780040EF1CF019EF0DF02F50000AD8B4EEEF0E
:103888000DF0010AD8B434EF13F0030AD8B474EF7A
:1038980015F0010AD8B4B1EF17F0070AD8B403EF4E
:1038A8001AF0010AD8B41CEF11F0030AD8B475EF66
:1038B80011F0010AD8B4BEEF11F00F0AD8B407EF1F
:1038C80012F0010AD8B450EF12F0030AD8B489EF05
:1038D80012F0010AD8B4C2EF12F0070AD8B4FBEF0D
:1038E80012F019EF0DF00DEF00F0000E166E14BE79
:1038F80082EF1CF080EF1CF08CEF1CF0141E131EDE
:10390800121E116C000E122213221422010E166EC2
:1039180010BE93EF1CF091EF1CF09DEF1CF0101EF1
:103928000F1E0E1E0D6C000E0E220F221022010E0D
:10393800161A000E176E000E186E000E196E000E85
:103948001A6E1150121013101410D8B4AEEF1CF0E8
:10395800B0EF1CF0E6EF1CF0010E156EBAEF1CF08C
:10396800D8901136123613361436152A14AEBFEF16
:103978001CF0C1EF1CF0B4EF1CF0D89017361836C5
:1039880019361A3611500D5C12500E5813500F5834
:1039980014501058D8A0D3EF1CF0D5EF1CF0DEEF70
:1039A8001CF011500D5E12500E5A13500F5A14503D
:1039B800105A1780D8901432133212321132152E41
:1039C800C1EF1CF01650D8B4ECEF1CF0EEEF1CF071
:1039D800F6EF1CF01A1E191E181E176C000E18227E
:1039E80019221A2217C50DF518C50EF519C50FF5B8
:1039F8001AC510F51200026E000184BF06EF1DF013
:103A080008EF1DF06BEF1DF00250050D010EF324B9
:103A1800F66E160EF420F76EF86A000EF82208000B
:103A2800F5C484F00250050D010EF326000EF422B1
:103A3800010EF324F66E160EF420F76EF86A000EE7
:103A4800F8220800F5C485F00250050D020EF32691
:103A5800000EF422010EF324F66E160EF420F76E13
:103A6800F86A000EF8220800F5500309866F000E68
:103A78008C6F0250050D030EF326000EF422010E82
:103A8800F324F66E160EF420F76EF86A000EF8228C
:103A98000800F5C489F00250050D040EF326000E47
:103AA800F422010EF324F66E160EF420F76EF86A6F
:103AB800000EF82208006100D4F301F5013A01462E
:103AC8000146C7500118BF0B0118C76E848F12003A
:103AD800026E02AE72EF1DF074EF1DF078EF1DF06C
:103AE800EEEC1FF07AEF1DF0EAEC1FF002AC7FEF6E
:103AF8001DF081EF1DF085EF1DF0EEEC1FF087EF54
:103B08001DF0EAEC1FF002AA8CEF1DF08EEF1DF0FD
:103B180092EF1DF0EEEC1FF094EF1DF0EAEC1FF0B1
:103B280002A899EF1DF09BEF1DF09FEF1DF0EEEC42
:103B38001FF0A1EF1DF0EAEC1FF002A6A6EF1DF0A2
:103B4800A8EF1DF0ACEF1DF0EEEC1FF0AEEF1DF08E
:103B5800EAEC1FF002A4B3EF1DF0B5EF1DF0B9EFCA
:103B68001DF0EEEC1FF0BBEF1DF0EAEC1FF002A217
:103B7800C0EF1DF0C2EF1DF0C6EF1DF0EEEC1FF018
:103B8800C8EF1DF0EAEC1FF002A0CDEF1DF0CFEF5B
:103B98001DF0D3EF1DF0EEEC1FF0D5EF1DF0EAECB1
:103BA8001FF012001F501B5C016E20501C58026E43
:103BB80021501D58036E22501E58046E27502B5C4E
:103BC800056E28502C58066E29502D58076E2A501D
:103BD8002E58086E13EC1EF001C50DF502C50EF542
:103BE80003C50FF504C510F51F50235C116E205056
:103BF8002458126E21502558136E22502658146EE0
:103C080079EC1CF027500D241B6E28500E201C6EDA
:103C180029500F201D6E2A5010201E6E1200000E13
:103C2800096E000E0A6E000E0B6E000E0C6E01A0DF
:103C380020EF1EF022EF1EF02AEF1EF00550092695
:103C480006500A2207500B2208500C22D89005363D
:103C5800063607360836D89004320332023201326B
:103C68000150021003100410D8A43DEF1EF03FEFDE
:103C78001EF01BEF1EF009C501F50AC502F50BC5BC
:103C880003F50CC504F51200000EBE6E000EBF6EE3
:103C9800000EC06E1F0EC66EA00EC76E570EC86E01
:103CA800AF0E0401106F000E086F070E006F800E34
:103CB800096F100E016F500E116F000E026F000E8B
:103CC8000A6F000E126F370E036FF00E0B6F136939
:103CD8003F0E046FF00E0C6F14690E0E02016A6F2E
:103CE8001B0E0F6F1C0E0D6F0D0E6B6F1200000E6A
:103CF8000301D96F000EDA6F000EDB6F000EDC6F68
:103D0800000EDF6F000EE06F000EE56F000EE76F2C
:103D1800000EEC6F000EEE6F000EEF6F000EF06FEE
:103D2800000EF16F000EF26F000EF46F100EF56FBB
:103D3800000EF66F000EF76F000EF86F000EF96FA9
:103D48001F0EFA6F840EF36F1200000ED6BE010E1E
:103D5800046E380E0001456F0250446F610004F490
:103D680043F061000CF446F04151F80B0309416F30
:103D7800D69E550E426FAA0E426F408140B1C7EFE2
:103D88001EF0C9EF1EF0C2EF1EF004B002D0D69E9E
:103D980001D0D68EF80E0001411712000D6E000EEC
:103DA8000E6E000E0F6E000E106EEAEF1EF007C5C5
:103DB80003F508C504F509C505F50D50B8EC1FF065
:103DC800010E0E26000E0F22000E10220E500A5C65
:103DD8000F500B5810500C58D8B0F5EF1EF0F7EFF5
:103DE8001EF0DBEF1EF01200056E610014F4ECF318
:103DF8000301F38FF39DF381F3B105EF1FF007EF94
:103E08001FF000EF1FF0EB51046E036AEA51032420
:103E1800016E000E0420026E1200030E0301206FD3
:103E2800000E1F6F000E216FF90E1D6F000E1C6F24
:103E3800B696AB86F80E016E3F0E026EE0EC1FF0F0
:103E4800F10E03011E6F12003A503B10D8B42FEF49
:103E58001FF031EF1FF03DEF1FF002D83DEF1FF0CC
:103E68000500FA6E3A50FD6E3B50FE6EFF6AFA503E
:103E780012001200016E010E0001826F610004F44D
:103E880081F0B6A04AEF1FF04CEF1FF045EF1FF08E
:103E9800000180511200ABA654EF1FF056EF1FF03F
:103EA8005FEF1FF0B6A65BEF1FF05DEF1FF05FEF4F
:103EB8001FF0F6EC1FF011003650385C37503958B7
:103EC800D8A069EF1FF06BEF1FF060EF1FF0000E36
:103ED800396E000E386E1200FAEC1FF09CEC1FF0E1
:103EE80048EC1EF0AAEC1FF07BEC1EF011EC1FF062
:103EF800C6EC1FF01200100E381809E1270E391809
:103F0800D8B489EF1FF08BEF1FF08DEF1FF0384A00
:103F1800392A1200396A386A376A366A0401080E83
:103F28005D6F000E5E6F000E5F6F000104EF0BF017
:103F3800000E0001636F000E646F000E656F000EC7
:103F4800666F000E676F000E686F1200600E00014A
:103F5800AD6F000EAF6F000EB36F080EB16F000E9D
:103F6800B06F000EAC6F1200066E03506CEC1DF0C3
:103F780006506CEC1DF004506CEC1DF005506CEC18
:103F88001DF01200020E0001846F400E856F000EB6
:103F9800866F000E8C6F030E896FC79C1200380E57
:103FA8000001456F0250446F610004F443F0F80EBD
:103FB800411740814651120001C53AF502C53BF54B
:103FC800120001C536F502C537F51200C00E3EECE9
:103FD8001FF01200F00E3EEC1FF012003B0E030122
:103FE800EC6F1200B69628EC1FF01200D69A120059
:023FF8001200B5
:020000040020DA
:10000000FF0FFF0FFF0FFF0FFF0FFF0FFF0FFF0F80
:10001000FF0FFF0FFF0FFF0FFF0FFF0FFF0FFF0F70
:020000040030CA
:0A0000008CFFF7FF9FFFFFFFFFFFDB
:00000001FF
