:040000000DEF00F010
:040008002FEF1FF0C7
:06001800FF006EEF1FF077
:07160000000240000300009E
:1016080050EC1FF0000EDFEC1CF0D68EBE0E016E03
:101618003E0E026EC0EC1FF0140E05018E6F886935
:10162800320E896F000E8A6F000E776F000E786F8A
:10163800000E7A6F000E796F000E7B6F000E7C6FC4
:10164800000E7D6F000E7E6F000E6D6F000E6E6FC8
:10165800000E6F6F000E706F000E736F000E746FC8
:10166800000E756F000E766F000E626F000E616FD0
:10167800000E606F000E666F000E656F000E686FDB
:10168800000E676F000E6A6F000E696F000E6C6FB8
:10169800000E6B6F000E646F000E636F000E726FAA
:1016A800000E716FC09EC09ABE9AC096000E936FCE
:1016B800000E026E170E016EB3EC1FF0450AD8A497
:1016C80068EF0BF06AEF0BF08AEF0BF0000E026E7A
:1016D8001F0E016EB3EC1FF005018B6F000E026E3A
:1016E800210E016EB3EC1FF005018C6F000E026E27
:1016F800220E016EB3EC1FF005018D6F000E026E15
:10170800240E016EB3EC1FF005018E6F000E026E01
:10171800180E016EB3EC1FF0450AD8A496EF0BF033
:1017280098EF0BF0B8EF0BF0000E026E250E016E6D
:10173800B3EC1FF005017F6F000E026E260E016EDE
:10174800B3EC1FF00501806F000E026E270E016ECC
:10175800B3EC1FF00501816F000E026E290E016EB9
:10176800B3EC1FF00501886F000E026E1A0E016EB1
:10177800B3EC1FF0450AD8A4C4EF0BF0C6EF0BF08A
:10178800E6EF0BF0000E026E2B0E016EB3EC1FF0AD
:101798000501826F000E026E2D0E016EB3EC1FF074
:1017A8000501836F000E026E2E0E016EB3EC1FF062
:1017B8000501846F000E026E300E016EB3EC1FF04F
:1017C8000501896F000E026E1C0E016EB3EC1FF04E
:1017D800450AD8A4F2EF0BF0F4EF0BF014EF0CF07D
:1017E800000E026E320E016EB3EC1FF00501856F1C
:1017F800000E026E330E016EB3EC1FF00501866F0A
:10180800000E026E350E016EB3EC1FF00501876FF6
:10181800000E026E370E016EB3EC1FF005018A6FE1
:10182800000E026E160E016EB3EC1FF0450AD8A426
:1018380020EF0CF022EF0CF013EF0DF0000E026E0B
:10184800380E016EB3EC1FF00501936F9305D8A411
:1018580030EF0CF032EF0CF057EF0CF0000E026E88
:10186800170E016EB3EC1FF0450AD8A43EEF0CF03A
:1018780040EF0CF057EF0CF0C08EA00E00D0E82E11
:10188800FDD78CC507F58DC508F58EC509F5030E7E
:101898000A6E000E0B6E000E0C6E05018B51B2EC39
:1018A8001EF062EF0CF005019305D8A45EEF0CF072
:1018B80060EF0CF062EF0CF0000E936F020E050162
:1018C8009319D8A46AEF0CF06CEF0CF091EF0CF0C0
:1018D800000E026E180E016EB3EC1FF0450AD8A474
:1018E80078EF0CF07AEF0CF091EF0CF0C08AA00EB4
:1018F80000D0E82EFDD780C507F581C508F588C555
:1019080009F5030E0A6E000E0B6E000E0C6E050133
:101918007F51B2EC1EF09DEF0CF0020E05019319F9
:10192800D8A499EF0CF09BEF0CF09DEF0CF0000E93
:10193800936F030E05019319D8A4A5EF0CF0A7EF38
:101948000CF0CCEF0CF0000E026E1A0E016EB3EC28
:101958001FF0450AD8A4B3EF0CF0B5EF0CF0CCEFAC
:101968000CF0BE8AA00E00D0E82EFDD783C507F57F
:1019780084C508F589C509F5030E0A6E000E0B6EBD
:10198800000E0C6E05018251B2EC1EF0D8EF0CF07F
:10199800030E05019319D8A4D4EF0CF0D6EF0CF080
:1019A800D8EF0CF0000E936F040E05019319D8A41C
:1019B800E0EF0CF0E2EF0CF007EF0DF0000E026E16
:1019C8001C0E016EB3EC1FF0450AD8A4EEEF0CF024
:1019D800F0EF0CF007EF0DF0C086A00E00D0E82E57
:1019E800FDD786C507F587C508F58AC509F5030E2D
:1019F8000A6E000E0B6E000E0C6E05018551B2ECDE
:101A08001EF013EF0DF0040E05019319D8A40FEF83
:101A18000DF011EF0DF013EF0DF0000E936F000EA7
:101A2800026E0A0E016EC5EC1FF0000ED0BC010E4E
:101A38000501776F000ECEB8010E786F000ED0B892
:101A4800010E7A6F000ECFBE010E796FD2EC1FF037
:101A5800020ED8EC1EF001C51BF502C51CF51D6A67
:101A68001E6A000E1F6E000E206E000E216E000E04
:101A7800226EFF0E236E0F0E246E000E256E000ED2
:101A8800266E000E276E000E286E000E296E000EC0
:101A98002A6EFF0E2B6E000E2C6E000E2D6E000EA1
:101AA8002E6EB6EC1DF01B5005018F6FD2EC1FF0A7
:101AB800100ED8EC1EF001C51BF502C51CF51D6AF9
:101AC8001E6A000E1F6E000E206E000E216E000EA4
:101AD800226EFF0E236E0F0E246E000E256E000E72
:101AE800266E000E276E000E286E000E296E000E60
:101AF8002A6EFF0E2B6E000E2C6E000E2D6E000E41
:101B08002E6EB6EC1DF01B500501906FD2EC1FF045
:101B1800110ED8EC1EF001C51BF502C51CF51D6A97
:101B28001E6A000E1F6E000E206E000E216E000E43
:101B3800226EFF0E236E0F0E246E000E256E000E11
:101B4800266E000E276E000E286E000E296E000EFF
:101B58002A6EFF0E2B6E000E2C6E000E2D6E000EE0
:101B68002E6EB6EC1DF01B500501916FD2EC1FF0E4
:101B7800120ED8EC1EF001C51BF502C51CF51D6A36
:101B88001E6A000E1F6E000E206E000E216E000EE3
:101B9800226EFF0E236E0F0E246E000E256E000EB1
:101BA800266E000E276E000E286E000E296E000E9F
:101BB8002A6EFF0E2B6E000E2C6E000E2D6E000E80
:101BC8002E6EB6EC1DF01B500501926F40EC1FF015
:101BD80015EF1CF090C507F591C508F592C509F5F4
:101BE800030E0A6E000E0B6E000E0C6E8F51B2ECD7
:101BF8001EF0A00E00D0E82EFDD7D0BC06EF0EF0E8
:101C080008EF0EF033EF0EF005017751D8B40FEF5F
:101C18000EF011EF0EF033EF0EF07B51D8A417EF52
:101C28000EF019EF0EF033EF0EF07C51D8A41FEF31
:101C38000EF021EF0EF033EF0EF07D51D8A427EF10
:101C48000EF029EF0EF033EF0EF07E51D8A42FEFEF
:101C58000EF031EF0EF033EF0EF0050E936FCEB8A5
:101C680038EF0EF03AEF0EF065EF0EF005017851FF
:101C7800D8B441EF0EF043EF0EF065EF0EF07B5154
:101C8800D8A449EF0EF04BEF0EF065EF0EF07C5143
:101C9800D8A451EF0EF053EF0EF065EF0EF07D5122
:101CA800D8A459EF0EF05BEF0EF065EF0EF07E5101
:101CB800D8A461EF0EF063EF0EF065EF0EF0060E9C
:101CC800936FD0B86AEF0EF06CEF0EF097EF0EF04E
:101CD80005017A51D8B473EF0EF075EF0EF097EF57
:101CE8000EF07B51D8A47BEF0EF07DEF0EF097EF4E
:101CF8000EF07C51D8A483EF0EF085EF0EF097EF2D
:101D08000EF07D51D8A48BEF0EF08DEF0EF097EF0B
:101D18000EF07E51D8A493EF0EF095EF0EF097EFEA
:101D28000EF0070E936FCFBE9CEF0EF09EEF0EF0F5
:101D3800C9EF0EF005017951D8B4A5EF0EF0A7EF61
:101D48000EF0C9EF0EF07B51D8A4ADEF0EF0AFEF57
:101D58000EF0C9EF0EF07C51D8A4B5EF0EF0B7EF36
:101D68000EF0C9EF0EF07D51D8A4BDEF0EF0BFEF15
:101D78000EF0C9EF0EF07E51D8A4C5EF0EF0C7EFF4
:101D88000EF0C9EF0EF0080E936F05017B51D8A431
:101D9800D0EF0EF0D2EF0EF0EAEF0EF07C51D8A49F
:101DA800D8EF0EF0DAEF0EF0EAEF0EF07D51D8A47E
:101DB800E0EF0EF0E2EF0EF0EAEF0EF07E51D8B44D
:101DC800E8EF0EF0EAEF0EF004EF0FF0634B642B30
:101DD800E80E631907E1030E6419D8A4F6EF0EF0B4
:101DE800F8EF0EF004EF0FF0000E646F000E636F53
:101DF800000E7B6F000E7C6F000E7D6F000E7E6FF5
:101E08007B51D8B40AEF0FF00CEF0FF029EF0FF069
:101E1800722B190E7219D8A414EF0FF016EF0FF0E9
:101E280029EF0FF0000E726FC0AE1DEF0FF021EF1B
:101E38000FF02F6A2F2A22EF0FF02F6A2F322F323E
:101E4800C0502F187F0B2F18C06E05017C51D8B4D5
:101E580030EF0FF032EF0FF04FEF0FF0722B190E3B
:101E68007219D8A43AEF0FF03CEF0FF04FEF0FF0D4
:101E7800000E726FC0AA43EF0FF047EF0FF02F6A02
:101E88002F2A48EF0FF02F6A2F3A2F46C0502F18ED
:101E9800DF0B2F18C06E05017D51D8B456EF0FF037
:101EA80058EF0FF075EF0FF0722B190E7219D8A4B6
:101EB80060EF0FF062EF0FF075EF0FF0000E726F2A
:101EC800BEAA69EF0FF06DEF0FF02F6A2F2A6EEFA1
:101ED8000FF02F6A2F3A2F46BE502F18DF0B2F18FE
:101EE800BE6E05017E51D8B47CEF0FF07EEF0FF087
:101EF8009CEF0FF0722B190E7219D8A486EF0FF011
:101F080088EF0FF09CEF0FF0000E726FC0A68FEFF6
:101F18000FF093EF0FF02F6A2F2A94EF0FF02F6A2C
:101F28002F462F462F46C0502F18F70B2F18C06E7C
:101F380005017B51D8A4A3EF0FF0A5EF0FF0C3EF75
:101F48000FF07C51D8A4ABEF0FF0ADEF0FF0C3EF5B
:101F58000FF07D51D8A4B3EF0FF0B5EF0FF0C3EF3A
:101F68000FF07E51D8A4BBEF0FF0BDEF0FF0C3EF19
:101F78000FF0000E726FC09EC09ABE9AC0967B5139
:101F8800D8B4C9EF0FF0CBEF0FF00CEF10F0D0BCC6
:101F9800D0EF0FF0D2EF0FF00CEF10F07751D8B46C
:101FA800D8EF0FF0DAEF0FF00CEF10F08FC58BF5CC
:101FB80090C58CF591C58DF592C58EF5000E7B6F99
:101FC800000E026E220E016E8DC503F589EC1EF01F
:101FD800000E026E210E016E8CC503F589EC1EF011
:101FE800000E026E1F0E016E8BC503F589EC1EF004
:101FF800000E026E240E016E8EC503F589EC1EF0EC
:10200800000E026E170E016E450E036E89EC1EF06F
:1020180005017C51D8B413EF10F015EF10F056EF0E
:1020280010F0CEB81AEF10F01CEF10F056EF10F0C9
:102038007851D8B422EF10F024EF10F056EF10F0DA
:102048008FC57FF590C580F591C581F592C588F556
:10205800000E7C6F000E026E270E016E81C503F51F
:1020680089EC1EF0000E026E260E016E80C503F587
:1020780089EC1EF0000E026E250E016E7FC503F579
:1020880089EC1EF0000E026E290E016E88C503F55C
:1020980089EC1EF0000E026E180E016E450E036EDE
:1020A80089EC1EF005017D51D8B45DEF10F05FEFAB
:1020B80010F0A0EF10F0D0B864EF10F066EF10F059
:1020C800A0EF10F07A51D8B46CEF10F06EEF10F06A
:1020D800A0EF10F08FC582F590C583F591C584F502
:1020E80092C589F5000E7D6F000E026E2E0E016EF0
:1020F80084C503F589EC1EF0000E026E2D0E016EEC
:1021080083C503F589EC1EF0000E026E2B0E016EDE
:1021180082C503F589EC1EF0000E026E300E016ECA
:1021280089C503F589EC1EF0000E026E1A0E016EC9
:10213800450E036E89EC1EF005017E51D8B4A7EF59
:1021480010F0A9EF10F0EAEF10F0CFBEAEEF10F0EC
:10215800B0EF10F0EAEF10F07951D8B4B6EF10F004
:10216800B8EF10F0EAEF10F08FC585F590C586F549
:1021780091C587F592C58AF5000E7E6F000E026E36
:10218800350E016E87C503F589EC1EF0000E026E50
:10219800330E016E86C503F589EC1EF0000E026E43
:1021A800320E016E85C503F589EC1EF0000E026E35
:1021B800370E016E8AC503F589EC1EF0000E026E1B
:1021C8001C0E016E450E036E89EC1EF0D0ACEFEFCD
:1021D80010F0F1EF10F0F6EF10F0000E0501666F49
:1021E800000E656FCEA8FBEF10F0FDEF10F002EFC8
:1021F80011F0000E0501686F000E676FD0A807EF99
:1022080011F009EF11F00EEF11F0000E05016A6FE1
:10221800000E696FCFAE13EF11F015EF11F019EF43
:102228000DF0000E05016C6F000E6B6F19EF0DF0CD
:10223800D0AC21EF11F023EF11F046EF11F0C08E72
:102248008CC507F58DC508F58EC509F5030E0A6E10
:10225800000E0B6E000E0C6E8B51B2EC1EF0010ED0
:102268000501936F000E026E380E016E93C503F5DB
:1022780089EC1EF0000E026E160E016E450E036EFE
:1022880089EC1EF0D0BC4BEF11F04DEF11F019EFB7
:102298000DF00501654B662BF40E651906E1660520
:1022A800D8A459EF11F05BEF11F019EF0DF0000E03
:1022B800666F000E656F010E7B6F000E936F000E48
:1022C800026E380E016E93C503F589EC1EF0000E00
:1022D800026E160E016E450E036E89EC1EF019EFA4
:1022E8000DF0CEA87AEF11F07CEF11F09FEF11F00E
:1022F800C08A80C507F581C508F588C509F5030EAC
:102308000A6E000E0B6E000E0C6E7F51B2EC1EF0C2
:10231800020E0501936F000E026E380E016E93C512
:1023280003F589EC1EF0000E026E160E016E450EC6
:10233800036E89EC1EF0CEB8A4EF11F0A6EF11F0F1
:1023480019EF0DF00501674B682BF40E671906E1CC
:102358006805D8A4B2EF11F0B4EF11F019EF0DF041
:10236800000E686F000E676F010E7C6F000E936F92
:1023780063EF11F0D0A8C3EF11F0C5EF11F0E8EF4B
:1023880011F0BE8A83C507F584C508F589C509F526
:10239800030E0A6E000E0B6E000E0C6E8251B2EC2C
:1023A8001EF0030E0501936F000E026E380E016ECB
:1023B80093C503F589EC1EF0000E026E160E016E31
:1023C800450E036E89EC1EF0D0B8EDEF11F0EFEF7B
:1023D80011F019EF0DF00501694B6A2BF40E69191C
:1023E80006E16A05D8A4FBEF11F0FDEF11F019EF33
:1023F8000DF0000E6A6F000E696F010E7D6F000E02
:10240800936F63EF11F0CFAE0CEF12F00EEF12F0F6
:1024180031EF12F0C08686C507F587C508F58AC56D
:1024280009F5030E0A6E000E0B6E000E0C6E855138
:10243800B2EC1EF0040E0501936F000E026E380E0A
:10244800016E93C503F589EC1EF0000E026E160EA0
:10245800016E450E036E89EC1EF0CFBE36EF12F00A
:1024680038EF12F019EF0DF005016B4B6C2BF40EE1
:102478006B1906E16C05D8A444EF12F046EF12F090
:1024880019EF0DF0000E6C6F000E6B6F010E7E6F72
:10249800000E936F63EF11F0D0AC55EF12F057EFC9
:1024A80012F06AEF12F0C09E000E936F000E026EDB
:1024B800380E016E93C503F589EC1EF0000E026E0E
:1024C800160E016E450E036E89EC1EF0D0BC6FEF40
:1024D80012F071EF12F019EF0DF00501654B662B44
:1024E800F40E651906E16605D8A47DEF12F07FEFBA
:1024F80012F019EF0DF0000E666F000E656F010EF9
:102508006D6F010E936F19EF0DF0CEA88EEF12F0DC
:1025180090EF12F0A3EF12F0C09A000E936F000E26
:10252800026E380E016E93C503F589EC1EF0000E9D
:10253800026E160E016E450E036E89EC1EF0CEB8C3
:10254800A8EF12F0AAEF12F019EF0DF00501674B92
:10255800682BF40E671906E16805D8A4B6EF12F0E7
:10256800B8EF12F019EF0DF0000E686F000E676FEC
:10257800010E6E6F020E936F19EF0DF0D0A8C7EF22
:1025880012F0C9EF12F0DCEF12F0BE9A000E936F52
:10259800000E026E380E016E93C503F589EC1EF02D
:1025A800000E026E160E016E450E036E89EC1EF0CB
:1025B800D0B8E1EF12F0E3EF12F019EF0DF00501DA
:1025C800694B6A2BF40E691906E16A05D8A4EFEF86
:1025D80012F0F1EF12F019EF0DF0000E6A6F000E15
:1025E800696F010E6F6F030E936F19EF0DF0CFAE89
:1025F80000EF13F002EF13F015EF13F0C096000E82
:10260800936F000E026E380E016E93C503F589ECC8
:102618001EF0000E026E160E016E450E036E89EC5A
:102628001EF0CFBE1AEF13F01CEF13F019EF0DF0E8
:1026380005016B4B6C2BF40E6B1906E16C05D8A4E5
:1026480028EF13F02AEF13F019EF0DF0000E6C6F5E
:10265800000E6B6F010E706F040E936F19EF0DF083
:102668008CC507F58DC508F58EC509F5030E0A6EEC
:10267800000E0B6E000E0C6E8B51B2EC1EF00501B5
:102688006D51D8B44AEF13F04CEF13F069EF13F023
:10269800712B190E7119D8A454EF13F056EF13F0DB
:1026A80069EF13F0000E716FC0AE5DEF13F061EFCC
:1026B80013F02F6A2F2A62EF13F02F6A2F322F326E
:1026C800C0502F187F0B2F18C06ED0BC6EEF13F0C0
:1026D80070EF13F083EF13F005017751D8B477EF5B
:1026E80013F079EF13F083EF13F06D51D8A47FEF57
:1026F80013F081EF13F083EF13F0090E936FD0BC42
:1027080088EF13F08AEF13F0CEEF13F0050177513D
:10271800D8B491EF13F093EF13F0CEEF13F06D519F
:10272800D8B499EF13F09BEF13F0CEEF13F0C08EEF
:10273800000E6D6F000E736F000E746F000E756FD4
:10274800000E766F000E026E220E016E8DC503F527
:1027580089EC1EF0000E026E210E016E8CC503F589
:1027680089EC1EF0000E026E1F0E016E8BC503F57C
:1027780089EC1EF0000E026E240E016E8EC503F564
:1027880089EC1EF0000E026E170E016E450E036EE8
:1027980089EC1EF005016D51D8B4D5EF13F0D7EFD1
:1027A80013F0DFEF14F0FB0E2F6EFF0E306E8B511F
:1027B800316E326A2F503126305032228F51336EAB
:1027C800346A3150335C3450800A356E3250800A96
:1027D8003558D8A0F2EF13F0F4EF13F00FEF14F020
:1027E8008F512F6E306A8B51316E326A050E312649
:1027F800000E32222F50315C3250800A336E305036
:10280800800A3358D8A00BEF14F00DEF14F00FEF37
:1028180014F0010E736F7351D8B415EF14F017EF5D
:1028280014F019EF14F08FC58BF5FB0E2F6EFF0E09
:10283800306E8E51316E326A2F503126305032222E
:102848009251336E346A3150335C3450800A356E9D
:102858003250800A3558D8A034EF14F036EF14F00F
:1028680051EF14F092512F6E306A8E51316E326AE8
:10287800050E3126000E32222F50315C3250800A6C
:10288800336E3050800A3358D8A04DEF14F04FEF14
:1028980014F051EF14F0010E766F7651D8B457EF5B
:1028A80014F059EF14F05BEF14F092C58EF5FB0E9F
:1028B8002F6EFF0E306E8C51316E326A2F503126DA
:1028C800305032229051336E346A3150335C345078
:1028D800800A356E3250800A3558D8A076EF14F049
:1028E80078EF14F093EF14F090512F6E306A8C51FA
:1028F800316E326A050E3126000E32222F50315CBD
:102908003250800A336E3050800A3358D8A08FEF87
:1029180014F091EF14F093EF14F0010E746F7451EA
:10292800D8B499EF14F09BEF14F09DEF14F090C514
:102938008CF5FB0E2F6EFF0E306E8D51316E326AA4
:102948002F503126305032229151336E346A315033
:10295800335C3450800A356E3250800A3558D8A01E
:10296800B8EF14F0BAEF14F0D5EF14F091512F6EC0
:10297800306A8D51316E326A050E3126000E3222D0
:102988002F50315C3250800A336E3050800A3358F1
:10299800D8A0D1EF14F0D3EF14F0D5EF14F0010E56
:1029A800756F7551D8B4DBEF14F0DDEF14F0DFEF7D
:1029B80014F091C58DF5CEB8E4EF14F0E6EF14F0FD
:1029C80012EF15F07851D8B4ECEF14F0EEEF14F0E4
:1029D80012EF15F0C09EC08A80C507F581C508F5BD
:1029E80088C509F5030E0A6E000E0B6E000E0C6EFC
:1029F8007F51B2EC1EF0020E0501936F000E026EBD
:102A0800380E016E93C503F589EC1EF0000E026EB8
:102A1800160E016E450E036E89EC1EF0D0B817EF46
:102A280015F019EF15F046EF15F005017A51D8B4F5
:102A380020EF15F022EF15F046EF15F0C09EBE8A84
:102A480083C507F584C508F589C509F5030E0A6E1F
:102A5800000E0B6E000E0C6E8251B2EC1EF0030ECF
:102A68000501936F000E026E380E016E93C503F5D3
:102A780089EC1EF0000E026E160E016E450E036EF6
:102A880089EC1EF0CFBE4BEF15F04DEF15F019EFA6
:102A98000DF005017951D8B454EF15F056EF15F043
:102AA80019EF0DF0C09EC08686C507F587C508F5E5
:102AB8008AC509F5030E0A6E000E0B6E000E0C6E29
:102AC8008551B2EC1EF0040E0501936F63EF11F00F
:102AD80080C507F581C508F588C509F5030E0A6E96
:102AE800000E0B6E000E0C6E7F51B2EC1EF005014D
:102AF8006E51D8B482EF15F084EF15F0A1EF15F000
:102B0800712B190E7119D8A48CEF15F08EEF15F0F2
:102B1800A1EF15F0000E716FC0AA95EF15F099EFAF
:102B280015F02F6A2F2A9AEF15F02F6A2F3A2F46A1
:102B3800C0502F18DF0B2F18C06ECEB8A6EF15F0B7
:102B4800A8EF15F0BBEF15F005017851D8B4AFEF39
:102B580015F0B1EF15F0BBEF15F06E51D8A4B7EF33
:102B680015F0B9EF15F0BBEF15F00A0E936FCEB85C
:102B7800C0EF15F0C2EF15F006EF16F00501785119
:102B8800D8B4C9EF15F0CBEF15F006EF16F06E517B
:102B9800D8B4D1EF15F0D3EF15F006EF16F0C08AD0
:102BA800000E6E6F000E736F000E746F000E756F5F
:102BB800000E766F000E026E270E016E8DC503F5AE
:102BC80089EC1EF0000E026E260E016E8CC503F510
:102BD80089EC1EF0000E026E250E016E8BC503F502
:102BE80089EC1EF0000E026E290E016E8EC503F5EB
:102BF80089EC1EF0000E026E180E016E450E036E73
:102C080089EC1EF005016E51D8B40DEF16F00FEFE8
:102C180016F017EF17F0FB0E2F6EFF0E306E7F5178
:102C2800316E326A2F503126305032228F51336E36
:102C3800346A3150335C3450800A356E3250800A21
:102C48003558D8A02AEF16F02CEF16F047EF16F0FB
:102C58008F512F6E306A7F51316E326A050E3126E0
:102C6800000E32222F50315C3250800A336E3050C1
:102C7800800A3358D8A043EF16F045EF16F047EF17
:102C880016F0010E736F7351D8B44DEF16F04FEF75
:102C980016F051EF16F08FC57FF5FB0E2F6EFF0E65
:102CA800306E8851316E326A2F50312630503222C0
:102CB8009251336E346A3150335C3450800A356E29
:102CC8003250800A3558D8A06CEF16F06EEF16F027
:102CD80089EF16F092512F6E306A8851316E326A40
:102CE800050E3126000E32222F50315C3250800AF8
:102CF800336E3050800A3358D8A085EF16F087EF2E
:102D080016F089EF16F0010E766F7651D8B48FEF72
:102D180016F091EF16F093EF16F092C588F5FB0EBA
:102D28002F6EFF0E306E8051316E326A2F50312671
:102D3800305032229051336E346A3150335C345003
:102D4800800A356E3250800A3558D8A0AEEF16F09A
:102D5800B0EF16F0CBEF16F090512F6E306A80511D
:102D6800316E326A050E3126000E32222F50315C48
:102D78003250800A336E3050800A3358D8A0C7EFDB
:102D880016F0C9EF16F0CBEF16F0010E746F745100
:102D9800D8B4D1EF16F0D3EF16F0D5EF16F090C5F2
:102DA80080F5FB0E2F6EFF0E306E8151316E326A48
:102DB8002F503126305032229151336E346A3150BF
:102DC800335C3450800A356E3250800A3558D8A0AA
:102DD800F0EF16F0F2EF16F00DEF17F091512F6E9D
:102DE800306A8151316E326A050E3126000E322268
:102DF8002F50315C3250800A336E3050800A33587D
:102E0800D8A009EF17F00BEF17F00DEF17F0010E30
:102E1800756F7551D8B413EF17F015EF17F017EF5A
:102E280017F091C581F5D0BC1CEF17F01EEF17F015
:102E38004AEF17F07751D8B424EF17F026EF17F0C0
:102E48004AEF17F0C09AC08E8CC507F58DC508F5F6
:102E58008EC509F5030E0A6E000E0B6E000E0C6E81
:102E68008B51B2EC1EF0010E0501936F000E026E3D
:102E7800380E016E93C503F589EC1EF0000E026E44
:102E8800160E016E450E036E89EC1EF0D0B84FEF9A
:102E980017F051EF17F07EEF17F005017A51D8B40B
:102EA80058EF17F05AEF17F07EEF17F0C09ABE8A66
:102EB80083C507F584C508F589C509F5030E0A6EAB
:102EC800000E0B6E000E0C6E8251B2EC1EF0030E5B
:102ED8000501936F000E026E380E016E93C503F55F
:102EE80089EC1EF0000E026E160E016E450E036E82
:102EF80089EC1EF0CFBE83EF17F085EF17F019EFBE
:102F08000DF005017951D8B48CEF17F08EEF17F05A
:102F180019EF0DF0C09AC08686C507F587C508F574
:102F28008AC509F5030E0A6E000E0B6E000E0C6EB4
:102F38008551B2EC1EF067EF15F083C507F584C51F
:102F480008F589C509F5030E0A6E000E0B6E000E12
:102F58000C6E8251B2EC1EF005016F51D8B4B7EF78
:102F680017F0B9EF17F0D6EF17F0712B190E71198A
:102F7800D8A4C1EF17F0C3EF17F0D6EF17F0000E83
:102F8800716FBEAACAEF17F0CEEF17F02F6A2F2A7B
:102F9800CFEF17F02F6A2F3A2F46BE502F18DF0BAE
:102FA8002F18BE6ED0B8DBEF17F0DDEF17F0F0EF9B
:102FB80017F005017A51D8B4E4EF17F0E6EF17F0EF
:102FC800F0EF17F06F51D8A4ECEF17F0EEEF17F011
:102FD800F0EF17F00B0E936FD0B8F5EF17F0F7EF8F
:102FE80017F03BEF18F005017A51D8B4FEEF17F04F
:102FF80000EF18F03BEF18F06F51D8B406EF18F057
:1030080008EF18F03BEF18F0BE8A000E6F6F000E45
:10301800736F000E746F000E756F000E766F000EE2
:10302800026E2E0E016E8DC503F589EC1EF0000EA2
:10303800026E2D0E016E8CC503F589EC1EF0000E94
:10304800026E2B0E016E8BC503F589EC1EF0000E87
:10305800026E300E016E8EC503F589EC1EF0000E6F
:10306800026E1A0E016E450E036E89EC1EF0000EFC
:10307800D0B8010E05017A6F6F51D8B446EF18F039
:1030880048EF18F050EF19F0FB0E2F6EFF0E306E60
:103098008251316E326A2F503126305032228F5190
:1030A800336E346A3150335C3450800A356E325096
:1030B800800A3558D8A063EF18F065EF18F080EF54
:1030C80018F08F512F6E306A8251316E326A050EB8
:1030D8003126000E32222F50315C3250800A336E76
:1030E8003050800A3358D8A07CEF18F07EEF18F0E3
:1030F80080EF18F0010E736F7351D8B486EF18F093
:1031080088EF18F08AEF18F08FC582F5FB0E2F6E46
:10311800FF0E306E8951316E326A2F503126305091
:1031280032229251336E346A3150335C3450800A03
:10313800356E3250800A3558D8A0A5EF18F0A7EFA1
:1031480018F0C2EF18F092512F6E306A8951316E23
:10315800326A050E3126000E32222F50315C325071
:10316800800A336E3050800A3358D8A0BEEF18F06A
:10317800C0EF18F0C2EF18F0010E766F7651D8B490
:10318800C8EF18F0CAEF18F0CCEF18F092C589F51F
:10319800FB0E2F6EFF0E306E8351316E326A2F5048
:1031A8003126305032229051336E346A3150335CBC
:1031B8003450800A356E3250800A3558D8A0E7EF6F
:1031C80018F0E9EF18F004EF19F090512F6E306AFB
:1031D8008351316E326A050E3126000E32222F508D
:1031E800315C3250800A336E3050800A3358D8A090
:1031F80000EF19F002EF19F004EF19F0010E746FE7
:103208007451D8B40AEF19F00CEF19F00EEF19F059
:1032180090C583F5FB0E2F6EFF0E306E8451316E14
:10322800326A2F503126305032229151336E346A2F
:103238003150335C3450800A356E3250800A35582C
:10324800D8A029EF19F02BEF19F046EF19F091519A
:103258002F6E306A8451316E326A050E3126000EA7
:1032680032222F50315C3250800A336E3050800A3F
:103278003358D8A042EF19F044EF19F046EF19F08F
:10328800010E756F7551D8B44CEF19F04EEF19F067
:1032980050EF19F091C584F5D0BC55EF19F057EFF0
:1032A80019F083EF19F07751D8B45DEF19F05FEF9B
:1032B80019F083EF19F0BE9AC08E8CC507F58DC53D
:1032C80008F58EC509F5030E0A6E000E0B6E000E8A
:1032D8000C6E8B51B2EC1EF0010E0501936F000EBF
:1032E800026E380E016E93C503F589EC1EF0000ED0
:1032F800026E160E016E450E036E89EC1EF0CEB8F6
:1033080088EF19F08AEF19F0B7EF19F00501785135
:10331800D8B491EF19F093EF19F0B7EF19F0BE9AFE
:10332800C08A80C507F581C508F588C509F5030E6B
:103338000A6E000E0B6E000E0C6E7F51B2EC1EF082
:10334800020E0501936F000E026E380E016E93C5D2
:1033580003F589EC1EF0000E026E160E016E450E86
:10336800036E89EC1EF0CFBEBCEF19F0BEEF19F06A
:10337800EBEF19F005017951D8B4C5EF19F0C7EF93
:1033880019F0EBEF19F0BE9AC08686C507F587C518
:1033980008F58AC509F5030E0A6E000E0B6E000EBD
:1033A8000C6E8551B2EC1EF0040E0501936F000EF1
:1033B800026E380E016E93C503F589EC1EF0000EFF
:1033C800026E160E016E450E036E89EC1EF086C560
:1033D80007F587C508F58AC509F5030E0A6E000EBC
:1033E8000B6E000E0C6E05018551B2EC1EF0050146
:1033F8007051D8B402EF1AF004EF1AF022EF1AF065
:10340800712B190E7119D8A40CEF1AF00EEF1AF0DF
:1034180022EF1AF0000E716FC0A615EF1AF019EF1F
:103428001AF02F6A2F2A1AEF1AF02F6A2F462F4602
:103438002F46C0502F18F70B2F18C06ECFBE27EF9E
:103448001AF029EF1AF03CEF1AF005017951D8B4B7
:1034580030EF1AF032EF1AF03CEF1AF07051D8A49E
:1034680038EF1AF03AEF1AF03CEF1AF00C0E936F9F
:10347800CFBE41EF1AF043EF1AF087EF1AF00501BB
:103488007951D8B44AEF1AF04CEF1AF087EF1AF0D6
:103498007051D8B452EF1AF054EF1AF087EF1AF0BF
:1034A800C086000E706F000E736F000E746F000EF2
:1034B800756F000E766F000E026E350E016E8DC5AB
:1034C80003F589EC1EF0000E026E330E016E8CC5FA
:1034D80003F589EC1EF0000E026E320E016E8BC5EC
:1034E80003F589EC1EF0000E026E370E016E8EC5D4
:1034F80003F589EC1EF0000E026E1C0E016E450EDF
:10350800036E89EC1EF005017051D8B48EEF1AF0E5
:1035180090EF1AF098EF1BF0FB0E2F6EFF0E306E37
:103528008551316E326A2F503126305032228F51F8
:10353800336E346A3150335C3450800A356E325001
:10354800800A3558D8A0ABEF1AF0ADEF1AF0C8EFE3
:103558001AF08F512F6E306A8551316E326A050E1E
:103568003126000E32222F50315C3250800A336EE1
:103578003050800A3358D8A0C4EF1AF0C6EF1AF0BA
:10358800C8EF1AF0010E736F7351D8B4CEEF1AF06A
:10359800D0EF1AF0D2EF1AF08FC585F5FB0E2F6E1B
:1035A800FF0E306E8A51316E326A2F5031263050FC
:1035B80032229251336E346A3150335C3450800A6F
:1035C800356E3250800A3558D8A0EDEF1AF0EFEF7B
:1035D8001AF00AEF1BF092512F6E306A8A51316E41
:1035E800326A050E3126000E32222F50315C3250DD
:1035F800800A336E3050800A3358D8A006EF1BF08B
:1036080008EF1BF00AEF1BF0010E766F7651D8B465
:1036180010EF1BF012EF1BF014EF1BF092C58AF5A8
:10362800FB0E2F6EFF0E306E8651316E326A2F50B0
:103638003126305032229051336E346A3150335C27
:103648003450800A356E3250800A3558D8A02FEF92
:103658001BF031EF1BF04CEF1BF090512F6E306ACE
:103668008651316E326A050E3126000E32222F50F5
:10367800315C3250800A336E3050800A3358D8A0FB
:1036880048EF1BF04AEF1BF04CEF1BF0010E746F74
:103698007451D8B452EF1BF054EF1BF056EF1BF0E7
:1036A80090C586F5FB0E2F6EFF0E306E8751316E7A
:1036B800326A2F503126305032229151336E346A9B
:1036C8003150335C3450800A356E3250800A355898
:1036D800D8A071EF1BF073EF1BF08EEF1BF0915128
:1036E8002F6E306A8751316E326A050E3126000E10
:1036F80032222F50315C3250800A336E3050800AAB
:103708003358D8A08AEF1BF08CEF1BF08EEF1BF01C
:10371800010E756F7551D8B494EF1BF096EF1BF03E
:1037280098EF1BF091C587F5D0BC9DEF1BF09FEF7C
:103738001BF0BBEF1BF07751D8B4A5EF1BF0A7EF38
:103748001BF0BBEF1BF0C096C08E010E936F000EEE
:10375800026E380E016E93C503F589EC1EF0000E5B
:10376800026E160E016E450E036E89EC1EF0CEB881
:10377800C0EF1BF0C2EF1BF0EFEF1BF00501785113
:10378800D8B4C9EF1BF0CBEF1BF0EFEF1BF0C096DE
:10379800C08A80C507F581C508F588C509F5030EF7
:1037A8000A6E000E0B6E000E0C6E7F51B2EC1EF00E
:1037B800020E0501936F000E026E380E016E93C55E
:1037C80003F589EC1EF0000E026E160E016E450E12
:1037D800036E89EC1EF0D0B8F4EF1BF0F6EF1BF087
:1037E80019EF0DF005017A51D8B4FDEF1BF0FFEF8A
:1037F8001BF019EF0DF0C096BE8A83C507F584C586
:1038080008F589C509F5030E0A6E000E0B6E000E49
:103818000C6E8251B2EC1EF0030E0501936F63EF3C
:1038280011F0050193512F6E306A3050000AD8B458
:1038380020EF1CF019EF0DF02F50000AD8B4EEEF6E
:103848000DF0010AD8B434EF13F0030AD8B46CEFC2
:1038580015F0010AD8B4A1EF17F0070AD8B4EBEFB6
:1038680019F0010AD8B41CEF11F0030AD8B475EFA7
:1038780011F0010AD8B4BEEF11F00F0AD8B407EF5F
:1038880012F0010AD8B450EF12F0030AD8B489EF45
:1038980012F0010AD8B4C2EF12F0070AD8B4FBEF4D
:1038A80012F019EF0DF00DEF00F0000E166E14BEB9
:1038B80062EF1CF060EF1CF06CEF1CF0141E131E7E
:1038C800121E116C000E122213221422010E166E03
:1038D80010BE73EF1CF071EF1CF07DEF1CF0101E92
:1038E8000F1E0E1E0D6C000E0E220F221022010E4E
:1038F800161A000E176E000E186E000E196E000EC6
:103908001A6E1150121013101410D8B48EEF1CF048
:1039180090EF1CF0C6EF1CF0010E156E9AEF1CF02C
:10392800D8901136123613361436152A14AE9FEF76
:103938001CF0A1EF1CF094EF1CF0D8901736183645
:1039480019361A3611500D5C12500E5813500F5874
:1039580014501058D8A0B3EF1CF0B5EF1CF0BEEF10
:103968001CF011500D5E12500E5A13500F5A14507D
:10397800105A1780D8901432133212321132152E81
:10398800A1EF1CF01650D8B4CCEF1CF0CEEF1CF011
:10399800D6EF1CF01A1E191E181E176C000E1822DE
:1039A80019221A2217C50DF518C50EF519C50FF5F8
:1039B8001AC510F51200026E000184BFE6EF1CF074
:1039C800E8EF1CF04BEF1DF00250050D010EF3243B
:1039D800F66E160EF420F76EF86A000EF82208004C
:1039E800F5C484F00250050D010EF326000EF422F2
:1039F800010EF324F66E160EF420F76EF86A000E28
:103A0800F8220800F5C485F00250050D020EF326D1
:103A1800000EF422010EF324F66E160EF420F76E53
:103A2800F86A000EF8220800F5500309866F000EA8
:103A38008C6F0250050D030EF326000EF422010EC2
:103A4800F324F66E160EF420F76EF86A000EF822CC
:103A58000800F5C489F00250050D040EF326000E87
:103A6800F422010EF324F66E160EF420F76EF86AAF
:103A7800000EF82208006100D4F301F5013A01466E
:103A88000146C7500118BF0B0118C76E848F12007A
:103A9800026E02AE52EF1DF054EF1DF058EF1DF00C
:103AA800CEEC1FF05AEF1DF0CAEC1FF002AC5FEF2E
:103AB8001DF061EF1DF065EF1DF0CEEC1FF067EF14
:103AC8001DF0CAEC1FF002AA6CEF1DF06EEF1DF09E
:103AD80072EF1DF0CEEC1FF074EF1DF0CAEC1FF072
:103AE80002A879EF1DF07BEF1DF07FEF1DF0CEEC03
:103AF8001FF081EF1DF0CAEC1FF002A686EF1DF043
:103B080088EF1DF08CEF1DF0CEEC1FF08EEF1DF04E
:103B1800CAEC1FF002A493EF1DF095EF1DF099EF8A
:103B28001DF0CEEC1FF09BEF1DF0CAEC1FF002A2B7
:103B3800A0EF1DF0A2EF1DF0A6EF1DF0CEEC1FF0D8
:103B4800A8EF1DF0CAEC1FF002A0ADEF1DF0AFEF1B
:103B58001DF0B3EF1DF0CEEC1FF0B5EF1DF0CAEC71
:103B68001FF012001F501B5C016E20501C58026E83
:103B780021501D58036E22501E58046E27502B5C8E
:103B8800056E28502C58066E29502D58076E2A505D
:103B98002E58086EF3EC1DF001C50DF502C50EF5A3
:103BA80003C50FF504C510F51F50235C116E205096
:103BB8002458126E21502558136E22502658146E20
:103BC80059EC1CF027500D241B6E28500E201C6E3B
:103BD80029500F201D6E2A5010201E6E1200000E54
:103BE800096E000E0A6E000E0B6E000E0C6E01A020
:103BF80000EF1EF002EF1EF00AEF1EF00550092636
:103C080006500A2207500B2208500C22D89005367D
:103C1800063607360836D8900432033202320132AB
:103C28000150021003100410D8A41DEF1EF01FEF5E
:103C38001EF0FBEF1DF009C501F50AC502F50BC51D
:103C480003F50CC504F51200000EBE6E000EBF6E23
:103C5800000EC06E1F0EC66EA00EC76E570EC86E41
:103C6800AF0E0401106F000E086F070E006F800E74
:103C7800096F100E016F500E116F000E026F000ECB
:103C88000A6F000E126F370E036FF00E0B6F136979
:103C98003F0E046FF00E0C6F14690E0E02016A6F6E
:103CA8001B0E0F6F1C0E0D6F0D0E6B6F1200000EAA
:103CB8000301D96F000EDA6F000EDB6F000EDC6FA8
:103CC800000EDF6F000EE06F000EE56F000EE76F6D
:103CD800000EEC6F000EEE6F000EEF6F000EF06F2F
:103CE800000EF16F000EF26F000EF46F100EF56FFC
:103CF800000EF66F000EF76F000EF86F000EF96FEA
:103D08001F0EFA6F840EF36F1200000ED6BE010E5E
:103D1800046E380E0001456F0250446F610004F4D0
:103D280043F061000CF446F04151F80B0309416F70
:103D3800D69E550E426FAA0E426F408140B1A7EF42
:103D48001EF0A9EF1EF0A2EF1EF004B002D0D69E1E
:103D580001D0D68EF80E0001411712000D6E000E2C
:103D68000E6E000E0F6E000E106ECAEF1EF007C525
:103D780003F508C504F509C505F50D5098EC1FF0C5
:103D8800010E0E26000E0F22000E10220E500A5CA5
:103D98000F500B5810500C58D8B0D5EF1EF0D7EF75
:103DA8001EF0BBEF1EF01200056E610014F4ECF378
:103DB8000301F38FF39DF381F3B1E5EF1EF0E7EF15
:103DC8001EF0E0EF1EF0EB51046E036AEA51032483
:103DD800016E000E0420026E1200030E0301206F14
:103DE800000E1F6F000E216FF90E1D6F000E1C6F65
:103DF800B696AB86B80E016E3F0E026EC0EC1FF091
:103E0800F10E03011E6F12003A503B10D8B40FEFA9
:103E18001FF011EF1FF01DEF1FF002D81DEF1FF06C
:103E28000500FA6E3A50FD6E3B50FE6EFF6AFA507E
:103E380012001200016E010E0001826F610004F48D
:103E480081F0B6A02AEF1FF02CEF1FF025EF1FF02E
:103E5800000180511200ABA634EF1FF036EF1FF0BF
:103E68003FEF1FF0B6A63BEF1FF03DEF1FF03FEF0F
:103E78001FF0D6EC1FF011003650385C3750395817
:103E8800D8A049EF1FF04BEF1FF040EF1FF0000ED6
:103E9800396E000E386E1200DAEC1FF07CEC1FF061
:103EA80028EC1EF08AEC1FF05BEC1EF0F1EC1EF023
:103EB800A6EC1FF01200100E381809E1270E391869
:103EC800D8B469EF1FF06BEF1FF06DEF1FF0384AA1
:103ED800392A1200396A386A376A366A0401080EC4
:103EE8005D6F000E5E6F000E5F6F000104EF0BF058
:103EF800000E0001636F000E646F000E656F000E08
:103F0800666F000E676F000E686F1200600E00018A
:103F1800AD6F000EAF6F000EB36F080EB16F000EDD
:103F2800B06F000EAC6F1200066E03504CEC1DF023
:103F380006504CEC1DF004504CEC1DF005504CECB8
:103F48001DF01200020E0001846F400E856F000EF6
:103F5800866F000E8C6F030E896FC79C1200380E97
:103F68000001456F0250446F610004F443F0F80EFD
:103F7800411740814651120001C53AF502C53BF58B
:103F8800120001C536F502C537F51200C00E1EEC49
:103F98001FF01200F00E1EEC1FF012003B0E030182
:103FA800EC6F1200B69608EC1FF01200D69A1200B9
:023FB8001200F5
:020000040020DA
:10000000FF0FFF0FFF0FFF0FFF0FFF0FFF0FFF0F80
:10001000FF0FFF0FFF0FFF0FFF0FFF0FFF0FFF0F70
:020000040030CA
:0A0000008CFFF7FF9FFFFFFFFFFFDB
:00000001FF
