:040000000DEF00F010
:040008003CEF1EF0BB
:06001800FF00D8EF1EF00E
:07160000000240000300009E
:10160800BAEC1EF0000E46EC1CF0D68E920E036E5D
:101618003D0E046E29EC1FF0140E05018E6F8469CF
:10162800320E856F000E866F000E776F000E786F92
:10163800000E7A6F000E796F000E876F000E886FAC
:10164800000E896F000E8A6F000E6D6F000E6E6FB0
:10165800000E6F6F000E706F000E736F000E746FC8
:10166800000E756F000E766F000E626F000E616FD0
:10167800000E606F000E666F000E656F000E686FDB
:10168800000E676F000E6A6F000E696F000E6C6FB8
:10169800000E6B6F000E646F000E636F000E726FAA
:1016A800000E716FC09EC09ABE9AC096000E936FCE
:1016B800000E046E030E036E1DEC1FF0450AD8A43D
:1016C80068EF0BF06AEF0BF08AEF0BF0000E046E78
:1016D8000B0E036E1DEC1FF005018B6F000E046EE0
:1016E8000C0E036E1DEC1FF005018C6F000E046ECE
:1016F8000F0E036E1DEC1FF005018D6F000E046EBA
:10170800110E036E1DEC1FF005018E6F000E046EA6
:10171800040E036E1DEC1FF0450AD8A496EF0BF0DB
:1017280098EF0BF0B8EF0BF0000E046E120E036E7C
:101738001DEC1FF005017B6F000E046E130E036E87
:101748001DEC1FF005017C6F000E046E140E036E75
:101758001DEC1FF005017D6F000E046E150E036E63
:101768001DEC1FF00501846F000E046E060E036E5B
:101778001DEC1FF0450AD8A4C4EF0BF0C6EF0BF020
:10178800E6EF0BF0000E046E160E036E1DEC1FF054
:1017980005017E6F000E046E180E036E1DEC1FF01F
:1017A80005017F6F000E046E190E036E1DEC1FF00D
:1017B8000501806F000E046E1B0E036E1DEC1FF0FA
:1017C8000501856F000E046E080E036E1DEC1FF0F8
:1017D800450AD8A4F2EF0BF0F4EF0BF014EF0CF07D
:1017E800000E046E1E0E036E1DEC1FF00501816FC6
:1017F800000E046E1F0E036E1DEC1FF00501826FB4
:10180800000E046E200E036E1DEC1FF00501836FA1
:10181800000E046E220E036E1DEC1FF00501866F8C
:10182800000E046E020E036E1DEC1FF0450AD8A4CC
:1018380020EF0CF022EF0CF0D3EF0CF0000E046E4A
:10184800240E036E1DEC1FF00501936F9305D8A4B9
:1018580030EF0CF032EF0CF047EF0CF0000E046E96
:10186800030E036E1DEC1FF0450AD8A43EEF0CF0E2
:1018780040EF0CF047EF0CF0C08EA00E00D0E82E21
:10188800FDD752EF0CF005019305D8A44EEF0CF0EC
:1018980050EF0CF052EF0CF0000E936F020E0501A2
:1018A8009319D8A45AEF0CF05CEF0CF071EF0CF020
:1018B800000E046E040E036E1DEC1FF0450AD8A43A
:1018C80068EF0CF06AEF0CF071EF0CF0C08AA00E14
:1018D80000D0E82EFDD77DEF0CF0020E050193191C
:1018E800D8A479EF0CF07BEF0CF07DEF0CF0000E34
:1018F800936F030E05019319D8A485EF0CF087EFB9
:101908000CF09CEF0CF0000E046E060E036E1DEC3E
:101918001FF0450AD8A493EF0CF095EF0CF09CEF5C
:101928000CF0BE8AA00E00D0E82EFDD7A8EF0CF070
:10193800030E05019319D8A4A4EF0CF0A6EF0CF040
:10194800A8EF0CF0000E936F040E05019319D8A4AC
:10195800B0EF0CF0B2EF0CF0C7EF0CF0000E046E15
:10196800080E036E1DEC1FF0450AD8A4BEEF0CF05C
:10197800C0EF0CF0C7EF0CF0C086A00E00D0E82E28
:10198800FDD7D3EF0CF0040E05019319D8A4CFEFBF
:101998000CF0D1EF0CF0D3EF0CF0000E936F000EAB
:1019A800046E140E036E2EEC1FF0000ED0BC010E58
:1019B8000501776F000ECEB8010E786F000ED0B813
:1019C800010E7A6F000ECFBE010E796F3BEC1FF04F
:1019D800020E55EC1EF003C51DF504C51EF51F6A61
:1019E800206A000E216E000E226E000E236E000E7D
:1019F800246EFF0E256E0F0E266E000E276E000E4B
:101A0800286E000E296E000E2A6E000E2B6E000E38
:101A18002C6EFF0E2D6E000E2E6E000E2F6E000E19
:101A2800306E1CEC1DF01D5005018F6F3BEC1FF054
:101A3800100E55EC1EF003C51DF504C51EF51F6AF2
:101A4800206A000E216E000E226E000E236E000E1C
:101A5800246EFF0E256E0F0E266E000E276E000EEA
:101A6800286E000E296E000E2A6E000E2B6E000ED8
:101A78002C6EFF0E2D6E000E2E6E000E2F6E000EB9
:101A8800306E1CEC1DF01D500501906F3BEC1FF0F3
:101A9800110E55EC1EF003C51DF504C51EF51F6A91
:101AA800206A000E216E000E226E000E236E000EBC
:101AB800246EFF0E256E0F0E266E000E276E000E8A
:101AC800286E000E296E000E2A6E000E2B6E000E78
:101AD8002C6EFF0E2D6E000E2E6E000E2F6E000E59
:101AE800306E1CEC1DF01D500501916F3BEC1FF092
:101AF800120E55EC1EF003C51DF504C51EF51F6A30
:101B0800206A000E216E000E226E000E236E000E5B
:101B1800246EFF0E256E0F0E266E000E276E000E29
:101B2800286E000E296E000E2A6E000E2B6E000E17
:101B38002C6EFF0E2D6E000E2E6E000E2F6E000EF8
:101B4800306E1CEC1DF01D500501926F9AEC1EF0D2
:101B58007CEF1BF090C509F591C50AF592C50BF508
:101B68002C0E0C6E010E0D6E000E0E6E8F5116ECC3
:101B78001EF0A00E00D0E82EFDD7D0BCC6EF0DF0A9
:101B8800C8EF0DF0F3EF0DF005017751D8B4CFEFA2
:101B98000DF0D1EF0DF0F3EF0DF08751D8A4D7EF8A
:101BA8000DF0D9EF0DF0F3EF0DF08851D8A4DFEF69
:101BB8000DF0E1EF0DF0F3EF0DF08951D8A4E7EF48
:101BC8000DF0E9EF0DF0F3EF0DF08A51D8A4EFEF27
:101BD8000DF0F1EF0DF0F3EF0DF0050E936FCEB8A9
:101BE800F8EF0DF0FAEF0DF025EF0EF00501785142
:101BF800D8B401EF0EF003EF0EF025EF0EF0875189
:101C0800D8A409EF0EF00BEF0EF025EF0EF0885177
:101C1800D8A411EF0EF013EF0EF025EF0EF0895156
:101C2800D8A419EF0EF01BEF0EF025EF0EF08A5135
:101C3800D8A421EF0EF023EF0EF025EF0EF0060EDC
:101C4800936FD0B82AEF0EF02CEF0EF057EF0EF08E
:101C580005017A51D8B433EF0EF035EF0EF057EF97
:101C68000EF08751D8A43BEF0EF03DEF0EF057EF82
:101C78000EF08851D8A443EF0EF045EF0EF057EF61
:101C88000EF08951D8A44BEF0EF04DEF0EF057EF40
:101C98000EF08A51D8A453EF0EF055EF0EF057EF1F
:101CA8000EF0070E936FCFBE5CEF0EF05EEF0EF0F6
:101CB80089EF0EF005017951D8B465EF0EF067EFA2
:101CC8000EF089EF0EF08751D8A46DEF0EF06FEF8C
:101CD8000EF089EF0EF08851D8A475EF0EF077EF6B
:101CE8000EF089EF0EF08951D8A47DEF0EF07FEF4A
:101CF8000EF089EF0EF08A51D8A485EF0EF087EF29
:101D08000EF089EF0EF0080E936F05018751D8A4E5
:101D180090EF0EF092EF0EF0AAEF0EF08851D8A4D3
:101D280098EF0EF09AEF0EF0AAEF0EF08951D8A4B2
:101D3800A0EF0EF0A2EF0EF0AAEF0EF08A51D8B481
:101D4800A8EF0EF0AAEF0EF0C3EF0EF0634B642B72
:101D5800F40E631906E16405D8A4B5EF0EF0B7EFE9
:101D68000EF0C3EF0EF0000E646F000E636F000EEE
:101D7800876F000E886F000E896F000E8A6F87517B
:101D8800D8B4C9EF0EF0CBEF0EF0E8EF0EF0722BDF
:101D98000C0E7219D8A4D3EF0EF0D5EF0EF0E8EFC1
:101DA8000EF0000E726FC0AEDCEF0EF0E0EF0EF03A
:101DB800316A312AE1EF0EF0316A31323132C050E6
:101DC80031187F0B3118C06E05018851D8B4EFEF78
:101DD8000EF0F1EF0EF00EEF0FF0722B0C0E7219E1
:101DE800D8A4F9EF0EF0FBEF0EF00EEF0FF0000E97
:101DF800726FC0AA02EF0FF006EF0FF0316A312AB6
:101E080007EF0FF0316A313A3146C0503118DF0B15
:101E18003118C06E05018951D8B415EF0FF017EFCE
:101E28000FF034EF0FF0722B0C0E7219D8A41FEFBD
:101E38000FF021EF0FF034EF0FF0000E726FBEAA13
:101E480028EF0FF02CEF0FF0316A312A2DEF0FF049
:101E5800316A313A3146BE503118DF0B3118BE6E47
:101E680005018A51D8B43BEF0FF03DEF0FF05BEF5F
:101E78000FF0722B0C0E7219D8A445EF0FF047EF34
:101E88000FF05BEF0FF0000E726FC0A64EEF0FF071
:101E980052EF0FF0316A312A53EF0FF0316A3146B1
:101EA80031463146C0503118F70B3118C06E050164
:101EB8008751D8A462EF0FF064EF0FF082EF0FF0B4
:101EC8008851D8A46AEF0FF06CEF0FF082EF0FF093
:101ED8008951D8A472EF0FF074EF0FF082EF0FF072
:101EE8008A51D8A47AEF0FF07CEF0FF082EF0FF051
:101EF800000E726FC09EC09ABE9AC0968751D8B421
:101F080088EF0FF08AEF0FF0CBEF0FF0D0BC8FEF18
:101F18000FF091EF0FF0CBEF0FF07751D8B497EFA8
:101F28000FF099EF0FF0CBEF0FF08FC58BF590C541
:101F38008CF591C58DF592C58EF5000E876F000E54
:101F4800046E0F0E036E8DC505F5EFEC1DF0000E47
:101F5800046E0C0E036E8CC505F5EFEC1DF0000E3B
:101F6800046E0B0E036E8BC505F5EFEC1DF0000E2D
:101F7800046E110E036E8EC505F5EFEC1DF0000E14
:101F8800046E030E036E450E056EEFEC1DF00501A1
:101F98008851D8B4D2EF0FF0D4EF0FF015EF10F04E
:101FA800CEB8D9EF0FF0DBEF0FF015EF10F0785146
:101FB800D8B4E1EF0FF0E3EF0FF015EF10F08FC595
:101FC8007BF590C57CF591C57DF592C584F5000E2D
:101FD800886F000E046E140E036E7DC505F5EFECD8
:101FE8001DF0000E046E130E036E7CC505F5EFECB4
:101FF8001DF0000E046E120E036E7BC505F5EFECA6
:102008001DF0000E046E150E036E84C505F5EFEC89
:102018001DF0000E046E040E036E450E056EEFEC07
:102028001DF005018951D8B41CEF10F01EEF10F017
:102038005FEF10F0D0B823EF10F025EF10F05FEF4E
:1020480010F07A51D8B42BEF10F02DEF10F05FEFAD
:1020580010F08FC57EF590C57FF591C580F592C5C6
:1020680085F5000E896F000E046E190E036E80C58B
:1020780005F5EFEC1DF0000E046E180E036E7FC51B
:1020880005F5EFEC1DF0000E046E160E036E7EC50E
:1020980005F5EFEC1DF0000E046E1B0E036E85C5F2
:1020A80005F5EFEC1DF0000E046E060E036E450EEE
:1020B800056EEFEC1DF005018A51D8B466EF10F0FB
:1020C80068EF10F0A9EF10F0CFBE6DEF10F06FEFD2
:1020D80010F0A9EF10F07951D8B475EF10F077EF40
:1020E80010F0A9EF10F08FC581F590C582F591C564
:1020F80083F592C586F5000E8A6F000E046E200ED9
:10210800036E83C505F5EFEC1DF0000E046E1F0E7F
:10211800036E82C505F5EFEC1DF0000E046E1E0E71
:10212800036E81C505F5EFEC1DF0000E046E220E5E
:10213800036E86C505F5EFEC1DF0000E046E080E63
:10214800036E450E056EEFEC1DF0D0ACAEEF10F04F
:10215800B0EF10F0B5EF10F0000E0501666F000E3D
:10216800656FCEA8BAEF10F0BCEF10F0C1EF10F019
:10217800000E0501686F000E676FD0A8C6EF10F05B
:10218800C8EF10F0CDEF10F0000E05016A6F000ED9
:10219800696FCFAED2EF10F0D4EF10F0D9EF0CF09A
:1021A800000E05016C6F000E6B6FD9EF0CF0D0AC10
:1021B800E0EF10F0E2EF10F005EF11F0C08E8CC5E3
:1021C80009F58DC50AF58EC50BF52C0E0C6E010EA2
:1021D8000D6E000E0E6E8B5116EC1EF0010E0501F1
:1021E800936F000E046E240E036E93C505F5EFEC95
:1021F8001DF0000E046E020E036E450E056EEFEC28
:102208001DF0D0BC0AEF11F00CEF11F0D9EF0CF073
:102218000501654B662BFA0E65196611D8A417EFF0
:1022280011F019EF11F0D9EF0CF0000E666F000EE7
:10223800656F010E876F000E936F000E046E240EFB
:10224800036E93C505F5EFEC1DF0000E046E020E4B
:10225800036E450E056EEFEC1DF0D9EF0CF0CEA81D
:1022680038EF11F03AEF11F05DEF11F0C08A7CC53C
:1022780009F57DC50AF584C50BF52C0E0C6E010E0B
:102288000D6E000E0E6E7B5116EC1EF0020E05014F
:10229800936F000E046E240E036E93C505F5EFECE4
:1022A8001DF0000E046E020E036E450E056EEFEC77
:1022B8001DF0CEB862EF11F064EF11F0D9EF0CF019
:1022C8000501674B682BFA0E67196811D8A46FEFE0
:1022D80011F071EF11F0D9EF0CF0000E686F000EDD
:1022E800676F010E886F000E936F21EF11F0D0A871
:1022F80080EF11F082EF11F0A5EF11F0BE8A7FC5D3
:1023080009F580C50AF585C50BF52C0E0C6E010E76
:102318000D6E000E0E6E7E5116EC1EF0030E0501BA
:10232800936F000E046E240E036E93C505F5EFEC53
:102338001DF0000E046E020E036E450E056EEFECE6
:102348001DF0D0B8AAEF11F0ACEF11F0D9EF0CF0F6
:102358000501694B6A2BFA0E69196A11D8A4B7EFFF
:1023680011F0B9EF11F0D9EF0CF0000E6A6F000E02
:10237800696F010E896F000E936F21EF11F0CFAED8
:10238800C8EF11F0CAEF11F0EDEF11F0C08682C569
:1023980009F583C50AF586C50BF52C0E0C6E010EE2
:1023A8000D6E000E0E6E815116EC1EF0040E050126
:1023B800936F000E046E240E036E93C505F5EFECC3
:1023C8001DF0000E046E020E036E450E056EEFEC56
:1023D8001DF0CFBEF2EF11F0F4EF11F0D9EF0CF0D1
:1023E80005016B4B6C2BFA0E6B196C11D8A4FFEF1F
:1023F80011F001EF12F0D9EF0CF0000E6C6F000E27
:102408006B6F010E8A6F000E936F21EF11F0D0AC45
:1024180010EF12F012EF12F025EF12F0C09E000E2E
:10242800936F000E046E240E036E93C505F5EFEC52
:102438001DF0000E046E020E036E450E056EEFECE5
:102448001DF0D0BC2AEF12F02CEF12F0D9EF0CF0EF
:102458000501654B662BFA0E65196611D8A437EF8E
:1024680012F039EF12F0D9EF0CF0000E666F000E83
:10247800656F010E6D6F010E936FD9EF0CF0CEA84A
:1024880048EF12F04AEF12F05DEF12F0C09A000E1A
:10249800936F000E046E240E036E93C505F5EFECE2
:1024A8001DF0000E046E020E036E450E056EEFEC75
:1024B8001DF0CEB862EF12F064EF12F0D9EF0CF015
:1024C8000501674B682BFA0E67196811D8A46FEFDE
:1024D80012F071EF12F0D9EF0CF0000E686F000ED9
:1024E800676F010E6E6F020E936FD9EF0CF0D0A8D4
:1024F80080EF12F082EF12F095EF12F0BE9A000E04
:10250800936F000E046E240E036E93C505F5EFEC71
:102518001DF0000E046E020E036E450E056EEFEC04
:102528001DF0D0B89AEF12F09CEF12F0D9EF0CF032
:102538000501694B6A2BFA0E69196A11D8A4A7EF2D
:1025480012F0A9EF12F0D9EF0CF0000E6A6F000E2E
:10255800696F010E6F6F030E936FD9EF0CF0CFAE5A
:10256800B8EF12F0BAEF12F0CDEF12F0C096000EED
:10257800936F000E046E240E036E93C505F5EFEC01
:102588001DF0000E046E020E036E450E056EEFEC94
:102598001DF0CFBED2EF12F0D4EF12F0D9EF0CF04D
:1025A80005016B4B6C2BFA0E6B196C11D8A4DFEF7D
:1025B80012F0E1EF12F0D9EF0CF0000E6C6F000E84
:1025C8006B6F010E706F040E936FD9EF0CF08CC512
:1025D80009F58DC50AF58EC50BF52C0E0C6E010E8E
:1025E8000D6E000E0E6E8B5116EC1EF005016D512E
:1025F800D8B401EF13F003EF13F020EF13F0712BB1
:102608000C0E7119D8A40BEF13F00DEF13F020EF97
:1026180013F0000E716FC0AE14EF13F018EF13F043
:10262800316A312A19EF13F0316A31323132C05030
:1026380031187F0B3118C06ED0BC25EF13F027EF8F
:1026480013F03AEF13F005017751D8B42EEF13F0D9
:1026580030EF13F03AEF13F06D51D8A436EF13F0C2
:1026680038EF13F03AEF13F0090E936FD0BC3FEF39
:1026780013F041EF13F085EF13F005017751D8B44B
:1026880048EF13F04AEF13F085EF13F06D51D8B40B
:1026980050EF13F052EF13F085EF13F0C08E000ED9
:1026A8006D6F000E736F000E746F000E756F000E65
:1026B800766F000E046E0F0E036E8DC505F5EFECF8
:1026C8001DF0000E046E0C0E036E8CC505F5EFECC4
:1026D8001DF0000E046E0B0E036E8BC505F5EFECB6
:1026E8001DF0000E046E110E036E8EC505F5EFEC9D
:1026F8001DF0000E046E030E036E450E056EEFEC22
:102708001DF005016D51D8B48CEF13F08EEF13F066
:1027180082EF14F0FB0E8B25316E326AFF0E3222E7
:102728008F51336E346A3150335C3450800A356EC1
:102738003250800A3558D8A0A4EF13F0A6EF13F052
:10274800C1EF13F08F51316E326A8B51336E346A98
:10275800050E3326000E34223150335C3450800A83
:10276800356E3250800A3558D8A0BDEF13F0BFEF50
:1027780013F0C1EF13F0010E736F7351D8B4C7EFA4
:1027880013F0C9EF13F0CBEF13F08FC58BF5FB0EE9
:102798008E25316E326AFF0E32229251336E346AC0
:1027A8003150335C3450800A356E3250800A3558C7
:1027B800D8A0E1EF13F0E3EF13F0FEEF13F092511E
:1027C800316E326A8E51336E346A050E3326000E2E
:1027D80034223150335C3450800A356E3250800ACE
:1027E8003558D8A0FAEF13F0FCEF13F0FEEF13F012
:1027F800010E766F7651D8B404EF14F006EF14F09A
:1028080008EF14F092C58EF5FB0E8C25316E326AF6
:10281800FF0E32229051336E346A3150335C34509B
:10282800800A356E3250800A3558D8A01EEF14F051
:1028380020EF14F03BEF14F09051316E326A8C5156
:10284800336E346A050E3326000E34223150335C61
:102858003450800A356E3250800A3558D8A037EF88
:1028680014F039EF14F03BEF14F0010E746F74514B
:10287800D8B441EF14F043EF14F045EF14F090C5CD
:102888008CF5FB0E8D25316E326AFF0E3222915186
:10289800336E346A3150335C3450800A356E3250AE
:1028A800800A3558D8A05BEF14F05DEF14F078EF8C
:1028B80014F09151316E326A8D51336E346A050EBF
:1028C8003326000E34223150335C3450800A356E82
:1028D8003250800A3558D8A074EF14F076EF14F00F
:1028E80078EF14F0010E756F7551D8B47EEF14F0BF
:1028F80080EF14F082EF14F091C58DF5CEB887EF14
:1029080014F089EF14F0B5EF14F07851D8B48FEFC4
:1029180014F091EF14F0B5EF14F0C09EC08A7CC596
:1029280009F57DC50AF584C50BF52C0E0C6E010E54
:102938000D6E000E0E6E7B5116EC1EF0020E050198
:10294800936F000E046E240E036E93C505F5EFEC2D
:102958001DF0000E046E020E036E450E056EEFECC0
:102968001DF0D0B8BAEF14F0BCEF14F0E9EF14F092
:1029780005017A51D8B4C3EF14F0C5EF14F0E9EFAC
:1029880014F0C09EBE8A7FC509F580C50AF585C5C5
:102998000BF52C0E0C6E010E0D6E000E0E6E7E5198
:1029A80016EC1EF0030E0501936F000E046E240E44
:1029B800036E93C505F5EFEC1DF0000E046E020ED4
:1029C800036E450E056EEFEC1DF0CFBEEEEF14F072
:1029D800F0EF14F0D9EF0CF005017951D8B4F7EF06
:1029E80014F0F9EF14F0D9EF0CF0C09EC08682C540
:1029F80009F583C50AF586C50BF52C0E0C6E010E7C
:102A08000D6E000E0E6E815116EC1EF0040E0501BF
:102A1800936F21EF11F07CC509F57DC50AF584C5D2
:102A28000BF52C0E0C6E010E0D6E000E0E6E7B510A
:102A380016EC1EF005016E51D8B425EF15F027EFFE
:102A480015F044EF15F0712B0C0E7119D8A42FEF67
:102A580015F031EF15F044EF15F0000E716FC0AAB4
:102A680038EF15F03CEF15F0316A312A3DEF15F0DB
:102A7800316A313A3146C0503118DF0B3118C06E17
:102A8800CEB849EF15F04BEF15F05EEF15F00501E4
:102A98007851D8B452EF15F054EF15F05EEF15F0F9
:102AA8006E51D8A45AEF15F05CEF15F05EEF15F0F3
:102AB8000A0E936FCEB863EF15F065EF15F0A9EF26
:102AC80015F005017851D8B46CEF15F06EEF15F0DC
:102AD800A9EF15F06E51D8B474EF15F076EF15F034
:102AE800A9EF15F0C08A000E6E6F000E736F000E0E
:102AF800746F000E756F000E766F000E046E140E64
:102B0800036E8DC505F5EFEC1DF0000E046E130E77
:102B1800036E8CC505F5EFEC1DF0000E046E120E69
:102B2800036E8BC505F5EFEC1DF0000E046E150E57
:102B3800036E8EC505F5EFEC1DF0000E046E040E55
:102B4800036E450E056EEFEC1DF005016E51D8B40D
:102B5800B0EF15F0B2EF15F0A6EF16F0FB0E7B25DF
:102B6800316E326AFF0E32228F51336E346A315021
:102B7800335C3450800A356E3250800A3558D8A0FC
:102B8800C8EF15F0CAEF15F0E5EF15F08F51316E6B
:102B9800326A7B51336E346A050E3326000E3422B6
:102BA8003150335C3450800A356E3250800A3558C3
:102BB800D8A0E1EF15F0E3EF15F0E5EF15F0010E01
:102BC800736F7351D8B4EBEF15F0EDEF15F0EFEF2D
:102BD80015F08FC57BF5FB0E8425316E326AFF0E2A
:102BE80032229251336E346A3150335C3450800A49
:102BF800356E3250800A3558D8A005EF16F007EF29
:102C080016F022EF16F09251316E326A8451336E0B
:102C1800346A050E3326000E34223150335C3450AA
:102C2800800A356E3250800A3558D8A01EEF16F04B
:102C380020EF16F022EF16F0010E766F7651D8B419
:102C480028EF16F02AEF16F02CEF16F092C584F54F
:102C5800FB0E7C25316E326AFF0E32229051336EA4
:102C6800346A3150335C3450800A356E3250800AF1
:102C78003558D8A042EF16F044EF16F05FEF16F083
:102C88009051316E326A7C51336E346A050E3326A8
:102C9800000E34223150335C3450800A356E325085
:102CA800800A3558D8A05BEF16F05DEF16F05FEF9D
:102CB80016F0010E746F7451D8B465EF16F067EF13
:102CC80016F069EF16F090C57CF5FB0E7D25316E88
:102CD800326AFF0E32229151336E346A3150335CBE
:102CE8003450800A356E3250800A3558D8A07FEFAC
:102CF80016F081EF16F09CEF16F09151316E326AA2
:102D08007D51336E346A050E3326000E342231505D
:102D1800335C3450800A356E3250800A3558D8A05A
:102D280098EF16F09AEF16F09CEF16F0010E756FFB
:102D38007551D8B4A2EF16F0A4EF16F0A6EF16F06E
:102D480091C57DF5D0BCABEF16F0ADEF16F0D9EF1D
:102D580016F07751D8B4B3EF16F0B5EF16F0D9EFF7
:102D680016F0C09AC08E8CC509F58DC50AF58EC5BA
:102D78000BF52C0E0C6E010E0D6E000E0E6E8B51A7
:102D880016EC1EF0010E0501936F000E046E240E62
:102D9800036E93C505F5EFEC1DF0000E046E020EF0
:102DA800036E450E056EEFEC1DF0D0B8DEEF16F0A1
:102DB800E0EF16F00DEF17F005017A51D8B4E7EF00
:102DC80016F0E9EF16F00DEF17F0C09ABE8A7FC52E
:102DD80009F580C50AF585C50BF52C0E0C6E010E9C
:102DE8000D6E000E0E6E7E5116EC1EF0030E0501E0
:102DF800936F000E046E240E036E93C505F5EFEC79
:102E08001DF0000E046E020E036E450E056EEFEC0B
:102E18001DF0CFBE12EF17F014EF17F0D9EF0CF03A
:102E280005017951D8B41BEF17F01DEF17F0D9EF52
:102E38000CF0C09AC08682C509F583C50AF586C517
:102E48000BF52C0E0C6E010E0D6E000E0E6E8151E0
:102E580016EC1EF00AEF15F07FC509F580C50AF5D6
:102E680085C50BF52C0E0C6E010E0D6E000E0E6E48
:102E78007E5116EC1EF005016F51D8B446EF17F0DD
:102E880048EF17F065EF17F0712B0C0E7119D8A4E5
:102E980050EF17F052EF17F065EF17F0000E716F53
:102EA800BEAA59EF17F05DEF17F0316A312A5EEFCD
:102EB80017F0316A313A3146BE503118DF0B3118FC
:102EC800BE6ED0B86AEF17F06CEF17F07FEF17F00F
:102ED80005017A51D8B473EF17F075EF17F07FEF4B
:102EE80017F06F51D8A47BEF17F07DEF17F07FEF45
:102EF80017F00B0E936FD0B884EF17F086EF17F02A
:102F0800CAEF17F005017A51D8B48DEF17F08FEF9B
:102F180017F0CAEF17F06F51D8B495EF17F097EF85
:102F280017F0CAEF17F0BE8A000E6F6F000E736FAE
:102F3800000E746F000E756F000E766F000E046E33
:102F4800190E036E8DC505F5EFEC1DF0000E046E2D
:102F5800180E036E8CC505F5EFEC1DF0000E046E1F
:102F6800160E036E8BC505F5EFEC1DF0000E046E12
:102F78001B0E036E8EC505F5EFEC1DF0000E046EFA
:102F8800060E036E450E056EEFEC1DF0000ED0B870
:102F9800010E05017A6F6F51D8B4D5EF17F0D7EF4E
:102FA80017F0CBEF18F0FB0E7E25316E326AFF0E5C
:102FB80032228F51336E346A3150335C3450800A78
:102FC800356E3250800A3558D8A0EDEF17F0EFEF84
:102FD80017F00AEF18F08F51316E326A7E51336E56
:102FE800346A050E3326000E34223150335C3450D7
:102FF800800A356E3250800A3558D8A006EF18F08E
:1030080008EF18F00AEF18F0010E736F7351D8B477
:1030180010EF18F012EF18F014EF18F08FC57EF5C6
:10302800FB0E8525316E326AFF0E32229251336EC5
:10303800346A3150335C3450800A356E3250800A1D
:103048003558D8A02AEF18F02CEF18F047EF18F0F1
:103058009251316E326A8551336E346A050E3326C9
:10306800000E34223150335C3450800A356E3250B1
:10307800800A3558D8A043EF18F045EF18F047EF0D
:1030880018F0010E766F7651D8B44DEF18F04FEF67
:1030980018F051EF18F092C585F5FB0E7F25316EBB
:1030A800326AFF0E32229051336E346A3150335CEB
:1030B8003450800A356E3250800A3558D8A067EFF0
:1030C80018F069EF18F084EF18F09051316E326AF9
:1030D8007F51336E346A050E3326000E3422315088
:1030E800335C3450800A356E3250800A3558D8A087
:1030F80080EF18F082EF18F084EF18F0010E746F6B
:103108007451D8B48AEF18F08CEF18F08EEF18F0DD
:1031180090C57FF5FB0E8025316E326AFF0E322294
:103128009151336E346A3150335C3450800A356EB5
:103138003250800A3558D8A0A4EF18F0A6EF18F03E
:10314800C1EF18F09151316E326A8051336E346A92
:10315800050E3326000E34223150335C3450800A79
:10316800356E3250800A3558D8A0BDEF18F0BFEF41
:1031780018F0C1EF18F0010E756F7551D8B4C7EF8C
:1031880018F0C9EF18F0CBEF18F091C580F5D0BC56
:10319800D0EF18F0D2EF18F0FEEF18F07751D8B44E
:1031A800D8EF18F0DAEF18F0FEEF18F0BE9AC08EDC
:1031B8008CC509F58DC50AF58EC50BF52C0E0C6E60
:1031C800010E0D6E000E0E6E8B5116EC1EF0010EE8
:1031D8000501936F000E046E240E036E93C505F56A
:1031E800EFEC1DF0000E046E020E036E450E056E28
:1031F800EFEC1DF0CEB803EF19F005EF19F032EF40
:1032080019F005017851D8B40CEF19F00EEF19F048
:1032180032EF19F0BE9AC08A7CC509F57DC50AF55A
:1032280084C50BF52C0E0C6E010E0D6E000E0E6E85
:103238007B5116EC1EF0020E0501936F000E046E12
:10324800240E036E93C505F5EFEC1DF0000E046E19
:10325800020E036E450E056EEFEC1DF0CFBE37EF84
:1032680019F039EF19F066EF19F005017951D8B462
:1032780040EF19F042EF19F066EF19F0BE9AC086D8
:1032880082C509F583C50AF586C50BF52C0E0C6EAB
:10329800010E0D6E000E0E6E815116EC1EF0040E1E
:1032A8000501936F000E046E240E036E93C505F599
:1032B800EFEC1DF0000E046E020E036E450E056E57
:1032C800EFEC1DF082C509F583C50AF586C50BF537
:1032D8002C0E0C6E010E0D6E000E0E6E0501815146
:1032E80016EC1EF005017051D8B47DEF19F07FEF90
:1032F80019F09DEF19F0712B0C0E7119D8A487EFF6
:1033080019F089EF19F09DEF19F0000E716FC0A642
:1033180090EF19F094EF19F0316A312A95EF19F00E
:10332800316A314631463146C0503118F70B3118F1
:10333800C06ECFBEA2EF19F0A4EF19F0B7EF19F0E5
:1033480005017951D8B4ABEF19F0ADEF19F0B7EF2B
:1033580019F07051D8A4B3EF19F0B5EF19F0B7EF21
:1033680019F00C0E936FCFBEBCEF19F0BEEF19F039
:1033780002EF1AF005017951D8B4C5EF19F0C7EF7B
:1033880019F002EF1AF07051D8B4CDEF19F0CFEF61
:1033980019F002EF1AF0C086000E706F000E736FFE
:1033A800000E746F000E756F000E766F000E046EBF
:1033B800200E036E8DC505F5EFEC1DF0000E046EB2
:1033C8001F0E036E8CC505F5EFEC1DF0000E046EA4
:1033D8001E0E036E8BC505F5EFEC1DF0000E046E96
:1033E800220E036E8EC505F5EFEC1DF0000E046E7F
:1033F800080E036E450E056EEFEC1DF005017051C9
:10340800D8B409EF1AF00BEF1AF0FFEF1AF0FB0E21
:103418008125316E326AFF0E32228F51336E346A43
:103428003150335C3450800A356E3250800A35583A
:10343800D8A021EF1AF023EF1AF03EEF1AF08F51BF
:10344800316E326A8151336E346A050E3326000EAE
:1034580034223150335C3450800A356E3250800A41
:103468003558D8A03AEF1AF03CEF1AF03EEF1AF0B0
:10347800010E736F7351D8B444EF1AF046EF1AF087
:1034880048EF1AF08FC581F5FB0E8625316E326A3A
:10349800FF0E32229251336E346A3150335C34500D
:1034A800800A356E3250800A3558D8A05EEF1AF07F
:1034B80060EF1AF07BEF1AF09251316E326A865142
:1034C800336E346A050E3326000E34223150335CD5
:1034D8003450800A356E3250800A3558D8A077EFBC
:1034E8001AF079EF1AF07BEF1AF0010E766F765129
:1034F800D8B481EF1AF083EF1AF085EF1AF092C56D
:1035080086F5FB0E8225316E326AFF0E322290510B
:10351800336E346A3150335C3450800A356E325021
:10352800800A3558D8A09BEF1AF09DEF1AF0B8EF33
:103538001AF09051316E326A8251336E346A050E38
:103548003326000E34223150335C3450800A356EF5
:103558003250800A3558D8A0B4EF1AF0B6EF1AF0F6
:10356800B8EF1AF0010E746F7451D8B4BEEF1AF0A8
:10357800C0EF1AF0C2EF1AF090C582F5FB0E832552
:10358800316E326AFF0E32229151336E346A3150F5
:10359800335C3450800A356E3250800A3558D8A0D2
:1035A800D8EF1AF0DAEF1AF0F5EF1AF09151316E00
:1035B800326A8351336E346A050E3326000E342284
:1035C8003150335C3450800A356E3250800A355899
:1035D800D8A0F1EF1AF0F3EF1AF0F5EF1AF0010E98
:1035E800756F7551D8B4FBEF1AF0FDEF1AF0FFEFC5
:1035F8001AF091C583F5D0BC04EF1BF006EF1BF061
:1036080022EF1BF07751D8B40CEF1BF00EEF1BF034
:1036180022EF1BF0C096C08E010E936F000E046E51
:10362800240E036E93C505F5EFEC1DF0000E046E35
:10363800020E036E450E056EEFEC1DF0CEB827EFB7
:103648001BF029EF1BF056EF1BF005017851D8B499
:1036580030EF1BF032EF1BF056EF1BF0C096C08A1C
:103668007CC509F57DC50AF584C50BF52C0E0C6ED5
:10367800010E0D6E000E0E6E7B5116EC1EF0020E42
:103688000501936F000E046E240E036E93C505F5B5
:10369800EFEC1DF0000E046E020E036E450E056E73
:1036A800EFEC1DF0D0B85BEF1BF05DEF1BF0D9EF2E
:1036B8000CF005017A51D8B464EF1BF066EF1BF0EB
:1036C800D9EF0CF0C096BE8A7FC509F580C50AF50A
:1036D80085C50BF52C0E0C6E010E0D6E000E0E6ED0
:1036E8007E5116EC1EF0030E0501936F21EF11F0C9
:1036F80005019351316E326A3250000AD8B487EF0F
:103708001BF0D9EF0CF03150000AD8B4AEEF0DF031
:10371800010AD8B4EBEF12F0030AD8B40FEF15F092
:10372800010AD8B430EF17F0070AD8B466EF19F0D9
:10373800010AD8B4DBEF10F0030AD8B433EF11F064
:10374800010AD8B47BEF11F00F0AD8B4C3EF11F017
:10375800010AD8B40BEF12F0030AD8B443EF12F001
:10376800010AD8B47BEF12F0070AD8B4B3EF12F00D
:10377800D9EF0CF00DEF00F0000E186E16BEC9EF71
:103788001BF0C7EF1BF0D3EF1BF0161E151E141EFF
:10379800136C000E142215221622010E186E12BE8A
:1037A800DAEF1BF0D8EF1BF0E4EF1BF0121E111E2E
:1037B800101E0F6C000E102211221222010E181A70
:1037C800000E196E000E1A6E000E1B6E000E1C6E97
:1037D8001350141015101610D8B4F5EF1BF0F7EFAE
:1037E8001BF02DEF1CF0010E176E01EF1CF0D890A6
:1037F8001336143615361636172A16AE06EF1CF091
:1038080008EF1CF0FBEF1BF0D89019361A361B3660
:103818001C3613500F5C1450105815501158165080
:103828001258D8A01AEF1CF01CEF1CF025EF1CF062
:1038380013500F5E1450105A1550115A1650125A40
:103848001980D8901632153214321332172E08EF19
:103858001CF01850D8B433EF1CF035EF1CF03DEFD6
:103868001CF01C1E1B1E1A1E196C000E1A221B228D
:103878001C2219C50FF51AC510F51BC511F51CC575
:1038880012F51200046E000184BF4DEF1CF04FEFDB
:103898001CF0B1EF1CF00450050D010EF324F66E78
:1038A800160EF420F76EF86A000EF8220800F5C428
:1038B80084F00450050D010EF326000EF422010ECB
:1038C800F324F66E160EF420F76EF86A000EF8224E
:1038D8000800F5C485F00450050D020EF326000E0D
:1038E800F422010EF324F66E160EF420F76EF86A31
:1038F800000EF8220800F5500309866F000E8C6F41
:103908000450050D030EF326000EF422010EF324D5
:10391800F66E160EF420F76EF86A000EF82208000C
:10392800F5C489F00450050D040EF326000EF422A8
:10393800010EF324F66E160EF420F76EF86A000EE8
:10394800F8220800F5C403F5033A03460346C750B6
:103958000318BF0B0318C76E848F1200046E04AEE1
:10396800B8EF1CF0BAEF1CF0BEEF1CF037EC1FF0FC
:10397800C0EF1CF033EC1FF004ACC5EF1CF0C7EF30
:103988001CF0CBEF1CF037EC1FF0CDEF1CF033EC44
:103998001FF004AAD2EF1CF0D4EF1CF0D8EF1CF0F3
:1039A80037EC1FF0DAEF1CF033EC1FF004A8DFEF60
:1039B8001CF0E1EF1CF0E5EF1CF037EC1FF0E7EF2F
:1039C8001CF033EC1FF004A6ECEF1CF0EEEF1CF03B
:1039D800F2EF1CF037EC1FF0F4EF1CF033EC1FF0A3
:1039E80004A4F9EF1CF0FBEF1CF0FFEF1CF037EC20
:1039F8001FF001EF1DF033EC1FF004A206EF1DF0DD
:103A080008EF1DF00CEF1DF037EC1FF00EEF1DF066
:103A180033EC1FF004A013EF1DF015EF1DF019EFA4
:103A28001DF037EC1FF01BEF1DF033EC1FF01200F8
:103A380021501D5C036E22501E58046E23501F58DF
:103A4800056E24502058066E29502D5C076E2A50AA
:103A58002E58086E2B502F58096E2C5030580A6E6D
:103A680059EC1DF003C50FF504C510F505C511F592
:103A780006C512F52150255C136E22502658146E87
:103A880023502758156E24502858166EC0EC1BF08A
:103A980029500F241D6E2A5010201E6E2B50112005
:103AA8001F6E2C501220206E1200000E0B6E000E9E
:103AB8000C6E000E0D6E000E0E6E03A066EF1DF06C
:103AC80068EF1DF070EF1DF007500B2608500C2210
:103AD80009500D220A500E22D890073608360936AA
:103AE8000A36D890063205320432033203500410E5
:103AF80005100610D8A483EF1DF085EF1DF061EFC7
:103B08001DF00BC503F50CC504F50DC505F50EC56F
:103B180006F51200000EBE6E000EBF6E000EC06EDF
:103B28001F0EC66EA00EC76E570EC86EAF0E0401EC
:103B3800106F000E086F070E006F800E096F100ED1
:103B4800016F500E116F000E026F000E0A6F000E0B
:103B5800126F370E036FF00E0B6F13693F0E046F71
:103B6800F00E0C6F14690E0E02016A6F1B0E0F6FB8
:103B78001C0E0D6F0D0E6B6F1200000E0301D96F36
:103B8800000EDA6F000EDB6F000EDC6F000EDF6FC9
:103B9800000EE06F000EE56F000EE76F000EEC6F91
:103BA800000EEE6F000EEF6F000EF06F000EF16F5B
:103BB800000EF26F000EF46F100EF56F000EF66F28
:103BC800000EF76F000EF86F000EF96F1F0EFA6FF8
:103BD800840EF36F1200000ED6BE010E066E380E6C
:103BE8000001456F0450446F03C543F005C546F016
:103BF8004151F80B0309416FD69E550E426FAA0E2C
:103C0800426F408140B10BEF1EF00DEF1EF006EF42
:103C18001EF006B002D0D69E01D0D68EF80E000156
:103C2800411712000F6E000E106E000E116E000E7E
:103C3800126E2EEF1EF009C505F50AC506F50BC56F
:103C480007F50F5002EC1FF0010E1026000E11228E
:103C5800000E122210500C5C11500D5812500E58C4
:103C6800D8B039EF1EF03BEF1EF01FEF1EF0120028
:103C7800FAC401F5FBC402F5ABA645EF1EF047EF09
:103C88001EF050EF1EF0B6A64CEF1EF04EEF1EF0E1
:103C980050EF1EF03FEC1FF002C5FBF401C5FAF42B
:103CA8001100076E07C5ECF30301F38FF39DF38151
:103CB800F3B161EF1EF063EF1EF05CEF1EF0EB5105
:103CC800066E056AEA510524036E000E0620046E8E
:103CD8001200030E0301206F000E1F6F000E216FEC
:103CE800F90E1D6F000E1C6FB696AB868A0E036E1A
:103CF8003E0E046E29EC1FF0F10E03011E6F120038
:103D08003A503B10D8B48BEF1EF08DEF1EF099EFB0
:103D18001EF002D899EF1EF00500FA6E3A50FD6EBB
:103D28003B50FE6EFF6AFA50120012003650385CA3
:103D380037503958D8A0A3EF1EF0A5EF1EF09AEF20
:103D48001EF0000E396E000E386E1200036E010E62
:103D58000001826F03C581F0B6A0B5EF1EF0B7EF82
:103D68001EF0B0EF1EF000018051120043EC1FF06E
:103D7800E6EC1EF08EEC1DF0F4EC1EF0C1EC1DF02C
:103D88006DEC1EF010EC1FF01200100E381809E14F
:103D9800270E3918D8B4D3EF1EF0D5EF1EF0D7EFA1
:103DA8001EF0384A392A1200396A386A376A366A80
:103DB8000401080E5D6F000E5E6F000E5F6F00015C
:103DC80004EF0BF0000E0001636F000E646F000E2D
:103DD800656F000E666F000E676F000E686F120049
:103DE800600E0001AD6F000EAF6F000EB36F080ECE
:103DF800B16F000EB06F000EAC6F1200086E055068
:103E0800B2EC1CF00850B2EC1CF00650B2EC1CF0FE
:103E18000750B2EC1CF01200020E0001846F400E35
:103E2800856F000E866F000E8C6F030E896FC79C1E
:103E38001200380E0001456F0450446F03C543F06B
:103E4800F80E411740814651120003C53AF504C5E2
:103E58003BF5120003C536F504C537F51200C00E50
:103E6800AAEC1EF01200F00EAAEC1EF012003B0E97
:103E78000301EC6F1200B69684EC1EF01200D69A7D
:043E88001200120012
:020000040020DA
:10000000FF0FFF0FFF0FFF0FFF0FFF0FFF0FFF0F80
:10001000FF0FFF0FFF0FFF0FFF0FFF0FFF0FFF0F70
:020000040030CA
:0A0000008CFFF7FF9FFFFFFFFFFFDB
:00000001FF
