:04000000FEEF7FF0A0
:07160000000240000300009E
:10160800026E02AE0AEF0BF00CEF0BF010EF0BF0CE
:101618009BEC0CF012EF0BF097EC0CF002AC17EF10
:101628000BF019EF0BF01DEF0BF09BEC0CF01FEF1C
:101638000BF097EC0CF002AA24EF0BF026EF0BF05E
:101648002AEF0BF09BEC0CF02CEF0BF097EC0CF066
:1016580002A831EF0BF033EF0BF037EF0BF09BECF8
:101668000CF039EF0BF097EC0CF002A63EEF0BF004
:1016780040EF0BF044EF0BF09BEC0CF046EF0BF057
:1016880097EC0CF002A44BEF0BF04DEF0BF051EF81
:101698000BF09BEC0CF053EF0BF097EC0CF002A264
:1016A80058EF0BF05AEF0BF05EEF0BF09BEC0CF0E1
:1016B80060EF0BF097EC0CF002A065EF0BF067EF12
:1016C8000BF06BEF0BF09BEC0CF06DEF0BF097EC65
:1016D8000CF01200026E000184BF75EF0BF077EF7B
:1016E8000BF0CBEF0BF00250050D010EF324F66E54
:1016F800160EF420F76E0800F5C484F00250050DAC
:10170800010EF326000EF422010EF324F66E160ED7
:10171800F420F76E0800F5C485F00250050D020E9E
:10172800F326000EF422010EF324F66E160EF420B2
:10173800F76E0800F5500309866F000E8C6F025093
:10174800050D030EF326000EF422010EF324F66EA7
:10175800160EF420F76E0800F5C489F00250050D46
:10176800040EF326000EF422010EF324F66E160E74
:10177800F420F76E08006100D4F301F5013A014640
:101788000146C7500118BF0B0118C76E848F12009D
:10179800000EBE6E000EBF6E000EC06E3F0EC66E0F
:1017A800A00EC76EC86804011069A00E086F170E56
:1017B800006F000E096F000E016F000E116F000E12
:1017C800026F000E0A6F000E126F370E036FF00ED5
:1017D8000B6F13693F0E046FF00E0C6F14690E0E39
:1017E80002016A6F1B0E0F6F1C0E0D6F050E6B6FDB
:1017F8001200000E0301D96F000EDA6F000EDB6FC6
:10180800000EDC6F000EDF6F000EE06F000EE56F5C
:10181800000EE76F000EEC6F000EEE6F000EEF6F1C
:10182800000EF06F000EF16F000EF26F000EF46FF5
:10183800100EF56F000EF66F000EF76F000EF86FC2
:10184800000EF96F1F0EFA6F840EF36F120085EC0D
:101858000CF0000E6EEC0BF0000E036EFA0E046E28
:10186800640E056E190E4EEC0CF030EF0CF0FEEF26
:101878007FF0016E010E0001826F610004F481F0B7
:10188800B6A049EF0CF04BEF0CF044EF0CF0000160
:1018980080511200066E065004EC0BF0035004EC65
:1018A8000BF0045004EC0BF0055004EC0BF01200A4
:1018B800000E0001636F000E646F000E656F000E6E
:1018C800666F000E676F000E686F1200600E0001F1
:1018D800AD6F000EAF6F000EB36F080EB16F000E44
:1018E800B06F000EAC6F1200020E0001846F400E44
:1018F800856F000E866F000E8C6F030E896FC79C74
:1019080012005CEC0CF0CCEC0BF06AEC0CF0FDEC8B
:101918000BF078EC0CF01200000EF86E160EF76E55
:1019280000012BEF0CF0C00E3DEC0CF01200F00E95
:061938003DEC0CF0120072
:04FFFC0090EF0CF086
:020000040020DA
:10000000FF0FFF0FFF0FFF0FFF0FFF0FFF0FFF0F80
:10001000FF0FFF0FFF0FFF0FFF0FFF0FFF0FFF0F70
:020000040030CA
:0A0000008CFFF7FF9FFFFFFFFFFFDB
:00000001FF
