:04000000FEEF7FF0A0
:10FCE600BF88BF98120000017CEF7FF090EC7EF099
:10FCF600BCEC7EF082EC7EF0E4EC7EF01200600E4E
:10FD06000001AD6F000EAF6F000EB36F080EB16F3E
:10FD1600000EB06F000EAC6F1200000E0001636F94
:10FD2600000E646F000E656F000E666F000E676F43
:10FD3600000E686F1200056E055012EC7FF002503F
:10FD460012EC7FF0035012EC7FF0045012EC7FF0BF
:10FD56001200BF88BF88BF88BF88BF88BF88BF889A
:10FD6600BF88BF88BF88BF88BF88BF88BF88BF9845
:10FD76001200000EBE6E000EBF6E000EC06E3F0E6D
:10FD8600C66EE00EC76EC86804011069E00E086F03
:10FD9600170E006F000E096F000E016F000E116F37
:10FDA600000E026F000E0A6F000E126F370E036F01
:10FDB600F00E0B6F13693F0E046FF00E0C6F146993
:10FDC6001200000E0301D96F000EDA6F000EDB6F12
:10FDD600000EDC6F000EDF6F000EE06F000EE56FA9
:10FDE600000EE76F000EEC6F000EEE6F000EEF6F69
:10FDF600000EF06F000EF16F000EF26F000EF46F42
:10FE0600100EF56F000EF66F000EF76F000EF86F0E
:10FE1600000EF96F1F0EFA6F840EF36F1200016E5B
:10FE260001AE18EF7FF01AEF7FF01EEF7FF0ACEC1B
:10FE36007EF020EF7FF073EC7EF001AC25EF7FF0D3
:10FE460027EF7FF02BEF7FF0ACEC7EF02DEF7FF00D
:10FE560073EC7EF001AA32EF7FF034EF7FF038EFDB
:10FE66007FF0ACEC7EF03AEF7FF073EC7EF001A809
:10FE76003FEF7FF041EF7FF045EF7FF0ACEC7EF097
:10FE860047EF7FF073EC7EF001A64CEF7FF04EEF6C
:10FE96007FF052EF7FF0ACEC7EF054EF7FF073EC26
:10FEA6007EF001A459EF7FF05BEF7FF05FEF7FF00C
:10FEB600ACEC7EF061EF7FF073EC7EF001A266EFB2
:10FEC6007FF068EF7FF06CEF7FF0ACEC7EF06EEFCA
:10FED6007FF073EC7EF001A073EF7FF075EF7FF09B
:10FEE60079EF7FF0ACEC7EF07BEF7FF073EC7EF089
:10FEF600120079EC7EF0690E026E960E036E960E77
:10FF0600046E960E9EEC7EF0690E026E960E036EE1
:10FF1600960E046E960E9EEC7EF0690E026E960E9E
:10FF2600036E960E046E960E9EEC7EF0690E026EC1
:10FF3600960E036E960E046E960E9EEC7EF0690E7D
:10FF4600026E960E036E960E046E960E9EEC7EF074
:10FF5600690E026E960E036E960E046E960E9EEC5B
:10FF66007EF0690E026E960E036E960E046E960E67
:10FF76009EEC7EF0690E026E960E036E960E046E71
:10FF8600960E9EEC7EF0690E026E960E036E960E2F
:10FF9600046E960E9EEC7EF0690E026E960E036E51
:10FFA600960E046E960E9EEC7EF0690E026E960E0E
:10FFB600036E960E046E960E9EEC7EF0690E026E31
:10FFC600960E036E960E046E960E9EEC7EF0690EED
:10FFD600026E960E036E960E046E960E9EEC7EF0E4
:10FFE600D00E066ECA0EE82EFED7062EFCD7F3EF0D
:0AFFF6007FF0FEEF7FF076EF7EF063
:020000040020DA
:10000000FF0FFF0FFF0FFF0FFF0FFF0FFF0FFF0F80
:10001000FF0FFF0FFF0FFF0FFF0FFF0FFF0FFF0F70
:020000040030CA
:0A0000008CFFF7FF9FFFFFFFFFFFDB
:00000001FF
