:04000000FEEF7FF0A0
:10DA4E003B0E0301EC6F1200BF8800F000F000F0F7
:10DA5E00BF98120068EC6DF0C6EC6DF05AEC6DF0EC
:10DA6E001CEC6EF01200376A366A356A346A000EA4
:10DA7E00F86E0001ACEF6FF0046E0250BCEC6EF06D
:10DA8E000450BCEC6EF00350BCEC6EF01200380E7D
:10DA9E000001456F0250446F01C543F0F80E411767
:10DAAE00408146511200600E0001AD6F000EAF6F47
:10DABE00000EB36F080EB16F000EB06F000EAC6F9C
:10DACE001200000E0001636F000E646F000E656F92
:10DADE00000E666F000E676F000E686F1200BF8833
:10DAEE0000F000F000F000F000F000F000F000F0A8
:10DAFE0000F000F000F0BF9800F000F000F012000F
:10DB0E00056E05C5ECF30301F38FF39DF381F3B1BD
:10DB1E0093EF6DF095EF6DF08EEF6DF0EB51046EAF
:10DB2E00036AEA510324016E000E0420026E1200F5
:10DB3E00000ED6BE010E046E380E0001456F025067
:10DB4E00446F01C543F003C546F04151F80B03097C
:10DB5E00416FD69E550E426FAA0E426F408140B164
:10DB6E00BBEF6DF0BDEF6DF0B6EF6DF004B002D00F
:10DB7E00D69E01D0D68EF80E000141171200000E6F
:10DB8E00BE6E000EBF6E000EC06E1F0EC66EE00E95
:10DB9E00C76E570EC86EAF0E0401106F600E086F81
:10DBAE00270E006F800E096F100E016F500E116F51
:10DBBE00000E026F000E0A6F000E126F370E036F0B
:10DBCE00F00E0B6F13693F0E046FF00E0C6F14699D
:10DBDE0012000A6E000E0B6E000E0C6E000E0D6E15
:10DBEE00000E0E6E05C502F506C503F50A5043EC90
:10DBFE006DF00E2A140E0E6407EF6EF009EF6EF044
:10DC0E00F9EF6DF0010E0B26000E0C22000E0D2208
:10DC1E000D500C1009E1100E0B5CD8A019EF6EF030
:10DC2E001BEF6EF0F7EF6DF01200000E0301D96FCF
:10DC3E00000EDA6F000EDB6F000EDC6F000EDF6F72
:10DC4E00000EE06F000EE56F000EE76F000EEC6F3A
:10DC5E00000EEE6F000EEF6F000EF06F000EF16F04
:10DC6E00000EF26F000EF46F100EF56F000EF66FD1
:10DC7E00000EF76F000EF86F000EF96F1F0EFA6FA1
:10DC8E00840EF36F1200000E096E000E0A6E000E67
:10DC9E000B6E000E0C6E01A057EF6EF059EF6EF08A
:10DCAE0061EF6EF00550092606500A2207500B222E
:10DCBE0008500C22D8900536063607360836D8900E
:10DCCE0004320332023201320150021003100410EA
:10DCDE00D8A474EF6EF076EF6EF052EF6EF009C5C9
:10DCEE0001F50AC502F50BC503F50CC504F51200C6
:10DCFE001F501B5C016E20501C58026E21501D5887
:10DD0E00036E22501E58046E27502B5C056E285051
:10DD1E002C58066E29502D58076E2A502E58086E14
:10DD2E004AEC6EF001C50DF502C50EF503C50FF5F3
:10DD3E0004C510F51F50235C116E20502458126E2E
:10DD4E0021502558136E22502658146E26EC6FF073
:10DD5E0027500D241B6E28500E201C6E29500F20AC
:10DD6E001D6E2A5010201E6E1200016E01AEC2EF03
:10DD7E006EF0C4EF6EF0C8EF6EF076EC6DF0CAEF99
:10DD8E006EF02BEC6DF001ACCFEF6EF0D1EF6EF0CC
:10DD9E00D5EF6EF076EC6DF0D7EF6EF02BEC6DF0FC
:10DDAE0001AADCEF6EF0DEEF6EF0E2EF6EF076ECD5
:10DDBE006DF0E4EF6EF02BEC6DF001A8E9EF6EF074
:10DDCE00EBEF6EF0EFEF6EF076EC6DF0F1EF6EF0D4
:10DDDE002BEC6DF001A6F6EF6EF0F8EF6EF0FCEFA7
:10DDEE006EF076EC6DF0FEEF6EF02BEC6DF001A4A4
:10DDFE0003EF6FF005EF6FF009EF6FF076EC6DF05B
:10DE0E000BEF6FF02BEC6DF001A210EF6FF012EF35
:10DE1E006FF016EF6FF076EC6DF018EF6FF02BECF5
:10DE2E006DF001A01DEF6FF01FEF6FF023EF6FF09D
:10DE3E0076EC6DF025EF6FF02BEC6DF01200000E0E
:10DE4E00166E14BE2FEF6FF02DEF6FF039EF6FF0EF
:10DE5E00141E131E121E116C000E122213221422F7
:10DE6E00010E166E10BE40EF6FF03EEF6FF04AEFF0
:10DE7E006FF0101E0F1E0E1E0D6C000E0E220F22C6
:10DE8E001022010E161A000E176E000E186E000EDE
:10DE9E00196E000E1A6E1150121013101410D8B401
:10DEAE005BEF6FF05DEF6FF093EF6FF0010E156E9D
:10DEBE0067EF6FF0D8901136123613361436152AD6
:10DECE0014AE6CEF6FF06EEF6FF061EF6FF0D890F5
:10DEDE001736183619361A3611500D5C12500E5868
:10DEEE0013500F5814501058D8A080EF6FF082EFD7
:10DEFE006FF08BEF6FF011500D5E12500E5A1350E3
:10DF0E000F5A1450105A1780D890143213321232FE
:10DF1E001132152E6EEF6FF01650D8B499EF6FF0D8
:10DF2E009BEF6FF0A3EF6FF01A1E191E181E176CE1
:10DF3E00000E182219221A2217C50DF518C50EF556
:10DF4E0019C50FF51AC510F5120031EC6DF0000E63
:10DF5E0005018F6F140E7E6F6D69320E6E6F000E9F
:10DF6E006F6F000E7A6F000E7B6F000E7D6F000ECE
:10DF7E007C6F000E886F000E896F000E8A6F000E88
:10DF8E008B6F000E706F000E716F000E726F000EB1
:10DF9E00736F000E766F000E776F000E786F000EA7
:10DFAE00796F000E626F000E616F000E606F000ED3
:10DFBE00666F000E656F000E686F000E676F000EC5
:10DFCE006A6F000E696F000E6C6F000E6B6F000EA5
:10DFDE00646F000E636F000E756F000E746FC09E3F
:10DFEE00C09ABE9AC096000E936F000E026E030E7C
:10DFFE00016E4EEC6DF0450AD8A408EF70F00AEFF2
:10E00E0070F02AEF70F0000E026E0B0E016E4EECE9
:10E01E006DF005018C6F000E026E0C0E016E4EEC53
:10E02E006DF005018D6F000E026E0F0E016E4EEC3F
:10E03E006DF005018E6F000E026E110E016E4EEC2C
:10E04E006DF005017E6F000E026E040E016E4EEC39
:10E05E006DF0450AD8A436EF70F038EF70F058EF37
:10E06E0070F0000E026E120E016E4EEC6DF0050198
:10E07E007F6F000E026E130E016E4EEC6DF00501F9
:10E08E00806F000E026E140E016E4EEC6DF00501E7
:10E09E00816F000E026E150E016E4EEC6DF00501D5
:10E0AE006D6F000E026E060E016E4EEC6DF0450A9F
:10E0BE00D8A464EF70F066EF70F086EF70F0000E8B
:10E0CE00026E160E016E4EEC6DF00501826F000EA3
:10E0DE00026E180E016E4EEC6DF00501836F000E90
:10E0EE00026E190E016E4EEC6DF00501846F000E7E
:10E0FE00026E1B0E016E4EEC6DF005016E6F000E82
:10E10E00026E080E016E4EEC6DF0450AD8A492EF29
:10E11E0070F094EF70F0B4EF70F0000E026E1E0E01
:10E12E00016E4EEC6DF00501856F000E026E1F0E36
:10E13E00016E4EEC6DF00501866F000E026E200E24
:10E14E00016E4EEC6DF00501876F000E026E220E11
:10E15E00016E4EEC6DF005016F6F000E026E020E39
:10E16E00016E4EEC6DF0450AD8A4C0EF70F0C2EF10
:10E17E0070F075EF71F0000E026E240E016E4EEC13
:10E18E006DF00501936F9305D8A4D0EF70F0D2EF28
:10E19E0070F0E7EF70F0000E026E030E016E4EECA3
:10E1AE006DF0450AD8A4DEEF70F0E0EF70F0E7EF07
:10E1BE0070F0C08EA00E00D0E82EFDD7F2EF70F0FA
:10E1CE0005019305D8A4EEEF70F0F0EF70F0F2EFCA
:10E1DE0070F0000E936F020E05019319D8A4FAEF9A
:10E1EE0070F0FCEF70F011EF71F0000E026E040E85
:10E1FE00016E4EEC6DF0450AD8A408EF71F00AEFEF
:10E20E0071F011EF71F0C08AA00E00D0E82EFDD78C
:10E21E001DEF71F0020E05019319D8A419EF71F0DC
:10E22E001BEF71F01DEF71F0000E936F030E0501E1
:10E23E009319D8A425EF71F027EF71F03CEF71F030
:10E24E00000E026E060E016E4EEC6DF0450AD8A45D
:10E25E0033EF71F035EF71F03CEF71F0BE8AA00E26
:10E26E0000D0E82EFDD748EF71F0030E050193198B
:10E27E00D8A444EF71F046EF71F048EF71F0000E44
:10E28E00936F040E05019319D8A450EF71F052EF5D
:10E29E0071F067EF71F0000E026E080E016E4EEC1B
:10E2AE006DF0450AD8A45EEF71F060EF71F067EF84
:10E2BE0071F0C086A00E00D0E82EFDD775EF71F07C
:10E2CE00040E05019319D8A46FEF71F071EF71F080
:10E2DE0075EF71F0000E936F75EF71F0000ED0BCFC
:10E2EE00010E05017A6F000ECEB8010E7B6F000E87
:10E2FE00D0B8010E7D6F000ECFBE010E7C6F27ECE5
:10E30E006DF0020E87EC6DF001C51BF502C51CF514
:10E31E001D6A1E6A000E1F6E000E206E000E216E0C
:10E32E00000E226EFF0E236E0F0E246E000E256E53
:10E33E00000E266E000E276E000E286E000E296E41
:10E34E00000E2A6EFF0E2B6E000E2C6E000E2D6E22
:10E35E00000E2E6E7FEC6EF01B500501906F27ECB9
:10E36E006DF0100E87EC6DF001C51BF502C51CF5A6
:10E37E001D6A1E6A000E1F6E000E206E000E216EAC
:10E38E00000E226EFF0E236E0F0E246E000E256EF3
:10E39E00000E266E000E276E000E286E000E296EE1
:10E3AE00000E2A6EFF0E2B6E000E2C6E000E2D6EC2
:10E3BE00000E2E6E7FEC6EF01B500501916F27EC58
:10E3CE006DF0110E87EC6DF001C51BF502C51CF545
:10E3DE001D6A1E6A000E1F6E000E206E000E216E4C
:10E3EE00000E226EFF0E236E0F0E246E000E256E93
:10E3FE00000E266E000E276E000E286E000E296E81
:10E40E00000E2A6EFF0E2B6E000E2C6E000E2D6E61
:10E41E00000E2E6E7FEC6EF01B500501926F040EF7
:10E42E00306E400E2F6E260EE82EFED72F2EFCD706
:10E43E00302EFAD700D0BAEF7FF091C505F592C510
:10E44E0006F52C0E076E010E086E000E096E905129
:10E45E00F0EC6DF0E40E00D000D0E82EFCD700D02A
:10E46E0000D0D0BC3DEF72F03FEF72F06AEF72F069
:10E47E0005017A51D8B446EF72F048EF72F06AEFA8
:10E48E0072F08851D8A44EEF72F050EF72F06AEF2E
:10E49E0072F08951D8A456EF72F058EF72F06AEF0D
:10E4AE0072F08A51D8A45EEF72F060EF72F06AEFEC
:10E4BE0072F08B51D8A466EF72F068EF72F06AEFCB
:10E4CE0072F0050E936FCEB86FEF72F071EF72F0BF
:10E4DE009CEF72F005017B51D8B478EF72F07AEFB1
:10E4EE0072F09CEF72F08851D8A480EF72F082EF38
:10E4FE0072F09CEF72F08951D8A488EF72F08AEF17
:10E50E0072F09CEF72F08A51D8A490EF72F092EFF5
:10E51E0072F09CEF72F08B51D8A498EF72F09AEFD4
:10E52E0072F09CEF72F0060E936FD0B8A1EF72F0FE
:10E53E00A3EF72F0CEEF72F005017D51D8B4AAEFC1
:10E54E0072F0ACEF72F0CEEF72F08851D8A4B2EF49
:10E55E0072F0B4EF72F0CEEF72F08951D8A4BAEF28
:10E56E0072F0BCEF72F0CEEF72F08A51D8A4C2EF07
:10E57E0072F0C4EF72F0CEEF72F08B51D8A4CAEFE6
:10E58E0072F0CCEF72F0CEEF72F0070E936FCFBE3B
:10E59E00D3EF72F0D5EF72F000EF73F005017C51FE
:10E5AE00D8B4DCEF72F0DEEF72F000EF73F088514A
:10E5BE00D8A4E4EF72F0E6EF72F000EF73F0895139
:10E5CE00D8A4ECEF72F0EEEF72F000EF73F08A5118
:10E5DE00D8A4F4EF72F0F6EF72F000EF73F08B51F7
:10E5EE00D8A4FCEF72F0FEEF72F000EF73F0080E9D
:10E5FE00936F05018851D8A407EF73F009EF73F0FC
:10E60E0021EF73F08951D8A40FEF73F011EF73F06F
:10E61E0021EF73F08A51D8A417EF73F019EF73F04E
:10E62E0021EF73F08B51D8B41FEF73F021EF73F01D
:10E63E0039EF73F0634B642BFA0E63196411D8A48F
:10E64E002BEF73F02DEF73F039EF73F0000E646F54
:10E65E00000E636F000E886F000E896F000E8A6FBA
:10E66E00000E8B6F8851D8B43FEF73F041EF73F00B
:10E67E005EEF73F0752B060E7519D8A449EF73F083
:10E68E004BEF73F05EEF73F0000E756FC0AE52EF8E
:10E69E0073F056EF73F02F6A2F2A57EF73F02F6A2D
:10E6AE002F322F32C0502F187F0B2F18C06E05013E
:10E6BE008951D8B465EF73F067EF73F084EF73F0A0
:10E6CE00752B060E7519D8A46FEF73F071EF73F0FA
:10E6DE0084EF73F0000E756FC0AA78EF73F07CEFC5
:10E6EE0073F02F6A2F2A7DEF73F02F6A2F3A2F4681
:10E6FE00C0502F18DF0B2F18C06E05018A51D8B4E9
:10E70E008BEF73F08DEF73F0AAEF73F0752B060E8F
:10E71E007519D8A495EF73F097EF73F0AAEF73F015
:10E72E00000E756FBEAA9EEF73F0A2EF73F02F6A04
:10E73E002F2AA3EF73F02F6A2F3A2F46BE502F18B1
:10E74E00DF0B2F18BE6E05018B51D8B4B1EF73F0ED
:10E75E00B3EF73F0D1EF73F0752B060E7519D8A4C5
:10E76E00BBEF73F0BDEF73F0D1EF73F0000E756F6A
:10E77E00C0A6C4EF73F0C8EF73F02F6A2F2AC9EF4B
:10E78E0073F02F6A2F462F462F46C0502F18F70BC7
:10E79E002F18C06E05018851D8A4D8EF73F0DAEFA8
:10E7AE0073F0F8EF73F08951D8A4E0EF73F0E2EF55
:10E7BE0073F0F8EF73F08A51D8A4E8EF73F0EAEF34
:10E7CE0073F0F8EF73F08B51D8A4F0EF73F0F2EF13
:10E7DE0073F0F8EF73F0000E756FC09EC09ABE9A7C
:10E7EE00C0968851D8B4FEEF73F000EF74F041EF8D
:10E7FE0074F0D0BC05EF74F007EF74F041EF74F0D5
:10E80E007A51D8B40DEF74F00FEF74F041EF74F04D
:10E81E0090C58CF591C58DF592C58EF58FC57EF59B
:10E82E00000E886F000E026E0F0E016E8EC503F580
:10E83E009FEC6DF0000E026E0C0E016E8DC503F591
:10E84E009FEC6DF0000E026E0B0E016E8CC503F583
:10E85E009FEC6DF0000E026E110E016E7EC503F57B
:10E86E009FEC6DF0000E026E030E016E450E036EF0
:10E87E009FEC6DF005018951D8B448EF74F04AEF62
:10E88E0074F08BEF74F0CEB84FEF74F051EF74F06C
:10E89E008BEF74F07B51D8B457EF74F059EF74F0DE
:10E8AE008BEF74F090C57FF591C580F592C581F51B
:10E8BE008FC56DF5000E896F000E026E140E016E7F
:10E8CE0081C503F59FEC6DF0000E026E130E016E06
:10E8DE0080C503F59FEC6DF0000E026E120E016EF8
:10E8EE007FC503F59FEC6DF0000E026E150E016EE6
:10E8FE006DC503F59FEC6DF0000E026E040E016EF9
:10E90E00450E036E9FEC6DF005018A51D8B492EF5F
:10E91E0074F094EF74F0D5EF74F0D0B899EF74F002
:10E92E009BEF74F0D5EF74F07D51D8B4A1EF74F075
:10E93E00A3EF74F0D5EF74F090C582F591C583F511
:10E94E0092C584F58FC56EF5000E8A6F000E026EAD
:10E95E00190E016E84C503F59FEC6DF0000E026E6C
:10E96E00180E016E83C503F59FEC6DF0000E026E5E
:10E97E00160E016E82C503F59FEC6DF0000E026E51
:10E98E001B0E016E6EC503F59FEC6DF0000E026E50
:10E99E00060E016E450E036E9FEC6DF005018B5158
:10E9AE00D8B4DCEF74F0DEEF74F01FEF75F0CFBE6D
:10E9BE00E3EF74F0E5EF74F01FEF75F07C51D8B40F
:10E9CE00EBEF74F0EDEF74F01FEF75F090C585F579
:10E9DE0091C586F592C587F58FC56FF5000E8B6FC5
:10E9EE00000E026E200E016E87C503F59FEC6DF0D2
:10E9FE00000E026E1F0E016E86C503F59FEC6DF0C4
:10EA0E00000E026E1E0E016E85C503F59FEC6DF0B5
:10EA1E00000E026E220E016E6FC503F59FEC6DF0B7
:10EA2E00000E026E080E016E450E036E9FEC6DF029
:10EA3E00D0AC24EF75F026EF75F02BEF75F0000ECD
:10EA4E000501666F000E656FCEA830EF75F032EFE0
:10EA5E0075F037EF75F0000E0501686F000E676FE9
:10EA6E00D0A83CEF75F03EEF75F043EF75F0000E59
:10EA7E0005016A6F000E696FCFAE48EF75F04AEF71
:10EA8E0075F075EF71F0000E05016C6F000E6B6F77
:10EA9E0075EF71F0D0AC56EF75F058EF75F079EF69
:10EAAE0075F0C08E8DC505F58EC506F52C0E076E5C
:10EABE00010E086E000E096E8C51F0EC6DF0010E19
:10EACE000501936F000E026E240E016E93C503F5C1
:10EADE009FEC6DF0000E026E020E016E450E036E7F
:10EAEE009FEC6DF0D0BC7EEF75F080EF75F075EF9A
:10EAFE0071F00501654B662B7D0E65196611D8A464
:10EB0E008BEF75F08DEF75F075EF71F0000E666F8F
:10EB1E00000E656F010E886F000E936F000E026E71
:10EB2E00240E016E93C503F59FEC6DF0000E026E80
:10EB3E00020E016E450E036E9FEC6DF075EF71F0D7
:10EB4E00CEA8ACEF75F0AEEF75F0CFEF75F0C08AD2
:10EB5E0080C505F581C506F52C0E076E010E086EF3
:10EB6E00000E096E7F51F0EC6DF0020E0501936FF1
:10EB7E00000E026E240E016E93C503F59FEC6DF030
:10EB8E00000E026E020E016E450E036E9FEC6DF0CE
:10EB9E00CEB8D4EF75F0D6EF75F075EF71F00501C4
:10EBAE00674B682B7D0E67196811D8A4E1EF75F0DD
:10EBBE00E3EF75F075EF71F0000E686F000E676F82
:10EBCE00010E896F000E936F95EF75F0D0A8F2EFDE
:10EBDE0075F0F4EF75F015EF76F0BE8A83C505F586
:10EBEE0084C506F52C0E076E010E086E000E096E1A
:10EBFE008251F0EC6DF0030E0501936F000E026E64
:10EC0E00240E016E93C503F59FEC6DF0000E026E9F
:10EC1E00020E016E450E036E9FEC6DF0D0B81AEF2A
:10EC2E0076F01CEF76F075EF71F00501694B6A2BEB
:10EC3E007D0E69196A11D8A427EF76F029EF76F0C8
:10EC4E0075EF71F0000E6A6F000E696F010E8A6F1C
:10EC5E00000E936F95EF75F0CFAE38EF76F03AEF7A
:10EC6E0076F05BEF76F0C08686C505F587C506F5AE
:10EC7E002C0E076E010E086E000E096E8551F0EC1B
:10EC8E006DF0040E0501936F000E026E240E016EE0
:10EC9E0093C503F59FEC6DF0000E026E020E016E31
:10ECAE00450E036E9FEC6DF0CFBE60EF76F062EF17
:10ECBE0076F075EF71F005016B4B6C2B7D0E6B19B9
:10ECCE006C11D8A46DEF76F06FEF76F075EF71F0F2
:10ECDE00000E6C6F000E6B6F010E8B6F000E936F3C
:10ECEE0095EF75F0D0AC7EEF76F080EF76F093EF87
:10ECFE0076F0C09E000E936F000E026E240E016E13
:10ED0E0093C503F59FEC6DF0000E026E020E016EC0
:10ED1E00450E036E9FEC6DF0D0BC98EF76F09AEF37
:10ED2E0076F075EF71F00501654B662B7D0E65195A
:10ED3E006611D8A4A5EF76F0A7EF76F075EF71F017
:10ED4E00000E666F000E656F010E706F010E936FF1
:10ED5E0075EF71F0CEA8B6EF76F0B8EF76F0CBEF98
:10ED6E0076F0C09A000E936F000E026E240E016EA6
:10ED7E0093C503F59FEC6DF0000E026E020E016E50
:10ED8E00450E036E9FEC6DF0CEB8D0EF76F0D2EF5D
:10ED9E0076F075EF71F00501674B682B7D0E6719E4
:10EDAE006811D8A4DDEF76F0DFEF76F075EF71F035
:10EDBE00000E686F000E676F010E716F020E936F7B
:10EDCE0075EF71F0D0A8EEEF76F0F0EF76F003EF7E
:10EDDE0077F0BE9A000E936F000E026E240E016E37
:10EDEE0093C503F59FEC6DF0000E026E020E016EE0
:10EDFE00450E036E9FEC6DF0D0B808EF77F00AEF7A
:10EE0E0077F075EF71F00501694B6A2B7D0E69196C
:10EE1E006A11D8A415EF77F017EF77F075EF71F050
:10EE2E00000E6A6F000E696F010E726F030E936F04
:10EE3E0075EF71F0CFAE26EF77F028EF77F03BEF5E
:10EE4E0077F0C096000E936F000E026E240E016EC8
:10EE5E0093C503F59FEC6DF0000E026E020E016E6F
:10EE6E00450E036E9FEC6DF0CFBE40EF77F042EF94
:10EE7E0077F075EF71F005016B4B6C2B7D0E6B19F6
:10EE8E006C11D8A44DEF77F04FEF77F075EF71F06E
:10EE9E00000E6C6F000E6B6F010E736F040E936F8E
:10EEAE0075EF71F08DC505F58EC506F52C0E076E46
:10EEBE00010E086E000E096E8C51F0EC6DF005011E
:10EECE007051D8B46DEF77F06FEF77F08CEF77F07D
:10EEDE00742B060E7419D8A477EF77F079EF77F0CC
:10EEEE008CEF77F0000E746FC0AE80EF77F084EF8A
:10EEFE0077F02F6A2F2A85EF77F02F6A2F322F3275
:10EF0E00C0502F187F0B2F18C06ED0BC91EF77F02A
:10EF1E0093EF77F0A6EF77F005017A51D8B49AEF18
:10EF2E0077F09CEF77F0A6EF77F07051D8A4A2EFB0
:10EF3E0077F0A4EF77F0A6EF77F0090E936FD0BCC1
:10EF4E00ABEF77F0ADEF77F0F1EF77F005017A5197
:10EF5E00D8B4B4EF77F0B6EF77F0F1EF77F07051F9
:10EF6E00D8B4BCEF77F0BEEF77F0F1EF77F0C08E4C
:10EF7E00000E706F000E766F000E776F000E786FBA
:10EF8E00000E796F000E026E0F0E016E8EC503F528
:10EF9E009FEC6DF0000E026E0C0E016E8DC503F52A
:10EFAE009FEC6DF0000E026E0B0E016E8CC503F51C
:10EFBE009FEC6DF0000E026E110E016E7EC503F514
:10EFCE009FEC6DF0000E026E030E016E450E036E89
:10EFDE009FEC6DF005017051D8B4F8EF77F0FAEFB1
:10EFEE0077F0EEEF78F0FB0E8C252F6E306AFF0E69
:10EFFE0030229051316E326A2F50315C3250800A7D
:10F00E00336E3050800A3358D8A010EF78F012EFDC
:10F01E0078F02DEF78F090512F6E306A8C51316E62
:10F02E00326A050E3126000E32222F50315C3250DC
:10F03E00800A336E3050800A3358D8A029EF78F00A
:10F04E002BEF78F02DEF78F0010E766F7651D8B465
:10F05E0033EF78F035EF78F037EF78F090C58CF528
:10F06E00FB0E7E252F6E306AFF0E30228F51316ED1
:10F07E00326A2F50315C3250800A336E3050800A23
:10F08E003358D8A04DEF78F04FEF78F06AEF78F064
:10F09E008F512F6E306A7E51316E326A050E3126D7
:10F0AE00000E32222F50315C3250800A336E3050B7
:10F0BE00800A3358D8A066EF78F068EF78F06AEFE0
:10F0CE0078F0010E796F7951D8B470EF78F072EF55
:10F0DE0078F074EF78F08FC57EF5FB0E8D252F6ED0
:10F0EE00306AFF0E30229151316E326A2F50315CF0
:10F0FE003250800A336E3050800A3358D8A08AEFCF
:10F10E0078F08CEF78F0A7EF78F091512F6E306A8F
:10F11E008D51316E326A050E3126000E32222F507D
:10F12E00315C3250800A336E3050800A3358D8A08A
:10F13E00A3EF78F0A5EF78F0A7EF78F0010E776FD8
:10F14E007751D8B4ADEF78F0AFEF78F0B1EF78F04B
:10F15E0091C58DF5FB0E8E252F6E306AFF0E302277
:10F16E009251316E326A2F50315C3250800A336EBA
:10F17E003050800A3358D8A0C7EF78F0C9EF78F036
:10F18E00E4EF78F092512F6E306A8E51316E326A02
:10F19E00050E3126000E32222F50315C3250800A7D
:10F1AE00336E3050800A3358D8A0E0EF78F0E2EF9B
:10F1BE0078F0E4EF78F0010E786F7851D8B4EAEF7A
:10F1CE0078F0ECEF78F0EEEF78F092C58EF5CEB8E1
:10F1DE00F3EF78F0F5EF78F01FEF79F07B51D8B4BC
:10F1EE00FBEF78F0FDEF78F01FEF79F0C09EC08A4C
:10F1FE0080C505F581C506F52C0E076E010E086E4D
:10F20E00000E096E7F51F0EC6DF0020E0501936F4A
:10F21E00000E026E240E016E93C503F59FEC6DF089
:10F22E00000E026E020E016E450E036E9FEC6DF027
:10F23E00D0B824EF79F026EF79F051EF79F005018F
:10F24E007D51D8B42DEF79F02FEF79F051EF79F0A1
:10F25E00C09EBE8A83C505F584C506F52C0E076EC5
:10F26E00010E086E000E096E8251F0EC6DF0030E69
:10F27E000501936F000E026E240E016E93C503F509
:10F28E009FEC6DF0000E026E020E016E450E036EC7
:10F29E009FEC6DF0CFBE56EF79F058EF79F075EF29
:10F2AE0071F005017C51D8B45FEF79F061EF79F020
:10F2BE0075EF71F0C09EC08686C505F587C506F54B
:10F2CE002C0E076E010E086E000E096E8551F0ECC5
:10F2DE006DF0040E0501936F95EF75F080C505F581
:10F2EE0081C506F52C0E076E010E086E000E096E16
:10F2FE007F51F0EC6DF005017151D8B489EF79F0C2
:10F30E008BEF79F0A8EF79F0742B060E7419D8A450
:10F31E0093EF79F095EF79F0A8EF79F0000E746F16
:10F32E00C0AA9CEF79F0A0EF79F02F6A2F2AA1EFF7
:10F33E0079F02F6A2F3A2F46C0502F18DF0B2F1857
:10F34E00C06ECEB8ADEF79F0AFEF79F0C2EF79F0D5
:10F35E0005017B51D8B4B6EF79F0B8EF79F0C2EF72
:10F36E0079F07151D8A4BEEF79F0C0EF79F0C2EF09
:10F37E0079F00A0E936FCEB8C7EF79F0C9EF79F036
:10F38E000DEF7AF005017B51D8B4D0EF79F0D2EFC2
:10F39E0079F00DEF7AF07151D8B4D8EF79F0DAEF49
:10F3AE0079F00DEF7AF0C08A000E716F000E766F55
:10F3BE00000E776F000E786F000E796F000E026EE2
:10F3CE00140E016E8EC503F59FEC6DF0000E026EED
:10F3DE00130E016E8DC503F59FEC6DF0000E026EDF
:10F3EE00120E016E8CC503F59FEC6DF0000E026ED1
:10F3FE00150E016E7EC503F59FEC6DF0000E026ECC
:10F40E00040E016E450E036E9FEC6DF005017151F9
:10F41E00D8B414EF7AF016EF7AF00AEF7BF0FB0E09
:10F42E007F252F6E306AFF0E30229051316E326A78
:10F43E002F50315C3250800A336E3050800A335870
:10F44E00D8A02CEF7AF02EEF7AF049EF7AF09051A7
:10F45E002F6E306A7F51316E326A050E3126000EE4
:10F46E0032222F50315C3250800A336E3050800A77
:10F47E003358D8A045EF7AF047EF7AF049EF7AF09B
:10F48E00010E766F7651D8B44FEF7AF051EF7AF0D5
:10F49E0053EF7AF090C57FF5FB0E6D252F6E306A17
:10F4AE00FF0E30228F51316E326A2F50315C325046
:10F4BE00800A336E3050800A3358D8A069EF7AF044
:10F4CE006BEF7AF086EF7AF08F512F6E306A6D51B6
:10F4DE00316E326A050E3126000E32222F50315C0B
:10F4EE003250800A336E3050800A3358D8A082EFE3
:10F4FE007AF084EF7AF086EF7AF0010E796F795117
:10F50E00D8B48CEF7AF08EEF7AF090EF7AF08FC558
:10F51E006DF5FB0E80252F6E306AFF0E3022915155
:10F52E00316E326A2F50315C3250800A336E305059
:10F53E00800A3358D8A0A6EF7AF0A8EF7AF0C3EF7E
:10F54E007AF091512F6E306A8051316E326A050E0B
:10F55E003126000E32222F50315C3250800A336E2B
:10F56E003050800A3358D8A0BFEF7AF0C1EF7AF04E
:10F57E00C3EF7AF0010E776F7751D8B4C9EF7AF0F6
:10F58E00CBEF7AF0CDEF7AF091C580F5FB0E8125A9
:10F59E002F6E306AFF0E30229251316E326A2F502A
:10F5AE00315C3250800A336E3050800A3358D8A006
:10F5BE00E3EF7AF0E5EF7AF000EF7BF092512F6EE9
:10F5CE00306A8151316E326A050E3126000E3222BA
:10F5DE002F50315C3250800A336E3050800A3358CF
:10F5EE00D8A0FCEF7AF0FEEF7AF000EF7BF0010E80
:10F5FE00786F7851D8B406EF7BF008EF7BF00AEF06
:10F60E007BF092C581F5D0BC0FEF7BF011EF7BF054
:10F61E003BEF7BF07A51D8B417EF7BF019EF7BF00C
:10F62E003BEF7BF0C09AC08E8DC505F58EC506F5F5
:10F63E002C0E076E010E086E000E096E8C51F0EC4A
:10F64E006DF0010E0501936F000E026E240E016E19
:10F65E0093C503F59FEC6DF0000E026E020E016E67
:10F66E00450E036E9FEC6DF0D0B840EF7BF042EF8D
:10F67E007BF06DEF7BF005017D51D8B449EF7BF047
:10F68E004BEF7BF06DEF7BF0C09ABE8A83C505F51C
:10F69E0084C506F52C0E076E010E086E000E096E5F
:10F6AE008251F0EC6DF0030E0501936F000E026EA9
:10F6BE00240E016E93C503F59FEC6DF0000E026EE5
:10F6CE00020E016E450E036E9FEC6DF0CFBE72EF13
:10F6DE007BF074EF7BF075EF71F005017C51D8B4BF
:10F6EE007BEF7BF07DEF7BF075EF71F0C09AC086FB
:10F6FE0086C505F587C506F52C0E076E010E086E3C
:10F70E00000E096E8551F0EC6DF070EF79F083C547
:10F71E0005F584C506F52C0E076E010E086E000E5B
:10F72E00096E8251F0EC6DF005017251D8B4A2EF62
:10F73E007BF0A4EF7BF0C1EF7BF0742B060E7419F7
:10F74E00D8A4ACEF7BF0AEEF7BF0C1EF7BF0000EF8
:10F75E00746FBEAAB5EF7BF0B9EF7BF02F6A2F2A3C
:10F76E00BAEF7BF02F6A2F3A2F46BE502F18DF0BC1
:10F77E002F18BE6ED0B8C6EF7BF0C8EF7BF0DBEF74
:10F78E007BF005017D51D8B4CFEF7BF0D1EF7BF04C
:10F79E00DBEF7BF07251D8A4D7EF7BF0D9EF7BF083
:10F7AE00DBEF7BF00B0E936FD0B8E0EF7BF0E2EF68
:10F7BE007BF026EF7CF005017D51D8B4E9EF7BF0AC
:10F7CE00EBEF7BF026EF7CF07251D8B4F1EF7BF0CB
:10F7DE00F3EF7BF026EF7CF0BE8A000E726F000E08
:10F7EE00766F000E776F000E786F000E796F000E39
:10F7FE00026E190E016E8EC503F59FEC6DF0000EB4
:10F80E00026E180E016E8DC503F59FEC6DF0000EA5
:10F81E00026E160E016E8CC503F59FEC6DF0000E98
:10F82E00026E1B0E016E7EC503F59FEC6DF0000E91
:10F83E00026E060E016E450E036E9FEC6DF0000E0D
:10F84E00D0B8010E05017D6F7251D8B431EF7CF046
:10F85E0033EF7CF027EF7DF0FB0E82252F6E306AA2
:10F86E00FF0E30229051316E326A2F50315C325081
:10F87E00800A336E3050800A3358D8A049EF7CF09E
:10F88E004BEF7CF066EF7CF090512F6E306A825118
:10F89E00316E326A050E3126000E32222F50315C47
:10F8AE003250800A336E3050800A3358D8A062EF3F
:10F8BE007CF064EF7CF066EF7CF0010E766F765193
:10F8CE00D8B46CEF7CF06EEF7CF070EF7CF090C5EE
:10F8DE0082F5FB0E6E252F6E306AFF0E30228F5191
:10F8EE00316E326A2F50315C3250800A336E305096
:10F8FE00800A3358D8A086EF7CF088EF7CF0A3EF17
:10F90E007CF08F512F6E306A6E51316E326A050E59
:10F91E003126000E32222F50315C3250800A336E67
:10F92E003050800A3358D8A09FEF7CF0A1EF7CF0C6
:10F93E00A3EF7CF0010E796F7951D8B4A9EF7CF06A
:10F94E00ABEF7CF0ADEF7CF08FC56EF5FB0E832533
:10F95E002F6E306AFF0E30229151316E326A2F5067
:10F96E00315C3250800A336E3050800A3358D8A042
:10F97E00C3EF7CF0C5EF7CF0E0EF7CF091512F6E81
:10F98E00306A8351316E326A050E3126000E3222F4
:10F99E002F50315C3250800A336E3050800A33580B
:10F9AE00D8A0DCEF7CF0DEEF7CF0E0EF7CF0010E17
:10F9BE00776F7751D8B4E6EF7CF0E8EF7CF0EAEFA2
:10F9CE007CF091C583F5FB0E84252F6E306AFF0EF9
:10F9DE0030229251316E326A2F50315C3250800A91
:10F9EE00336E3050800A3358D8A000EF7DF002EF0E
:10F9FE007DF01DEF7DF092512F6E306A8451316E85
:10FA0E00326A050E3126000E32222F50315C3250F2
:10FA1E00800A336E3050800A3358D8A019EF7DF02B
:10FA2E001BEF7DF01DEF7DF0010E786F7851D8B48D
:10FA3E0023EF7DF025EF7DF027EF7DF092C584F565
:10FA4E00D0BC2CEF7DF02EEF7DF058EF7DF07A518B
:10FA5E00D8B434EF7DF036EF7DF058EF7DF0BE9ADE
:10FA6E00C08E8DC505F58EC506F52C0E076E010EE2
:10FA7E00086E000E096E8C51F0EC6DF0010E050152
:10FA8E00936F000E026E240E016E93C503F59FEC6C
:10FA9E006DF0000E026E020E016E450E036E9FECAF
:10FAAE006DF0CEB85DEF7DF05FEF7DF08AEF7DF00B
:10FABE0005017B51D8B466EF7DF068EF7DF08AEFDB
:10FACE007DF0BE9AC08A80C505F581C506F52C0E5F
:10FADE00076E010E086E000E096E7F51F0EC6DF090
:10FAEE00020E0501936F000E026E240E016E93C579
:10FAFE0003F59FEC6DF0000E026E020E016E450EC8
:10FB0E00036E9FEC6DF0CFBE8FEF7DF091EF7DF029
:10FB1E0075EF71F005017C51D8B498EF7DF09AEF36
:10FB2E007DF075EF71F0BE9AC08686C505F587C566
:10FB3E0006F52C0E076E010E086E000E096E85512D
:10FB4E00F0EC6DF070EF79F086C505F587C506F51A
:10FB5E002C0E076E010E086E000E096E8551F0EC2C
:10FB6E006DF005017351D8B4BFEF7DF0C1EF7DF09C
:10FB7E00DFEF7DF0742B060E7419D8A4C9EF7DF05B
:10FB8E00CBEF7DF0DFEF7DF0000E746FC0A6D2EFED
:10FB9E007DF0D6EF7DF02F6A2F2AD7EF7DF02F6AFA
:10FBAE002F462F462F46C0502F18F70B2F18C06E1A
:10FBBE00CFBEE4EF7DF0E6EF7DF0F9EF7DF00501CD
:10FBCE007C51D8B4EDEF7DF0EFEF7DF0F9EF7DF0E5
:10FBDE007351D8A4F5EF7DF0F7EF7DF0F9EF7DF0DE
:10FBEE000C0E936FCFBEFEEF7DF000EF7EF044EF74
:10FBFE007EF005017C51D8B407EF7EF009EF7EF060
:10FC0E0044EF7EF07351D8B40FEF7EF011EF7EF01B
:10FC1E0044EF7EF0C086000E736F000E766F000EFE
:10FC2E00776F000E786F000E796F000E026E200E49
:10FC3E00016E8EC503F59FEC6DF0000E026E1F0E69
:10FC4E00016E8DC503F59FEC6DF0000E026E1E0E5B
:10FC5E00016E8CC503F59FEC6DF0000E026E220E48
:10FC6E00016E7EC503F59FEC6DF0000E026E080E60
:10FC7E00016E450E036E9FEC6DF005017351D8B405
:10FC8E004BEF7EF04DEF7EF041EF7FF0FB0E8525C2
:10FC9E002F6E306AFF0E30229051316E326A2F5025
:10FCAE00315C3250800A336E3050800A3358D8A0FF
:10FCBE0063EF7EF065EF7EF080EF7EF090512F6E59
:10FCCE00306A8551316E326A050E3126000E3222AF
:10FCDE002F50315C3250800A336E3050800A3358C8
:10FCEE00D8A07CEF7EF07EEF7EF080EF7EF0010EEE
:10FCFE00766F7651D8B486EF7EF088EF7EF08AEF7D
:10FD0E007EF090C585F5FB0E6F252F6E306AFF0EC7
:10FD1E0030228F51316E326A2F50315C3250800A50
:10FD2E00336E3050800A3358D8A0A0EF7EF0A2EF89
:10FD3E007EF0BDEF7EF08F512F6E306A6F51316EB7
:10FD4E00326A050E3126000E32222F50315C3250AF
:10FD5E00800A336E3050800A3358D8A0B9EF7EF047
:10FD6E00BBEF7EF0BDEF7EF0010E796F7951D8B406
:10FD7E00C3EF7EF0C5EF7EF0C7EF7EF08FC56FF557
:10FD8E00FB0E86252F6E306AFF0E30229151316E9A
:10FD9E00326A2F50315C3250800A336E3050800AF6
:10FDAE003358D8A0DDEF7EF0DFEF7EF0FAEF7EF075
:10FDBE0091512F6E306A8651316E326A050E3126A0
:10FDCE00000E32222F50315C3250800A336E30508A
:10FDDE00800A3358D8A0F6EF7EF0F8EF7EF0FAEFF7
:10FDEE007EF0010E776F7751D8B400EF7FF002EFFF
:10FDFE007FF004EF7FF091C586F5FB0E87252F6E01
:10FE0E00306AFF0E30229251316E326A2F50315CC1
:10FE1E003250800A336E3050800A3358D8A01AEF11
:10FE2E007FF01CEF7FF037EF7FF092512F6E306A2C
:10FE3E008751316E326A050E3126000E32222F5056
:10FE4E00315C3250800A336E3050800A3358D8A05D
:10FE5E0033EF7FF035EF7FF037EF7FF0010E786FE5
:10FE6E007851D8B43DEF7FF03FEF7FF041EF7FF058
:10FE7E0092C587F5D0BC46EF7FF048EF7FF064EF78
:10FE8E007FF07A51D8B44EEF7FF050EF7FF064EFF1
:10FE9E007FF0C096C08E010E936F000E026E240E80
:10FEAE00016E93C503F59FEC6DF0000E026E020E0F
:10FEBE00016E450E036E9FEC6DF0CEB869EF7FF0CC
:10FECE006BEF7FF096EF7FF005017B51D8B472EFA8
:10FEDE007FF074EF7FF096EF7FF0C096C08A80C5FA
:10FEEE0005F581C506F52C0E076E010E086E000E87
:10FEFE00096E7F51F0EC6DF0020E0501936F000E4E
:10FF0E00026E240E016E93C503F59FEC6DF0000E8C
:10FF1E00026E020E016E450E036E9FEC6DF0D0B8B0
:10FF2E009BEF7FF09DEF7FF075EF71F005017D5136
:10FF3E00D8B4A4EF7FF0A6EF7FF075EF71F0C09606
:10FF4E00BE8A83C505F584C506F52C0E076E010E17
:10FF5E00086E000E096E8251F0EC6DF0030E050175
:10FF6E00936F95EF75F0050193512F6E306A3050F7
:10FF7E00000AD8B4C5EF7FF075EF71F02F50000A6C
:10FF8E00D8B424EF72F0010AD8B459EF77F0030A0F
:10FF9E00D8B475EF79F0010AD8B48EEF7BF0070A6A
:10FFAE00D8B4ABEF7DF0010AD8B451EF75F0030A67
:10FFBE00D8B4A7EF75F0010AD8B4EDEF75F00F0ABB
:10FFCE00D8B433EF76F0010AD8B479EF76F0030A9D
:10FFDE00D8B4B1EF76F0010AD8B4E9EF76F0070A9B
:10FFEE00D8B421EF77F075EF71F0FEEF7FF03AEFB6
:02FFFE006DF0A4
:020000040020DA
:10000000FF0FFF0FFF0FFF0FFF0FFF0FFF0FFF0F80
:10001000FF0FFF0FFF0FFF0FFF0FFF0FFF0FFF0F70
:020000040030CA
:0A0000008CFFF7FF9FFFFFFFFFFFDB
:00000001FF
