:04000000FEEF7FF0A0
:10E20C003B0E0301EC6F120041EC71F0AFEC71F0BE
:10E21C0033EC71F0D9EC71F01200376A366A356A5A
:10E22C00346A000EF86E0001ECEF73F0046E0250CD
:10E23C00FCEC72F00450FCEC72F00350FCEC72F04D
:10E24C001200380E0001456F0250446F01C543F0B7
:10E25C00F80E4117408146511200600E0001AD6F5F
:10E26C00000EAF6F000EB36F080EB16F000EB06FE3
:10E27C00000EAC6F1200000E0001636F000E646F95
:10E28C00000E656F000E666F000E676F000E686FF4
:10E29C001200BF8800F000F000F000F000F000F079
:10E2AC0000F000F000F000F000F000F0BF98120059
:10E2BC00BF8800F000F000F0BF9800F000F000F014
:10E2CC0000F000F000F000F000F000F000F000F0C2
:10E2DC0000F01200056E05C5ECF30301F38FF39DFE
:10E2EC00F381F3B17CEF71F07EEF71F077EF71F0A9
:10E2FC00EB51046E036AEA510324016E000E0420F4
:10E30C00026E1200000ED6BE010E046E380E000115
:10E31C00456F0250446F01C543F003C546F04151AF
:10E32C00F80B0309416FD69E550E426FAA0E426F31
:10E33C00408140B1A4EF71F0A6EF71F09FEF71F046
:10E34C0004B002D0D69E01D0D68EF80E0001411733
:10E35C001200000EBE6E000EBF6E000EC06E1F0EC1
:10E36C00C66EE00EC76E5F0EC86EAF0E0401106F66
:10E37C00E00E086F070E006F800E096F100E016F14
:10E38C00500E116F000E026F000E0A6F000E126F0E
:10E39C00370E036FF00E0B6F13693F0E046FF00E08
:10E3AC000C6F14691200000E0301D96F000EDA6FA6
:10E3BC00000EDB6F000EDC6F000EDF6F000EE06FE7
:10E3CC00000EE56F000EE76F000EEC6F000EEE6FA7
:10E3DC00000EEF6F000EF06F000EF16F000EF26F7B
:10E3EC00000EF46F100EF56F000EF66F000EF76F47
:10E3FC00000EF86F000EF96F1F0EFA6F840EF36F9C
:10E40C001200000E096E000E0A6E000E0B6E000E4E
:10E41C000C6E01A014EF72F016EF72F01EEF72F09A
:10E42C000550092606500A2207500B2208500C22D0
:10E43C00D8900536063607360836D89004320332A3
:10E44C00023201320150021003100410D8A431EF33
:10E45C0072F033EF72F00FEF72F009C501F50AC5D7
:10E46C0002F50BC503F50CC504F51200106E000E79
:10E47C00116E000E126E000E136E5DEF72F0000E38
:10E48C00146E0BC502F50CC503F510501CEC71F0A5
:10E49C00142A140E146455EF72F057EF72F047EF14
:10E4AC0072F0010E1126000E1222000E13220DC561
:10E4BC0001F50EC502F50FC503F5140E046E000E22
:10E4CC00056E000E066EB6EC72F01150015C125027
:10E4DC00025813500358D8B076EF72F078EF72F000
:10E4EC0045EF72F012001F501B5C016E20501C583F
:10E4FC00026E21501D58036E22501E58046E275078
:10E50C002B5C056E28502C58066E29502D58076E22
:10E51C002A502E58086E07EC72F001C50DF502C595
:10E52C000EF503C50FF504C510F51F50235C116ED5
:10E53C0020502458126E21502558136E2250265804
:10E54C00146E66EC73F027500D241B6E28500E20B1
:10E55C001C6E29500F201D6E2A5010201E6E1200AA
:10E56C00000E076E000E086E000E096E04500510AA
:10E57C000610D8B4C4EF72F0C6EF72F0F5EF72F07B
:10E58C00010E0A6ECFEF72F0D890043605360636BF
:10E59C000A2A06AED4EF72F0D6EF72F0CAEF72F020
:10E5AC00D8900736083609360450015C05500258DD
:10E5BC0006500358D8A0E5EF72F0E7EF72F0EEEFDB
:10E5CC0072F00450015E0550025A0650035A07803F
:10E5DC00D8900632053204320A2ED6EF72F007C5F7
:10E5EC0001F508C502F509C503F51200016E01AE6F
:10E5FC0002EF73F004EF73F008EF73F04FEC71F06F
:10E60C000AEF73F05EEC71F001AC0FEF73F011EFE9
:10E61C0073F015EF73F04FEC71F017EF73F05EECD5
:10E62C0071F001AA1CEF73F01EEF73F022EF73F080
:10E63C004FEC71F024EF73F05EEC71F001A829EF50
:10E64C0073F02BEF73F02FEF73F04FEC71F031EFA1
:10E65C0073F05EEC71F001A636EF73F038EF73F0E7
:10E66C003CEF73F04FEC71F03EEF73F05EEC71F039
:10E67C0001A443EF73F045EF73F049EF73F04FECE7
:10E68C0071F04BEF73F05EEC71F001A250EF73F090
:10E69C0052EF73F056EF73F04FEC71F058EF73F0DC
:10E6AC005EEC71F001A05DEF73F05FEF73F063EF60
:10E6BC0073F04FEC71F065EF73F05EEC71F01200DB
:10E6CC00000E166E14BE6FEF73F06DEF73F079EFF2
:10E6DC0073F0141E131E121E116C000E1222132244
:10E6EC001422010E166E10BE80EF73F07EEF73F0E5
:10E6FC008AEF73F0101E0F1E0E1E0D6C000E0E22F4
:10E70C000F221022010E161A000E176E000E186E34
:10E71C00000E196E000E1A6E1150121013101410F8
:10E72C00D8B49BEF73F09DEF73F0D3EF73F0010E41
:10E73C00156EA7EF73F0D8901136123613361436C7
:10E74C00152A14AEACEF73F0AEEF73F0A1EF73F0CB
:10E75C00D8901736183619361A3611500D5C1250DF
:10E76C000E5813500F5814501058D8A0C0EF73F017
:10E77C00C2EF73F0CBEF73F011500D5E12500E5AC6
:10E78C0013500F5A1450105A1780D8901432133259
:10E79C0012321132152EAEEF73F01650D8B4D9EFE9
:10E7AC0073F0DBEF73F0E3EF73F01A1E191E181EF3
:10E7BC00176C000E182219221A2217C50DF518C550
:10E7CC000EF519C50FF51AC510F512000AEC71F00B
:10E7DC00000E05018C6F140E7F6F7069320E716F15
:10E7EC00000E646F000E7C6F000E7D6F000E7E6F4E
:10E7FC00000E656F000E866F000E876F000E886F1F
:10E80C00000E7B6F000E746F000E756F000E766F2E
:10E81C00000E666F000E776F000E786F000E796F2A
:10E82C00000E7A6F000E676F000E616F000E606F46
:10E83C00000E6B6F000E6A6F000E6D6F000E6C6F2A
:10E84C00000E6F6F000E6E6F000E636F000E626F26
:10E85C00000E696F000E686F000E736F000E726F02
:10E86C00C09EC09ABE9A000E906F000E026E030EF0
:10E87C00016E27EC71F0450AD8A447EF74F049EF0C
:10E88C0074F069EF74F0000E026E0B0E016E27EC43
:10E89C0071F00501896F000E026E0C0E016E27ECF3
:10E8AC0071F005018A6F000E026E0F0E016E27ECDF
:10E8BC0071F005018B6F000E026E110E016E27ECCC
:10E8CC0071F005017F6F000E026E040E016E27ECD5
:10E8DC0071F0450AD8A475EF74F077EF74F097EFE8
:10E8EC0074F0000E026E120E016E27EC71F0050131
:10E8FC00806F000E026E130E016E27EC71F0050195
:10E90C00816F000E026E140E016E27EC71F0050182
:10E91C00826F000E026E150E016E27EC71F0050170
:10E92C00706F000E026E060E016E27EC71F0450A38
:10E93C00D8A4A3EF74F0A5EF74F0C5EF74F0000E3B
:10E94C00026E160E016E27EC71F00501836F000E3E
:10E95C00026E180E016E27EC71F00501846F000E2B
:10E96C00026E190E016E27EC71F00501856F000E19
:10E97C00026E1B0E016E27EC71F00501716F000E1B
:10E98C00026E020E016E27EC71F0450AD8A4D1EF8D
:10E99C0074F0D3EF74F05BEF75F0000E026E240E82
:10E9AC00016E27EC71F00501906F9005D8A4E1EF92
:10E9BC0074F0E3EF74F0F8EF74F0000E026E030ED7
:10E9CC00016E27EC71F0450AD8A4EFEF74F0F1EF6B
:10E9DC0074F0F8EF74F0C08EA00E00D0E82EFDD7C6
:10E9EC0003EF75F005019005D8A4FFEF74F001EF6B
:10E9FC0075F003EF75F0000E906F020E0501901983
:10EA0C00D8A40BEF75F00DEF75F022EF75F0000E3A
:10EA1C00026E040E016E27EC71F0450AD8A419EFB2
:10EA2C0075F01BEF75F022EF75F0C08AA00E00D0C8
:10EA3C00E82EFDD72EEF75F0020E05019019D8A423
:10EA4C002AEF75F02CEF75F02EEF75F0000E906F2D
:10EA5C00030E05019019D8A436EF75F038EF75F058
:10EA6C004DEF75F0000E026E060E016E27EC71F084
:10EA7C00450AD8A444EF75F046EF75F04DEF75F0EC
:10EA8C00BE8AA00E00D0E82EFDD75BEF75F0030E0A
:10EA9C0005019019D8A455EF75F057EF75F05BEFA1
:10EAAC0075F0000E906F5BEF75F0000ED0BC010E90
:10EABC0005017C6F000ECEB8010E7D6F000ED0B834
:10EACC00010E7E6F06EC71F0020E70EC71F001C558
:10EADC001BF502C51CF51D6A1E6A000E1F6E000E8A
:10EAEC00206E000E216E000E226EFF0E236E0F0E96
:10EAFC00246E000E256E000E266E000E276E000E84
:10EB0C00286E000E296E000E2A6EFF0E2B6E000E64
:10EB1C002C6E000E2D6E000E2E6E79EC72F01B50CA
:10EB2C0005018D6F06EC71F0100E70EC71F001C5E3
:10EB3C001BF502C51CF51D6A1E6A000E1F6E000E29
:10EB4C00206E000E216E000E226EFF0E236E0F0E35
:10EB5C00246E000E256E000E266E000E276E000E23
:10EB6C00286E000E296E000E2A6EFF0E2B6E000E04
:10EB7C002C6E000E2D6E000E2E6E79EC72F01B506A
:10EB8C0005018E6F06EC71F0110E70EC71F001C581
:10EB9C001BF502C51CF51D6A1E6A000E1F6E000EC9
:10EBAC00206E000E216E000E226EFF0E236E0F0ED5
:10EBBC00246E000E256E000E266E000E276E000EC3
:10EBCC00286E000E296E000E2A6EFF0E2B6E000EA4
:10EBDC002C6E000E2D6E000E2E6E79EC72F01B500A
:10EBEC0005018F6F680E2F6EE40EE82EFED72F2EC8
:10EBFC00FCD700D0C6EF7FF08EC50BF58FC50CF59A
:10EC0C002C0E0D6E010E0E6E000E0F6E8D513CEC27
:10EC1C0072F0A00E00D0E82EFDD7D0BC18EF76F025
:10EC2C001AEF76F045EF76F005017C51D8B421EF60
:10EC3C0076F023EF76F045EF76F08651D8A429EFE5
:10EC4C0076F02BEF76F045EF76F08751D8A431EFC4
:10EC5C0076F033EF76F045EF76F08851D8A439EFA3
:10EC6C0076F03BEF76F045EF76F07B51D8A441EF90
:10EC7C0076F043EF76F045EF76F0040E906FCEB859
:10EC8C004AEF76F04CEF76F077EF76F005017D5198
:10EC9C00D8B453EF76F055EF76F077EF76F08651E7
:10ECAC00D8A45BEF76F05DEF76F077EF76F08751D6
:10ECBC00D8A463EF76F065EF76F077EF76F08851B5
:10ECCC00D8A46BEF76F06DEF76F077EF76F07B51A2
:10ECDC00D8A473EF76F075EF76F077EF76F0050E3B
:10ECEC00906FD0B87CEF76F07EEF76F0A9EF76F0EF
:10ECFC0005017E51D8B485EF76F087EF76F0A9EF59
:10ED0C0076F08651D8A48DEF76F08FEF76F0A9EFE0
:10ED1C0076F08751D8A495EF76F097EF76F0A9EFBF
:10ED2C0076F08851D8A49DEF76F09FEF76F0A9EF9E
:10ED3C0076F07B51D8A4A5EF76F0A7EF76F0A9EF8B
:10ED4C0076F0060E906F05018651D8A4B0EF76F0E0
:10ED5C00B2EF76F0CAEF76F08751D8A4B8EF76F020
:10ED6C00BAEF76F0CAEF76F08851D8A4C0EF76F0FF
:10ED7C00C2EF76F0CAEF76F07B51D8B4C8EF76F0DC
:10ED8C00CAEF76F0E3EF76F0684B692BF40E681956
:10ED9C0006E16905D8A4D5EF76F0D7EF76F0E3EF6E
:10EDAC0076F0000E696F000E686F000E866F000E15
:10EDBC00876F000E886F000E7B6F8651D8B4E9EF19
:10EDCC0076F0EBEF76F008EF77F0732B0C0E7319EF
:10EDDC00D8A4F3EF76F0F5EF76F008EF77F0000EAD
:10EDEC00736FC0AEFCEF76F000EF77F02F6A2F2A2E
:10EDFC0001EF77F02F6A2F322F32C0502F187F0B74
:10EE0C002F18C06E05018751D8B40FEF77F011EFB2
:10EE1C0077F02EEF77F0732B0C0E7319D8A419EF33
:10EE2C0077F01BEF77F02EEF77F0000E736FC0AA20
:10EE3C0022EF77F026EF77F02F6A2F2A27EF77F063
:10EE4C002F6A2F3A2F46C0502F18DF0B2F18C06E89
:10EE5C0005018851D8B435EF77F037EF77F054EFE0
:10EE6C0077F0732B0C0E7319D8A43FEF77F041EFAA
:10EE7C0077F054EF77F0000E736FBEAA48EF77F07F
:10EE8C004CEF77F02F6A2F2A4DEF77F02F6A2F3A3D
:10EE9C002F46BE502F18DF0B2F18BE6E0501865162
:10EEAC00D8A45BEF77F05DEF77F07AEF77F08751CE
:10EEBC00D8A463EF77F065EF77F07AEF77F08851AD
:10EECC00D8A46BEF77F06DEF77F07AEF77F07B519A
:10EEDC00D8A473EF77F075EF77F07AEF77F0000E38
:10EEEC00736FC09EC09ABE9A8651D8B480EF77F0EB
:10EEFC0082EF77F0C3EF77F0D0BC87EF77F089EF34
:10EF0C0077F0C3EF77F07C51D8B48FEF77F091EFB7
:10EF1C0077F0C3EF77F08DC589F58EC58AF58FC56F
:10EF2C008BF58CC57FF5000E866F000E026E0F0EF2
:10EF3C00016E8BC503F588EC71F0000E026E0C0EA1
:10EF4C00016E8AC503F588EC71F0000E026E0B0E93
:10EF5C00016E89C503F588EC71F0000E026E110E7E
:10EF6C00016E7FC503F588EC71F0000E026E030E86
:10EF7C00016E450E036E88EC71F005018751D8B413
:10EF8C00CAEF77F0CCEF77F00DEF78F0CEB8D1EF89
:10EF9C0077F0D3EF77F00DEF78F07D51D8B4D9EF4F
:10EFAC0077F0DBEF77F00DEF78F08DC580F58EC53F
:10EFBC0081F58FC582F58CC570F5000E876F000E3C
:10EFCC00026E140E016E82C503F588EC71F0000E12
:10EFDC00026E130E016E81C503F588EC71F0000E04
:10EFEC00026E120E016E80C503F588EC71F0000EF6
:10EFFC00026E150E016E70C503F588EC71F0000EF3
:10F00C00026E040E016E450E036E88EC71F0050164
:10F01C008851D8B414EF78F016EF78F057EF78F0F9
:10F02C00D0B81BEF78F01DEF78F057EF78F07E51E9
:10F03C00D8B423EF78F025EF78F057EF78F08DC542
:10F04C0083F58EC584F58FC585F58CC571F5000EDD
:10F05C00886F000E026E190E016E85C503F588ECE3
:10F06C0071F0000E026E180E016E84C503F588EC6B
:10F07C0071F0000E026E160E016E83C503F588EC5E
:10F08C0071F0000E026E1B0E016E71C503F588EC5B
:10F09C0071F0000E026E060E016E450E036E88ECCA
:10F0AC0071F0D0AC5CEF78F05EEF78F063EF78F055
:10F0BC00000E05016B6F000E6A6FCEA868EF78F03A
:10F0CC006AEF78F06FEF78F0000E05016D6F000EAF
:10F0DC006C6FD0A874EF78F076EF78F05BEF75F08A
:10F0EC00000E05016F6F000E6E6F5BEF75F0D0AC0C
:10F0FC0082EF78F084EF78F0A5EF78F0C08E8AC5B7
:10F10C000BF58BC50CF52C0E0D6E010E0E6E000E54
:10F11C000F6E89513CEC72F0010E0501906F000EE0
:10F12C00026E240E016E90C503F588EC71F0000E92
:10F13C00026E020E016E450E036E88EC71F0D0BCAF
:10F14C00AAEF78F0ACEF78F05BEF75F005016A4B45
:10F15C006B2BFA0E6A196B11D8A4B7EF78F0B9EFD4
:10F16C0078F05BEF75F0000E6B6F000E6A6F010E9E
:10F17C00866F000E906F000E026E240E016E90C50D
:10F18C0003F588EC71F0000E026E020E016E450E56
:10F19C00036E88EC71F05BEF75F0CEA8D8EF78F0C9
:10F1AC00DAEF78F0FBEF78F0C08A81C50BF582C5F9
:10F1BC000CF52C0E0D6E010E0E6E000E0F6E8051A6
:10F1CC003CEC72F0020E0501906F000E026E240EE4
:10F1DC00016E90C503F588EC71F0000E026E020E04
:10F1EC00016E450E036E88EC71F0CEB800EF79F02D
:10F1FC0002EF79F05BEF75F005016C4B6D2BFA0E9D
:10F20C006C196D11D8A40DEF79F00FEF79F05BEF5D
:10F21C0075F0000E6D6F000E6C6F010E876F000E97
:10F22C00906FC1EF78F0D0A81EEF79F020EF79F055
:10F23C0041EF79F0BE8A84C50BF585C50CF52C0E13
:10F24C000D6E010E0E6E000E0F6E83513CEC72F0C3
:10F25C00030E0501906F000E026E240E016E90C518
:10F26C0003F588EC71F0000E026E020E016E450E75
:10F27C00036E88EC71F0D0B846EF79F048EF79F076
:10F28C005BEF75F005016E4B6F2BFA0E6E196F115B
:10F29C00D8A453EF79F055EF79F05BEF75F0000ED1
:10F2AC006F6F000E6E6F010E886F000E906FC1EFC6
:10F2BC0078F0D0AC64EF79F066EF79F079EF79F013
:10F2CC00C09E000E906F000E026E240E016E90C553
:10F2DC0003F588EC71F0000E026E020E016E450E05
:10F2EC00036E88EC71F0D0BC7EEF79F080EF79F092
:10F2FC005BEF75F005016A4B6B2BFA0E6A196B11FB
:10F30C00D8A48BEF79F08DEF79F05BEF75F0000EF0
:10F31C006B6F000E6A6F010E746F010E906F5BEFD6
:10F32C0075F0CEA89CEF79F09EEF79F0B1EF79F003
:10F33C00C09A000E906F000E026E240E016E90C5E6
:10F34C0003F588EC71F0000E026E020E016E450E94
:10F35C00036E88EC71F0CEB8B6EF79F0B8EF79F0B7
:10F36C005BEF75F005016C4B6D2BFA0E6C196D1182
:10F37C00D8A4C3EF79F0C5EF79F05BEF75F0000E10
:10F38C006D6F000E6C6F010E756F020E906F5BEF60
:10F39C0075F0D0A8D4EF79F0D6EF79F0E9EF79F0E9
:10F3AC00BE9A000E906F000E026E240E016E90C578
:10F3BC0003F588EC71F0000E026E020E016E450E24
:10F3CC00036E88EC71F0D0B8EEEF79F0F0EF79F0D5
:10F3DC005BEF75F005016E4B6F2BFA0E6E196F110A
:10F3EC00D8A4FBEF79F0FDEF79F05BEF75F0000E30
:10F3FC006F6F000E6E6F010E766F030E906F5BEFEA
:10F40C0075F08AC50BF58BC50CF52C0E0D6E010E27
:10F41C000E6E000E0F6E89513CEC72F005017451AA
:10F42C00D8B41BEF7AF01DEF7AF03AEF7AF0722B2A
:10F43C000C0E7219D8A425EF7AF027EF7AF03AEF78
:10F44C007AF0000E726FC0AE2EEF7AF032EF7AF0D7
:10F45C002F6A2F2A33EF7AF02F6A2F322F32C050B7
:10F46C002F187F0B2F18C06ED0BC3FEF7AF041EFF6
:10F47C007AF054EF7AF005017C51D8B448EF7AF069
:10F48C004AEF7AF054EF7AF07451D8A450EF7AF036
:10F49C0052EF7AF054EF7AF0070E906FD0BC59EF20
:10F4AC007AF05BEF7AF09FEF7AF005017C51D8B4DB
:10F4BC0062EF7AF064EF7AF09FEF7AF07451D8B47F
:10F4CC006AEF7AF06CEF7AF09FEF7AF0C08E000E54
:10F4DC00746F000E776F000E786F000E796F000E50
:10F4EC007A6F000E026E0F0E016E8BC503F588EC61
:10F4FC0071F0000E026E0C0E016E8AC503F588ECDD
:10F50C0071F0000E026E0B0E016E89C503F588ECCE
:10F51C0071F0000E026E110E016E7FC503F588ECC2
:10F52C0071F0000E026E030E016E450E036E88EC38
:10F53C0071F005017451D8B4A6EF7AF0A8EF7AF007
:10F54C009CEF7BF0FB0E89252F6E306AFF0E30226C
:10F55C008D51316E326A2F50315C3250800A336ECD
:10F56C003050800A3358D8A0BEEF7AF0C0EF7AF052
:10F57C00DBEF7AF08D512F6E306A8951316E326A21
:10F58C00050E3126000E32222F50315C3250800A8B
:10F59C00336E3050800A3358D8A0D7EF7AF0D9EFB9
:10F5AC007AF0DBEF7AF0010E776F7751D8B4E1EF98
:10F5BC007AF0E3EF7AF0E5EF7AF08DC589F5FB0E82
:10F5CC007F252F6E306AFF0E30228C51316E326ADD
:10F5DC002F50315C3250800A336E3050800A3358D1
:10F5EC00D8A0FBEF7AF0FDEF7AF018EF7BF08C519E
:10F5FC002F6E306A7F51316E326A050E3126000E45
:10F60C0032222F50315C3250800A336E3050800AD7
:10F61C003358D8A014EF7BF016EF7BF018EF7BF08B
:10F62C00010E7A6F7A51D8B41EEF7BF020EF7BF08D
:10F63C0022EF7BF08CC57FF5FB0E8A252F6E306A8E
:10F64C00FF0E30228E51316E326A2F50315C3250A7
:10F65C00800A336E3050800A3358D8A038EF7BF0D4
:10F66C003AEF7BF055EF7BF08E512F6E306A8A515A
:10F67C00316E326A050E3126000E32222F50315C6B
:10F68C003250800A336E3050800A3358D8A051EF74
:10F69C007BF053EF7BF055EF7BF0010E786F7851D8
:10F6AC00D8B45BEF7BF05DEF7BF05FEF7BF08EC54A
:10F6BC008AF5FB0E8B252F6E306AFF0E30228F5190
:10F6CC00316E326A2F50315C3250800A336E3050BA
:10F6DC00800A3358D8A075EF7BF077EF7BF092EF70
:10F6EC007BF08F512F6E306A8B51316E326A050E62
:10F6FC003126000E32222F50315C3250800A336E8C
:10F70C003050800A3358D8A08EEF7BF090EF7BF00E
:10F71C0092EF7BF0010E796F7951D8B498EF7BF0B2
:10F72C009AEF7BF09CEF7BF08FC58BF5CEB8A1EFF9
:10F73C007BF0A3EF7BF0CDEF7BF07D51D8B4A9EF3C
:10F74C007BF0ABEF7BF0CDEF7BF0C09EC08A81C528
:10F75C000BF582C50CF52C0E0D6E010E0E6E000E07
:10F76C000F6E80513CEC72F0020E0501906F000E92
:10F77C00026E240E016E90C503F588EC71F0000E3C
:10F78C00026E020E016E450E036E88EC71F0D0B85D
:10F79C00D2EF7BF0D4EF7BF05BEF75F005017E517F
:10F7AC00D8B4DBEF7BF0DDEF7BF05BEF75F0C09E48
:10F7BC00BE8A84C50BF585C50CF52C0E0D6E010E9D
:10F7CC000E6E000E0F6E83513CEC72F0030E0501B1
:10F7DC00906FC1EF78F081C50BF582C50CF52C0E3E
:10F7EC000D6E010E0E6E000E0F6E80513CEC72F021
:10F7FC0005017551D8B405EF7CF007EF7CF024EFD0
:10F80C007CF0722B0C0E7219D8A40FEF7CF011EF58
:10F81C007CF024EF7CF0000E726FC0AA18EF7CF025
:10F82C001CEF7CF02F6A2F2A1DEF7CF02F6A2F3AE9
:10F83C002F46C0502F18DF0B2F18C06ECEB829EFF3
:10F84C007CF02BEF7CF03EEF7CF005017D51D8B4C1
:10F85C0032EF7CF034EF7CF03EEF7CF07551D8A4A5
:10F86C003AEF7CF03CEF7CF03EEF7CF0080E906FB2
:10F87C00CEB843EF7CF045EF7CF089EF7CF00501CE
:10F88C007D51D8B44CEF7CF04EEF7CF089EF7CF0DE
:10F89C007551D8B454EF7CF056EF7CF089EF7CF0C6
:10F8AC00C08A000E756F000E776F000E786F000E19
:10F8BC00796F000E7A6F000E026E140E016E8BC5FE
:10F8CC0003F588EC71F0000E026E130E016E8AC502
:10F8DC0003F588EC71F0000E026E120E016E89C5F4
:10F8EC0003F588EC71F0000E026E150E016E7FC5EB
:10F8FC0003F588EC71F0000E026E040E016E450EDD
:10F90C00036E88EC71F005017551D8B490EF7CF062
:10F91C0092EF7CF086EF7DF0FB0E80252F6E306A27
:10F92C00FF0E30228D51316E326A2F50315C3250C5
:10F93C00800A336E3050800A3358D8A0A8EF7CF080
:10F94C00AAEF7CF0C5EF7CF08D512F6E306A8051A0
:10F95C00316E326A050E3126000E32222F50315C88
:10F96C003250800A336E3050800A3358D8A0C1EF21
:10F97C007CF0C3EF7CF0C5EF7CF0010E776F775114
:10F98C00D8B4CBEF7CF0CDEF7CF0CFEF7CF08DC515
:10F99C0080F5FB0E70252F6E306AFF0E30228C51D5
:10F9AC00316E326A2F50315C3250800A336E3050D7
:10F9BC00800A3358D8A0E5EF7CF0E7EF7CF002EF3B
:10F9CC007DF08C512F6E306A7051316E326A050E9B
:10F9DC003126000E32222F50315C3250800A336EA9
:10F9EC003050800A3358D8A0FEEF7CF000EF7DF049
:10F9FC0002EF7DF0010E7A6F7A51D8B408EF7DF0EA
:10FA0C000AEF7DF00CEF7DF08CC570F5FB0E8125B7
:10FA1C002F6E306AFF0E30228E51316E326A2F50AB
:10FA2C00315C3250800A336E3050800A3358D8A083
:10FA3C0022EF7DF024EF7DF03FEF7DF08E512F6EA5
:10FA4C00306A8151316E326A050E3126000E322237
:10FA5C002F50315C3250800A336E3050800A33584C
:10FA6C00D8A03BEF7DF03DEF7DF03FEF7DF0010E38
:10FA7C00786F7851D8B445EF7DF047EF7DF049EFC2
:10FA8C007DF08EC581F5FB0E82252F6E306AFF0E40
:10FA9C0030228F51316E326A2F50315C3250800AD5
:10FAAC00336E3050800A3358D8A05FEF7DF061EF91
:10FABC007DF07CEF7DF08F512F6E306A8251316E6C
:10FACC00326A050E3126000E32222F50315C325034
:10FADC00800A336E3050800A3358D8A078EF7DF00E
:10FAEC007AEF7DF07CEF7DF0010E796F7951D8B40F
:10FAFC0082EF7DF084EF7DF086EF7DF08FC582F58F
:10FB0C00D0BC8BEF7DF08DEF7DF0B7EF7DF07C51AD
:10FB1C00D8B493EF7DF095EF7DF0B7EF7DF0C09A00
:10FB2C00C08E8AC50BF58BC50CF52C0E0D6E010E17
:10FB3C000E6E000E0F6E89513CEC72F0010E050139
:10FB4C00906F000E026E240E016E90C503F588ECCA
:10FB5C0071F0000E026E020E016E450E036E88EC03
:10FB6C0071F0D0B8BCEF7DF0BEEF7DF05BEF75F0BF
:10FB7C0005017E51D8B4C5EF7DF0C7EF7DF05BEF8A
:10FB8C0075F0C09ABE8A84C50BF585C50CF52C0E94
:10FB9C000D6E010E0E6E000E0F6E83513CEC72F06A
:10FBAC00ECEF7BF084C50BF585C50CF52C0E0D6EBA
:10FBBC00010E0E6E000E0F6E83513CEC72F00501BF
:10FBCC007651D8B4ECEF7DF0EEEF7DF00BEF7EF0DC
:10FBDC00722B0C0E7219D8A4F6EF7DF0F8EF7DF0B5
:10FBEC000BEF7EF0000E726FBEAAFFEF7DF003EFFD
:10FBFC007EF02F6A2F2A04EF7EF02F6A2F3A2F46C1
:10FC0C00BE502F18DF0B2F18BE6ED0B810EF7EF041
:10FC1C0012EF7EF025EF7EF005017E51D8B419EF7E
:10FC2C007EF01BEF7EF025EF7EF07651D8A421EF0D
:10FC3C007EF023EF7EF025EF7EF0090E906FD0B8AA
:10FC4C002AEF7EF02CEF7EF070EF7EF005017E51F6
:10FC5C00D8B433EF7EF035EF7EF070EF7EF0765156
:10FC6C00D8B43BEF7EF03DEF7EF070EF7EF0BE8AB5
:10FC7C00000E766F000E776F000E786F000E796FA6
:10FC8C00000E7A6F000E026E190E016E8BC503F515
:10FC9C0088EC71F0000E026E180E016E8AC503F529
:10FCAC0088EC71F0000E026E160E016E89C503F51C
:10FCBC0088EC71F0000E026E1B0E016E7FC503F511
:10FCCC0088EC71F0000E026E060E016E450E036E8E
:10FCDC0088EC71F0000ED0B8010E05017E6F7651E4
:10FCEC00D8B47BEF7EF07DEF7EF071EF7FF0FB0EF2
:10FCFC0083252F6E306AFF0E30228D51316E326AA1
:10FD0C002F50315C3250800A336E3050800A335899
:10FD1C00D8A093EF7EF095EF7EF0B0EF7EF08D5192
:10FD2C002F6E306A8351316E326A050E3126000E09
:10FD3C0032222F50315C3250800A336E3050800AA0
:10FD4C003358D8A0ACEF7EF0AEEF7EF0B0EF7EF083
:10FD5C00010E776F7751D8B4B6EF7EF0B8EF7EF026
:10FD6C00BAEF7EF08DC583F5FB0E71252F6E306AD0
:10FD7C00FF0E30228C51316E326A2F50315C325072
:10FD8C00800A336E3050800A3358D8A0D0EF7EF002
:10FD9C00D2EF7EF0EDEF7EF08C512F6E306A715108
:10FDAC00316E326A050E3126000E32222F50315C34
:10FDBC003250800A336E3050800A3358D8A0E9EFA5
:10FDCC007EF0EBEF7EF0EDEF7EF0010E7A6F7A5164
:10FDDC00D8B4F3EF7EF0F5EF7EF0F7EF7EF08CC544
:10FDEC0071F5FB0E84252F6E306AFF0E30228E517A
:10FDFC00316E326A2F50315C3250800A336E305083
:10FE0C00800A3358D8A00DEF7FF00FEF7FF02AEF68
:10FE1C007FF08E512F6E306A8451316E326A050E2E
:10FE2C003126000E32222F50315C3250800A336E54
:10FE3C003050800A3358D8A026EF7FF028EF7FF09F
:10FE4C002AEF7FF0010E786F7851D8B430EF7FF045
:10FE5C0032EF7FF034EF7FF08EC584F5FB0E8525F5
:10FE6C002F6E306AFF0E30228F51316E326A2F5056
:10FE7C00315C3250800A336E3050800A3358D8A02F
:10FE8C004AEF7FF04CEF7FF067EF7FF08F512F6ED2
:10FE9C00306A8551316E326A050E3126000E3222DF
:10FEAC002F50315C3250800A336E3050800A3358F8
:10FEBC00D8A063EF7FF065EF7FF067EF7FF0010E66
:10FECC00796F7951D8B46DEF7FF06FEF7FF071EFF0
:10FEDC007FF08FC585F5D0BC76EF7FF078EF7FF0A3
:10FEEC00A2EF7FF07C51D8B47EEF7FF080EF7FF0F3
:10FEFC00A2EF7FF0BE9AC08E8AC50BF58BC50CF5B0
:10FF0C002C0E0D6E010E0E6E000E0F6E89513CEC18
:10FF1C0072F0010E0501906F000E026E240E016E40
:10FF2C0090C503F588EC71F0000E026E020E016EA6
:10FF3C00450E036E88EC71F0CEB8A7EF7FF0A9EFF9
:10FF4C007FF05BEF75F005017D51D8B4B0EF7FF019
:10FF5C00B2EF7FF05BEF75F0BE9AC08A81C50BF5EE
:10FF6C0082C50CF52C0E0D6E010E0E6E000E0F6E72
:10FF7C0080513CEC72F0020E0501906FC1EF78F0ED
:10FF8C00050190512F6E306A3050000AD8B4D1EF71
:10FF9C007FF05BEF75F02F50000AD8B402EF76F0CB
:10FFAC00010AD8B407EF7AF0030AD8B4F1EF7BF06A
:10FFBC00010AD8B4D8EF7DF0070AD8B47DEF78F0F9
:10FFCC00010AD8B4D3EF78F0030AD8B419EF79F05A
:10FFDC00010AD8B45FEF79F00F0AD8B497EF79F033
:10FFEC00010AD8B4CFEF79F05BEF75F0FEEF7FF03C
:04FFFC0013EF71F09E
:020000040020DA
:10000000FF0FFF0FFF0FFF0FFF0FFF0FFF0FFF0F80
:10001000FF0FFF0FFF0FFF0FFF0FFF0FFF0FFF0F70
:020000040030CA
:0A0000008CFFF7FF9FFFFFFFFFFFDB
:00000001FF
