:04000000FEEF7FF0A0
:10D9AC003B0E0301EC6F1200BF8800F000F000F09A
:10D9BC00BF98120025EC6DF072EC6DF017EC6DF069
:10D9CC009CEC6DF01200376A366A356A346A000EC8
:10D9DC00F86E0001AFEF6FF0046E0250BFEC6EF00A
:10D9EC000450BFEC6EF00350BFEC6EF01200380E1A
:10D9FC000001456F0250446F01C543F0F80E41170A
:10DA0C00408146511200BF8800F000F000F000F099
:10DA1C0000F000F000F000F000F000F000F0BF9813
:10DA2C001200600E0001AD6F000EAF6F000EB36FF1
:10DA3C00080EB16F000EB06F000EAC6F1200000E2E
:10DA4C000001636F000E646F000E656F000E666F51
:10DA5C00000E676F000E686F1200056E05C5ECF3C3
:10DA6C000301F38FF39DF381F3B13FEF6DF041EFC1
:10DA7C006DF03AEF6DF0EB51046E036AEA5103243A
:10DA8C00016E000E0420026E1200000ED6BE010EB6
:10DA9C00046E380E0001456F0250446F01C543F00F
:10DAAC0003C546F04151F80B0309416FD69E550E44
:10DABC00426FAA0E426F408140B167EF6DF069EF83
:10DACC006DF062EF6DF004B002D0D69E01D0D68E10
:10DADC00F80E000141171200000EBE6E000EBF6E54
:10DAEC00000EC06E1F0EC66EE00EC76E570EC86ECF
:10DAFC00AF0E0401106F600E086F270E006F800EC2
:10DB0C00096F100E016F500E116F000E026F000E98
:10DB1C000A6F000E126F370E036FF00E0B6F136946
:10DB2C003F0E046FF00E0C6F14691200000E03010F
:10DB3C00D96F000EDA6F000EDB6F000EDC6F000E7B
:10DB4C00DF6F000EE06F000EE56F000EE76F000E4A
:10DB5C00EC6F000EEE6F000EEF6F000EF06F000E0C
:10DB6C00F16F000EF26F000EF46F100EF56F000ED9
:10DB7C00F66F000EF76F000EF86F000EF96F1F0EA8
:10DB8C00FA6F840EF36F1200000E096E000E0A6E0F
:10DB9C00000E0B6E000E0C6E01A0D7EF6DF0D9EFDE
:10DBAC006DF0E1EF6DF00550092606500A22075082
:10DBBC000B2208500C22D89005360636073608364C
:10DBCC00D890043203320232013201500210031099
:10DBDC000410D8A4F4EF6DF0F6EF6DF0D2EF6DF009
:10DBEC0009C501F50AC502F50BC503F50CC504F50D
:10DBFC001200106E000E116E000E126E000E136EDF
:10DC0C0020EF6EF0000E146E0BC502F50CC503F57B
:10DC1C001050F2EC6CF0142A140E146418EF6EF021
:10DC2C001AEF6EF00AEF6EF0010E1126000E1222A2
:10DC3C00000E13220DC501F50EC502F50FC503F537
:10DC4C00140E046E000E056E000E066E79EC6EF06E
:10DC5C001150015C1250025813500358D8B039EFD0
:10DC6C006EF03BEF6EF008EF6EF012001F501B5C75
:10DC7C00016E20501C58026E21501D58036E22500C
:10DC8C001E58046E27502B5C056E28502C58066EBF
:10DC9C0029502D58076E2A502E58086ECAEC6DF07C
:10DCAC0001C50DF502C50EF503C50FF504C510F53C
:10DCBC001F50235C116E20502458126E2150255891
:10DCCC00136E22502658146E29EC6FF027500D2439
:10DCDC001B6E28500E201C6E29500F201D6E2A50D2
:10DCEC0010201E6E1200000E076E000E086E000E45
:10DCFC00096E045005100610D8B487EF6EF089EF4A
:10DD0C006EF0B8EF6EF0010E0A6E92EF6EF0D890D6
:10DD1C000436053606360A2A06AE97EF6EF099EFF2
:10DD2C006EF08DEF6EF0D890073608360936045039
:10DD3C00015C0550025806500358D8A0A8EF6EF0AD
:10DD4C00AAEF6EF0B1EF6EF00450015E0550025A6E
:10DD5C000650035A0780D8900632053204320A2E38
:10DD6C0099EF6EF007C501F508C502F509C503F575
:10DD7C001200016E01AEC5EF6EF0C7EF6EF0CBEF87
:10DD8C006EF009EC6DF0CDEF6EF0DAEC6CF001ACEE
:10DD9C00D2EF6EF0D4EF6EF0D8EF6EF009EC6DF0C0
:10DDAC00DAEF6EF0DAEC6CF001AADFEF6EF0E1EF77
:10DDBC006EF0E5EF6EF009EC6DF0E7EF6EF0DAEC7B
:10DDCC006CF001A8ECEF6EF0EEEF6EF0F2EF6EF08F
:10DDDC0009EC6DF0F4EF6EF0DAEC6CF001A6F9EFF3
:10DDEC006EF0FBEF6EF0FFEF6EF009EC6DF001EFF3
:10DDFC006FF0DAEC6CF001A406EF6FF008EF6FF047
:10DE0C000CEF6FF009EC6DF00EEF6FF0DAEC6CF0DC
:10DE1C0001A213EF6FF015EF6FF019EF6FF009EC33
:10DE2C006DF01BEF6FF0DAEC6CF001A020EF6FF0EF
:10DE3C0022EF6FF026EF6FF009EC6DF028EF6FF02A
:10DE4C00DAEC6CF01200000E166E14BE32EF6FF0AE
:10DE5C0030EF6FF03CEF6FF0141E131E121E116C9E
:10DE6C00000E122213221422010E166E10BE43EF66
:10DE7C006FF041EF6FF04DEF6FF0101E0F1E0E1E86
:10DE8C000D6C000E0E220F221022010E161A000E1F
:10DE9C00176E000E186E000E196E000E1A6E1150D1
:10DEAC00121013101410D8B45EEF6FF060EF6FF017
:10DEBC0096EF6FF0010E156E6AEF6FF0D890113679
:10DECC00123613361436152A14AE6FEF6FF071EF4D
:10DEDC006FF064EF6FF0D8901736183619361A3683
:10DEEC0011500D5C12500E5813500F5814501058FE
:10DEFC00D8A083EF6FF085EF6FF08EEF6FF01150BD
:10DF0C000D5E12500E5A13500F5A1450105A17809F
:10DF1C00D8901432133212321132152E71EF6FF079
:10DF2C001650D8B49CEF6FF09EEF6FF0A6EF6FF029
:10DF3C001A1E191E181E176C000E182219221A22EE
:10DF4C0017C50DF518C50EF519C50FF51AC510F541
:10DF5C001200E0EC6CF0000E05018F6F140E7E6F5A
:10DF6C006D69320E6E6F000E6F6F000E7A6F000EC1
:10DF7C007B6F000E7D6F000E7C6F000E886F000EA5
:10DF8C00896F000E8A6F000E8B6F000E706F000E83
:10DF9C00716F000E726F000E736F000E766F000EB5
:10DFAC00776F000E786F000E796F000E626F000EA7
:10DFBC00616F000E606F000E666F000E656F000ED5
:10DFCC00686F000E676F000E6A6F000E696F000EAF
:10DFDC006C6F000E6B6F000E646F000E636F000EA3
:10DFEC00756F000E746FC09EC09ABE9AC096000EDC
:10DFFC00936F000E026E030E016EFDEC6CF0450A81
:10E00C00D8A40BEF70F00DEF70F02DEF70F0000E48
:10E01C00026E0B0E016EFDEC6CF005018C6F000EA8
:10E02C00026E0C0E016EFDEC6CF005018D6F000E96
:10E03C00026E0F0E016EFDEC6CF005018E6F000E82
:10E04C00026E110E016EFDEC6CF005017E6F000E80
:10E05C00026E040E016EFDEC6CF0450AD8A439EF8B
:10E06C0070F03BEF70F05BEF70F0000E026E120E72
:10E07C00016EFDEC6CF005017F6F000E026E130E4D
:10E08C00016EFDEC6CF00501806F000E026E140E3B
:10E09C00016EFDEC6CF00501816F000E026E150E29
:10E0AC00016EFDEC6CF005016D6F000E026E060E3C
:10E0BC00016EFDEC6CF0450AD8A467EF70F069EFC7
:10E0CC0070F089EF70F0000E026E160E016EFDEC12
:10E0DC006CF00501826F000E026E180E016EFDECE5
:10E0EC006CF00501836F000E026E190E016EFDECD3
:10E0FC006CF00501846F000E026E1B0E016EFDECC0
:10E10C006CF005016E6F000E026E080E016EFDECD8
:10E11C006CF0450AD8A495EF70F097EF70F0B7EF5C
:10E12C0070F0000E026E1E0E016EFDEC6CF005011F
:10E13C00856F000E026E1F0E016EFDEC6CF005017A
:10E14C00866F000E026E200E016EFDEC6CF0050168
:10E15C00876F000E026E220E016EFDEC6CF0050155
:10E16C006F6F000E026E020E016EFDEC6CF0450A34
:10E17C00D8A4C3EF70F0C5EF70F078EF71F0000E1B
:10E18C00026E240E016EFDEC6CF00501936F93058D
:10E19C00D8A4D3EF70F0D5EF70F0EAEF70F0000E6A
:10E1AC00026E030E016EFDEC6CF0450AD8A4E1EF93
:10E1BC0070F0E3EF70F0EAEF70F0C08EA00E00D0BC
:10E1CC00E82EFDD7F5EF70F005019305D8A4F1EF1B
:10E1DC0070F0F3EF70F0F5EF70F0000E936F020E2D
:10E1EC0005019319D8A4FDEF70F0FFEF70F014EF58
:10E1FC0071F0000E026E040E016EFDEC6CF0450A1F
:10E20C00D8A40BEF71F00DEF71F014EF71F0C08A20
:10E21C00A00E00D0E82EFDD720EF71F0020E050104
:10E22C009319D8A41CEF71F01EEF71F020EF71F070
:10E23C00000E936F030E05019319D8A428EF71F00B
:10E24C002AEF71F03FEF71F0000E026E060E016EB8
:10E25C00FDEC6CF0450AD8A436EF71F038EF71F094
:10E26C003FEF71F0BE8AA00E00D0E82EFDD74BEF29
:10E27C0071F0030E05019319D8A447EF71F049EF23
:10E28C0071F04BEF71F0000E936F040E05019319B2
:10E29C00D8A453EF71F055EF71F06AEF71F0000EE6
:10E2AC00026E080E016EFDEC6CF0450AD8A461EF0D
:10E2BC0071F063EF71F06AEF71F0C086A00E00D0C0
:10E2CC00E82EFDD778EF71F0040E05019319D8A450
:10E2DC0072EF71F074EF71F078EF71F0000E936FD4
:10E2EC0078EF71F0000ED0BC010E05017A6F000EB4
:10E2FC00CEB8010E7B6F000ED0B8010E7D6F000EF4
:10E30C00CFBE010E7C6FD6EC6CF0020E33EC6DF0D0
:10E31C0001C51BF502C51CF51D6A1E6A000E1F6E99
:10E32C00000E206E000E216E000E226EFF0E236E6C
:10E33C000F0E246E000E256E000E266E000E276E3C
:10E34C00000E286E000E296E000E2A6EFF0E2B6E2C
:10E35C00000E2C6E000E2D6E000E2E6E3CEC6EF030
:10E36C001B500501906FD6EC6CF0100E33EC6DF079
:10E37C0001C51BF502C51CF51D6A1E6A000E1F6E39
:10E38C00000E206E000E216E000E226EFF0E236E0C
:10E39C000F0E246E000E256E000E266E000E276EDC
:10E3AC00000E286E000E296E000E2A6EFF0E2B6ECC
:10E3BC00000E2C6E000E2D6E000E2E6E3CEC6EF0D0
:10E3CC001B500501916FD6EC6CF0110E33EC6DF017
:10E3DC0001C51BF502C51CF51D6A1E6A000E1F6ED9
:10E3EC00000E206E000E216E000E226EFF0E236EAC
:10E3FC000F0E246E000E256E000E266E000E276E7C
:10E40C00000E286E000E296E000E2A6EFF0E2B6E6B
:10E41C00000E2C6E000E2D6E000E2E6E3CEC6EF06F
:10E42C001B500501926F680E2F6EE40EE82EFED77E
:10E43C002F2EFCD700D0BAEF7FF091C50BF592C50B
:10E44C000CF52C0E0D6E010E0E6E000E0F6E905113
:10E45C00FFEC6DF0E40E00D000D0E82EFCD700D01D
:10E46C0000D0D0BC3CEF72F03EEF72F069EF72F06E
:10E47C0005017A51D8B445EF72F047EF72F069EFAD
:10E48C0072F08851D8A44DEF72F04FEF72F069EF33
:10E49C0072F08951D8A455EF72F057EF72F069EF12
:10E4AC0072F08A51D8A45DEF72F05FEF72F069EFF1
:10E4BC0072F08B51D8A465EF72F067EF72F069EFD0
:10E4CC0072F0050E936FCEB86EEF72F070EF72F0C3
:10E4DC009BEF72F005017B51D8B477EF72F079EFB6
:10E4EC0072F09BEF72F08851D8A47FEF72F081EF3D
:10E4FC0072F09BEF72F08951D8A487EF72F089EF1C
:10E50C0072F09BEF72F08A51D8A48FEF72F091EFFA
:10E51C0072F09BEF72F08B51D8A497EF72F099EFD9
:10E52C0072F09BEF72F0060E936FD0B8A0EF72F002
:10E53C00A2EF72F0CDEF72F005017D51D8B4A9EFC6
:10E54C0072F0ABEF72F0CDEF72F08851D8A4B1EF4E
:10E55C0072F0B3EF72F0CDEF72F08951D8A4B9EF2D
:10E56C0072F0BBEF72F0CDEF72F08A51D8A4C1EF0C
:10E57C0072F0C3EF72F0CDEF72F08B51D8A4C9EFEB
:10E58C0072F0CBEF72F0CDEF72F0070E936FCFBE3F
:10E59C00D2EF72F0D4EF72F0FFEF72F005017C5104
:10E5AC00D8B4DBEF72F0DDEF72F0FFEF72F0885150
:10E5BC00D8A4E3EF72F0E5EF72F0FFEF72F089513F
:10E5CC00D8A4EBEF72F0EDEF72F0FFEF72F08A511E
:10E5DC00D8A4F3EF72F0F5EF72F0FFEF72F08B51FD
:10E5EC00D8A4FBEF72F0FDEF72F0FFEF72F0080EA3
:10E5FC00936F05018851D8A406EF73F008EF73F000
:10E60C0020EF73F08951D8A40EEF73F010EF73F074
:10E61C0020EF73F08A51D8A416EF73F018EF73F053
:10E62C0020EF73F08B51D8B41EEF73F020EF73F022
:10E63C0039EF73F0634B642BF40E631906E1640538
:10E64C00D8A42BEF73F02DEF73F039EF73F0000EAD
:10E65C00646F000E636F000E886F000E896F000EE2
:10E66C008A6F000E8B6F8851D8B43FEF73F041EF77
:10E67C0073F05EEF73F0752B0C0E7519D8A449EF7F
:10E68C0073F04BEF73F05EEF73F0000E756FC0AE6E
:10E69C0052EF73F056EF73F02F6A2F2A57EF73F087
:10E6AC002F6A2F322F32C0502F187F0B2F18C06EAD
:10E6BC0005018951D8B465EF73F067EF73F084EFFF
:10E6CC0073F0752B0C0E7519D8A46FEF73F071EFF6
:10E6DC0073F084EF73F0000E756FC0AA78EF73F0CF
:10E6EC007CEF73F02F6A2F2A7DEF73F02F6A2F3A8D
:10E6FC002F46C0502F18DF0B2F18C06E05018A5102
:10E70C00D8B48BEF73F08DEF73F0AAEF73F0752B19
:10E71C000C0E7519D8A495EF73F097EF73F0AAEF60
:10E72C0073F0000E756FBEAA9EEF73F0A2EF73F03C
:10E73C002F6A2F2AA3EF73F02F6A2F3A2F46BE5061
:10E74C002F18DF0B2F18BE6E05018B51D8B4B1EF0B
:10E75C0073F0B3EF73F0D1EF73F0752B0C0E7519DA
:10E76C00D8A4BBEF73F0BDEF73F0D1EF73F0000ED4
:10E77C00756FC0A6C4EF73F0C8EF73F02F6A2F2A21
:10E78C00C9EF73F02F6A2F462F462F46C0502F1813
:10E79C00F70B2F18C06E05018851D8A4D8EF73F071
:10E7AC00DAEF73F0F8EF73F08951D8A4E0EF73F05F
:10E7BC00E2EF73F0F8EF73F08A51D8A4E8EF73F03E
:10E7CC00EAEF73F0F8EF73F08B51D8A4F0EF73F01D
:10E7DC00F2EF73F0F8EF73F0000E756FC09EC09AF5
:10E7EC00BE9AC0968851D8B4FEEF73F000EF74F067
:10E7FC0041EF74F0D0BC05EF74F007EF74F041EF0B
:10E80C0074F07A51D8B40DEF74F00FEF74F041EF4F
:10E81C0074F090C58CF591C58DF592C58EF58FC5AC
:10E82C007EF5000E886F000E026E0F0E016E8EC507
:10E83C0003F54BEC6DF0000E026E0C0E016E8DC5E7
:10E84C0003F54BEC6DF0000E026E0B0E016E8CC5D9
:10E85C0003F54BEC6DF0000E026E110E016E7EC5D1
:10E86C0003F54BEC6DF0000E026E030E016E450EBF
:10E87C00036E4BEC6DF005018951D8B448EF74F080
:10E88C004AEF74F08BEF74F0CEB84FEF74F051EF99
:10E89C0074F08BEF74F07B51D8B457EF74F059EFE0
:10E8AC0074F08BEF74F090C57FF591C580F592C52F
:10E8BC0081F58FC56DF5000E896F000E026E140E7A
:10E8CC00016E81C503F54BEC6DF0000E026E130E5C
:10E8DC00016E80C503F54BEC6DF0000E026E120E4E
:10E8EC00016E7FC503F54BEC6DF0000E026E150E3C
:10E8FC00016E6DC503F54BEC6DF0000E026E040E4F
:10E90C00016E450E036E4BEC6DF005018A51D8B4C7
:10E91C0092EF74F094EF74F0D5EF74F0D0B899EFE7
:10E92C0074F09BEF74F0D5EF74F07D51D8B4A1EF77
:10E93C0074F0A3EF74F0D5EF74F090C582F591C527
:10E94C0083F592C584F58FC56EF5000E8A6F000EA7
:10E95C00026E190E016E84C503F54BEC6DF0000EC2
:10E96C00026E180E016E83C503F54BEC6DF0000EB4
:10E97C00026E160E016E82C503F54BEC6DF0000EA7
:10E98C00026E1B0E016E6EC503F54BEC6DF0000EA6
:10E99C00026E060E016E450E036E4BEC6DF005011A
:10E9AC008B51D8B4DCEF74F0DEEF74F01FEF75F020
:10E9BC00CFBEE3EF74F0E5EF74F01FEF75F07C5110
:10E9CC00D8B4EBEF74F0EDEF74F01FEF75F090C569
:10E9DC0085F591C586F592C587F58FC56FF5000E47
:10E9EC008B6F000E026E200E016E87C503F54BEC8B
:10E9FC006DF0000E026E1F0E016E86C503F54BEC1A
:10EA0C006DF0000E026E1E0E016E85C503F54BEC0B
:10EA1C006DF0000E026E220E016E6FC503F54BEC0D
:10EA2C006DF0000E026E080E016E450E036E4BEC7F
:10EA3C006DF0D0AC24EF75F026EF75F02BEF75F080
:10EA4C00000E0501666F000E656FCEA830EF75F0F5
:10EA5C0032EF75F037EF75F0000E0501686F000EA0
:10EA6C00676FD0A83CEF75F03EEF75F043EF75F093
:10EA7C00000E05016A6F000E696FCFAE48EF75F09E
:10EA8C004AEF75F078EF71F0000E05016C6F000E17
:10EA9C006B6F78EF71F0D0AC56EF75F058EF75F0F6
:10EAAC0079EF75F0C08E8DC50BF58EC50CF52C0E5F
:10EABC000D6E010E0E6E000E0F6E8C51FFEC6DF094
:10EACC00010E0501936F000E026E240E016E93C5AC
:10EADC0003F54BEC6DF0000E026E020E016E450E4E
:10EAEC00036E4BEC6DF0D0BC7EEF75F080EF75F0E3
:10EAFC0078EF71F00501654B662BFA0E65196611FE
:10EB0C00D8A48BEF75F08DEF75F078EF71F0000EE7
:10EB1C00666F000E656F010E886F000E936F000E0E
:10EB2C00026E240E016E93C503F54BEC6DF0000ED6
:10EB3C00026E020E016E450E036E4BEC6DF078EF1B
:10EB4C0071F0CEA8ACEF75F0AEEF75F0CFEF75F0BD
:10EB5C00C08A80C50BF581C50CF52C0E0D6E010E0F
:10EB6C000E6E000E0F6E7F51FFEC6DF0020E050164
:10EB7C00936F000E026E240E016E93C503F54BECE1
:10EB8C006DF0000E026E020E016E450E036E4BEC24
:10EB9C006DF0CEB8D4EF75F0D6EF75F078EF71F06C
:10EBAC000501674B682BFA0E67196811D8A4E1EFC1
:10EBBC0075F0E3EF75F078EF71F0000E686F000EF2
:10EBCC00676F010E896F000E936F95EF75F0D0A8EB
:10EBDC00F2EF75F0F4EF75F015EF76F0BE8A83C5A1
:10EBEC000BF584C50CF52C0E0D6E010E0E6E000E81
:10EBFC000F6E8251FFEC6DF0030E0501936F000E4A
:10EC0C00026E240E016E93C503F54BEC6DF0000EF5
:10EC1C00026E020E016E450E036E4BEC6DF0D0B819
:10EC2C001AEF76F01CEF76F078EF71F00501694B76
:10EC3C006A2BFA0E69196A11D8A427EF76F029EF1E
:10EC4C0076F078EF71F0000E6A6F000E696F010EAE
:10EC5C008A6F000E936F95EF75F0CFAE38EF76F0AC
:10EC6C003AEF76F05BEF76F0C08686C50BF587C57C
:10EC7C000CF52C0E0D6E010E0E6E000E0F6E8551E6
:10EC8C00FFEC6DF0040E0501936F000E026E240E66
:10EC9C00016E93C503F54BEC6DF0000E026E020E87
:10ECAC00016E450E036E4BEC6DF0CFBE60EF76F04F
:10ECBC0062EF76F078EF71F005016B4B6C2BFA0E6E
:10ECCC006B196C11D8A46DEF76F06FEF76F078EFCE
:10ECDC0071F0000E6C6F000E6B6F010E8B6F000EDF
:10ECEC00936F95EF75F0D0AC7EEF76F080EF76F009
:10ECFC0093EF76F0C09E000E936F000E026E240E02
:10ED0C00016E93C503F54BEC6DF0000E026E020E16
:10ED1C00016E450E036E4BEC6DF0D0BC98EF76F0A7
:10ED2C009AEF76F078EF71F00501654B662BFA0ED1
:10ED3C0065196611D8A4A5EF76F0A7EF76F078EFF9
:10ED4C0071F0000E666F000E656F010E706F010E94
:10ED5C00936F78EF71F0CEA8B6EF76F0B8EF76F04F
:10ED6C00CBEF76F0C09A000E936F000E026E240E5D
:10ED7C00016E93C503F54BEC6DF0000E026E020EA6
:10ED8C00016E450E036E4BEC6DF0CEB8D0EF76F005
:10ED9C00D2EF76F078EF71F00501674B682BFA0E25
:10EDAC0067196811D8A4DDEF76F0DFEF76F078EF15
:10EDBC0071F0000E686F000E676F010E716F020E1E
:10EDCC00936F78EF71F0D0A8EEEF76F0F0EF76F06D
:10EDDC0003EF77F0BE9A000E936F000E026E240EB6
:10EDEC00016E93C503F54BEC6DF0000E026E020E36
:10EDFC00016E450E036E4BEC6DF0D0B808EF77F05A
:10EE0C000AEF77F078EF71F00501694B6A2BFA0E77
:10EE1C0069196A11D8A415EF77F017EF77F078EF2E
:10EE2C0071F0000E6A6F000E696F010E726F030EA7
:10EE3C00936F78EF71F0CFAE26EF77F028EF77F085
:10EE4C003BEF77F0C096000E936F000E026E240E0F
:10EE5C00016E93C503F54BEC6DF0000E026E020EC5
:10EE6C00016E450E036E4BEC6DF0CFBE40EF77F0AC
:10EE7C0042EF77F078EF71F005016B4B6C2BFA0ECB
:10EE8C006B196C11D8A44DEF77F04FEF77F078EF4A
:10EE9C0071F0000E6C6F000E6B6F010E736F040E31
:10EEAC00936F78EF71F08DC50BF58EC50CF52C0EAC
:10EEBC000D6E010E0E6E000E0F6E8C51FFEC6DF090
:10EECC0005017051D8B46DEF77F06FEF77F08CEFE0
:10EEDC0077F0742B0C0E7419D8A477EF77F079EFC8
:10EEEC0077F08CEF77F0000E746FC0AE80EF77F098
:10EEFC0084EF77F02F6A2F2A85EF77F02F6A2F3265
:10EF0C002F32C0502F187F0B2F18C06ED0BC91EF32
:10EF1C0077F093EF77F0A6EF77F005017A51D8B43C
:10EF2C009AEF77F09CEF77F0A6EF77F07051D8A4BA
:10EF3C00A2EF77F0A4EF77F0A6EF77F0090E936FBE
:10EF4C00D0BCABEF77F0ADEF77F0F1EF77F00501D8
:10EF5C007A51D8B4B4EF77F0B6EF77F0F1EF77F0F1
:10EF6C007051D8B4BCEF77F0BEEF77F0F1EF77F0DB
:10EF7C00C08E000E706F000E766F000E776F000E55
:10EF8C00786F000E796F000E026E0F0E016E8EC53B
:10EF9C0003F54BEC6DF0000E026E0C0E016E8DC580
:10EFAC0003F54BEC6DF0000E026E0B0E016E8CC572
:10EFBC0003F54BEC6DF0000E026E110E016E7EC56A
:10EFCC0003F54BEC6DF0000E026E030E016E450E58
:10EFDC00036E4BEC6DF005017051D8B4F8EF77F07F
:10EFEC00FAEF77F0EEEF78F0FB0E8C252F6E306A8F
:10EFFC00FF0E30229051316E326A2F50315C3250FC
:10F00C00800A336E3050800A3358D8A010EF78F055
:10F01C0012EF78F02DEF78F090512F6E306A8C5102
:10F02C00316E326A050E3126000E32222F50315CC1
:10F03C003250800A336E3050800A3358D8A029EFF2
:10F04C0078F02BEF78F02DEF78F0010E766F76518B
:10F05C00D8B433EF78F035EF78F037EF78F090C51F
:10F06C008CF5FB0E7E252F6E306AFF0E30228F51F1
:10F07C00316E326A2F50315C3250800A336E305010
:10F08C00800A3358D8A04DEF78F04FEF78F06AEF44
:10F09C0078F08F512F6E306A7E51316E326A050EC8
:10F0AC003126000E32222F50315C3250800A336EE2
:10F0BC003050800A3358D8A066EF78F068EF78F0BB
:10F0CC006AEF78F0010E796F7951D8B470EF78F05F
:10F0DC0072EF78F074EF78F08FC57EF5FB0E8D250E
:10F0EC002F6E306AFF0E30229151316E326A2F50E2
:10F0FC00315C3250800A336E3050800A3358D8A0BD
:10F10C008AEF78F08CEF78F0A7EF78F091512F6EB2
:10F11C00306A8D51316E326A050E3126000E322264
:10F12C002F50315C3250800A336E3050800A335885
:10F13C00D8A0A3EF78F0A5EF78F0A7EF78F0010E48
:10F14C00776F7751D8B4ADEF78F0AFEF78F0B1EFCF
:10F15C0078F091C58DF5FB0E8E252F6E306AFF0E63
:10F16C0030229251316E326A2F50315C3250800A0B
:10F17C00336E3050800A3358D8A0C7EF78F0C9EFFF
:10F18C0078F0E4EF78F092512F6E306A8E51316E38
:10F19C00326A050E3126000E32222F50315C32506D
:10F1AC00800A336E3050800A3358D8A0E0EF78F0E4
:10F1BC00E2EF78F0E4EF78F0010E786F7851D8B484
:10F1CC00EAEF78F0ECEF78F0EEEF78F092C58EF590
:10F1DC00CEB8F3EF78F0F5EF78F01FEF79F07B51C4
:10F1EC00D8B4FBEF78F0FDEF78F01FEF79F0C09E0C
:10F1FC00C08A80C50BF581C50CF52C0E0D6E010E69
:10F20C000E6E000E0F6E7F51FFEC6DF0020E0501BD
:10F21C00936F000E026E240E016E93C503F54BEC3A
:10F22C006DF0000E026E020E016E450E036E4BEC7D
:10F23C006DF0D0B824EF79F026EF79F051EF79F03A
:10F24C0005017D51D8B42DEF79F02FEF79F051EF06
:10F25C0079F0C09EBE8A83C50BF584C50CF52C0EC7
:10F26C000D6E010E0E6E000E0F6E8251FFEC6DF0E6
:10F27C00030E0501936F000E026E240E016E93C5F2
:10F28C0003F54BEC6DF0000E026E020E016E450E96
:10F29C00036E4BEC6DF0CFBE56EF79F058EF79F072
:10F2AC0078EF71F005017C51D8B45FEF79F061EF24
:10F2BC0079F078EF71F0C09EC08686C50BF587C5D6
:10F2CC000CF52C0E0D6E010E0E6E000E0F6E855190
:10F2DC00FFEC6DF0040E0501936F95EF75F080C592
:10F2EC000BF581C50CF52C0E0D6E010E0E6E000E7D
:10F2FC000F6E7F51FFEC6DF005017151D8B489EFA1
:10F30C0079F08BEF79F0A8EF79F0742B0C0E74195F
:10F31C00D8A493EF79F095EF79F0A8EF79F0000E7F
:10F32C00746FC0AA9CEF79F0A0EF79F02F6A2F2AA6
:10F33C00A1EF79F02F6A2F3A2F46C0502F18DF0B10
:10F34C002F18C06ECEB8ADEF79F0AFEF79F0C2EFF9
:10F35C0079F005017B51D8B4B6EF79F0B8EF79F0BC
:10F36C00C2EF79F07151D8A4BEEF79F0C0EF79F00B
:10F37C00C2EF79F00A0E936FCEB8C7EF79F0C9EFF0
:10F38C0079F00DEF7AF005017B51D8B4D0EF79F01C
:10F39C00D2EF79F00DEF7AF07151D8B4D8EF79F053
:10F3AC00DAEF79F00DEF7AF0C08A000E716F000E73
:10F3BC00766F000E776F000E786F000E796F000E6F
:10F3CC00026E140E016E8EC503F54BEC6DF0000E43
:10F3DC00026E130E016E8DC503F54BEC6DF0000E35
:10F3EC00026E120E016E8CC503F54BEC6DF0000E27
:10F3FC00026E150E016E7EC503F54BEC6DF0000E22
:10F40C00026E040E016E450E036E4BEC6DF00501A1
:10F41C007151D8B414EF7AF016EF7AF00AEF7BF052
:10F42C00FB0E7F252F6E306AFF0E30229051316E0D
:10F43C00326A2F50315C3250800A336E3050800A61
:10F44C003358D8A02CEF7AF02EEF7AF049EF7AF0FF
:10F45C0090512F6E306A7F51316E326A050E312613
:10F46C00000E32222F50315C3250800A336E3050F5
:10F47C00800A3358D8A045EF7AF047EF7AF049EF7D
:10F48C007AF0010E766F7651D8B44FEF7AF051EFD7
:10F49C007AF053EF7AF090C57FF5FB0E6D252F6E49
:10F4AC00306AFF0E30228F51316E326A2F50315C30
:10F4BC003250800A336E3050800A3358D8A069EF2E
:10F4CC007AF06BEF7AF086EF7AF08F512F6E306A0C
:10F4DC006D51316E326A050E3126000E32222F50DC
:10F4EC00315C3250800A336E3050800A3358D8A0C9
:10F4FC0082EF7AF084EF7AF086EF7AF0010E796F72
:10F50C007951D8B48CEF7AF08EEF7AF090EF7AF0E4
:10F51C008FC56DF5FB0E80252F6E306AFF0E3022E5
:10F52C009151316E326A2F50315C3250800A336EF9
:10F53C003050800A3358D8A0A6EF7AF0A8EF7AF0B2
:10F54C00C3EF7AF091512F6E306A8051316E326A6E
:10F55C00050E3126000E32222F50315C3250800ABB
:10F56C00336E3050800A3358D8A0BFEF7AF0C1EF19
:10F57C007AF0C3EF7AF0010E776F7751D8B4C9EFF8
:10F58C007AF0CBEF7AF0CDEF7AF091C580F5FB0EE7
:10F59C0081252F6E306AFF0E30229251316E326A05
:10F5AC002F50315C3250800A336E3050800A335801
:10F5BC00D8A0E3EF7AF0E5EF7AF000EF7BF0925110
:10F5CC002F6E306A8151316E326A050E3126000E73
:10F5DC0032222F50315C3250800A336E3050800A08
:10F5EC003358D8A0FCEF7AF0FEEF7AF000EF7BF006
:10F5FC00010E786F7851D8B406EF7BF008EF7BF0F2
:10F60C000AEF7BF092C581F5D0BC0FEF7BF011EFC8
:10F61C007BF03BEF7BF07A51D8B417EF7BF019EF0E
:10F62C007BF03BEF7BF0C09AC08E8DC50BF58EC581
:10F63C000CF52C0E0D6E010E0E6E000E0F6E8C5115
:10F64C00FFEC6DF0010E0501936F000E026E240E9F
:10F65C00016E93C503F54BEC6DF0000E026E020EBD
:10F66C00016E450E036E4BEC6DF0D0B840EF7BF0A5
:10F67C0042EF7BF06DEF7BF005017D51D8B449EF83
:10F68C007BF04BEF7BF06DEF7BF0C09ABE8A83C5AD
:10F69C000BF584C50CF52C0E0D6E010E0E6E000EC6
:10F6AC000F6E8251FFEC6DF0030E0501936F000E8F
:10F6BC00026E240E016E93C503F54BEC6DF0000E3B
:10F6CC00026E020E016E450E036E4BEC6DF0CFBE5A
:10F6DC0072EF7BF074EF7BF078EF71F005017C51E9
:10F6EC00D8B47BEF7BF07DEF7BF078EF71F0C09AB4
:10F6FC00C08686C50BF587C50CF52C0E0D6E010E5C
:10F70C000E6E000E0F6E8551FFEC6DF070EF79F000
:10F71C0083C50BF584C50CF52C0E0D6E010E0E6E0B
:10F72C00000E0F6E8251FFEC6DF005017251D8B4D2
:10F73C00A2EF7BF0A4EF7BF0C1EF7BF0742B0C0EEF
:10F74C007419D8A4ACEF7BF0AEEF7BF0C1EF7BF07B
:10F75C00000E746FBEAAB5EF7BF0B9EF7BF02F6A89
:10F76C002F2ABAEF7BF02F6A2F3A2F46BE502F1854
:10F77C00DF0B2F18BE6ED0B8C6EF7BF0C8EF7BF056
:10F78C00DBEF7BF005017D51D8B4CFEF7BF0D1EFEF
:10F79C007BF0DBEF7BF07251D8A4D7EF7BF0D9EF85
:10F7AC007BF0DBEF7BF00B0E936FD0B8E0EF7BF0D0
:10F7BC00E2EF7BF026EF7CF005017D51D8B4E9EF48
:10F7CC007BF0EBEF7BF026EF7CF07251D8B4F1EFCD
:10F7DC007BF0F3EF7BF026EF7CF0BE8A000E726FAD
:10F7EC00000E766F000E776F000E786F000E796F3B
:10F7FC00000E026E190E016E8EC503F54BEC6DF00A
:10F80C00000E026E180E016E8DC503F54BEC6DF0FB
:10F81C00000E026E160E016E8CC503F54BEC6DF0EE
:10F82C00000E026E1B0E016E7EC503F54BEC6DF0E7
:10F83C00000E026E060E016E450E036E4BEC6DF063
:10F84C00000ED0B8010E05017D6F7251D8B431EFA6
:10F85C007CF033EF7CF027EF7DF0FB0E82252F6ED2
:10F86C00306AFF0E30229051316E326A2F50315C6B
:10F87C003250800A336E3050800A3358D8A049EF8A
:10F88C007CF04BEF7CF066EF7CF090512F6E306A81
:10F89C008251316E326A050E3126000E32222F5003
:10F8AC00315C3250800A336E3050800A3358D8A005
:10F8BC0062EF7CF064EF7CF066EF7CF0010E766F0B
:10F8CC007651D8B46CEF7CF06EEF7CF070EF7CF07E
:10F8DC0090C582F5FB0E6E252F6E306AFF0E30221E
:10F8EC008F51316E326A2F50315C3250800A336E38
:10F8FC003050800A3358D8A086EF7CF088EF7CF02B
:10F90C00A3EF7CF08F512F6E306A6E51316E326ADC
:10F91C00050E3126000E32222F50315C3250800AF7
:10F92C00336E3050800A3358D8A09FEF7CF0A1EF93
:10F93C007CF0A3EF7CF0010E796F7951D8B4A9EF6C
:10F94C007CF0ABEF7CF0ADEF7CF08FC56EF5FB0E71
:10F95C0083252F6E306AFF0E30229151316E326A40
:10F96C002F50315C3250800A336E3050800A33583D
:10F97C00D8A0C3EF7CF0C5EF7CF0E0EF7CF09151A8
:10F98C002F6E306A8351316E326A050E3126000EAD
:10F99C0032222F50315C3250800A336E3050800A44
:10F9AC003358D8A0DCEF7CF0DEEF7CF0E0EF7CF09D
:10F9BC00010E776F7751D8B4E6EF7CF0E8EF7CF06E
:10F9CC00EAEF7CF091C583F5FB0E84252F6E306A2F
:10F9DC00FF0E30229251316E326A2F50315C325010
:10F9EC00800A336E3050800A3358D8A000EF7DF077
:10F9FC0002EF7DF01DEF7DF092512F6E306A845135
:10FA0C00316E326A050E3126000E32222F50315CD7
:10FA1C003250800A336E3050800A3358D8A019EF18
:10FA2C007DF01BEF7DF01DEF7DF0010E786F7851AE
:10FA3C00D8B423EF7DF025EF7DF027EF7DF092C554
:10FA4C0084F5D0BC2CEF7DF02EEF7DF058EF7DF0DF
:10FA5C007A51D8B434EF7DF036EF7DF058EF7DF06D
:10FA6C00BE9AC08E8DC50BF58EC50CF52C0E0D6E89
:10FA7C00010E0E6E000E0F6E8C51FFEC6DF0010E30
:10FA8C000501936F000E026E240E016E93C503F5F3
:10FA9C004BEC6DF0000E026E020E016E450E036E05
:10FAAC004BEC6DF0CEB85DEF7DF05FEF7DF08AEF43
:10FABC007DF005017B51D8B466EF7DF068EF7DF0E9
:10FACC008AEF7DF0BE9AC08A80C50BF581C50CF516
:10FADC002C0E0D6E010E0E6E000E0F6E7F51FFEC94
:10FAEC006DF0020E0501936F000E026E240E016E76
:10FAFC0093C503F54BEC6DF0000E026E020E016E19
:10FB0C00450E036E4BEC6DF0CFBE8FEF7DF091EF99
:10FB1C007DF078EF71F005017C51D8B498EF7DF051
:10FB2C009AEF7DF078EF71F0BE9AC08686C50BF522
:10FB3C0087C50CF52C0E0D6E010E0E6E000E0F6EA1
:10FB4C008551FFEC6DF070EF79F086C50BF587C52C
:10FB5C000CF52C0E0D6E010E0E6E000E0F6E8551F7
:10FB6C00FFEC6DF005017351D8B4BFEF7DF0C1EF20
:10FB7C007DF0DFEF7DF0742B0C0E7419D8A4C9EF57
:10FB8C007DF0CBEF7DF0DFEF7DF0000E746FC0A643
:10FB9C00D2EF7DF0D6EF7DF02F6A2F2AD7EF7DF0D4
:10FBAC002F6A2F462F462F46C0502F18F70B2F18B1
:10FBBC00C06ECFBEE4EF7DF0E6EF7DF0F9EF7DF0A7
:10FBCC0005017C51D8B4EDEF7DF0EFEF7DF0F9EF4E
:10FBDC007DF07351D8A4F5EF7DF0F7EF7DF0F9EFE0
:10FBEC007DF00C0E936FCFBEFEEF7DF000EF7EF03C
:10FBFC0044EF7EF005017C51D8B407EF7EF009EF9D
:10FC0C007EF044EF7EF07351D8B40FEF7EF011EF1D
:10FC1C007EF044EF7EF0C086000E736F000E766FA0
:10FC2C00000E776F000E786F000E796F000E026E6B
:10FC3C00200E016E8EC503F54BEC6DF0000E026EBE
:10FC4C001F0E016E8DC503F54BEC6DF0000E026EB0
:10FC5C001E0E016E8CC503F54BEC6DF0000E026EA2
:10FC6C00220E016E7EC503F54BEC6DF0000E026E9C
:10FC7C00080E016E450E036E4BEC6DF005017351D1
:10FC8C00D8B44BEF7EF04DEF7EF041EF7FF0FB0EE2
:10FC9C0085252F6E306AFF0E30229051316E326AFC
:10FCAC002F50315C3250800A336E3050800A3358FA
:10FCBC00D8A063EF7EF065EF7EF080EF7EF0905180
:10FCCC002F6E306A8551316E326A050E3126000E68
:10FCDC0032222F50315C3250800A336E3050800A01
:10FCEC003358D8A07CEF7EF07EEF7EF080EF7EF074
:10FCFC00010E766F7651D8B486EF7EF088EF7EF0E9
:10FD0C008AEF7EF090C585F5FB0E6F252F6E306A5D
:10FD1C00FF0E30228F51316E326A2F50315C3250CF
:10FD2C00800A336E3050800A3358D8A0A0EF7EF092
:10FD3C00A2EF7EF0BDEF7EF08F512F6E306A6F51C7
:10FD4C00316E326A050E3126000E32222F50315C94
:10FD5C003250800A336E3050800A3358D8A0B9EF35
:10FD6C007EF0BBEF7EF0BDEF7EF0010E796F795126
:10FD7C00D8B4C3EF7EF0C5EF7EF0C7EF7EF08FC531
:10FD8C006FF5FB0E86252F6E306AFF0E30229151D7
:10FD9C00316E326A2F50315C3250800A336E3050E3
:10FDAC00800A3358D8A0DDEF7EF0DFEF7EF0FAEF5B
:10FDBC007EF091512F6E306A8651316E326A050E8B
:10FDCC003126000E32222F50315C3250800A336EB5
:10FDDC003050800A3358D8A0F6EF7EF0F8EF7EF062
:10FDEC00FAEF7EF0010E776F7751D8B400EF7FF009
:10FDFC0002EF7FF004EF7FF091C586F5FB0E8725AF
:10FE0C002F6E306AFF0E30229251316E326A2F50B3
:10FE1C00315C3250800A336E3050800A3358D8A08F
:10FE2C001AEF7FF01CEF7FF037EF7FF092512F6EBF
:10FE3C00306A8751316E326A050E3126000E32223D
:10FE4C002F50315C3250800A336E3050800A335858
:10FE5C00D8A033EF7FF035EF7FF037EF7FF0010E56
:10FE6C00786F7851D8B43DEF7FF03FEF7FF041EFE2
:10FE7C007FF092C587F5D0BC46EF7FF048EF7FF05E
:10FE8C0064EF7FF07A51D8B44EEF7FF050EF7FF0F3
:10FE9C0064EF7FF0C096C08E010E936F000E026E61
:10FEAC00240E016E93C503F54BEC6DF0000E026E43
:10FEBC00020E016E450E036E4BEC6DF0CEB869EF81
:10FECC007FF06BEF7FF096EF7FF005017B51D8B49C
:10FEDC0072EF7FF074EF7FF096EF7FF0C096C08AE0
:10FEEC0080C50BF581C50CF52C0E0D6E010E0E6E3A
:10FEFC00000E0F6E7F51FFEC6DF0020E0501936F3B
:10FF0C00000E026E240E016E93C503F54BEC6DF0E2
:10FF1C00000E026E020E016E450E036E4BEC6DF080
:10FF2C00D0B89BEF7FF09DEF7FF078EF71F005017B
:10FF3C007D51D8B4A4EF7FF0A6EF7FF078EF71F08D
:10FF4C00C096BE8A83C50BF584C50CF52C0E0D6EC0
:10FF5C00010E0E6E000E0F6E8251FFEC6DF0030E53
:10FF6C000501936F95EF75F0050193512F6E306A73
:10FF7C003050000AD8B4C5EF7FF078EF71F02F50F5
:10FF8C00000AD8B423EF72F0010AD8B459EF77F015
:10FF9C00030AD8B475EF79F0010AD8B48EEF7BF070
:10FFAC00070AD8B4ABEF7DF0010AD8B451EF75F065
:10FFBC00030AD8B4A7EF75F0010AD8B4EDEF75F0C9
:10FFCC000F0AD8B433EF76F0010AD8B479EF76F093
:10FFDC00030AD8B4B1EF76F0010AD8B4E9EF76F0A1
:10FFEC00070AD8B421EF77F078EF71F0FEEF7FF0CD
:04FFFC00E9EF6CF0CD
:020000040020DA
:10000000FF0FFF0FFF0FFF0FFF0FFF0FFF0FFF0F80
:10001000FF0FFF0FFF0FFF0FFF0FFF0FFF0FFF0F70
:020000040030CA
:0A0000008CFFF7FF9FFFFFFFFFFFDB
:00000001FF
